{
	"data": {
		"bytecode": {
			"linkReferences": {},
			"object": "6000805560c0604052600b60808190526a2437b732bca130b233b2b960a91b60a0908152620000329160019190620006ba565b50604080518082019091526004808252634842444360e01b60209092019182526200006091600291620006ba565b506003805460ff1990811660121790915560088054821690556b033b2e3c9fd0803ce800000060095560196021556022805482166001908117909155610e106023556107086025556027805462ffffff19168217905560298054909216179055348015620000cd57600080fd5b506040516200479e3803806200479e833981016040819052620000f091620007a2565b426004819055600580546001600160a01b038086166001600160a01b031992831617909255600680549285169290911691909117905582908290620001399062069780620007da565b6007555050601780546001600160a01b0319163390811790915560405181906000907f8be0079c531659141344cd1fd0a4f28419497f9722a3daafe3b4186f6b6457e0908290a350737a250d5630b4cf539739df2c5dacb4c659f2488d620001a381600162000542565b601880546001600160a01b0319166001600160a01b0383169081179091556040805163c45a015560e01b8152905163c45a015591600480820192602092909190829003018186803b158015620001f857600080fd5b505afa1580156200020d573d6000803e3d6000fd5b505050506040513d601f19601f820116820180604052508101906200023391906200077d565b6001600160a01b031663c9c6539630836001600160a01b031663ad5c46486040518163ffffffff1660e01b815260040160206040518083038186803b1580156200027c57600080fd5b505afa15801562000291573d6000803e3d6000fd5b505050506040513d601f19601f82011682018060405250810190620002b791906200077d565b6040516001600160e01b031960e085901b1681526001600160a01b03928316600482015291166024820152604401602060405180830381600087803b1580156200030057600080fd5b505af115801562000315573d6000803e3d6000fd5b505050506040513d601f19601f820116820180604052508101906200033b91906200077d565b601980546001600160a01b0319166001600160a01b039290921691821790556200036790600162000542565b60195462000380906001600160a01b03166001620005bc565b6c0c9f2c9cd04674edea4000000060388190556006906001906005908290600990600790839081906103e890620003b8908362000818565b620003c49190620007f5565b601d556038546103e890620003db90600562000818565b620003e79190620007f5565b601f5560385461271090620003fe90600562000818565b6200040a9190620007f5565b601e55602b889055602c869055602e879055602d859055846200042e878a620007da565b6200043a9190620007da565b602a556030849055603183905560338290556032819055806200045e8486620007da565b6200046a9190620007da565b602f55601754601c80546001600160a01b039092166001600160a01b03199283168117909155601a8054831682179055601b8054909216731468916fa6ff6dc62d1c3b537da4308cd249799f17909155620004c790600162000610565b620004d430600162000610565b620004e361dead600162000610565b62000502620004fa6017546001600160a01b031690565b600162000542565b6200050f30600162000542565b6200051e61dead600162000542565b5050603854336000908152602080526040902055506200088d975050505050505050565b6017546001600160a01b03163314620005915760405162461bcd60e51b815260206004820181905260248201526000805160206200477e83398151915260448201526064015b60405180910390fd5b6001600160a01b03919091166000908152603a60205260409020805460ff1916911515919091179055565b6001600160a01b0382166000818152603b6020526040808220805460ff191685151590811790915590519092917fffa9187bf1f18bf477bd0ea1bcbb64e93b6a98132473929edfce215cd9b16fab91a35050565b6017546001600160a01b031633146200065b5760405162461bcd60e51b815260206004820181905260248201526000805160206200477e833981519152604482015260640162000588565b6001600160a01b038216600081815260396020908152604091829020805460ff191685151590811790915591519182527f9d8f7706ea1113d1a167b526eca956215946dd36cc7df39eb16180222d8b5df7910160405180910390a25050565b828054620006c8906200083a565b90600052602060002090601f016020900481019282620006ec576000855562000737565b82601f106200070757805160ff191683800117855562000737565b8280016001018555821562000737579182015b82811115620007375782518255916020019190600101906200071a565b506200074592915062000749565b5090565b5b808211156200074557600081556001016200074a565b80516001600160a01b03811681146200077857600080fd5b919050565b6000602082840312156200079057600080fd5b6200079b8262000760565b9392505050565b60008060408385031215620007b657600080fd5b620007c18362000760565b9150620007d16020840162000760565b90509250929050565b60008219821115620007f057620007f062000877565b500190565b6000826200081357634e487b7160e01b600052601260045260246000fd5b500490565b600081600019048311821515161562000835576200083562000877565b500290565b600181811c908216806200084f57607f821691505b602082108114156200087157634e487b7160e01b600052602260045260246000fd5b50919050565b634e487b7160e01b600052601160045260246000fd5b613ee1806200089d6000396000f3fe6080604052600436106105275760003560e01c80638a8c523c116102a2578063bbc0c74211610165578063d85ba063116100cc578063f11a24d311610085578063f11a24d314611005578063f2fde38b1461101b578063f63743421461103b578063f6f7059414611051578063f8b45b0514611071578063fe72b27a1461108757600080fd5b8063d85ba06314610f32578063dd62ed3e14610f48578063e2f4560514610f8e578063e593c34b14610fa4578063e884f26014610fda578063efebc72014610fef57600080fd5b8063c876d0b91161011e578063c876d0b914610e8a578063c8c8ebe414610ea4578063cb8fda1c14610eba578063d0dc0d8014610ed0578063d257b34f14610efd578063d643391f14610f1d57600080fd5b8063bbc0c74214610dbb578063c024666814610dda578063c17b5b8c14610dfa578063c18bc19514610e1a578063c31db90614610e3a578063c57db2c014610e5a57600080fd5b80639ec22c0e11610209578063a8ce45a9116101c2578063a8ce45a914610cdb578063a9059cbb14610cfb578063aab7c9eb14610d1b578063aacebbe314610d4b578063b62496f514610d6b578063b7023c2c14610d9b57600080fd5b80639ec22c0e14610c365780639fccce3214610c4c578063a0d82dc514610c62578063a457c2d714610c78578063a4c82a0014610c98578063a73d1b0614610cae57600080fd5b806394e0b68a1161025b57806394e0b68a14610ba157806395d89b4114610bb65780639a7a23d614610bcb5780639aa13f0414610beb5780639c3b4fdc14610c005780639da37a1114610c1657600080fd5b80638a8c523c14610af85780638da5cb5b14610b0d5780638ea5220f14610b2b5780639213691314610b4b578063923e707414610b61578063924de9b714610b8157600080fd5b80633eeaeafc116103ea57806370a082311161035157806375f0a8741161030a57806375f0a87414610a5f5780637bce5a0414610a7f5780638091f3bf14610a955780638095d56414610aaf57806387ceff0914610acf5780638a70262514610ae257600080fd5b806370a08231146109bf578063715018a6146109df578063730c1888146109f4578063748e2a4314610a14578063751039fc14610a2a5780637571336a14610a3f57600080fd5b80636177fd18116103a35780636177fd18146108fa57806362ad0b151461091a57806366a267a91461092f57806367cc910f1461095c5780636a486a8e146109895780636ddd17131461099f57600080fd5b80633eeaeafc1461083257806349bd5a5e146108525780634a62bb65146108725780634fbee1931461088c57806359357df5146108c5578063611cda25146108da57600080fd5b80631f3fed8f1161048e57806327c8f8351161044757806327c8f8351461077d5780632c3e486c146107935780632e82f1a0146107a9578063313ce567146107c357806337425fa0146107e5578063395093511461081257600080fd5b80631f3fed8f146106ba578063203e727e146106d057806321ac17f8146106f057806323b872dd1461071d57806323c40de21461073d5780632681eb811461075d57600080fd5b806310d5de53116104e057806310d5de53146105fa5780631694505e1461062a57806318160ddd14610662578063184c16c514610678578063199ffc721461068e5780631a8145bb146106a457600080fd5b806301440c9014610533578063043cbe5b1461055c57806306fdde031461057c578063095ea7b31461059e5780630cc874c7146105ce5780630f9154b5146105e557600080fd5b3661052e57005b600080fd5b34801561053f57600080fd5b5061054960375481565b6040519081526020015b60405180910390f35b34801561056857600080fd5b50610549610577366004613b24565b6110a7565b34801561058857600080fd5b5061059161116c565b6040516105539190613bab565b3480156105aa57600080fd5b506105be6105b9366004613a8e565b6111fe565b6040519015158152602001610553565b3480156105da57600080fd5b506105e3611214565b005b3480156105f157600080fd5b506105be6113d4565b34801561060657600080fd5b506105be6106153660046139cd565b603a6020526000908152604090205460ff1681565b34801561063657600080fd5b5060185461064a906001600160a01b031681565b6040516001600160a01b039091168152602001610553565b34801561066e57600080fd5b5061054960385481565b34801561068457600080fd5b5061054960255481565b34801561069a57600080fd5b5061054960215481565b3480156106b057600080fd5b5061054960355481565b3480156106c657600080fd5b5061054960345481565b3480156106dc57600080fd5b506105e36106eb366004613af2565b6113e4565b3480156106fc57600080fd5b5061054961070b3660046139cd565b600e6020526000908152604090205481565b34801561072957600080fd5b506105be610738366004613a1b565b6114bc565b34801561074957600080fd5b506105e36107583660046139cd565b61156d565b34801561076957600080fd5b5060055461064a906001600160a01b031681565b34801561078957600080fd5b5061064a61dead81565b34801561079f57600080fd5b5061054960235481565b3480156107b557600080fd5b506022546105be9060ff1681565b3480156107cf57600080fd5b5060035460405160ff9091168152602001610553565b3480156107f157600080fd5b506105496108003660046139cd565b600c6020526000908152604090205481565b34801561081e57600080fd5b506105be61082d366004613a8e565b6115b2565b34801561083e57600080fd5b506105e361084d3660046139cd565b6115e9565b34801561085e57600080fd5b5060195461064a906001600160a01b031681565b34801561087e57600080fd5b506027546105be9060ff1681565b34801561089857600080fd5b506105be6108a73660046139cd565b6001600160a01b031660009081526039602052604090205460ff1690565b3480156108d157600080fd5b506105e3611670565b3480156108e657600080fd5b5061064a6108f5366004613af2565b61196c565b34801561090657600080fd5b506105be6109153660046139cd565b611996565b34801561092657600080fd5b506105e36119b4565b34801561093b57600080fd5b5061054961094a3660046139cd565b60136020526000908152604090205481565b34801561096857600080fd5b506105496109773660046139cd565b60106020526000908152604090205481565b34801561099557600080fd5b50610549602f5481565b3480156109ab57600080fd5b506027546105be9062010000900460ff1681565b3480156109cb57600080fd5b506105496109da3660046139cd565b6119c1565b3480156109eb57600080fd5b506105e3611a20565b348015610a0057600080fd5b506105e3610a0f366004613b46565b611a94565b348015610a2057600080fd5b5061054960335481565b348015610a3657600080fd5b506105be611bbd565b348015610a4b57600080fd5b506105e3610a5a366004613a57565b611bfa565b348015610a6b57600080fd5b50601a5461064a906001600160a01b031681565b348015610a8b57600080fd5b50610549602b5481565b348015610aa157600080fd5b506008546105be9060ff1681565b348015610abb57600080fd5b506105e3610aca366004613b7f565b611c4f565b348015610adb57600080fd5b5042610549565b348015610aee57600080fd5b5061054960095481565b348015610b0457600080fd5b506105e3611d05565b348015610b1957600080fd5b506017546001600160a01b031661064a565b348015610b3757600080fd5b50601b5461064a906001600160a01b031681565b348015610b5757600080fd5b5061054960305481565b348015610b6d57600080fd5b5060065461064a906001600160a01b031681565b348015610b8d57600080fd5b506105e3610b9c366004613ab8565b611d46565b348015610bad57600080fd5b50601454610549565b348015610bc257600080fd5b50610591611d8c565b348015610bd757600080fd5b506105e3610be6366004613a57565b611d9b565b348015610bf757600080fd5b50600454610549565b348015610c0c57600080fd5b50610549602d5481565b348015610c2257600080fd5b506105e3610c31366004613af2565b611e53565b348015610c4257600080fd5b5061054960265481565b348015610c5857600080fd5b5061054960365481565b348015610c6e57600080fd5b5061054960325481565b348015610c8457600080fd5b506105be610c93366004613a8e565b611e5d565b348015610ca457600080fd5b5061054960245481565b348015610cba57600080fd5b50610549610cc93660046139cd565b60126020526000908152604090205481565b348015610ce757600080fd5b506105e3610cf63660046139cd565b611ef8565b348015610d0757600080fd5b506105be610d16366004613a8e565b61205e565b348015610d2757600080fd5b506105be610d363660046139cd565b60156020526000908152604090205460ff1681565b348015610d5757600080fd5b506105e3610d663660046139cd565b61206b565b348015610d7757600080fd5b506105be610d863660046139cd565b603b6020526000908152604090205460ff1681565b348015610da757600080fd5b50601c5461064a906001600160a01b031681565b348015610dc757600080fd5b506027546105be90610100900460ff1681565b348015610de657600080fd5b506105e3610df5366004613a57565b6120f2565b348015610e0657600080fd5b506105e3610e15366004613b7f565b61217b565b348015610e2657600080fd5b506105e3610e35366004613af2565b61222c565b348015610e4657600080fd5b5060165461064a906001600160a01b031681565b348015610e6657600080fd5b506105be610e753660046139cd565b600d6020526000908152604090205460ff1681565b348015610e9657600080fd5b506029546105be9060ff1681565b348015610eb057600080fd5b50610549601d5481565b348015610ec657600080fd5b50610549602e5481565b348015610edc57600080fd5b50610549610eeb3660046139cd565b60116020526000908152604090205481565b348015610f0957600080fd5b506105be610f18366004613af2565b6122f8565b348015610f2957600080fd5b506105e3612445565b348015610f3e57600080fd5b50610549602a5481565b348015610f5457600080fd5b50610549610f633660046139e8565b6001600160a01b039182166000908152600b6020908152604080832093909416825291909152205490565b348015610f9a57600080fd5b50610549601e5481565b348015610fb057600080fd5b5061064a610fbf3660046139cd565b600f602052600090815260409020546001600160a01b031681565b348015610fe657600080fd5b506105be612450565b348015610ffb57600080fd5b5061054960075481565b34801561101157600080fd5b50610549602c5481565b34801561102757600080fd5b506105e36110363660046139cd565b61248d565b34801561104757600080fd5b5061054960315481565b34801561105d57600080fd5b506105e361106c3660046139cd565b6115a5565b34801561107d57600080fd5b50610549601f5481565b34801561109357600080fd5b506105be6110a2366004613af2565b612578565b6000806110b3846127bb565b905060006110d06501f331628785683635c9adc5dea0000061281e565b905060006110de60026127bb565b90505b841561114c576110f2600286613e31565b600114156111225761110e61110784846128a6565b8490612a99565b925061111b600186613db3565b94506110e1565b61113f61112f83806128a6565b61113983856128a6565b90612a99565b915061111b600286613cbc565b8561115684612b06565b6111609190613db3565b93505050505b92915050565b60606001805461117b90613de1565b80601f01602080910402602001604051908101604052809291908181526020018280546111a790613de1565b80156111f45780601f106111c9576101008083540402835291602001916111f4565b820191906000526020600020905b8154815290600101906020018083116111d757829003601f168201915b5050505050905090565b600061120b338484612b1c565b50600192915050565b6007544210156112565760405162461bcd60e51b81526020600482015260086024820152674e6f74526561647960c01b60448201526064015b60405180910390fd5b60085460ff161561129b5760405162461bcd60e51b815260206004820152600f60248201526e105b1c9958591e53185d5b98da1959608a1b604482015260640161124d565b600660009054906101000a90046001600160a01b03166001600160a01b031663165505c16040518163ffffffff1660e01b8152600401600060405180830381600087803b1580156112eb57600080fd5b505af11580156112ff573d6000803e3d6000fd5b5050505060005460095411156113c557600080546009546113209190613db3565b6006546001600160a01b03166000908152600a6020526040902054909150611349908290613c76565b6006546001600160a01b03166000908152600a602052604081209190915580548291908190611379908490613c76565b90915550506006546040518281526001600160a01b03909116906000907fddf252ad1be2c89b69c2b068fc378daa952ba7f163c4a11628f55a4df523b3ef9060200160405180910390a3505b6008805460ff19166001179055565b60006113df33612c40565b905090565b6017546001600160a01b0316331461140e5760405162461bcd60e51b815260040161124d90613c00565b670de0b6b3a76400006103e860385460016114299190613d55565b6114339190613cbc565b61143d9190613cbc565b8110156114a45760405162461bcd60e51b815260206004820152602f60248201527f43616e6e6f7420736574206d61785472616e73616374696f6e416d6f756e742060448201526e6c6f776572207468616e20302e312560881b606482015260840161124d565b6114b681670de0b6b3a7640000613d55565b601d5550565b60006114c9848484612d67565b6001600160a01b0384166000908152600b602090815260408083203384529091529020548281101561154e5760405162461bcd60e51b815260206004820152602860248201527f45524332303a207472616e7366657220616d6f756e74206578636565647320616044820152676c6c6f77616e636560c01b606482015260840161124d565b611562853361155d8685613db3565b612b1c565b506001949350505050565b601454600c14801561159857506001600160a01b03811660009081526015602052604090205460ff16155b156115a5576115a5611670565b6115af8133613062565b50565b336000818152600b602090815260408083206001600160a01b0387168452909152812054909161120b91859061155d908690613c76565b6017546001600160a01b031633146116135760405162461bcd60e51b815260040161124d90613c00565b601c546040516001600160a01b03918216918316907f7aed03a461ac9a82c523921aec0d4b0ae7365a310adc67f94526ba434e2d884790600090a3601c80546001600160a01b0319166001600160a01b0392909216919091179055565b601454600c146116c25760405162461bcd60e51b815260206004820152601860248201527f566f74696e67204974657261746f72206e6f742066756c6c0000000000000000604482015260640161124d565b6116ca613965565b60005b600c81101561173557601481815481106116e9576116e9613e87565b6000918252602090912001546001600160a01b03168282600c811061171057611710613e87565b6001600160a01b0390921660209290920201528061172d81613e16565b9150506116cd565b5060015b600c8110156118945760008282600c811061175657611756613e87565b602090810291909101516001600160a01b03811660009081526013909252604082205490925090611788600185613db3565b905060005b82601360008885600c81106117a4576117a4613e87565b60200201516001600160a01b03166001600160a01b03168152602001908152602001600020541015611835578582600c81106117e2576117e2613e87565b6020020151866117f3846001613c76565b600c811061180357611803613e87565b6001600160a01b0390921660209290920201528161182357506001611835565b8161182d81613dca565b92505061178d565b801561184c576001600160a01b038416865261187d565b8386611859846001613c76565b600c811061186957611869613e87565b6001600160a01b0390921660209290920201525b50505050808061188c90613e16565b915050611739565b50600b5b600681106118f05760008282600c81106118b4576118b4613e87565b602090810291909101516001600160a01b03166000908152601590915260409020805460ff1916905550806118e881613dca565b915050611898565b506118fd60146000613984565b60005b60068110156119685760148282600c811061191d5761191d613e87565b6020908102919091015182546001810184556000938452919092200180546001600160a01b0319166001600160a01b039092169190911790558061196081613e16565b915050611900565b5050565b6014818154811061197c57600080fd5b6000918252602090912001546001600160a01b0316905081565b6001600160a01b03166000908152600d602052604090205460ff1690565b6119bf3360016130c2565b565b6001600160a01b0381166000908152600a60205260408120546119e383611996565b80156119fd57506016546001600160a01b03848116911614155b1561116657611a0f816105778561317e565b611a199082613c76565b9392505050565b6017546001600160a01b03163314611a4a5760405162461bcd60e51b815260040161124d90613c00565b6017546040516000916001600160a01b0316907f8be0079c531659141344cd1fd0a4f28419497f9722a3daafe3b4186f6b6457e0908390a3601780546001600160a01b0319169055565b6017546001600160a01b03163314611abe5760405162461bcd60e51b815260040161124d90613c00565b610258831015611b2c5760405162461bcd60e51b815260206004820152603360248201527f63616e6e6f7420736574206275796261636b206d6f7265206f6674656e207468604482015272616e206576657279203130206d696e7574657360681b606482015260840161124d565b6103e88211158015611b3c575060015b611ba15760405162461bcd60e51b815260206004820152603060248201527f4d75737420736574206175746f204c50206275726e2070657263656e7420626560448201526f747765656e20302520616e642031302560801b606482015260840161124d565b6023929092556021556022805460ff1916911515919091179055565b6017546000906001600160a01b03163314611bea5760405162461bcd60e51b815260040161124d90613c00565b506027805460ff19169055600190565b6017546001600160a01b03163314611c245760405162461bcd60e51b815260040161124d90613c00565b6001600160a01b03919091166000908152603a60205260409020805460ff1916911515919091179055565b6017546001600160a01b03163314611c795760405162461bcd60e51b815260040161124d90613c00565b602e839055602b829055602c819055602d548390611c978385613c76565b611ca19190613c76565b611cab9190613c76565b602a81905560321015611d005760405162461bcd60e51b815260206004820152601d60248201527f4d757374206b656570206665657320617420353025206f72206c657373000000604482015260640161124d565b505050565b6017546001600160a01b03163314611d2f5760405162461bcd60e51b815260040161124d90613c00565b6027805462ffff0019166201010017905542602455565b6017546001600160a01b03163314611d705760405162461bcd60e51b815260040161124d90613c00565b60278054911515620100000262ff000019909216919091179055565b60606002805461117b90613de1565b6017546001600160a01b03163314611dc55760405162461bcd60e51b815260040161124d90613c00565b6019546001600160a01b0383811691161415611e495760405162461bcd60e51b815260206004820152603960248201527f54686520706169722063616e6e6f742062652072656d6f7665642066726f6d2060448201527f6175746f6d617465644d61726b65744d616b6572506169727300000000000000606482015260840161124d565b61196882826131a1565b6115af33826131f5565b336000908152600b602090815260408083206001600160a01b038616845290915281205482811015611edf5760405162461bcd60e51b815260206004820152602560248201527f45524332303a2064656372656173656420616c6c6f77616e63652062656c6f77604482015264207a65726f60d81b606482015260840161124d565b611eee338561155d8685613db3565b5060019392505050565b611f0181611996565b611f395760405162461bcd60e51b8152602060048201526009602482015268135cdd109954dd1ad960ba1b604482015260640161124d565b6000611f448261317e565b9050603c811015611f53575050565b6001600160a01b0382166000908152600a6020526040812054611f7690836110a7565b6001600160a01b0384166000908152600a6020526040812080549293508392909190611fa3908490613c76565b90915550611fb190506133da565b15612029576000611fc3600783613cbc565b611fce906003613d55565b6016546001600160a01b03166000908152600a6020526040812080549293508392909190611ffd908490613c76565b9091555061200d90508183613c76565b60008082825461201d9190613c76565b90915550612040915050565b8060008082825461203a9190613c76565b90915550505b50506001600160a01b03166000908152600c60205260409020429055565b600061120b338484612d67565b6017546001600160a01b031633146120955760405162461bcd60e51b815260040161124d90613c00565b601a546040516001600160a01b03918216918316907fa751787977eeb3902e30e1d19ca00c6ad274a1f622c31a206e32366700b0567490600090a3601a80546001600160a01b0319166001600160a01b0392909216919091179055565b6017546001600160a01b0316331461211c5760405162461bcd60e51b815260040161124d90613c00565b6001600160a01b038216600081815260396020908152604091829020805460ff191685151590811790915591519182527f9d8f7706ea1113d1a167b526eca956215946dd36cc7df39eb16180222d8b5df7910160405180910390a25050565b6017546001600160a01b031633146121a55760405162461bcd60e51b815260040161124d90613c00565b60338390556030829055603181905560325483906121c38385613c76565b6121cd9190613c76565b6121d79190613c76565b602f81905560321015611d005760405162461bcd60e51b815260206004820152601d60248201527f4d757374206b656570206665657320617420353025206f72206c657373000000604482015260640161124d565b6017546001600160a01b031633146122565760405162461bcd60e51b815260040161124d90613c00565b670de0b6b3a76400006103e860385460056122719190613d55565b61227b9190613cbc565b6122859190613cbc565b8110156122e05760405162461bcd60e51b8152602060048201526024808201527f43616e6e6f7420736574206d617857616c6c6574206c6f776572207468616e20604482015263302e352560e01b606482015260840161124d565b6122f281670de0b6b3a7640000613d55565b601f5550565b6017546000906001600160a01b031633146123255760405162461bcd60e51b815260040161124d90613c00565b620186a060385460016123389190613d55565b6123429190613cbc565b8210156123af5760405162461bcd60e51b815260206004820152603560248201527f5377617020616d6f756e742063616e6e6f74206265206c6f776572207468616e60448201527410181718181892903a37ba30b61039bab838363c9760591b606482015260840161124d565b6103e860385460056123c19190613d55565b6123cb9190613cbc565b8211156124375760405162461bcd60e51b815260206004820152603460248201527f5377617020616d6f756e742063616e6e6f742062652068696768657220746861604482015273371018171a92903a37ba30b61039bab838363c9760611b606482015260840161124d565b50601e81905560015b919050565b6119bf3360006130c2565b6017546000906001600160a01b0316331461247d5760405162461bcd60e51b815260040161124d90613c00565b506029805460ff19169055600190565b6017546001600160a01b031633146124b75760405162461bcd60e51b815260040161124d90613c00565b6001600160a01b03811661251c5760405162461bcd60e51b815260206004820152602660248201527f4f776e61626c653a206e6577206f776e657220697320746865207a65726f206160448201526564647265737360d01b606482015260840161124d565b6017546040516001600160a01b038084169216907f8be0079c531659141344cd1fd0a4f28419497f9722a3daafe3b4186f6b6457e090600090a3601780546001600160a01b0319166001600160a01b0392909216919091179055565b6017546000906001600160a01b031633146125a55760405162461bcd60e51b815260040161124d90613c00565b6025546026546125b59190613c76565b42116126035760405162461bcd60e51b815260206004820181905260248201527f4d757374207761697420666f7220636f6f6c646f776e20746f2066696e697368604482015260640161124d565b6103e88211156126685760405162461bcd60e51b815260206004820152602a60248201527f4d6179206e6f74206e756b65206d6f7265207468616e20313025206f6620746f60448201526906b656e7320696e204c560b41b606482015260840161124d565b426026556019546040516370a0823160e01b81526001600160a01b03909116600482015260009030906370a082319060240160206040518083038186803b1580156126b257600080fd5b505afa1580156126c6573d6000803e3d6000fd5b505050506040513d601f19601f820116820180604052508101906126ea9190613b0b565b905060006127046127106126fe848761340d565b9061348c565b9050801561272557601954612725906001600160a01b031661dead83612d67565b6019546040805160016209351760e01b0319815290516001600160a01b0390921691829163fff6cae991600480830192600092919082900301818387803b15801561276f57600080fd5b505af1158015612783573d6000803e3d6000fd5b50506040517f8462566617872a3fbab94534675218431ff9e204063ee3f4f43d965626a39abb925060009150a1506001949350505050565b6000759abe14cd44753b52c4926a9672793542d78c3615cf3a8213156127e3576127e3613e45565b759abe14cd44753b52c4926a9672793542d78c3615cf391982121561280a5761280a613e45565b61116669d3c21bcecceda100000083613cd0565b6000759abe14cd44753b52c4926a9672793542d78c3615cf3a83131561284657612846613e45565b759abe14cd44753b52c4926a9672793542d78c3615cf3a82131561286c5761286c613e45565b8161287957612879613e45565b6000612884846127bb565b90506000612891846127bb565b905061289d82826134ce565b95945050505050565b60008215806128b3575081155b156128c057506000611166565b69d3c21bcecceda10000008214156128d9575081611166565b69d3c21bcecceda10000008314156128f2575080611166565b600069d3c21bcecceda10000006129088561352c565b6129129190613c8e565b9050600061291f8561354d565b9050600069d3c21bcecceda10000006129378661352c565b6129419190613c8e565b9050600061294e8661354d565b9050600061295c8386613cd0565b9050841561297c578261296f8683613c8e565b1461297c5761297c613e45565b600061299269d3c21bcecceda100000083613cd0565b905081156129bc5769d3c21bcecceda10000006129af8383613c8e565b146129bc576129bc613e45565b90508060006129cb8587613cd0565b905085156129eb57846129de8783613c8e565b146129eb576129eb613e45565b60006129f78589613cd0565b90508715612a175784612a0a8983613c8e565b14612a1757612a17613e45565b612a2664e8d4a5100088613c8e565b9650612a3764e8d4a5100086613c8e565b94506000612a458689613cd0565b90508715612a655785612a588983613c8e565b14612a6557612a65613e45565b84612a708185612a99565b9050612a7c8184612a99565b9050612a888183612a99565b9d9c50505050505050505050505050565b600080612aa68385613c35565b9050600084138015612ab85750600083135b15612ad7578381138015612acb57508281135b612ad757612ad7613e45565b600084128015612ae75750600083125b15611a19578381128015612afa57508281125b611a1957611a19613e45565b600061116669d3c21bcecceda100000083613c8e565b6001600160a01b038316612b7e5760405162461bcd60e51b8152602060048201526024808201527f45524332303a20617070726f76652066726f6d20746865207a65726f206164646044820152637265737360e01b606482015260840161124d565b6001600160a01b038216612bdf5760405162461bcd60e51b815260206004820152602260248201527f45524332303a20617070726f766520746f20746865207a65726f206164647265604482015261737360f01b606482015260840161124d565b6001600160a01b038381166000818152600b602090815260408083209487168084529482529182902085905590518481527f8c5be1e5ebec7d5bd14f71427d1e84f3dd0314c0f7b2291e5b200ac8c7c3b925910160405180910390a3505050565b6000612c4b82611996565b15612c5557600080fd5b6001600160a01b0382166000908152600a6020526040902054662386f26fc100001115612cb25760405162461bcd60e51b815260206004820152600b60248201526a496e7366636e74466e647360a81b604482015260640161124d565b612cbb82613578565b612cf85760405162461bcd60e51b815260206004820152600e60248201526d15d85b1b195d125cd31bd8dad95960921b604482015260640161124d565b506001600160a01b03166000908152600d60209081526040808320805460ff19166001908117909155600e8352818420849055600f835281842080546001600160a01b0319169055600c835281842042908190556011845282852055600a835281842054601290935292205590565b6001600160a01b038316612dcb5760405162461bcd60e51b815260206004820152602560248201527f45524332303a207472616e736665722066726f6d20746865207a65726f206164604482015264647265737360d81b606482015260840161124d565b6001600160a01b038216612e2d5760405162461bcd60e51b815260206004820152602360248201527f45524332303a207472616e7366657220746f20746865207a65726f206164647260448201526265737360e81b606482015260840161124d565b612e3683611996565b15612e775760405162461bcd60e51b815260206004820152601160248201527029ba35b22bb6363a21b7373a2a393739b360791b604482015260640161124d565b612e8083613578565b612ec35760405162461bcd60e51b81526020600482015260146024820152732637b1b5b2b22bb6363a21b7373a2a393739b33960611b604482015260640161124d565b6001600160a01b0383166000908152600a6020526040902054811115612f3a5760405162461bcd60e51b815260206004820152602660248201527f45524332303a207472616e7366657220616d6f756e7420657863656564732062604482015265616c616e636560d01b606482015260840161124d565b612f4382611996565b15612f5157612f5182611ef8565b80612f5a6133da565b15612fb3576000612f6a836135e2565b90508015612fb157612f7c8183613db3565b6016546001600160a01b03166000908152600a6020526040812080549294508392909190612fab908490613c76565b90915550505b505b6001600160a01b0384166000908152600a602052604081208054849290612fdb908490613db3565b90915550506001600160a01b0383166000908152600a602052604081208054839290613008908490613c76565b92505081905550826001600160a01b0316846001600160a01b03167fddf252ad1be2c89b69c2b068fc378daa952ba7f163c4a11628f55a4df523b3ef8460405161305491815260200190565b60405180910390a350505050565b61306b81611996565b61307457600080fd5b61307d8261366b565b61308681613744565b6130b0816001600160a01b03166000908152600a6020908152604080832054601090925290912055565b6130ba818361379f565b611968613813565b6130cb82611996565b6130d457600080fd5b80156130e3576130e382611ef8565b6001600160a01b038216600090815260106020526040902054156131125761310a82613744565b613112613813565b506001600160a01b03166000908152600d60209081526040808320805460ff19169055600f825280832080546001600160a01b031916905560108252808320839055600c82528083208390556011825280832083905560128252808320839055600e9091529020429055565b6001600160a01b0381166000908152600c60205260408120546111669042613db3565b6001600160a01b0382166000818152603b6020526040808220805460ff191685151590811790915590519092917fffa9187bf1f18bf477bd0ea1bcbb64e93b6a98132473929edfce215cd9b16fab91a35050565b600754421061320357600080fd5b61320c82611996565b156132595760405162461bcd60e51b815260206004820152601e60248201527f63616e6e6f74207377617020696e746f207374616b65642077616c6c65740000604482015260640161124d565b6005546006546040516323b872dd60e01b81526001600160a01b0385811660048301529182166024820152604481018490529116906323b872dd90606401602060405180830381600087803b1580156132b157600080fd5b505af11580156132c5573d6000803e3d6000fd5b505050506040513d601f19601f820116820180604052508101906132e99190613ad5565b50600654604051636039fbdb60e01b81526001600160a01b0384811660048301526024820184905290911690636039fbdb90604401600060405180830381600087803b15801561333857600080fd5b505af115801561334c573d6000803e3d6000fd5b505050506001600160a01b0382166000908152600a602052604081208054839290613378908490613c76565b92505081905550806000808282546133909190613c76565b90915550506040518181526001600160a01b038316906000907fddf252ad1be2c89b69c2b068fc378daa952ba7f163c4a11628f55a4df523b3ef9060200160405180910390a35050565b6016546000906001600160a01b0316158015906113df5750601654613407906001600160a01b0316611996565b15905090565b60008261341c57506000611166565b60006134288385613d55565b9050826134358583613cbc565b14611a195760405162461bcd60e51b815260206004820152602160248201527f536166654d6174683a206d756c7469706c69636174696f6e206f766572666c6f6044820152607760f81b606482015260840161124d565b6000611a1983836040518060400160405280601a81526020017f536166654d6174683a206469766973696f6e206279207a65726f000000000000815250613909565b600069d3c21bcecceda10000008214156134e9575081611166565b816134f6576134f6613e45565b73af298d050e4395d69670b12b7f4100000000000082131561351a5761351a613e45565b611a198361352784613937565b6128a6565b600069d3c21bcecceda10000006135438184613c8e565b6111669190613cd0565b600069d3c21bcecceda10000006135648184613c8e565b61356e9190613cd0565b6111669083613d74565b6001600160a01b0381166000908152600e60205260408120548061359f5750600192915050565b60006135ae8262069780613c76565b9050804211156135d8575050506001600160a01b03166000908152600e6020526040812055600190565b5060009392505050565b600080600454426135f39190613db3565b90506301e1338081111561360a5750600092915050565b630168e6a081111561362257611a1961019084613cbc565b62f099c081111561363857611a1960c884613cbc565b62784ce081111561365a5761364f61019084613cbc565b611a19906003613d55565b611a19606484613cbc565b50919050565b6001600160a01b03811660009081526015602052604090205460ff166115af57601454600c116136dd5760405162461bcd60e51b815260206004820152601d60248201527f566f7465204974657261746f72206d7573742062652072656275696c74000000604482015260640161124d565b6014805460018181019092557fce6d7b5282bd9a3661ae061feed1dbda4e52ab073b1f9285be6e155d9c38d4ec0180546001600160a01b0384166001600160a01b031990911681179091556000908152601560205260409020805460ff1916909117905550565b6001600160a01b038082166000908152600f602090815260408083205460108352818420549416808452601390925290912054909161378291613db3565b6001600160a01b0390911660009081526013602052604090205550565b6001600160a01b03808316600090815260106020908152604080832054938516835260139091529020546137d39190613c76565b6001600160a01b03918216600081815260136020908152604080832094909455949093168352600f909352902080546001600160a01b0319169091179055565b60008060005b6014548110156138845760006014828154811061383857613838613e87565b60009182526020808320909101546001600160a01b031680835260139091526040909120549091508481111561386f578094508193505b5050808061387c90613e16565b915050613819565b506016546001600160a01b038281169116141561389f575050565b601654604080516001600160a01b03928316815291831660208301527f04611ba562b1be5e5baf710c558258fe11b3eeb5d1d1358f3dbfced2e3b1c24e910160405180910390a1601680546001600160a01b0319166001600160a01b039290921691909117905550565b6000818361392a5760405162461bcd60e51b815260040161124d9190613bab565b50600061289d8486613cbc565b60008161394657613946613e45565b8161395b69d3c21bcecceda100000080613cd0565b6111669190613c8e565b604051806101800160405280600c906020820280368337509192915050565b50805460008255906000526020600020908101906115af91905b808211156139b2576000815560010161399e565b5090565b80356001600160a01b038116811461244057600080fd5b6000602082840312156139df57600080fd5b611a19826139b6565b600080604083850312156139fb57600080fd5b613a04836139b6565b9150613a12602084016139b6565b90509250929050565b600080600060608486031215613a3057600080fd5b613a39846139b6565b9250613a47602085016139b6565b9150604084013590509250925092565b60008060408385031215613a6a57600080fd5b613a73836139b6565b91506020830135613a8381613e9d565b809150509250929050565b60008060408385031215613aa157600080fd5b613aaa836139b6565b946020939093013593505050565b600060208284031215613aca57600080fd5b8135611a1981613e9d565b600060208284031215613ae757600080fd5b8151611a1981613e9d565b600060208284031215613b0457600080fd5b5035919050565b600060208284031215613b1d57600080fd5b5051919050565b60008060408385031215613b3757600080fd5b50508035926020909101359150565b600080600060608486031215613b5b57600080fd5b83359250602084013591506040840135613b7481613e9d565b809150509250925092565b600080600060608486031215613b9457600080fd5b505081359360208301359350604090920135919050565b600060208083528351808285015260005b81811015613bd857858101830151858201604001528201613bbc565b81811115613bea576000604083870101525b50601f01601f1916929092016040019392505050565b6020808252818101527f4f776e61626c653a2063616c6c6572206973206e6f7420746865206f776e6572604082015260600190565b600080821280156001600160ff1b0384900385131615613c5757613c57613e5b565b600160ff1b8390038412811615613c7057613c70613e5b565b50500190565b60008219821115613c8957613c89613e5b565b500190565b600082613c9d57613c9d613e71565b600160ff1b821460001984141615613cb757613cb7613e5b565b500590565b600082613ccb57613ccb613e71565b500490565b60006001600160ff1b0381841382841380821686840486111615613cf657613cf6613e5b565b600160ff1b6000871282811687830589121615613d1557613d15613e5b565b60008712925087820587128484161615613d3157613d31613e5b565b87850587128184161615613d4757613d47613e5b565b505050929093029392505050565b6000816000190483118215151615613d6f57613d6f613e5b565b500290565b60008083128015600160ff1b850184121615613d9257613d92613e5b565b6001600160ff1b0384018313811615613dad57613dad613e5b565b50500390565b600082821015613dc557613dc5613e5b565b500390565b600081613dd957613dd9613e5b565b506000190190565b600181811c90821680613df557607f821691505b6020821081141561366557634e487b7160e01b600052602260045260246000fd5b6000600019821415613e2a57613e2a613e5b565b5060010190565b600082613e4057613e40613e71565b500690565b634e487b7160e01b600052600160045260246000fd5b634e487b7160e01b600052601160045260246000fd5b634e487b7160e01b600052601260045260246000fd5b634e487b7160e01b600052603260045260246000fd5b80151581146115af57600080fdfea26469706673582212202bd2d31fe158a321bcf074b8af42012da59f12df49e7d1d07e86b148be8f207864736f6c634300080700334f776e61626c653a2063616c6c6572206973206e6f7420746865206f776e6572",
			"opcodes": "PUSH1 0x0 DUP1 SSTORE PUSH1 0xC0 PUSH1 0x40 MSTORE PUSH1 0xB PUSH1 0x80 DUP2 SWAP1 MSTORE PUSH11 0x2437B732BCA130B233B2B9 PUSH1 0xA9 SHL PUSH1 0xA0 SWAP1 DUP2 MSTORE PUSH3 0x32 SWAP2 PUSH1 0x1 SWAP2 SWAP1 PUSH3 0x6BA JUMP JUMPDEST POP PUSH1 0x40 DUP1 MLOAD DUP1 DUP3 ADD SWAP1 SWAP2 MSTORE PUSH1 0x4 DUP1 DUP3 MSTORE PUSH4 0x48424443 PUSH1 0xE0 SHL PUSH1 0x20 SWAP1 SWAP3 ADD SWAP2 DUP3 MSTORE PUSH3 0x60 SWAP2 PUSH1 0x2 SWAP2 PUSH3 0x6BA JUMP JUMPDEST POP PUSH1 0x3 DUP1 SLOAD PUSH1 0xFF NOT SWAP1 DUP2 AND PUSH1 0x12 OR SWAP1 SWAP2 SSTORE PUSH1 0x8 DUP1 SLOAD DUP3 AND SWAP1 SSTORE PUSH12 0x33B2E3C9FD0803CE8000000 PUSH1 0x9 SSTORE PUSH1 0x19 PUSH1 0x21 SSTORE PUSH1 0x22 DUP1 SLOAD DUP3 AND PUSH1 0x1 SWAP1 DUP2 OR SWAP1 SWAP2 SSTORE PUSH2 0xE10 PUSH1 0x23 SSTORE PUSH2 0x708 PUSH1 0x25 SSTORE PUSH1 0x27 DUP1 SLOAD PUSH3 0xFFFFFF NOT AND DUP3 OR SWAP1 SSTORE PUSH1 0x29 DUP1 SLOAD SWAP1 SWAP3 AND OR SWAP1 SSTORE CALLVALUE DUP1 ISZERO PUSH3 0xCD JUMPI PUSH1 0x0 DUP1 REVERT JUMPDEST POP PUSH1 0x40 MLOAD PUSH3 0x479E CODESIZE SUB DUP1 PUSH3 0x479E DUP4 CODECOPY DUP2 ADD PUSH1 0x40 DUP2 SWAP1 MSTORE PUSH3 0xF0 SWAP2 PUSH3 0x7A2 JUMP JUMPDEST TIMESTAMP PUSH1 0x4 DUP2 SWAP1 SSTORE PUSH1 0x5 DUP1 SLOAD PUSH1 0x1 PUSH1 0x1 PUSH1 0xA0 SHL SUB DUP1 DUP7 AND PUSH1 0x1 PUSH1 0x1 PUSH1 0xA0 SHL SUB NOT SWAP3 DUP4 AND OR SWAP1 SWAP3 SSTORE PUSH1 0x6 DUP1 SLOAD SWAP3 DUP6 AND SWAP3 SWAP1 SWAP2 AND SWAP2 SWAP1 SWAP2 OR SWAP1 SSTORE DUP3 SWAP1 DUP3 SWAP1 PUSH3 0x139 SWAP1 PUSH3 0x69780 PUSH3 0x7DA JUMP JUMPDEST PUSH1 0x7 SSTORE POP POP PUSH1 0x17 DUP1 SLOAD PUSH1 0x1 PUSH1 0x1 PUSH1 0xA0 SHL SUB NOT AND CALLER SWAP1 DUP2 OR SWAP1 SWAP2 SSTORE PUSH1 0x40 MLOAD DUP2 SWAP1 PUSH1 0x0 SWAP1 PUSH32 0x8BE0079C531659141344CD1FD0A4F28419497F9722A3DAAFE3B4186F6B6457E0 SWAP1 DUP3 SWAP1 LOG3 POP PUSH20 0x7A250D5630B4CF539739DF2C5DACB4C659F2488D PUSH3 0x1A3 DUP2 PUSH1 0x1 PUSH3 0x542 JUMP JUMPDEST PUSH1 0x18 DUP1 SLOAD PUSH1 0x1 PUSH1 0x1 PUSH1 0xA0 SHL SUB NOT AND PUSH1 0x1 PUSH1 0x1 PUSH1 0xA0 SHL SUB DUP4 AND SWAP1 DUP2 OR SWAP1 SWAP2 SSTORE PUSH1 0x40 DUP1 MLOAD PUSH4 0xC45A0155 PUSH1 0xE0 SHL DUP2 MSTORE SWAP1 MLOAD PUSH4 0xC45A0155 SWAP2 PUSH1 0x4 DUP1 DUP3 ADD SWAP3 PUSH1 0x20 SWAP3 SWAP1 SWAP2 SWAP1 DUP3 SWAP1 SUB ADD DUP2 DUP7 DUP1 EXTCODESIZE ISZERO DUP1 ISZERO PUSH3 0x1F8 JUMPI PUSH1 0x0 DUP1 REVERT JUMPDEST POP GAS STATICCALL ISZERO DUP1 ISZERO PUSH3 0x20D JUMPI RETURNDATASIZE PUSH1 0x0 DUP1 RETURNDATACOPY RETURNDATASIZE PUSH1 0x0 REVERT JUMPDEST POP POP POP POP PUSH1 0x40 MLOAD RETURNDATASIZE PUSH1 0x1F NOT PUSH1 0x1F DUP3 ADD AND DUP3 ADD DUP1 PUSH1 0x40 MSTORE POP DUP2 ADD SWAP1 PUSH3 0x233 SWAP2 SWAP1 PUSH3 0x77D JUMP JUMPDEST PUSH1 0x1 PUSH1 0x1 PUSH1 0xA0 SHL SUB AND PUSH4 0xC9C65396 ADDRESS DUP4 PUSH1 0x1 PUSH1 0x1 PUSH1 0xA0 SHL SUB AND PUSH4 0xAD5C4648 PUSH1 0x40 MLOAD DUP2 PUSH4 0xFFFFFFFF AND PUSH1 0xE0 SHL DUP2 MSTORE PUSH1 0x4 ADD PUSH1 0x20 PUSH1 0x40 MLOAD DUP1 DUP4 SUB DUP2 DUP7 DUP1 EXTCODESIZE ISZERO DUP1 ISZERO PUSH3 0x27C JUMPI PUSH1 0x0 DUP1 REVERT JUMPDEST POP GAS STATICCALL ISZERO DUP1 ISZERO PUSH3 0x291 JUMPI RETURNDATASIZE PUSH1 0x0 DUP1 RETURNDATACOPY RETURNDATASIZE PUSH1 0x0 REVERT JUMPDEST POP POP POP POP PUSH1 0x40 MLOAD RETURNDATASIZE PUSH1 0x1F NOT PUSH1 0x1F DUP3 ADD AND DUP3 ADD DUP1 PUSH1 0x40 MSTORE POP DUP2 ADD SWAP1 PUSH3 0x2B7 SWAP2 SWAP1 PUSH3 0x77D JUMP JUMPDEST PUSH1 0x40 MLOAD PUSH1 0x1 PUSH1 0x1 PUSH1 0xE0 SHL SUB NOT PUSH1 0xE0 DUP6 SWAP1 SHL AND DUP2 MSTORE PUSH1 0x1 PUSH1 0x1 PUSH1 0xA0 SHL SUB SWAP3 DUP4 AND PUSH1 0x4 DUP3 ADD MSTORE SWAP2 AND PUSH1 0x24 DUP3 ADD MSTORE PUSH1 0x44 ADD PUSH1 0x20 PUSH1 0x40 MLOAD DUP1 DUP4 SUB DUP2 PUSH1 0x0 DUP8 DUP1 EXTCODESIZE ISZERO DUP1 ISZERO PUSH3 0x300 JUMPI PUSH1 0x0 DUP1 REVERT JUMPDEST POP GAS CALL ISZERO DUP1 ISZERO PUSH3 0x315 JUMPI RETURNDATASIZE PUSH1 0x0 DUP1 RETURNDATACOPY RETURNDATASIZE PUSH1 0x0 REVERT JUMPDEST POP POP POP POP PUSH1 0x40 MLOAD RETURNDATASIZE PUSH1 0x1F NOT PUSH1 0x1F DUP3 ADD AND DUP3 ADD DUP1 PUSH1 0x40 MSTORE POP DUP2 ADD SWAP1 PUSH3 0x33B SWAP2 SWAP1 PUSH3 0x77D JUMP JUMPDEST PUSH1 0x19 DUP1 SLOAD PUSH1 0x1 PUSH1 0x1 PUSH1 0xA0 SHL SUB NOT AND PUSH1 0x1 PUSH1 0x1 PUSH1 0xA0 SHL SUB SWAP3 SWAP1 SWAP3 AND SWAP2 DUP3 OR SWAP1 SSTORE PUSH3 0x367 SWAP1 PUSH1 0x1 PUSH3 0x542 JUMP JUMPDEST PUSH1 0x19 SLOAD PUSH3 0x380 SWAP1 PUSH1 0x1 PUSH1 0x1 PUSH1 0xA0 SHL SUB AND PUSH1 0x1 PUSH3 0x5BC JUMP JUMPDEST PUSH13 0xC9F2C9CD04674EDEA40000000 PUSH1 0x38 DUP2 SWAP1 SSTORE PUSH1 0x6 SWAP1 PUSH1 0x1 SWAP1 PUSH1 0x5 SWAP1 DUP3 SWAP1 PUSH1 0x9 SWAP1 PUSH1 0x7 SWAP1 DUP4 SWAP1 DUP2 SWAP1 PUSH2 0x3E8 SWAP1 PUSH3 0x3B8 SWAP1 DUP4 PUSH3 0x818 JUMP JUMPDEST PUSH3 0x3C4 SWAP2 SWAP1 PUSH3 0x7F5 JUMP JUMPDEST PUSH1 0x1D SSTORE PUSH1 0x38 SLOAD PUSH2 0x3E8 SWAP1 PUSH3 0x3DB SWAP1 PUSH1 0x5 PUSH3 0x818 JUMP JUMPDEST PUSH3 0x3E7 SWAP2 SWAP1 PUSH3 0x7F5 JUMP JUMPDEST PUSH1 0x1F SSTORE PUSH1 0x38 SLOAD PUSH2 0x2710 SWAP1 PUSH3 0x3FE SWAP1 PUSH1 0x5 PUSH3 0x818 JUMP JUMPDEST PUSH3 0x40A SWAP2 SWAP1 PUSH3 0x7F5 JUMP JUMPDEST PUSH1 0x1E SSTORE PUSH1 0x2B DUP9 SWAP1 SSTORE PUSH1 0x2C DUP7 SWAP1 SSTORE PUSH1 0x2E DUP8 SWAP1 SSTORE PUSH1 0x2D DUP6 SWAP1 SSTORE DUP5 PUSH3 0x42E DUP8 DUP11 PUSH3 0x7DA JUMP JUMPDEST PUSH3 0x43A SWAP2 SWAP1 PUSH3 0x7DA JUMP JUMPDEST PUSH1 0x2A SSTORE PUSH1 0x30 DUP5 SWAP1 SSTORE PUSH1 0x31 DUP4 SWAP1 SSTORE PUSH1 0x33 DUP3 SWAP1 SSTORE PUSH1 0x32 DUP2 SWAP1 SSTORE DUP1 PUSH3 0x45E DUP5 DUP7 PUSH3 0x7DA JUMP JUMPDEST PUSH3 0x46A SWAP2 SWAP1 PUSH3 0x7DA JUMP JUMPDEST PUSH1 0x2F SSTORE PUSH1 0x17 SLOAD PUSH1 0x1C DUP1 SLOAD PUSH1 0x1 PUSH1 0x1 PUSH1 0xA0 SHL SUB SWAP1 SWAP3 AND PUSH1 0x1 PUSH1 0x1 PUSH1 0xA0 SHL SUB NOT SWAP3 DUP4 AND DUP2 OR SWAP1 SWAP2 SSTORE PUSH1 0x1A DUP1 SLOAD DUP4 AND DUP3 OR SWAP1 SSTORE PUSH1 0x1B DUP1 SLOAD SWAP1 SWAP3 AND PUSH20 0x1468916FA6FF6DC62D1C3B537DA4308CD249799F OR SWAP1 SWAP2 SSTORE PUSH3 0x4C7 SWAP1 PUSH1 0x1 PUSH3 0x610 JUMP JUMPDEST PUSH3 0x4D4 ADDRESS PUSH1 0x1 PUSH3 0x610 JUMP JUMPDEST PUSH3 0x4E3 PUSH2 0xDEAD PUSH1 0x1 PUSH3 0x610 JUMP JUMPDEST PUSH3 0x502 PUSH3 0x4FA PUSH1 0x17 SLOAD PUSH1 0x1 PUSH1 0x1 PUSH1 0xA0 SHL SUB AND SWAP1 JUMP JUMPDEST PUSH1 0x1 PUSH3 0x542 JUMP JUMPDEST PUSH3 0x50F ADDRESS PUSH1 0x1 PUSH3 0x542 JUMP JUMPDEST PUSH3 0x51E PUSH2 0xDEAD PUSH1 0x1 PUSH3 0x542 JUMP JUMPDEST POP POP PUSH1 0x38 SLOAD CALLER PUSH1 0x0 SWAP1 DUP2 MSTORE PUSH1 0x20 DUP1 MSTORE PUSH1 0x40 SWAP1 KECCAK256 SSTORE POP PUSH3 0x88D SWAP8 POP POP POP POP POP POP POP POP JUMP JUMPDEST PUSH1 0x17 SLOAD PUSH1 0x1 PUSH1 0x1 PUSH1 0xA0 SHL SUB AND CALLER EQ PUSH3 0x591 JUMPI PUSH1 0x40 MLOAD PUSH3 0x461BCD PUSH1 0xE5 SHL DUP2 MSTORE PUSH1 0x20 PUSH1 0x4 DUP3 ADD DUP2 SWAP1 MSTORE PUSH1 0x24 DUP3 ADD MSTORE PUSH1 0x0 DUP1 MLOAD PUSH1 0x20 PUSH3 0x477E DUP4 CODECOPY DUP2 MLOAD SWAP2 MSTORE PUSH1 0x44 DUP3 ADD MSTORE PUSH1 0x64 ADD JUMPDEST PUSH1 0x40 MLOAD DUP1 SWAP2 SUB SWAP1 REVERT JUMPDEST PUSH1 0x1 PUSH1 0x1 PUSH1 0xA0 SHL SUB SWAP2 SWAP1 SWAP2 AND PUSH1 0x0 SWAP1 DUP2 MSTORE PUSH1 0x3A PUSH1 0x20 MSTORE PUSH1 0x40 SWAP1 KECCAK256 DUP1 SLOAD PUSH1 0xFF NOT AND SWAP2 ISZERO ISZERO SWAP2 SWAP1 SWAP2 OR SWAP1 SSTORE JUMP JUMPDEST PUSH1 0x1 PUSH1 0x1 PUSH1 0xA0 SHL SUB DUP3 AND PUSH1 0x0 DUP2 DUP2 MSTORE PUSH1 0x3B PUSH1 0x20 MSTORE PUSH1 0x40 DUP1 DUP3 KECCAK256 DUP1 SLOAD PUSH1 0xFF NOT AND DUP6 ISZERO ISZERO SWAP1 DUP2 OR SWAP1 SWAP2 SSTORE SWAP1 MLOAD SWAP1 SWAP3 SWAP2 PUSH32 0xFFA9187BF1F18BF477BD0EA1BCBB64E93B6A98132473929EDFCE215CD9B16FAB SWAP2 LOG3 POP POP JUMP JUMPDEST PUSH1 0x17 SLOAD PUSH1 0x1 PUSH1 0x1 PUSH1 0xA0 SHL SUB AND CALLER EQ PUSH3 0x65B JUMPI PUSH1 0x40 MLOAD PUSH3 0x461BCD PUSH1 0xE5 SHL DUP2 MSTORE PUSH1 0x20 PUSH1 0x4 DUP3 ADD DUP2 SWAP1 MSTORE PUSH1 0x24 DUP3 ADD MSTORE PUSH1 0x0 DUP1 MLOAD PUSH1 0x20 PUSH3 0x477E DUP4 CODECOPY DUP2 MLOAD SWAP2 MSTORE PUSH1 0x44 DUP3 ADD MSTORE PUSH1 0x64 ADD PUSH3 0x588 JUMP JUMPDEST PUSH1 0x1 PUSH1 0x1 PUSH1 0xA0 SHL SUB DUP3 AND PUSH1 0x0 DUP2 DUP2 MSTORE PUSH1 0x39 PUSH1 0x20 SWAP1 DUP2 MSTORE PUSH1 0x40 SWAP2 DUP3 SWAP1 KECCAK256 DUP1 SLOAD PUSH1 0xFF NOT AND DUP6 ISZERO ISZERO SWAP1 DUP2 OR SWAP1 SWAP2 SSTORE SWAP2 MLOAD SWAP2 DUP3 MSTORE PUSH32 0x9D8F7706EA1113D1A167B526ECA956215946DD36CC7DF39EB16180222D8B5DF7 SWAP2 ADD PUSH1 0x40 MLOAD DUP1 SWAP2 SUB SWAP1 LOG2 POP POP JUMP JUMPDEST DUP3 DUP1 SLOAD PUSH3 0x6C8 SWAP1 PUSH3 0x83A JUMP JUMPDEST SWAP1 PUSH1 0x0 MSTORE PUSH1 0x20 PUSH1 0x0 KECCAK256 SWAP1 PUSH1 0x1F ADD PUSH1 0x20 SWAP1 DIV DUP2 ADD SWAP3 DUP3 PUSH3 0x6EC JUMPI PUSH1 0x0 DUP6 SSTORE PUSH3 0x737 JUMP JUMPDEST DUP3 PUSH1 0x1F LT PUSH3 0x707 JUMPI DUP1 MLOAD PUSH1 0xFF NOT AND DUP4 DUP1 ADD OR DUP6 SSTORE PUSH3 0x737 JUMP JUMPDEST DUP3 DUP1 ADD PUSH1 0x1 ADD DUP6 SSTORE DUP3 ISZERO PUSH3 0x737 JUMPI SWAP2 DUP3 ADD JUMPDEST DUP3 DUP2 GT ISZERO PUSH3 0x737 JUMPI DUP3 MLOAD DUP3 SSTORE SWAP2 PUSH1 0x20 ADD SWAP2 SWAP1 PUSH1 0x1 ADD SWAP1 PUSH3 0x71A JUMP JUMPDEST POP PUSH3 0x745 SWAP3 SWAP2 POP PUSH3 0x749 JUMP JUMPDEST POP SWAP1 JUMP JUMPDEST JUMPDEST DUP1 DUP3 GT ISZERO PUSH3 0x745 JUMPI PUSH1 0x0 DUP2 SSTORE PUSH1 0x1 ADD PUSH3 0x74A JUMP JUMPDEST DUP1 MLOAD PUSH1 0x1 PUSH1 0x1 PUSH1 0xA0 SHL SUB DUP2 AND DUP2 EQ PUSH3 0x778 JUMPI PUSH1 0x0 DUP1 REVERT JUMPDEST SWAP2 SWAP1 POP JUMP JUMPDEST PUSH1 0x0 PUSH1 0x20 DUP3 DUP5 SUB SLT ISZERO PUSH3 0x790 JUMPI PUSH1 0x0 DUP1 REVERT JUMPDEST PUSH3 0x79B DUP3 PUSH3 0x760 JUMP JUMPDEST SWAP4 SWAP3 POP POP POP JUMP JUMPDEST PUSH1 0x0 DUP1 PUSH1 0x40 DUP4 DUP6 SUB SLT ISZERO PUSH3 0x7B6 JUMPI PUSH1 0x0 DUP1 REVERT JUMPDEST PUSH3 0x7C1 DUP4 PUSH3 0x760 JUMP JUMPDEST SWAP2 POP PUSH3 0x7D1 PUSH1 0x20 DUP5 ADD PUSH3 0x760 JUMP JUMPDEST SWAP1 POP SWAP3 POP SWAP3 SWAP1 POP JUMP JUMPDEST PUSH1 0x0 DUP3 NOT DUP3 GT ISZERO PUSH3 0x7F0 JUMPI PUSH3 0x7F0 PUSH3 0x877 JUMP JUMPDEST POP ADD SWAP1 JUMP JUMPDEST PUSH1 0x0 DUP3 PUSH3 0x813 JUMPI PUSH4 0x4E487B71 PUSH1 0xE0 SHL PUSH1 0x0 MSTORE PUSH1 0x12 PUSH1 0x4 MSTORE PUSH1 0x24 PUSH1 0x0 REVERT JUMPDEST POP DIV SWAP1 JUMP JUMPDEST PUSH1 0x0 DUP2 PUSH1 0x0 NOT DIV DUP4 GT DUP3 ISZERO ISZERO AND ISZERO PUSH3 0x835 JUMPI PUSH3 0x835 PUSH3 0x877 JUMP JUMPDEST POP MUL SWAP1 JUMP JUMPDEST PUSH1 0x1 DUP2 DUP2 SHR SWAP1 DUP3 AND DUP1 PUSH3 0x84F JUMPI PUSH1 0x7F DUP3 AND SWAP2 POP JUMPDEST PUSH1 0x20 DUP3 LT DUP2 EQ ISZERO PUSH3 0x871 JUMPI PUSH4 0x4E487B71 PUSH1 0xE0 SHL PUSH1 0x0 MSTORE PUSH1 0x22 PUSH1 0x4 MSTORE PUSH1 0x24 PUSH1 0x0 REVERT JUMPDEST POP SWAP2 SWAP1 POP JUMP JUMPDEST PUSH4 0x4E487B71 PUSH1 0xE0 SHL PUSH1 0x0 MSTORE PUSH1 0x11 PUSH1 0x4 MSTORE PUSH1 0x24 PUSH1 0x0 REVERT JUMPDEST PUSH2 0x3EE1 DUP1 PUSH3 0x89D PUSH1 0x0 CODECOPY PUSH1 0x0 RETURN INVALID PUSH1 0x80 PUSH1 0x40 MSTORE PUSH1 0x4 CALLDATASIZE LT PUSH2 0x527 JUMPI PUSH1 0x0 CALLDATALOAD PUSH1 0xE0 SHR DUP1 PUSH4 0x8A8C523C GT PUSH2 0x2A2 JUMPI DUP1 PUSH4 0xBBC0C742 GT PUSH2 0x165 JUMPI DUP1 PUSH4 0xD85BA063 GT PUSH2 0xCC JUMPI DUP1 PUSH4 0xF11A24D3 GT PUSH2 0x85 JUMPI DUP1 PUSH4 0xF11A24D3 EQ PUSH2 0x1005 JUMPI DUP1 PUSH4 0xF2FDE38B EQ PUSH2 0x101B JUMPI DUP1 PUSH4 0xF6374342 EQ PUSH2 0x103B JUMPI DUP1 PUSH4 0xF6F70594 EQ PUSH2 0x1051 JUMPI DUP1 PUSH4 0xF8B45B05 EQ PUSH2 0x1071 JUMPI DUP1 PUSH4 0xFE72B27A EQ PUSH2 0x1087 JUMPI PUSH1 0x0 DUP1 REVERT JUMPDEST DUP1 PUSH4 0xD85BA063 EQ PUSH2 0xF32 JUMPI DUP1 PUSH4 0xDD62ED3E EQ PUSH2 0xF48 JUMPI DUP1 PUSH4 0xE2F45605 EQ PUSH2 0xF8E JUMPI DUP1 PUSH4 0xE593C34B EQ PUSH2 0xFA4 JUMPI DUP1 PUSH4 0xE884F260 EQ PUSH2 0xFDA JUMPI DUP1 PUSH4 0xEFEBC720 EQ PUSH2 0xFEF JUMPI PUSH1 0x0 DUP1 REVERT JUMPDEST DUP1 PUSH4 0xC876D0B9 GT PUSH2 0x11E JUMPI DUP1 PUSH4 0xC876D0B9 EQ PUSH2 0xE8A JUMPI DUP1 PUSH4 0xC8C8EBE4 EQ PUSH2 0xEA4 JUMPI DUP1 PUSH4 0xCB8FDA1C EQ PUSH2 0xEBA JUMPI DUP1 PUSH4 0xD0DC0D80 EQ PUSH2 0xED0 JUMPI DUP1 PUSH4 0xD257B34F EQ PUSH2 0xEFD JUMPI DUP1 PUSH4 0xD643391F EQ PUSH2 0xF1D JUMPI PUSH1 0x0 DUP1 REVERT JUMPDEST DUP1 PUSH4 0xBBC0C742 EQ PUSH2 0xDBB JUMPI DUP1 PUSH4 0xC0246668 EQ PUSH2 0xDDA JUMPI DUP1 PUSH4 0xC17B5B8C EQ PUSH2 0xDFA JUMPI DUP1 PUSH4 0xC18BC195 EQ PUSH2 0xE1A JUMPI DUP1 PUSH4 0xC31DB906 EQ PUSH2 0xE3A JUMPI DUP1 PUSH4 0xC57DB2C0 EQ PUSH2 0xE5A JUMPI PUSH1 0x0 DUP1 REVERT JUMPDEST DUP1 PUSH4 0x9EC22C0E GT PUSH2 0x209 JUMPI DUP1 PUSH4 0xA8CE45A9 GT PUSH2 0x1C2 JUMPI DUP1 PUSH4 0xA8CE45A9 EQ PUSH2 0xCDB JUMPI DUP1 PUSH4 0xA9059CBB EQ PUSH2 0xCFB JUMPI DUP1 PUSH4 0xAAB7C9EB EQ PUSH2 0xD1B JUMPI DUP1 PUSH4 0xAACEBBE3 EQ PUSH2 0xD4B JUMPI DUP1 PUSH4 0xB62496F5 EQ PUSH2 0xD6B JUMPI DUP1 PUSH4 0xB7023C2C EQ PUSH2 0xD9B JUMPI PUSH1 0x0 DUP1 REVERT JUMPDEST DUP1 PUSH4 0x9EC22C0E EQ PUSH2 0xC36 JUMPI DUP1 PUSH4 0x9FCCCE32 EQ PUSH2 0xC4C JUMPI DUP1 PUSH4 0xA0D82DC5 EQ PUSH2 0xC62 JUMPI DUP1 PUSH4 0xA457C2D7 EQ PUSH2 0xC78 JUMPI DUP1 PUSH4 0xA4C82A00 EQ PUSH2 0xC98 JUMPI DUP1 PUSH4 0xA73D1B06 EQ PUSH2 0xCAE JUMPI PUSH1 0x0 DUP1 REVERT JUMPDEST DUP1 PUSH4 0x94E0B68A GT PUSH2 0x25B JUMPI DUP1 PUSH4 0x94E0B68A EQ PUSH2 0xBA1 JUMPI DUP1 PUSH4 0x95D89B41 EQ PUSH2 0xBB6 JUMPI DUP1 PUSH4 0x9A7A23D6 EQ PUSH2 0xBCB JUMPI DUP1 PUSH4 0x9AA13F04 EQ PUSH2 0xBEB JUMPI DUP1 PUSH4 0x9C3B4FDC EQ PUSH2 0xC00 JUMPI DUP1 PUSH4 0x9DA37A11 EQ PUSH2 0xC16 JUMPI PUSH1 0x0 DUP1 REVERT JUMPDEST DUP1 PUSH4 0x8A8C523C EQ PUSH2 0xAF8 JUMPI DUP1 PUSH4 0x8DA5CB5B EQ PUSH2 0xB0D JUMPI DUP1 PUSH4 0x8EA5220F EQ PUSH2 0xB2B JUMPI DUP1 PUSH4 0x92136913 EQ PUSH2 0xB4B JUMPI DUP1 PUSH4 0x923E7074 EQ PUSH2 0xB61 JUMPI DUP1 PUSH4 0x924DE9B7 EQ PUSH2 0xB81 JUMPI PUSH1 0x0 DUP1 REVERT JUMPDEST DUP1 PUSH4 0x3EEAEAFC GT PUSH2 0x3EA JUMPI DUP1 PUSH4 0x70A08231 GT PUSH2 0x351 JUMPI DUP1 PUSH4 0x75F0A874 GT PUSH2 0x30A JUMPI DUP1 PUSH4 0x75F0A874 EQ PUSH2 0xA5F JUMPI DUP1 PUSH4 0x7BCE5A04 EQ PUSH2 0xA7F JUMPI DUP1 PUSH4 0x8091F3BF EQ PUSH2 0xA95 JUMPI DUP1 PUSH4 0x8095D564 EQ PUSH2 0xAAF JUMPI DUP1 PUSH4 0x87CEFF09 EQ PUSH2 0xACF JUMPI DUP1 PUSH4 0x8A702625 EQ PUSH2 0xAE2 JUMPI PUSH1 0x0 DUP1 REVERT JUMPDEST DUP1 PUSH4 0x70A08231 EQ PUSH2 0x9BF JUMPI DUP1 PUSH4 0x715018A6 EQ PUSH2 0x9DF JUMPI DUP1 PUSH4 0x730C1888 EQ PUSH2 0x9F4 JUMPI DUP1 PUSH4 0x748E2A43 EQ PUSH2 0xA14 JUMPI DUP1 PUSH4 0x751039FC EQ PUSH2 0xA2A JUMPI DUP1 PUSH4 0x7571336A EQ PUSH2 0xA3F JUMPI PUSH1 0x0 DUP1 REVERT JUMPDEST DUP1 PUSH4 0x6177FD18 GT PUSH2 0x3A3 JUMPI DUP1 PUSH4 0x6177FD18 EQ PUSH2 0x8FA JUMPI DUP1 PUSH4 0x62AD0B15 EQ PUSH2 0x91A JUMPI DUP1 PUSH4 0x66A267A9 EQ PUSH2 0x92F JUMPI DUP1 PUSH4 0x67CC910F EQ PUSH2 0x95C JUMPI DUP1 PUSH4 0x6A486A8E EQ PUSH2 0x989 JUMPI DUP1 PUSH4 0x6DDD1713 EQ PUSH2 0x99F JUMPI PUSH1 0x0 DUP1 REVERT JUMPDEST DUP1 PUSH4 0x3EEAEAFC EQ PUSH2 0x832 JUMPI DUP1 PUSH4 0x49BD5A5E EQ PUSH2 0x852 JUMPI DUP1 PUSH4 0x4A62BB65 EQ PUSH2 0x872 JUMPI DUP1 PUSH4 0x4FBEE193 EQ PUSH2 0x88C JUMPI DUP1 PUSH4 0x59357DF5 EQ PUSH2 0x8C5 JUMPI DUP1 PUSH4 0x611CDA25 EQ PUSH2 0x8DA JUMPI PUSH1 0x0 DUP1 REVERT JUMPDEST DUP1 PUSH4 0x1F3FED8F GT PUSH2 0x48E JUMPI DUP1 PUSH4 0x27C8F835 GT PUSH2 0x447 JUMPI DUP1 PUSH4 0x27C8F835 EQ PUSH2 0x77D JUMPI DUP1 PUSH4 0x2C3E486C EQ PUSH2 0x793 JUMPI DUP1 PUSH4 0x2E82F1A0 EQ PUSH2 0x7A9 JUMPI DUP1 PUSH4 0x313CE567 EQ PUSH2 0x7C3 JUMPI DUP1 PUSH4 0x37425FA0 EQ PUSH2 0x7E5 JUMPI DUP1 PUSH4 0x39509351 EQ PUSH2 0x812 JUMPI PUSH1 0x0 DUP1 REVERT JUMPDEST DUP1 PUSH4 0x1F3FED8F EQ PUSH2 0x6BA JUMPI DUP1 PUSH4 0x203E727E EQ PUSH2 0x6D0 JUMPI DUP1 PUSH4 0x21AC17F8 EQ PUSH2 0x6F0 JUMPI DUP1 PUSH4 0x23B872DD EQ PUSH2 0x71D JUMPI DUP1 PUSH4 0x23C40DE2 EQ PUSH2 0x73D JUMPI DUP1 PUSH4 0x2681EB81 EQ PUSH2 0x75D JUMPI PUSH1 0x0 DUP1 REVERT JUMPDEST DUP1 PUSH4 0x10D5DE53 GT PUSH2 0x4E0 JUMPI DUP1 PUSH4 0x10D5DE53 EQ PUSH2 0x5FA JUMPI DUP1 PUSH4 0x1694505E EQ PUSH2 0x62A JUMPI DUP1 PUSH4 0x18160DDD EQ PUSH2 0x662 JUMPI DUP1 PUSH4 0x184C16C5 EQ PUSH2 0x678 JUMPI DUP1 PUSH4 0x199FFC72 EQ PUSH2 0x68E JUMPI DUP1 PUSH4 0x1A8145BB EQ PUSH2 0x6A4 JUMPI PUSH1 0x0 DUP1 REVERT JUMPDEST DUP1 PUSH4 0x1440C90 EQ PUSH2 0x533 JUMPI DUP1 PUSH4 0x43CBE5B EQ PUSH2 0x55C JUMPI DUP1 PUSH4 0x6FDDE03 EQ PUSH2 0x57C JUMPI DUP1 PUSH4 0x95EA7B3 EQ PUSH2 0x59E JUMPI DUP1 PUSH4 0xCC874C7 EQ PUSH2 0x5CE JUMPI DUP1 PUSH4 0xF9154B5 EQ PUSH2 0x5E5 JUMPI PUSH1 0x0 DUP1 REVERT JUMPDEST CALLDATASIZE PUSH2 0x52E JUMPI STOP JUMPDEST PUSH1 0x0 DUP1 REVERT JUMPDEST CALLVALUE DUP1 ISZERO PUSH2 0x53F JUMPI PUSH1 0x0 DUP1 REVERT JUMPDEST POP PUSH2 0x549 PUSH1 0x37 SLOAD DUP2 JUMP JUMPDEST PUSH1 0x40 MLOAD SWAP1 DUP2 MSTORE PUSH1 0x20 ADD JUMPDEST PUSH1 0x40 MLOAD DUP1 SWAP2 SUB SWAP1 RETURN JUMPDEST CALLVALUE DUP1 ISZERO PUSH2 0x568 JUMPI PUSH1 0x0 DUP1 REVERT JUMPDEST POP PUSH2 0x549 PUSH2 0x577 CALLDATASIZE PUSH1 0x4 PUSH2 0x3B24 JUMP JUMPDEST PUSH2 0x10A7 JUMP JUMPDEST CALLVALUE DUP1 ISZERO PUSH2 0x588 JUMPI PUSH1 0x0 DUP1 REVERT JUMPDEST POP PUSH2 0x591 PUSH2 0x116C JUMP JUMPDEST PUSH1 0x40 MLOAD PUSH2 0x553 SWAP2 SWAP1 PUSH2 0x3BAB JUMP JUMPDEST CALLVALUE DUP1 ISZERO PUSH2 0x5AA JUMPI PUSH1 0x0 DUP1 REVERT JUMPDEST POP PUSH2 0x5BE PUSH2 0x5B9 CALLDATASIZE PUSH1 0x4 PUSH2 0x3A8E JUMP JUMPDEST PUSH2 0x11FE JUMP JUMPDEST PUSH1 0x40 MLOAD SWAP1 ISZERO ISZERO DUP2 MSTORE PUSH1 0x20 ADD PUSH2 0x553 JUMP JUMPDEST CALLVALUE DUP1 ISZERO PUSH2 0x5DA JUMPI PUSH1 0x0 DUP1 REVERT JUMPDEST POP PUSH2 0x5E3 PUSH2 0x1214 JUMP JUMPDEST STOP JUMPDEST CALLVALUE DUP1 ISZERO PUSH2 0x5F1 JUMPI PUSH1 0x0 DUP1 REVERT JUMPDEST POP PUSH2 0x5BE PUSH2 0x13D4 JUMP JUMPDEST CALLVALUE DUP1 ISZERO PUSH2 0x606 JUMPI PUSH1 0x0 DUP1 REVERT JUMPDEST POP PUSH2 0x5BE PUSH2 0x615 CALLDATASIZE PUSH1 0x4 PUSH2 0x39CD JUMP JUMPDEST PUSH1 0x3A PUSH1 0x20 MSTORE PUSH1 0x0 SWAP1 DUP2 MSTORE PUSH1 0x40 SWAP1 KECCAK256 SLOAD PUSH1 0xFF AND DUP2 JUMP JUMPDEST CALLVALUE DUP1 ISZERO PUSH2 0x636 JUMPI PUSH1 0x0 DUP1 REVERT JUMPDEST POP PUSH1 0x18 SLOAD PUSH2 0x64A SWAP1 PUSH1 0x1 PUSH1 0x1 PUSH1 0xA0 SHL SUB AND DUP2 JUMP JUMPDEST PUSH1 0x40 MLOAD PUSH1 0x1 PUSH1 0x1 PUSH1 0xA0 SHL SUB SWAP1 SWAP2 AND DUP2 MSTORE PUSH1 0x20 ADD PUSH2 0x553 JUMP JUMPDEST CALLVALUE DUP1 ISZERO PUSH2 0x66E JUMPI PUSH1 0x0 DUP1 REVERT JUMPDEST POP PUSH2 0x549 PUSH1 0x38 SLOAD DUP2 JUMP JUMPDEST CALLVALUE DUP1 ISZERO PUSH2 0x684 JUMPI PUSH1 0x0 DUP1 REVERT JUMPDEST POP PUSH2 0x549 PUSH1 0x25 SLOAD DUP2 JUMP JUMPDEST CALLVALUE DUP1 ISZERO PUSH2 0x69A JUMPI PUSH1 0x0 DUP1 REVERT JUMPDEST POP PUSH2 0x549 PUSH1 0x21 SLOAD DUP2 JUMP JUMPDEST CALLVALUE DUP1 ISZERO PUSH2 0x6B0 JUMPI PUSH1 0x0 DUP1 REVERT JUMPDEST POP PUSH2 0x549 PUSH1 0x35 SLOAD DUP2 JUMP JUMPDEST CALLVALUE DUP1 ISZERO PUSH2 0x6C6 JUMPI PUSH1 0x0 DUP1 REVERT JUMPDEST POP PUSH2 0x549 PUSH1 0x34 SLOAD DUP2 JUMP JUMPDEST CALLVALUE DUP1 ISZERO PUSH2 0x6DC JUMPI PUSH1 0x0 DUP1 REVERT JUMPDEST POP PUSH2 0x5E3 PUSH2 0x6EB CALLDATASIZE PUSH1 0x4 PUSH2 0x3AF2 JUMP JUMPDEST PUSH2 0x13E4 JUMP JUMPDEST CALLVALUE DUP1 ISZERO PUSH2 0x6FC JUMPI PUSH1 0x0 DUP1 REVERT JUMPDEST POP PUSH2 0x549 PUSH2 0x70B CALLDATASIZE PUSH1 0x4 PUSH2 0x39CD JUMP JUMPDEST PUSH1 0xE PUSH1 0x20 MSTORE PUSH1 0x0 SWAP1 DUP2 MSTORE PUSH1 0x40 SWAP1 KECCAK256 SLOAD DUP2 JUMP JUMPDEST CALLVALUE DUP1 ISZERO PUSH2 0x729 JUMPI PUSH1 0x0 DUP1 REVERT JUMPDEST POP PUSH2 0x5BE PUSH2 0x738 CALLDATASIZE PUSH1 0x4 PUSH2 0x3A1B JUMP JUMPDEST PUSH2 0x14BC JUMP JUMPDEST CALLVALUE DUP1 ISZERO PUSH2 0x749 JUMPI PUSH1 0x0 DUP1 REVERT JUMPDEST POP PUSH2 0x5E3 PUSH2 0x758 CALLDATASIZE PUSH1 0x4 PUSH2 0x39CD JUMP JUMPDEST PUSH2 0x156D JUMP JUMPDEST CALLVALUE DUP1 ISZERO PUSH2 0x769 JUMPI PUSH1 0x0 DUP1 REVERT JUMPDEST POP PUSH1 0x5 SLOAD PUSH2 0x64A SWAP1 PUSH1 0x1 PUSH1 0x1 PUSH1 0xA0 SHL SUB AND DUP2 JUMP JUMPDEST CALLVALUE DUP1 ISZERO PUSH2 0x789 JUMPI PUSH1 0x0 DUP1 REVERT JUMPDEST POP PUSH2 0x64A PUSH2 0xDEAD DUP2 JUMP JUMPDEST CALLVALUE DUP1 ISZERO PUSH2 0x79F JUMPI PUSH1 0x0 DUP1 REVERT JUMPDEST POP PUSH2 0x549 PUSH1 0x23 SLOAD DUP2 JUMP JUMPDEST CALLVALUE DUP1 ISZERO PUSH2 0x7B5 JUMPI PUSH1 0x0 DUP1 REVERT JUMPDEST POP PUSH1 0x22 SLOAD PUSH2 0x5BE SWAP1 PUSH1 0xFF AND DUP2 JUMP JUMPDEST CALLVALUE DUP1 ISZERO PUSH2 0x7CF JUMPI PUSH1 0x0 DUP1 REVERT JUMPDEST POP PUSH1 0x3 SLOAD PUSH1 0x40 MLOAD PUSH1 0xFF SWAP1 SWAP2 AND DUP2 MSTORE PUSH1 0x20 ADD PUSH2 0x553 JUMP JUMPDEST CALLVALUE DUP1 ISZERO PUSH2 0x7F1 JUMPI PUSH1 0x0 DUP1 REVERT JUMPDEST POP PUSH2 0x549 PUSH2 0x800 CALLDATASIZE PUSH1 0x4 PUSH2 0x39CD JUMP JUMPDEST PUSH1 0xC PUSH1 0x20 MSTORE PUSH1 0x0 SWAP1 DUP2 MSTORE PUSH1 0x40 SWAP1 KECCAK256 SLOAD DUP2 JUMP JUMPDEST CALLVALUE DUP1 ISZERO PUSH2 0x81E JUMPI PUSH1 0x0 DUP1 REVERT JUMPDEST POP PUSH2 0x5BE PUSH2 0x82D CALLDATASIZE PUSH1 0x4 PUSH2 0x3A8E JUMP JUMPDEST PUSH2 0x15B2 JUMP JUMPDEST CALLVALUE DUP1 ISZERO PUSH2 0x83E JUMPI PUSH1 0x0 DUP1 REVERT JUMPDEST POP PUSH2 0x5E3 PUSH2 0x84D CALLDATASIZE PUSH1 0x4 PUSH2 0x39CD JUMP JUMPDEST PUSH2 0x15E9 JUMP JUMPDEST CALLVALUE DUP1 ISZERO PUSH2 0x85E JUMPI PUSH1 0x0 DUP1 REVERT JUMPDEST POP PUSH1 0x19 SLOAD PUSH2 0x64A SWAP1 PUSH1 0x1 PUSH1 0x1 PUSH1 0xA0 SHL SUB AND DUP2 JUMP JUMPDEST CALLVALUE DUP1 ISZERO PUSH2 0x87E JUMPI PUSH1 0x0 DUP1 REVERT JUMPDEST POP PUSH1 0x27 SLOAD PUSH2 0x5BE SWAP1 PUSH1 0xFF AND DUP2 JUMP JUMPDEST CALLVALUE DUP1 ISZERO PUSH2 0x898 JUMPI PUSH1 0x0 DUP1 REVERT JUMPDEST POP PUSH2 0x5BE PUSH2 0x8A7 CALLDATASIZE PUSH1 0x4 PUSH2 0x39CD JUMP JUMPDEST PUSH1 0x1 PUSH1 0x1 PUSH1 0xA0 SHL SUB AND PUSH1 0x0 SWAP1 DUP2 MSTORE PUSH1 0x39 PUSH1 0x20 MSTORE PUSH1 0x40 SWAP1 KECCAK256 SLOAD PUSH1 0xFF AND SWAP1 JUMP JUMPDEST CALLVALUE DUP1 ISZERO PUSH2 0x8D1 JUMPI PUSH1 0x0 DUP1 REVERT JUMPDEST POP PUSH2 0x5E3 PUSH2 0x1670 JUMP JUMPDEST CALLVALUE DUP1 ISZERO PUSH2 0x8E6 JUMPI PUSH1 0x0 DUP1 REVERT JUMPDEST POP PUSH2 0x64A PUSH2 0x8F5 CALLDATASIZE PUSH1 0x4 PUSH2 0x3AF2 JUMP JUMPDEST PUSH2 0x196C JUMP JUMPDEST CALLVALUE DUP1 ISZERO PUSH2 0x906 JUMPI PUSH1 0x0 DUP1 REVERT JUMPDEST POP PUSH2 0x5BE PUSH2 0x915 CALLDATASIZE PUSH1 0x4 PUSH2 0x39CD JUMP JUMPDEST PUSH2 0x1996 JUMP JUMPDEST CALLVALUE DUP1 ISZERO PUSH2 0x926 JUMPI PUSH1 0x0 DUP1 REVERT JUMPDEST POP PUSH2 0x5E3 PUSH2 0x19B4 JUMP JUMPDEST CALLVALUE DUP1 ISZERO PUSH2 0x93B JUMPI PUSH1 0x0 DUP1 REVERT JUMPDEST POP PUSH2 0x549 PUSH2 0x94A CALLDATASIZE PUSH1 0x4 PUSH2 0x39CD JUMP JUMPDEST PUSH1 0x13 PUSH1 0x20 MSTORE PUSH1 0x0 SWAP1 DUP2 MSTORE PUSH1 0x40 SWAP1 KECCAK256 SLOAD DUP2 JUMP JUMPDEST CALLVALUE DUP1 ISZERO PUSH2 0x968 JUMPI PUSH1 0x0 DUP1 REVERT JUMPDEST POP PUSH2 0x549 PUSH2 0x977 CALLDATASIZE PUSH1 0x4 PUSH2 0x39CD JUMP JUMPDEST PUSH1 0x10 PUSH1 0x20 MSTORE PUSH1 0x0 SWAP1 DUP2 MSTORE PUSH1 0x40 SWAP1 KECCAK256 SLOAD DUP2 JUMP JUMPDEST CALLVALUE DUP1 ISZERO PUSH2 0x995 JUMPI PUSH1 0x0 DUP1 REVERT JUMPDEST POP PUSH2 0x549 PUSH1 0x2F SLOAD DUP2 JUMP JUMPDEST CALLVALUE DUP1 ISZERO PUSH2 0x9AB JUMPI PUSH1 0x0 DUP1 REVERT JUMPDEST POP PUSH1 0x27 SLOAD PUSH2 0x5BE SWAP1 PUSH3 0x10000 SWAP1 DIV PUSH1 0xFF AND DUP2 JUMP JUMPDEST CALLVALUE DUP1 ISZERO PUSH2 0x9CB JUMPI PUSH1 0x0 DUP1 REVERT JUMPDEST POP PUSH2 0x549 PUSH2 0x9DA CALLDATASIZE PUSH1 0x4 PUSH2 0x39CD JUMP JUMPDEST PUSH2 0x19C1 JUMP JUMPDEST CALLVALUE DUP1 ISZERO PUSH2 0x9EB JUMPI PUSH1 0x0 DUP1 REVERT JUMPDEST POP PUSH2 0x5E3 PUSH2 0x1A20 JUMP JUMPDEST CALLVALUE DUP1 ISZERO PUSH2 0xA00 JUMPI PUSH1 0x0 DUP1 REVERT JUMPDEST POP PUSH2 0x5E3 PUSH2 0xA0F CALLDATASIZE PUSH1 0x4 PUSH2 0x3B46 JUMP JUMPDEST PUSH2 0x1A94 JUMP JUMPDEST CALLVALUE DUP1 ISZERO PUSH2 0xA20 JUMPI PUSH1 0x0 DUP1 REVERT JUMPDEST POP PUSH2 0x549 PUSH1 0x33 SLOAD DUP2 JUMP JUMPDEST CALLVALUE DUP1 ISZERO PUSH2 0xA36 JUMPI PUSH1 0x0 DUP1 REVERT JUMPDEST POP PUSH2 0x5BE PUSH2 0x1BBD JUMP JUMPDEST CALLVALUE DUP1 ISZERO PUSH2 0xA4B JUMPI PUSH1 0x0 DUP1 REVERT JUMPDEST POP PUSH2 0x5E3 PUSH2 0xA5A CALLDATASIZE PUSH1 0x4 PUSH2 0x3A57 JUMP JUMPDEST PUSH2 0x1BFA JUMP JUMPDEST CALLVALUE DUP1 ISZERO PUSH2 0xA6B JUMPI PUSH1 0x0 DUP1 REVERT JUMPDEST POP PUSH1 0x1A SLOAD PUSH2 0x64A SWAP1 PUSH1 0x1 PUSH1 0x1 PUSH1 0xA0 SHL SUB AND DUP2 JUMP JUMPDEST CALLVALUE DUP1 ISZERO PUSH2 0xA8B JUMPI PUSH1 0x0 DUP1 REVERT JUMPDEST POP PUSH2 0x549 PUSH1 0x2B SLOAD DUP2 JUMP JUMPDEST CALLVALUE DUP1 ISZERO PUSH2 0xAA1 JUMPI PUSH1 0x0 DUP1 REVERT JUMPDEST POP PUSH1 0x8 SLOAD PUSH2 0x5BE SWAP1 PUSH1 0xFF AND DUP2 JUMP JUMPDEST CALLVALUE DUP1 ISZERO PUSH2 0xABB JUMPI PUSH1 0x0 DUP1 REVERT JUMPDEST POP PUSH2 0x5E3 PUSH2 0xACA CALLDATASIZE PUSH1 0x4 PUSH2 0x3B7F JUMP JUMPDEST PUSH2 0x1C4F JUMP JUMPDEST CALLVALUE DUP1 ISZERO PUSH2 0xADB JUMPI PUSH1 0x0 DUP1 REVERT JUMPDEST POP TIMESTAMP PUSH2 0x549 JUMP JUMPDEST CALLVALUE DUP1 ISZERO PUSH2 0xAEE JUMPI PUSH1 0x0 DUP1 REVERT JUMPDEST POP PUSH2 0x549 PUSH1 0x9 SLOAD DUP2 JUMP JUMPDEST CALLVALUE DUP1 ISZERO PUSH2 0xB04 JUMPI PUSH1 0x0 DUP1 REVERT JUMPDEST POP PUSH2 0x5E3 PUSH2 0x1D05 JUMP JUMPDEST CALLVALUE DUP1 ISZERO PUSH2 0xB19 JUMPI PUSH1 0x0 DUP1 REVERT JUMPDEST POP PUSH1 0x17 SLOAD PUSH1 0x1 PUSH1 0x1 PUSH1 0xA0 SHL SUB AND PUSH2 0x64A JUMP JUMPDEST CALLVALUE DUP1 ISZERO PUSH2 0xB37 JUMPI PUSH1 0x0 DUP1 REVERT JUMPDEST POP PUSH1 0x1B SLOAD PUSH2 0x64A SWAP1 PUSH1 0x1 PUSH1 0x1 PUSH1 0xA0 SHL SUB AND DUP2 JUMP JUMPDEST CALLVALUE DUP1 ISZERO PUSH2 0xB57 JUMPI PUSH1 0x0 DUP1 REVERT JUMPDEST POP PUSH2 0x549 PUSH1 0x30 SLOAD DUP2 JUMP JUMPDEST CALLVALUE DUP1 ISZERO PUSH2 0xB6D JUMPI PUSH1 0x0 DUP1 REVERT JUMPDEST POP PUSH1 0x6 SLOAD PUSH2 0x64A SWAP1 PUSH1 0x1 PUSH1 0x1 PUSH1 0xA0 SHL SUB AND DUP2 JUMP JUMPDEST CALLVALUE DUP1 ISZERO PUSH2 0xB8D JUMPI PUSH1 0x0 DUP1 REVERT JUMPDEST POP PUSH2 0x5E3 PUSH2 0xB9C CALLDATASIZE PUSH1 0x4 PUSH2 0x3AB8 JUMP JUMPDEST PUSH2 0x1D46 JUMP JUMPDEST CALLVALUE DUP1 ISZERO PUSH2 0xBAD JUMPI PUSH1 0x0 DUP1 REVERT JUMPDEST POP PUSH1 0x14 SLOAD PUSH2 0x549 JUMP JUMPDEST CALLVALUE DUP1 ISZERO PUSH2 0xBC2 JUMPI PUSH1 0x0 DUP1 REVERT JUMPDEST POP PUSH2 0x591 PUSH2 0x1D8C JUMP JUMPDEST CALLVALUE DUP1 ISZERO PUSH2 0xBD7 JUMPI PUSH1 0x0 DUP1 REVERT JUMPDEST POP PUSH2 0x5E3 PUSH2 0xBE6 CALLDATASIZE PUSH1 0x4 PUSH2 0x3A57 JUMP JUMPDEST PUSH2 0x1D9B JUMP JUMPDEST CALLVALUE DUP1 ISZERO PUSH2 0xBF7 JUMPI PUSH1 0x0 DUP1 REVERT JUMPDEST POP PUSH1 0x4 SLOAD PUSH2 0x549 JUMP JUMPDEST CALLVALUE DUP1 ISZERO PUSH2 0xC0C JUMPI PUSH1 0x0 DUP1 REVERT JUMPDEST POP PUSH2 0x549 PUSH1 0x2D SLOAD DUP2 JUMP JUMPDEST CALLVALUE DUP1 ISZERO PUSH2 0xC22 JUMPI PUSH1 0x0 DUP1 REVERT JUMPDEST POP PUSH2 0x5E3 PUSH2 0xC31 CALLDATASIZE PUSH1 0x4 PUSH2 0x3AF2 JUMP JUMPDEST PUSH2 0x1E53 JUMP JUMPDEST CALLVALUE DUP1 ISZERO PUSH2 0xC42 JUMPI PUSH1 0x0 DUP1 REVERT JUMPDEST POP PUSH2 0x549 PUSH1 0x26 SLOAD DUP2 JUMP JUMPDEST CALLVALUE DUP1 ISZERO PUSH2 0xC58 JUMPI PUSH1 0x0 DUP1 REVERT JUMPDEST POP PUSH2 0x549 PUSH1 0x36 SLOAD DUP2 JUMP JUMPDEST CALLVALUE DUP1 ISZERO PUSH2 0xC6E JUMPI PUSH1 0x0 DUP1 REVERT JUMPDEST POP PUSH2 0x549 PUSH1 0x32 SLOAD DUP2 JUMP JUMPDEST CALLVALUE DUP1 ISZERO PUSH2 0xC84 JUMPI PUSH1 0x0 DUP1 REVERT JUMPDEST POP PUSH2 0x5BE PUSH2 0xC93 CALLDATASIZE PUSH1 0x4 PUSH2 0x3A8E JUMP JUMPDEST PUSH2 0x1E5D JUMP JUMPDEST CALLVALUE DUP1 ISZERO PUSH2 0xCA4 JUMPI PUSH1 0x0 DUP1 REVERT JUMPDEST POP PUSH2 0x549 PUSH1 0x24 SLOAD DUP2 JUMP JUMPDEST CALLVALUE DUP1 ISZERO PUSH2 0xCBA JUMPI PUSH1 0x0 DUP1 REVERT JUMPDEST POP PUSH2 0x549 PUSH2 0xCC9 CALLDATASIZE PUSH1 0x4 PUSH2 0x39CD JUMP JUMPDEST PUSH1 0x12 PUSH1 0x20 MSTORE PUSH1 0x0 SWAP1 DUP2 MSTORE PUSH1 0x40 SWAP1 KECCAK256 SLOAD DUP2 JUMP JUMPDEST CALLVALUE DUP1 ISZERO PUSH2 0xCE7 JUMPI PUSH1 0x0 DUP1 REVERT JUMPDEST POP PUSH2 0x5E3 PUSH2 0xCF6 CALLDATASIZE PUSH1 0x4 PUSH2 0x39CD JUMP JUMPDEST PUSH2 0x1EF8 JUMP JUMPDEST CALLVALUE DUP1 ISZERO PUSH2 0xD07 JUMPI PUSH1 0x0 DUP1 REVERT JUMPDEST POP PUSH2 0x5BE PUSH2 0xD16 CALLDATASIZE PUSH1 0x4 PUSH2 0x3A8E JUMP JUMPDEST PUSH2 0x205E JUMP JUMPDEST CALLVALUE DUP1 ISZERO PUSH2 0xD27 JUMPI PUSH1 0x0 DUP1 REVERT JUMPDEST POP PUSH2 0x5BE PUSH2 0xD36 CALLDATASIZE PUSH1 0x4 PUSH2 0x39CD JUMP JUMPDEST PUSH1 0x15 PUSH1 0x20 MSTORE PUSH1 0x0 SWAP1 DUP2 MSTORE PUSH1 0x40 SWAP1 KECCAK256 SLOAD PUSH1 0xFF AND DUP2 JUMP JUMPDEST CALLVALUE DUP1 ISZERO PUSH2 0xD57 JUMPI PUSH1 0x0 DUP1 REVERT JUMPDEST POP PUSH2 0x5E3 PUSH2 0xD66 CALLDATASIZE PUSH1 0x4 PUSH2 0x39CD JUMP JUMPDEST PUSH2 0x206B JUMP JUMPDEST CALLVALUE DUP1 ISZERO PUSH2 0xD77 JUMPI PUSH1 0x0 DUP1 REVERT JUMPDEST POP PUSH2 0x5BE PUSH2 0xD86 CALLDATASIZE PUSH1 0x4 PUSH2 0x39CD JUMP JUMPDEST PUSH1 0x3B PUSH1 0x20 MSTORE PUSH1 0x0 SWAP1 DUP2 MSTORE PUSH1 0x40 SWAP1 KECCAK256 SLOAD PUSH1 0xFF AND DUP2 JUMP JUMPDEST CALLVALUE DUP1 ISZERO PUSH2 0xDA7 JUMPI PUSH1 0x0 DUP1 REVERT JUMPDEST POP PUSH1 0x1C SLOAD PUSH2 0x64A SWAP1 PUSH1 0x1 PUSH1 0x1 PUSH1 0xA0 SHL SUB AND DUP2 JUMP JUMPDEST CALLVALUE DUP1 ISZERO PUSH2 0xDC7 JUMPI PUSH1 0x0 DUP1 REVERT JUMPDEST POP PUSH1 0x27 SLOAD PUSH2 0x5BE SWAP1 PUSH2 0x100 SWAP1 DIV PUSH1 0xFF AND DUP2 JUMP JUMPDEST CALLVALUE DUP1 ISZERO PUSH2 0xDE6 JUMPI PUSH1 0x0 DUP1 REVERT JUMPDEST POP PUSH2 0x5E3 PUSH2 0xDF5 CALLDATASIZE PUSH1 0x4 PUSH2 0x3A57 JUMP JUMPDEST PUSH2 0x20F2 JUMP JUMPDEST CALLVALUE DUP1 ISZERO PUSH2 0xE06 JUMPI PUSH1 0x0 DUP1 REVERT JUMPDEST POP PUSH2 0x5E3 PUSH2 0xE15 CALLDATASIZE PUSH1 0x4 PUSH2 0x3B7F JUMP JUMPDEST PUSH2 0x217B JUMP JUMPDEST CALLVALUE DUP1 ISZERO PUSH2 0xE26 JUMPI PUSH1 0x0 DUP1 REVERT JUMPDEST POP PUSH2 0x5E3 PUSH2 0xE35 CALLDATASIZE PUSH1 0x4 PUSH2 0x3AF2 JUMP JUMPDEST PUSH2 0x222C JUMP JUMPDEST CALLVALUE DUP1 ISZERO PUSH2 0xE46 JUMPI PUSH1 0x0 DUP1 REVERT JUMPDEST POP PUSH1 0x16 SLOAD PUSH2 0x64A SWAP1 PUSH1 0x1 PUSH1 0x1 PUSH1 0xA0 SHL SUB AND DUP2 JUMP JUMPDEST CALLVALUE DUP1 ISZERO PUSH2 0xE66 JUMPI PUSH1 0x0 DUP1 REVERT JUMPDEST POP PUSH2 0x5BE PUSH2 0xE75 CALLDATASIZE PUSH1 0x4 PUSH2 0x39CD JUMP JUMPDEST PUSH1 0xD PUSH1 0x20 MSTORE PUSH1 0x0 SWAP1 DUP2 MSTORE PUSH1 0x40 SWAP1 KECCAK256 SLOAD PUSH1 0xFF AND DUP2 JUMP JUMPDEST CALLVALUE DUP1 ISZERO PUSH2 0xE96 JUMPI PUSH1 0x0 DUP1 REVERT JUMPDEST POP PUSH1 0x29 SLOAD PUSH2 0x5BE SWAP1 PUSH1 0xFF AND DUP2 JUMP JUMPDEST CALLVALUE DUP1 ISZERO PUSH2 0xEB0 JUMPI PUSH1 0x0 DUP1 REVERT JUMPDEST POP PUSH2 0x549 PUSH1 0x1D SLOAD DUP2 JUMP JUMPDEST CALLVALUE DUP1 ISZERO PUSH2 0xEC6 JUMPI PUSH1 0x0 DUP1 REVERT JUMPDEST POP PUSH2 0x549 PUSH1 0x2E SLOAD DUP2 JUMP JUMPDEST CALLVALUE DUP1 ISZERO PUSH2 0xEDC JUMPI PUSH1 0x0 DUP1 REVERT JUMPDEST POP PUSH2 0x549 PUSH2 0xEEB CALLDATASIZE PUSH1 0x4 PUSH2 0x39CD JUMP JUMPDEST PUSH1 0x11 PUSH1 0x20 MSTORE PUSH1 0x0 SWAP1 DUP2 MSTORE PUSH1 0x40 SWAP1 KECCAK256 SLOAD DUP2 JUMP JUMPDEST CALLVALUE DUP1 ISZERO PUSH2 0xF09 JUMPI PUSH1 0x0 DUP1 REVERT JUMPDEST POP PUSH2 0x5BE PUSH2 0xF18 CALLDATASIZE PUSH1 0x4 PUSH2 0x3AF2 JUMP JUMPDEST PUSH2 0x22F8 JUMP JUMPDEST CALLVALUE DUP1 ISZERO PUSH2 0xF29 JUMPI PUSH1 0x0 DUP1 REVERT JUMPDEST POP PUSH2 0x5E3 PUSH2 0x2445 JUMP JUMPDEST CALLVALUE DUP1 ISZERO PUSH2 0xF3E JUMPI PUSH1 0x0 DUP1 REVERT JUMPDEST POP PUSH2 0x549 PUSH1 0x2A SLOAD DUP2 JUMP JUMPDEST CALLVALUE DUP1 ISZERO PUSH2 0xF54 JUMPI PUSH1 0x0 DUP1 REVERT JUMPDEST POP PUSH2 0x549 PUSH2 0xF63 CALLDATASIZE PUSH1 0x4 PUSH2 0x39E8 JUMP JUMPDEST PUSH1 0x1 PUSH1 0x1 PUSH1 0xA0 SHL SUB SWAP2 DUP3 AND PUSH1 0x0 SWAP1 DUP2 MSTORE PUSH1 0xB PUSH1 0x20 SWAP1 DUP2 MSTORE PUSH1 0x40 DUP1 DUP4 KECCAK256 SWAP4 SWAP1 SWAP5 AND DUP3 MSTORE SWAP2 SWAP1 SWAP2 MSTORE KECCAK256 SLOAD SWAP1 JUMP JUMPDEST CALLVALUE DUP1 ISZERO PUSH2 0xF9A JUMPI PUSH1 0x0 DUP1 REVERT JUMPDEST POP PUSH2 0x549 PUSH1 0x1E SLOAD DUP2 JUMP JUMPDEST CALLVALUE DUP1 ISZERO PUSH2 0xFB0 JUMPI PUSH1 0x0 DUP1 REVERT JUMPDEST POP PUSH2 0x64A PUSH2 0xFBF CALLDATASIZE PUSH1 0x4 PUSH2 0x39CD JUMP JUMPDEST PUSH1 0xF PUSH1 0x20 MSTORE PUSH1 0x0 SWAP1 DUP2 MSTORE PUSH1 0x40 SWAP1 KECCAK256 SLOAD PUSH1 0x1 PUSH1 0x1 PUSH1 0xA0 SHL SUB AND DUP2 JUMP JUMPDEST CALLVALUE DUP1 ISZERO PUSH2 0xFE6 JUMPI PUSH1 0x0 DUP1 REVERT JUMPDEST POP PUSH2 0x5BE PUSH2 0x2450 JUMP JUMPDEST CALLVALUE DUP1 ISZERO PUSH2 0xFFB JUMPI PUSH1 0x0 DUP1 REVERT JUMPDEST POP PUSH2 0x549 PUSH1 0x7 SLOAD DUP2 JUMP JUMPDEST CALLVALUE DUP1 ISZERO PUSH2 0x1011 JUMPI PUSH1 0x0 DUP1 REVERT JUMPDEST POP PUSH2 0x549 PUSH1 0x2C SLOAD DUP2 JUMP JUMPDEST CALLVALUE DUP1 ISZERO PUSH2 0x1027 JUMPI PUSH1 0x0 DUP1 REVERT JUMPDEST POP PUSH2 0x5E3 PUSH2 0x1036 CALLDATASIZE PUSH1 0x4 PUSH2 0x39CD JUMP JUMPDEST PUSH2 0x248D JUMP JUMPDEST CALLVALUE DUP1 ISZERO PUSH2 0x1047 JUMPI PUSH1 0x0 DUP1 REVERT JUMPDEST POP PUSH2 0x549 PUSH1 0x31 SLOAD DUP2 JUMP JUMPDEST CALLVALUE DUP1 ISZERO PUSH2 0x105D JUMPI PUSH1 0x0 DUP1 REVERT JUMPDEST POP PUSH2 0x5E3 PUSH2 0x106C CALLDATASIZE PUSH1 0x4 PUSH2 0x39CD JUMP JUMPDEST PUSH2 0x15A5 JUMP JUMPDEST CALLVALUE DUP1 ISZERO PUSH2 0x107D JUMPI PUSH1 0x0 DUP1 REVERT JUMPDEST POP PUSH2 0x549 PUSH1 0x1F SLOAD DUP2 JUMP JUMPDEST CALLVALUE DUP1 ISZERO PUSH2 0x1093 JUMPI PUSH1 0x0 DUP1 REVERT JUMPDEST POP PUSH2 0x5BE PUSH2 0x10A2 CALLDATASIZE PUSH1 0x4 PUSH2 0x3AF2 JUMP JUMPDEST PUSH2 0x2578 JUMP JUMPDEST PUSH1 0x0 DUP1 PUSH2 0x10B3 DUP5 PUSH2 0x27BB JUMP JUMPDEST SWAP1 POP PUSH1 0x0 PUSH2 0x10D0 PUSH6 0x1F331628785 PUSH9 0x3635C9ADC5DEA00000 PUSH2 0x281E JUMP JUMPDEST SWAP1 POP PUSH1 0x0 PUSH2 0x10DE PUSH1 0x2 PUSH2 0x27BB JUMP JUMPDEST SWAP1 POP JUMPDEST DUP5 ISZERO PUSH2 0x114C JUMPI PUSH2 0x10F2 PUSH1 0x2 DUP7 PUSH2 0x3E31 JUMP JUMPDEST PUSH1 0x1 EQ ISZERO PUSH2 0x1122 JUMPI PUSH2 0x110E PUSH2 0x1107 DUP5 DUP5 PUSH2 0x28A6 JUMP JUMPDEST DUP5 SWAP1 PUSH2 0x2A99 JUMP JUMPDEST SWAP3 POP PUSH2 0x111B PUSH1 0x1 DUP7 PUSH2 0x3DB3 JUMP JUMPDEST SWAP5 POP PUSH2 0x10E1 JUMP JUMPDEST PUSH2 0x113F PUSH2 0x112F DUP4 DUP1 PUSH2 0x28A6 JUMP JUMPDEST PUSH2 0x1139 DUP4 DUP6 PUSH2 0x28A6 JUMP JUMPDEST SWAP1 PUSH2 0x2A99 JUMP JUMPDEST SWAP2 POP PUSH2 0x111B PUSH1 0x2 DUP7 PUSH2 0x3CBC JUMP JUMPDEST DUP6 PUSH2 0x1156 DUP5 PUSH2 0x2B06 JUMP JUMPDEST PUSH2 0x1160 SWAP2 SWAP1 PUSH2 0x3DB3 JUMP JUMPDEST SWAP4 POP POP POP POP JUMPDEST SWAP3 SWAP2 POP POP JUMP JUMPDEST PUSH1 0x60 PUSH1 0x1 DUP1 SLOAD PUSH2 0x117B SWAP1 PUSH2 0x3DE1 JUMP JUMPDEST DUP1 PUSH1 0x1F ADD PUSH1 0x20 DUP1 SWAP2 DIV MUL PUSH1 0x20 ADD PUSH1 0x40 MLOAD SWAP1 DUP2 ADD PUSH1 0x40 MSTORE DUP1 SWAP3 SWAP2 SWAP1 DUP2 DUP2 MSTORE PUSH1 0x20 ADD DUP3 DUP1 SLOAD PUSH2 0x11A7 SWAP1 PUSH2 0x3DE1 JUMP JUMPDEST DUP1 ISZERO PUSH2 0x11F4 JUMPI DUP1 PUSH1 0x1F LT PUSH2 0x11C9 JUMPI PUSH2 0x100 DUP1 DUP4 SLOAD DIV MUL DUP4 MSTORE SWAP2 PUSH1 0x20 ADD SWAP2 PUSH2 0x11F4 JUMP JUMPDEST DUP3 ADD SWAP2 SWAP1 PUSH1 0x0 MSTORE PUSH1 0x20 PUSH1 0x0 KECCAK256 SWAP1 JUMPDEST DUP2 SLOAD DUP2 MSTORE SWAP1 PUSH1 0x1 ADD SWAP1 PUSH1 0x20 ADD DUP1 DUP4 GT PUSH2 0x11D7 JUMPI DUP3 SWAP1 SUB PUSH1 0x1F AND DUP3 ADD SWAP2 JUMPDEST POP POP POP POP POP SWAP1 POP SWAP1 JUMP JUMPDEST PUSH1 0x0 PUSH2 0x120B CALLER DUP5 DUP5 PUSH2 0x2B1C JUMP JUMPDEST POP PUSH1 0x1 SWAP3 SWAP2 POP POP JUMP JUMPDEST PUSH1 0x7 SLOAD TIMESTAMP LT ISZERO PUSH2 0x1256 JUMPI PUSH1 0x40 MLOAD PUSH3 0x461BCD PUSH1 0xE5 SHL DUP2 MSTORE PUSH1 0x20 PUSH1 0x4 DUP3 ADD MSTORE PUSH1 0x8 PUSH1 0x24 DUP3 ADD MSTORE PUSH8 0x4E6F745265616479 PUSH1 0xC0 SHL PUSH1 0x44 DUP3 ADD MSTORE PUSH1 0x64 ADD JUMPDEST PUSH1 0x40 MLOAD DUP1 SWAP2 SUB SWAP1 REVERT JUMPDEST PUSH1 0x8 SLOAD PUSH1 0xFF AND ISZERO PUSH2 0x129B JUMPI PUSH1 0x40 MLOAD PUSH3 0x461BCD PUSH1 0xE5 SHL DUP2 MSTORE PUSH1 0x20 PUSH1 0x4 DUP3 ADD MSTORE PUSH1 0xF PUSH1 0x24 DUP3 ADD MSTORE PUSH15 0x105B1C9958591E53185D5B98DA1959 PUSH1 0x8A SHL PUSH1 0x44 DUP3 ADD MSTORE PUSH1 0x64 ADD PUSH2 0x124D JUMP JUMPDEST PUSH1 0x6 PUSH1 0x0 SWAP1 SLOAD SWAP1 PUSH2 0x100 EXP SWAP1 DIV PUSH1 0x1 PUSH1 0x1 PUSH1 0xA0 SHL SUB AND PUSH1 0x1 PUSH1 0x1 PUSH1 0xA0 SHL SUB AND PUSH4 0x165505C1 PUSH1 0x40 MLOAD DUP2 PUSH4 0xFFFFFFFF AND PUSH1 0xE0 SHL DUP2 MSTORE PUSH1 0x4 ADD PUSH1 0x0 PUSH1 0x40 MLOAD DUP1 DUP4 SUB DUP2 PUSH1 0x0 DUP8 DUP1 EXTCODESIZE ISZERO DUP1 ISZERO PUSH2 0x12EB JUMPI PUSH1 0x0 DUP1 REVERT JUMPDEST POP GAS CALL ISZERO DUP1 ISZERO PUSH2 0x12FF JUMPI RETURNDATASIZE PUSH1 0x0 DUP1 RETURNDATACOPY RETURNDATASIZE PUSH1 0x0 REVERT JUMPDEST POP POP POP POP PUSH1 0x0 SLOAD PUSH1 0x9 SLOAD GT ISZERO PUSH2 0x13C5 JUMPI PUSH1 0x0 DUP1 SLOAD PUSH1 0x9 SLOAD PUSH2 0x1320 SWAP2 SWAP1 PUSH2 0x3DB3 JUMP JUMPDEST PUSH1 0x6 SLOAD PUSH1 0x1 PUSH1 0x1 PUSH1 0xA0 SHL SUB AND PUSH1 0x0 SWAP1 DUP2 MSTORE PUSH1 0xA PUSH1 0x20 MSTORE PUSH1 0x40 SWAP1 KECCAK256 SLOAD SWAP1 SWAP2 POP PUSH2 0x1349 SWAP1 DUP3 SWAP1 PUSH2 0x3C76 JUMP JUMPDEST PUSH1 0x6 SLOAD PUSH1 0x1 PUSH1 0x1 PUSH1 0xA0 SHL SUB AND PUSH1 0x0 SWAP1 DUP2 MSTORE PUSH1 0xA PUSH1 0x20 MSTORE PUSH1 0x40 DUP2 KECCAK256 SWAP2 SWAP1 SWAP2 SSTORE DUP1 SLOAD DUP3 SWAP2 SWAP1 DUP2 SWAP1 PUSH2 0x1379 SWAP1 DUP5 SWAP1 PUSH2 0x3C76 JUMP JUMPDEST SWAP1 SWAP2 SSTORE POP POP PUSH1 0x6 SLOAD PUSH1 0x40 MLOAD DUP3 DUP2 MSTORE PUSH1 0x1 PUSH1 0x1 PUSH1 0xA0 SHL SUB SWAP1 SWAP2 AND SWAP1 PUSH1 0x0 SWAP1 PUSH32 0xDDF252AD1BE2C89B69C2B068FC378DAA952BA7F163C4A11628F55A4DF523B3EF SWAP1 PUSH1 0x20 ADD PUSH1 0x40 MLOAD DUP1 SWAP2 SUB SWAP1 LOG3 POP JUMPDEST PUSH1 0x8 DUP1 SLOAD PUSH1 0xFF NOT AND PUSH1 0x1 OR SWAP1 SSTORE JUMP JUMPDEST PUSH1 0x0 PUSH2 0x13DF CALLER PUSH2 0x2C40 JUMP JUMPDEST SWAP1 POP SWAP1 JUMP JUMPDEST PUSH1 0x17 SLOAD PUSH1 0x1 PUSH1 0x1 PUSH1 0xA0 SHL SUB AND CALLER EQ PUSH2 0x140E JUMPI PUSH1 0x40 MLOAD PUSH3 0x461BCD PUSH1 0xE5 SHL DUP2 MSTORE PUSH1 0x4 ADD PUSH2 0x124D SWAP1 PUSH2 0x3C00 JUMP JUMPDEST PUSH8 0xDE0B6B3A7640000 PUSH2 0x3E8 PUSH1 0x38 SLOAD PUSH1 0x1 PUSH2 0x1429 SWAP2 SWAP1 PUSH2 0x3D55 JUMP JUMPDEST PUSH2 0x1433 SWAP2 SWAP1 PUSH2 0x3CBC JUMP JUMPDEST PUSH2 0x143D SWAP2 SWAP1 PUSH2 0x3CBC JUMP JUMPDEST DUP2 LT ISZERO PUSH2 0x14A4 JUMPI PUSH1 0x40 MLOAD PUSH3 0x461BCD PUSH1 0xE5 SHL DUP2 MSTORE PUSH1 0x20 PUSH1 0x4 DUP3 ADD MSTORE PUSH1 0x2F PUSH1 0x24 DUP3 ADD MSTORE PUSH32 0x43616E6E6F7420736574206D61785472616E73616374696F6E416D6F756E7420 PUSH1 0x44 DUP3 ADD MSTORE PUSH15 0x6C6F776572207468616E20302E3125 PUSH1 0x88 SHL PUSH1 0x64 DUP3 ADD MSTORE PUSH1 0x84 ADD PUSH2 0x124D JUMP JUMPDEST PUSH2 0x14B6 DUP2 PUSH8 0xDE0B6B3A7640000 PUSH2 0x3D55 JUMP JUMPDEST PUSH1 0x1D SSTORE POP JUMP JUMPDEST PUSH1 0x0 PUSH2 0x14C9 DUP5 DUP5 DUP5 PUSH2 0x2D67 JUMP JUMPDEST PUSH1 0x1 PUSH1 0x1 PUSH1 0xA0 SHL SUB DUP5 AND PUSH1 0x0 SWAP1 DUP2 MSTORE PUSH1 0xB PUSH1 0x20 SWAP1 DUP2 MSTORE PUSH1 0x40 DUP1 DUP4 KECCAK256 CALLER DUP5 MSTORE SWAP1 SWAP2 MSTORE SWAP1 KECCAK256 SLOAD DUP3 DUP2 LT ISZERO PUSH2 0x154E JUMPI PUSH1 0x40 MLOAD PUSH3 0x461BCD PUSH1 0xE5 SHL DUP2 MSTORE PUSH1 0x20 PUSH1 0x4 DUP3 ADD MSTORE PUSH1 0x28 PUSH1 0x24 DUP3 ADD MSTORE PUSH32 0x45524332303A207472616E7366657220616D6F756E7420657863656564732061 PUSH1 0x44 DUP3 ADD MSTORE PUSH8 0x6C6C6F77616E6365 PUSH1 0xC0 SHL PUSH1 0x64 DUP3 ADD MSTORE PUSH1 0x84 ADD PUSH2 0x124D JUMP JUMPDEST PUSH2 0x1562 DUP6 CALLER PUSH2 0x155D DUP7 DUP6 PUSH2 0x3DB3 JUMP JUMPDEST PUSH2 0x2B1C JUMP JUMPDEST POP PUSH1 0x1 SWAP5 SWAP4 POP POP POP POP JUMP JUMPDEST PUSH1 0x14 SLOAD PUSH1 0xC EQ DUP1 ISZERO PUSH2 0x1598 JUMPI POP PUSH1 0x1 PUSH1 0x1 PUSH1 0xA0 SHL SUB DUP2 AND PUSH1 0x0 SWAP1 DUP2 MSTORE PUSH1 0x15 PUSH1 0x20 MSTORE PUSH1 0x40 SWAP1 KECCAK256 SLOAD PUSH1 0xFF AND ISZERO JUMPDEST ISZERO PUSH2 0x15A5 JUMPI PUSH2 0x15A5 PUSH2 0x1670 JUMP JUMPDEST PUSH2 0x15AF DUP2 CALLER PUSH2 0x3062 JUMP JUMPDEST POP JUMP JUMPDEST CALLER PUSH1 0x0 DUP2 DUP2 MSTORE PUSH1 0xB PUSH1 0x20 SWAP1 DUP2 MSTORE PUSH1 0x40 DUP1 DUP4 KECCAK256 PUSH1 0x1 PUSH1 0x1 PUSH1 0xA0 SHL SUB DUP8 AND DUP5 MSTORE SWAP1 SWAP2 MSTORE DUP2 KECCAK256 SLOAD SWAP1 SWAP2 PUSH2 0x120B SWAP2 DUP6 SWAP1 PUSH2 0x155D SWAP1 DUP7 SWAP1 PUSH2 0x3C76 JUMP JUMPDEST PUSH1 0x17 SLOAD PUSH1 0x1 PUSH1 0x1 PUSH1 0xA0 SHL SUB AND CALLER EQ PUSH2 0x1613 JUMPI PUSH1 0x40 MLOAD PUSH3 0x461BCD PUSH1 0xE5 SHL DUP2 MSTORE PUSH1 0x4 ADD PUSH2 0x124D SWAP1 PUSH2 0x3C00 JUMP JUMPDEST PUSH1 0x1C SLOAD PUSH1 0x40 MLOAD PUSH1 0x1 PUSH1 0x1 PUSH1 0xA0 SHL SUB SWAP2 DUP3 AND SWAP2 DUP4 AND SWAP1 PUSH32 0x7AED03A461AC9A82C523921AEC0D4B0AE7365A310ADC67F94526BA434E2D8847 SWAP1 PUSH1 0x0 SWAP1 LOG3 PUSH1 0x1C DUP1 SLOAD PUSH1 0x1 PUSH1 0x1 PUSH1 0xA0 SHL SUB NOT AND PUSH1 0x1 PUSH1 0x1 PUSH1 0xA0 SHL SUB SWAP3 SWAP1 SWAP3 AND SWAP2 SWAP1 SWAP2 OR SWAP1 SSTORE JUMP JUMPDEST PUSH1 0x14 SLOAD PUSH1 0xC EQ PUSH2 0x16C2 JUMPI PUSH1 0x40 MLOAD PUSH3 0x461BCD PUSH1 0xE5 SHL DUP2 MSTORE PUSH1 0x20 PUSH1 0x4 DUP3 ADD MSTORE PUSH1 0x18 PUSH1 0x24 DUP3 ADD MSTORE PUSH32 0x566F74696E67204974657261746F72206E6F742066756C6C0000000000000000 PUSH1 0x44 DUP3 ADD MSTORE PUSH1 0x64 ADD PUSH2 0x124D JUMP JUMPDEST PUSH2 0x16CA PUSH2 0x3965 JUMP JUMPDEST PUSH1 0x0 JUMPDEST PUSH1 0xC DUP2 LT ISZERO PUSH2 0x1735 JUMPI PUSH1 0x14 DUP2 DUP2 SLOAD DUP2 LT PUSH2 0x16E9 JUMPI PUSH2 0x16E9 PUSH2 0x3E87 JUMP JUMPDEST PUSH1 0x0 SWAP2 DUP3 MSTORE PUSH1 0x20 SWAP1 SWAP2 KECCAK256 ADD SLOAD PUSH1 0x1 PUSH1 0x1 PUSH1 0xA0 SHL SUB AND DUP3 DUP3 PUSH1 0xC DUP2 LT PUSH2 0x1710 JUMPI PUSH2 0x1710 PUSH2 0x3E87 JUMP JUMPDEST PUSH1 0x1 PUSH1 0x1 PUSH1 0xA0 SHL SUB SWAP1 SWAP3 AND PUSH1 0x20 SWAP3 SWAP1 SWAP3 MUL ADD MSTORE DUP1 PUSH2 0x172D DUP2 PUSH2 0x3E16 JUMP JUMPDEST SWAP2 POP POP PUSH2 0x16CD JUMP JUMPDEST POP PUSH1 0x1 JUMPDEST PUSH1 0xC DUP2 LT ISZERO PUSH2 0x1894 JUMPI PUSH1 0x0 DUP3 DUP3 PUSH1 0xC DUP2 LT PUSH2 0x1756 JUMPI PUSH2 0x1756 PUSH2 0x3E87 JUMP JUMPDEST PUSH1 0x20 SWAP1 DUP2 MUL SWAP2 SWAP1 SWAP2 ADD MLOAD PUSH1 0x1 PUSH1 0x1 PUSH1 0xA0 SHL SUB DUP2 AND PUSH1 0x0 SWAP1 DUP2 MSTORE PUSH1 0x13 SWAP1 SWAP3 MSTORE PUSH1 0x40 DUP3 KECCAK256 SLOAD SWAP1 SWAP3 POP SWAP1 PUSH2 0x1788 PUSH1 0x1 DUP6 PUSH2 0x3DB3 JUMP JUMPDEST SWAP1 POP PUSH1 0x0 JUMPDEST DUP3 PUSH1 0x13 PUSH1 0x0 DUP9 DUP6 PUSH1 0xC DUP2 LT PUSH2 0x17A4 JUMPI PUSH2 0x17A4 PUSH2 0x3E87 JUMP JUMPDEST PUSH1 0x20 MUL ADD MLOAD PUSH1 0x1 PUSH1 0x1 PUSH1 0xA0 SHL SUB AND PUSH1 0x1 PUSH1 0x1 PUSH1 0xA0 SHL SUB AND DUP2 MSTORE PUSH1 0x20 ADD SWAP1 DUP2 MSTORE PUSH1 0x20 ADD PUSH1 0x0 KECCAK256 SLOAD LT ISZERO PUSH2 0x1835 JUMPI DUP6 DUP3 PUSH1 0xC DUP2 LT PUSH2 0x17E2 JUMPI PUSH2 0x17E2 PUSH2 0x3E87 JUMP JUMPDEST PUSH1 0x20 MUL ADD MLOAD DUP7 PUSH2 0x17F3 DUP5 PUSH1 0x1 PUSH2 0x3C76 JUMP JUMPDEST PUSH1 0xC DUP2 LT PUSH2 0x1803 JUMPI PUSH2 0x1803 PUSH2 0x3E87 JUMP JUMPDEST PUSH1 0x1 PUSH1 0x1 PUSH1 0xA0 SHL SUB SWAP1 SWAP3 AND PUSH1 0x20 SWAP3 SWAP1 SWAP3 MUL ADD MSTORE DUP2 PUSH2 0x1823 JUMPI POP PUSH1 0x1 PUSH2 0x1835 JUMP JUMPDEST DUP2 PUSH2 0x182D DUP2 PUSH2 0x3DCA JUMP JUMPDEST SWAP3 POP POP PUSH2 0x178D JUMP JUMPDEST DUP1 ISZERO PUSH2 0x184C JUMPI PUSH1 0x1 PUSH1 0x1 PUSH1 0xA0 SHL SUB DUP5 AND DUP7 MSTORE PUSH2 0x187D JUMP JUMPDEST DUP4 DUP7 PUSH2 0x1859 DUP5 PUSH1 0x1 PUSH2 0x3C76 JUMP JUMPDEST PUSH1 0xC DUP2 LT PUSH2 0x1869 JUMPI PUSH2 0x1869 PUSH2 0x3E87 JUMP JUMPDEST PUSH1 0x1 PUSH1 0x1 PUSH1 0xA0 SHL SUB SWAP1 SWAP3 AND PUSH1 0x20 SWAP3 SWAP1 SWAP3 MUL ADD MSTORE JUMPDEST POP POP POP POP DUP1 DUP1 PUSH2 0x188C SWAP1 PUSH2 0x3E16 JUMP JUMPDEST SWAP2 POP POP PUSH2 0x1739 JUMP JUMPDEST POP PUSH1 0xB JUMPDEST PUSH1 0x6 DUP2 LT PUSH2 0x18F0 JUMPI PUSH1 0x0 DUP3 DUP3 PUSH1 0xC DUP2 LT PUSH2 0x18B4 JUMPI PUSH2 0x18B4 PUSH2 0x3E87 JUMP JUMPDEST PUSH1 0x20 SWAP1 DUP2 MUL SWAP2 SWAP1 SWAP2 ADD MLOAD PUSH1 0x1 PUSH1 0x1 PUSH1 0xA0 SHL SUB AND PUSH1 0x0 SWAP1 DUP2 MSTORE PUSH1 0x15 SWAP1 SWAP2 MSTORE PUSH1 0x40 SWAP1 KECCAK256 DUP1 SLOAD PUSH1 0xFF NOT AND SWAP1 SSTORE POP DUP1 PUSH2 0x18E8 DUP2 PUSH2 0x3DCA JUMP JUMPDEST SWAP2 POP POP PUSH2 0x1898 JUMP JUMPDEST POP PUSH2 0x18FD PUSH1 0x14 PUSH1 0x0 PUSH2 0x3984 JUMP JUMPDEST PUSH1 0x0 JUMPDEST PUSH1 0x6 DUP2 LT ISZERO PUSH2 0x1968 JUMPI PUSH1 0x14 DUP3 DUP3 PUSH1 0xC DUP2 LT PUSH2 0x191D JUMPI PUSH2 0x191D PUSH2 0x3E87 JUMP JUMPDEST PUSH1 0x20 SWAP1 DUP2 MUL SWAP2 SWAP1 SWAP2 ADD MLOAD DUP3 SLOAD PUSH1 0x1 DUP2 ADD DUP5 SSTORE PUSH1 0x0 SWAP4 DUP5 MSTORE SWAP2 SWAP1 SWAP3 KECCAK256 ADD DUP1 SLOAD PUSH1 0x1 PUSH1 0x1 PUSH1 0xA0 SHL SUB NOT AND PUSH1 0x1 PUSH1 0x1 PUSH1 0xA0 SHL SUB SWAP1 SWAP3 AND SWAP2 SWAP1 SWAP2 OR SWAP1 SSTORE DUP1 PUSH2 0x1960 DUP2 PUSH2 0x3E16 JUMP JUMPDEST SWAP2 POP POP PUSH2 0x1900 JUMP JUMPDEST POP POP JUMP JUMPDEST PUSH1 0x14 DUP2 DUP2 SLOAD DUP2 LT PUSH2 0x197C JUMPI PUSH1 0x0 DUP1 REVERT JUMPDEST PUSH1 0x0 SWAP2 DUP3 MSTORE PUSH1 0x20 SWAP1 SWAP2 KECCAK256 ADD SLOAD PUSH1 0x1 PUSH1 0x1 PUSH1 0xA0 SHL SUB AND SWAP1 POP DUP2 JUMP JUMPDEST PUSH1 0x1 PUSH1 0x1 PUSH1 0xA0 SHL SUB AND PUSH1 0x0 SWAP1 DUP2 MSTORE PUSH1 0xD PUSH1 0x20 MSTORE PUSH1 0x40 SWAP1 KECCAK256 SLOAD PUSH1 0xFF AND SWAP1 JUMP JUMPDEST PUSH2 0x19BF CALLER PUSH1 0x1 PUSH2 0x30C2 JUMP JUMPDEST JUMP JUMPDEST PUSH1 0x1 PUSH1 0x1 PUSH1 0xA0 SHL SUB DUP2 AND PUSH1 0x0 SWAP1 DUP2 MSTORE PUSH1 0xA PUSH1 0x20 MSTORE PUSH1 0x40 DUP2 KECCAK256 SLOAD PUSH2 0x19E3 DUP4 PUSH2 0x1996 JUMP JUMPDEST DUP1 ISZERO PUSH2 0x19FD JUMPI POP PUSH1 0x16 SLOAD PUSH1 0x1 PUSH1 0x1 PUSH1 0xA0 SHL SUB DUP5 DUP2 AND SWAP2 AND EQ ISZERO JUMPDEST ISZERO PUSH2 0x1166 JUMPI PUSH2 0x1A0F DUP2 PUSH2 0x577 DUP6 PUSH2 0x317E JUMP JUMPDEST PUSH2 0x1A19 SWAP1 DUP3 PUSH2 0x3C76 JUMP JUMPDEST SWAP4 SWAP3 POP POP POP JUMP JUMPDEST PUSH1 0x17 SLOAD PUSH1 0x1 PUSH1 0x1 PUSH1 0xA0 SHL SUB AND CALLER EQ PUSH2 0x1A4A JUMPI PUSH1 0x40 MLOAD PUSH3 0x461BCD PUSH1 0xE5 SHL DUP2 MSTORE PUSH1 0x4 ADD PUSH2 0x124D SWAP1 PUSH2 0x3C00 JUMP JUMPDEST PUSH1 0x17 SLOAD PUSH1 0x40 MLOAD PUSH1 0x0 SWAP2 PUSH1 0x1 PUSH1 0x1 PUSH1 0xA0 SHL SUB AND SWAP1 PUSH32 0x8BE0079C531659141344CD1FD0A4F28419497F9722A3DAAFE3B4186F6B6457E0 SWAP1 DUP4 SWAP1 LOG3 PUSH1 0x17 DUP1 SLOAD PUSH1 0x1 PUSH1 0x1 PUSH1 0xA0 SHL SUB NOT AND SWAP1 SSTORE JUMP JUMPDEST PUSH1 0x17 SLOAD PUSH1 0x1 PUSH1 0x1 PUSH1 0xA0 SHL SUB AND CALLER EQ PUSH2 0x1ABE JUMPI PUSH1 0x40 MLOAD PUSH3 0x461BCD PUSH1 0xE5 SHL DUP2 MSTORE PUSH1 0x4 ADD PUSH2 0x124D SWAP1 PUSH2 0x3C00 JUMP JUMPDEST PUSH2 0x258 DUP4 LT ISZERO PUSH2 0x1B2C JUMPI PUSH1 0x40 MLOAD PUSH3 0x461BCD PUSH1 0xE5 SHL DUP2 MSTORE PUSH1 0x20 PUSH1 0x4 DUP3 ADD MSTORE PUSH1 0x33 PUSH1 0x24 DUP3 ADD MSTORE PUSH32 0x63616E6E6F7420736574206275796261636B206D6F7265206F6674656E207468 PUSH1 0x44 DUP3 ADD MSTORE PUSH19 0x616E206576657279203130206D696E75746573 PUSH1 0x68 SHL PUSH1 0x64 DUP3 ADD MSTORE PUSH1 0x84 ADD PUSH2 0x124D JUMP JUMPDEST PUSH2 0x3E8 DUP3 GT ISZERO DUP1 ISZERO PUSH2 0x1B3C JUMPI POP PUSH1 0x1 JUMPDEST PUSH2 0x1BA1 JUMPI PUSH1 0x40 MLOAD PUSH3 0x461BCD PUSH1 0xE5 SHL DUP2 MSTORE PUSH1 0x20 PUSH1 0x4 DUP3 ADD MSTORE PUSH1 0x30 PUSH1 0x24 DUP3 ADD MSTORE PUSH32 0x4D75737420736574206175746F204C50206275726E2070657263656E74206265 PUSH1 0x44 DUP3 ADD MSTORE PUSH16 0x747765656E20302520616E6420313025 PUSH1 0x80 SHL PUSH1 0x64 DUP3 ADD MSTORE PUSH1 0x84 ADD PUSH2 0x124D JUMP JUMPDEST PUSH1 0x23 SWAP3 SWAP1 SWAP3 SSTORE PUSH1 0x21 SSTORE PUSH1 0x22 DUP1 SLOAD PUSH1 0xFF NOT AND SWAP2 ISZERO ISZERO SWAP2 SWAP1 SWAP2 OR SWAP1 SSTORE JUMP JUMPDEST PUSH1 0x17 SLOAD PUSH1 0x0 SWAP1 PUSH1 0x1 PUSH1 0x1 PUSH1 0xA0 SHL SUB AND CALLER EQ PUSH2 0x1BEA JUMPI PUSH1 0x40 MLOAD PUSH3 0x461BCD PUSH1 0xE5 SHL DUP2 MSTORE PUSH1 0x4 ADD PUSH2 0x124D SWAP1 PUSH2 0x3C00 JUMP JUMPDEST POP PUSH1 0x27 DUP1 SLOAD PUSH1 0xFF NOT AND SWAP1 SSTORE PUSH1 0x1 SWAP1 JUMP JUMPDEST PUSH1 0x17 SLOAD PUSH1 0x1 PUSH1 0x1 PUSH1 0xA0 SHL SUB AND CALLER EQ PUSH2 0x1C24 JUMPI PUSH1 0x40 MLOAD PUSH3 0x461BCD PUSH1 0xE5 SHL DUP2 MSTORE PUSH1 0x4 ADD PUSH2 0x124D SWAP1 PUSH2 0x3C00 JUMP JUMPDEST PUSH1 0x1 PUSH1 0x1 PUSH1 0xA0 SHL SUB SWAP2 SWAP1 SWAP2 AND PUSH1 0x0 SWAP1 DUP2 MSTORE PUSH1 0x3A PUSH1 0x20 MSTORE PUSH1 0x40 SWAP1 KECCAK256 DUP1 SLOAD PUSH1 0xFF NOT AND SWAP2 ISZERO ISZERO SWAP2 SWAP1 SWAP2 OR SWAP1 SSTORE JUMP JUMPDEST PUSH1 0x17 SLOAD PUSH1 0x1 PUSH1 0x1 PUSH1 0xA0 SHL SUB AND CALLER EQ PUSH2 0x1C79 JUMPI PUSH1 0x40 MLOAD PUSH3 0x461BCD PUSH1 0xE5 SHL DUP2 MSTORE PUSH1 0x4 ADD PUSH2 0x124D SWAP1 PUSH2 0x3C00 JUMP JUMPDEST PUSH1 0x2E DUP4 SWAP1 SSTORE PUSH1 0x2B DUP3 SWAP1 SSTORE PUSH1 0x2C DUP2 SWAP1 SSTORE PUSH1 0x2D SLOAD DUP4 SWAP1 PUSH2 0x1C97 DUP4 DUP6 PUSH2 0x3C76 JUMP JUMPDEST PUSH2 0x1CA1 SWAP2 SWAP1 PUSH2 0x3C76 JUMP JUMPDEST PUSH2 0x1CAB SWAP2 SWAP1 PUSH2 0x3C76 JUMP JUMPDEST PUSH1 0x2A DUP2 SWAP1 SSTORE PUSH1 0x32 LT ISZERO PUSH2 0x1D00 JUMPI PUSH1 0x40 MLOAD PUSH3 0x461BCD PUSH1 0xE5 SHL DUP2 MSTORE PUSH1 0x20 PUSH1 0x4 DUP3 ADD MSTORE PUSH1 0x1D PUSH1 0x24 DUP3 ADD MSTORE PUSH32 0x4D757374206B656570206665657320617420353025206F72206C657373000000 PUSH1 0x44 DUP3 ADD MSTORE PUSH1 0x64 ADD PUSH2 0x124D JUMP JUMPDEST POP POP POP JUMP JUMPDEST PUSH1 0x17 SLOAD PUSH1 0x1 PUSH1 0x1 PUSH1 0xA0 SHL SUB AND CALLER EQ PUSH2 0x1D2F JUMPI PUSH1 0x40 MLOAD PUSH3 0x461BCD PUSH1 0xE5 SHL DUP2 MSTORE PUSH1 0x4 ADD PUSH2 0x124D SWAP1 PUSH2 0x3C00 JUMP JUMPDEST PUSH1 0x27 DUP1 SLOAD PUSH3 0xFFFF00 NOT AND PUSH3 0x10100 OR SWAP1 SSTORE TIMESTAMP PUSH1 0x24 SSTORE JUMP JUMPDEST PUSH1 0x17 SLOAD PUSH1 0x1 PUSH1 0x1 PUSH1 0xA0 SHL SUB AND CALLER EQ PUSH2 0x1D70 JUMPI PUSH1 0x40 MLOAD PUSH3 0x461BCD PUSH1 0xE5 SHL DUP2 MSTORE PUSH1 0x4 ADD PUSH2 0x124D SWAP1 PUSH2 0x3C00 JUMP JUMPDEST PUSH1 0x27 DUP1 SLOAD SWAP2 ISZERO ISZERO PUSH3 0x10000 MUL PUSH3 0xFF0000 NOT SWAP1 SWAP3 AND SWAP2 SWAP1 SWAP2 OR SWAP1 SSTORE JUMP JUMPDEST PUSH1 0x60 PUSH1 0x2 DUP1 SLOAD PUSH2 0x117B SWAP1 PUSH2 0x3DE1 JUMP JUMPDEST PUSH1 0x17 SLOAD PUSH1 0x1 PUSH1 0x1 PUSH1 0xA0 SHL SUB AND CALLER EQ PUSH2 0x1DC5 JUMPI PUSH1 0x40 MLOAD PUSH3 0x461BCD PUSH1 0xE5 SHL DUP2 MSTORE PUSH1 0x4 ADD PUSH2 0x124D SWAP1 PUSH2 0x3C00 JUMP JUMPDEST PUSH1 0x19 SLOAD PUSH1 0x1 PUSH1 0x1 PUSH1 0xA0 SHL SUB DUP4 DUP2 AND SWAP2 AND EQ ISZERO PUSH2 0x1E49 JUMPI PUSH1 0x40 MLOAD PUSH3 0x461BCD PUSH1 0xE5 SHL DUP2 MSTORE PUSH1 0x20 PUSH1 0x4 DUP3 ADD MSTORE PUSH1 0x39 PUSH1 0x24 DUP3 ADD MSTORE PUSH32 0x54686520706169722063616E6E6F742062652072656D6F7665642066726F6D20 PUSH1 0x44 DUP3 ADD MSTORE PUSH32 0x6175746F6D617465644D61726B65744D616B6572506169727300000000000000 PUSH1 0x64 DUP3 ADD MSTORE PUSH1 0x84 ADD PUSH2 0x124D JUMP JUMPDEST PUSH2 0x1968 DUP3 DUP3 PUSH2 0x31A1 JUMP JUMPDEST PUSH2 0x15AF CALLER DUP3 PUSH2 0x31F5 JUMP JUMPDEST CALLER PUSH1 0x0 SWAP1 DUP2 MSTORE PUSH1 0xB PUSH1 0x20 SWAP1 DUP2 MSTORE PUSH1 0x40 DUP1 DUP4 KECCAK256 PUSH1 0x1 PUSH1 0x1 PUSH1 0xA0 SHL SUB DUP7 AND DUP5 MSTORE SWAP1 SWAP2 MSTORE DUP2 KECCAK256 SLOAD DUP3 DUP2 LT ISZERO PUSH2 0x1EDF JUMPI PUSH1 0x40 MLOAD PUSH3 0x461BCD PUSH1 0xE5 SHL DUP2 MSTORE PUSH1 0x20 PUSH1 0x4 DUP3 ADD MSTORE PUSH1 0x25 PUSH1 0x24 DUP3 ADD MSTORE PUSH32 0x45524332303A2064656372656173656420616C6C6F77616E63652062656C6F77 PUSH1 0x44 DUP3 ADD MSTORE PUSH5 0x207A65726F PUSH1 0xD8 SHL PUSH1 0x64 DUP3 ADD MSTORE PUSH1 0x84 ADD PUSH2 0x124D JUMP JUMPDEST PUSH2 0x1EEE CALLER DUP6 PUSH2 0x155D DUP7 DUP6 PUSH2 0x3DB3 JUMP JUMPDEST POP PUSH1 0x1 SWAP4 SWAP3 POP POP POP JUMP JUMPDEST PUSH2 0x1F01 DUP2 PUSH2 0x1996 JUMP JUMPDEST PUSH2 0x1F39 JUMPI PUSH1 0x40 MLOAD PUSH3 0x461BCD PUSH1 0xE5 SHL DUP2 MSTORE PUSH1 0x20 PUSH1 0x4 DUP3 ADD MSTORE PUSH1 0x9 PUSH1 0x24 DUP3 ADD MSTORE PUSH9 0x135CDD109954DD1AD9 PUSH1 0xBA SHL PUSH1 0x44 DUP3 ADD MSTORE PUSH1 0x64 ADD PUSH2 0x124D JUMP JUMPDEST PUSH1 0x0 PUSH2 0x1F44 DUP3 PUSH2 0x317E JUMP JUMPDEST SWAP1 POP PUSH1 0x3C DUP2 LT ISZERO PUSH2 0x1F53 JUMPI POP POP JUMP JUMPDEST PUSH1 0x1 PUSH1 0x1 PUSH1 0xA0 SHL SUB DUP3 AND PUSH1 0x0 SWAP1 DUP2 MSTORE PUSH1 0xA PUSH1 0x20 MSTORE PUSH1 0x40 DUP2 KECCAK256 SLOAD PUSH2 0x1F76 SWAP1 DUP4 PUSH2 0x10A7 JUMP JUMPDEST PUSH1 0x1 PUSH1 0x1 PUSH1 0xA0 SHL SUB DUP5 AND PUSH1 0x0 SWAP1 DUP2 MSTORE PUSH1 0xA PUSH1 0x20 MSTORE PUSH1 0x40 DUP2 KECCAK256 DUP1 SLOAD SWAP3 SWAP4 POP DUP4 SWAP3 SWAP1 SWAP2 SWAP1 PUSH2 0x1FA3 SWAP1 DUP5 SWAP1 PUSH2 0x3C76 JUMP JUMPDEST SWAP1 SWAP2 SSTORE POP PUSH2 0x1FB1 SWAP1 POP PUSH2 0x33DA JUMP JUMPDEST ISZERO PUSH2 0x2029 JUMPI PUSH1 0x0 PUSH2 0x1FC3 PUSH1 0x7 DUP4 PUSH2 0x3CBC JUMP JUMPDEST PUSH2 0x1FCE SWAP1 PUSH1 0x3 PUSH2 0x3D55 JUMP JUMPDEST PUSH1 0x16 SLOAD PUSH1 0x1 PUSH1 0x1 PUSH1 0xA0 SHL SUB AND PUSH1 0x0 SWAP1 DUP2 MSTORE PUSH1 0xA PUSH1 0x20 MSTORE PUSH1 0x40 DUP2 KECCAK256 DUP1 SLOAD SWAP3 SWAP4 POP DUP4 SWAP3 SWAP1 SWAP2 SWAP1 PUSH2 0x1FFD SWAP1 DUP5 SWAP1 PUSH2 0x3C76 JUMP JUMPDEST SWAP1 SWAP2 SSTORE POP PUSH2 0x200D SWAP1 POP DUP2 DUP4 PUSH2 0x3C76 JUMP JUMPDEST PUSH1 0x0 DUP1 DUP3 DUP3 SLOAD PUSH2 0x201D SWAP2 SWAP1 PUSH2 0x3C76 JUMP JUMPDEST SWAP1 SWAP2 SSTORE POP PUSH2 0x2040 SWAP2 POP POP JUMP JUMPDEST DUP1 PUSH1 0x0 DUP1 DUP3 DUP3 SLOAD PUSH2 0x203A SWAP2 SWAP1 PUSH2 0x3C76 JUMP JUMPDEST SWAP1 SWAP2 SSTORE POP POP JUMPDEST POP POP PUSH1 0x1 PUSH1 0x1 PUSH1 0xA0 SHL SUB AND PUSH1 0x0 SWAP1 DUP2 MSTORE PUSH1 0xC PUSH1 0x20 MSTORE PUSH1 0x40 SWAP1 KECCAK256 TIMESTAMP SWAP1 SSTORE JUMP JUMPDEST PUSH1 0x0 PUSH2 0x120B CALLER DUP5 DUP5 PUSH2 0x2D67 JUMP JUMPDEST PUSH1 0x17 SLOAD PUSH1 0x1 PUSH1 0x1 PUSH1 0xA0 SHL SUB AND CALLER EQ PUSH2 0x2095 JUMPI PUSH1 0x40 MLOAD PUSH3 0x461BCD PUSH1 0xE5 SHL DUP2 MSTORE PUSH1 0x4 ADD PUSH2 0x124D SWAP1 PUSH2 0x3C00 JUMP JUMPDEST PUSH1 0x1A SLOAD PUSH1 0x40 MLOAD PUSH1 0x1 PUSH1 0x1 PUSH1 0xA0 SHL SUB SWAP2 DUP3 AND SWAP2 DUP4 AND SWAP1 PUSH32 0xA751787977EEB3902E30E1D19CA00C6AD274A1F622C31A206E32366700B05674 SWAP1 PUSH1 0x0 SWAP1 LOG3 PUSH1 0x1A DUP1 SLOAD PUSH1 0x1 PUSH1 0x1 PUSH1 0xA0 SHL SUB NOT AND PUSH1 0x1 PUSH1 0x1 PUSH1 0xA0 SHL SUB SWAP3 SWAP1 SWAP3 AND SWAP2 SWAP1 SWAP2 OR SWAP1 SSTORE JUMP JUMPDEST PUSH1 0x17 SLOAD PUSH1 0x1 PUSH1 0x1 PUSH1 0xA0 SHL SUB AND CALLER EQ PUSH2 0x211C JUMPI PUSH1 0x40 MLOAD PUSH3 0x461BCD PUSH1 0xE5 SHL DUP2 MSTORE PUSH1 0x4 ADD PUSH2 0x124D SWAP1 PUSH2 0x3C00 JUMP JUMPDEST PUSH1 0x1 PUSH1 0x1 PUSH1 0xA0 SHL SUB DUP3 AND PUSH1 0x0 DUP2 DUP2 MSTORE PUSH1 0x39 PUSH1 0x20 SWAP1 DUP2 MSTORE PUSH1 0x40 SWAP2 DUP3 SWAP1 KECCAK256 DUP1 SLOAD PUSH1 0xFF NOT AND DUP6 ISZERO ISZERO SWAP1 DUP2 OR SWAP1 SWAP2 SSTORE SWAP2 MLOAD SWAP2 DUP3 MSTORE PUSH32 0x9D8F7706EA1113D1A167B526ECA956215946DD36CC7DF39EB16180222D8B5DF7 SWAP2 ADD PUSH1 0x40 MLOAD DUP1 SWAP2 SUB SWAP1 LOG2 POP POP JUMP JUMPDEST PUSH1 0x17 SLOAD PUSH1 0x1 PUSH1 0x1 PUSH1 0xA0 SHL SUB AND CALLER EQ PUSH2 0x21A5 JUMPI PUSH1 0x40 MLOAD PUSH3 0x461BCD PUSH1 0xE5 SHL DUP2 MSTORE PUSH1 0x4 ADD PUSH2 0x124D SWAP1 PUSH2 0x3C00 JUMP JUMPDEST PUSH1 0x33 DUP4 SWAP1 SSTORE PUSH1 0x30 DUP3 SWAP1 SSTORE PUSH1 0x31 DUP2 SWAP1 SSTORE PUSH1 0x32 SLOAD DUP4 SWAP1 PUSH2 0x21C3 DUP4 DUP6 PUSH2 0x3C76 JUMP JUMPDEST PUSH2 0x21CD SWAP2 SWAP1 PUSH2 0x3C76 JUMP JUMPDEST PUSH2 0x21D7 SWAP2 SWAP1 PUSH2 0x3C76 JUMP JUMPDEST PUSH1 0x2F DUP2 SWAP1 SSTORE PUSH1 0x32 LT ISZERO PUSH2 0x1D00 JUMPI PUSH1 0x40 MLOAD PUSH3 0x461BCD PUSH1 0xE5 SHL DUP2 MSTORE PUSH1 0x20 PUSH1 0x4 DUP3 ADD MSTORE PUSH1 0x1D PUSH1 0x24 DUP3 ADD MSTORE PUSH32 0x4D757374206B656570206665657320617420353025206F72206C657373000000 PUSH1 0x44 DUP3 ADD MSTORE PUSH1 0x64 ADD PUSH2 0x124D JUMP JUMPDEST PUSH1 0x17 SLOAD PUSH1 0x1 PUSH1 0x1 PUSH1 0xA0 SHL SUB AND CALLER EQ PUSH2 0x2256 JUMPI PUSH1 0x40 MLOAD PUSH3 0x461BCD PUSH1 0xE5 SHL DUP2 MSTORE PUSH1 0x4 ADD PUSH2 0x124D SWAP1 PUSH2 0x3C00 JUMP JUMPDEST PUSH8 0xDE0B6B3A7640000 PUSH2 0x3E8 PUSH1 0x38 SLOAD PUSH1 0x5 PUSH2 0x2271 SWAP2 SWAP1 PUSH2 0x3D55 JUMP JUMPDEST PUSH2 0x227B SWAP2 SWAP1 PUSH2 0x3CBC JUMP JUMPDEST PUSH2 0x2285 SWAP2 SWAP1 PUSH2 0x3CBC JUMP JUMPDEST DUP2 LT ISZERO PUSH2 0x22E0 JUMPI PUSH1 0x40 MLOAD PUSH3 0x461BCD PUSH1 0xE5 SHL DUP2 MSTORE PUSH1 0x20 PUSH1 0x4 DUP3 ADD MSTORE PUSH1 0x24 DUP1 DUP3 ADD MSTORE PUSH32 0x43616E6E6F7420736574206D617857616C6C6574206C6F776572207468616E20 PUSH1 0x44 DUP3 ADD MSTORE PUSH4 0x302E3525 PUSH1 0xE0 SHL PUSH1 0x64 DUP3 ADD MSTORE PUSH1 0x84 ADD PUSH2 0x124D JUMP JUMPDEST PUSH2 0x22F2 DUP2 PUSH8 0xDE0B6B3A7640000 PUSH2 0x3D55 JUMP JUMPDEST PUSH1 0x1F SSTORE POP JUMP JUMPDEST PUSH1 0x17 SLOAD PUSH1 0x0 SWAP1 PUSH1 0x1 PUSH1 0x1 PUSH1 0xA0 SHL SUB AND CALLER EQ PUSH2 0x2325 JUMPI PUSH1 0x40 MLOAD PUSH3 0x461BCD PUSH1 0xE5 SHL DUP2 MSTORE PUSH1 0x4 ADD PUSH2 0x124D SWAP1 PUSH2 0x3C00 JUMP JUMPDEST PUSH3 0x186A0 PUSH1 0x38 SLOAD PUSH1 0x1 PUSH2 0x2338 SWAP2 SWAP1 PUSH2 0x3D55 JUMP JUMPDEST PUSH2 0x2342 SWAP2 SWAP1 PUSH2 0x3CBC JUMP JUMPDEST DUP3 LT ISZERO PUSH2 0x23AF JUMPI PUSH1 0x40 MLOAD PUSH3 0x461BCD PUSH1 0xE5 SHL DUP2 MSTORE PUSH1 0x20 PUSH1 0x4 DUP3 ADD MSTORE PUSH1 0x35 PUSH1 0x24 DUP3 ADD MSTORE PUSH32 0x5377617020616D6F756E742063616E6E6F74206265206C6F776572207468616E PUSH1 0x44 DUP3 ADD MSTORE PUSH21 0x10181718181892903A37BA30B61039BAB838363C97 PUSH1 0x59 SHL PUSH1 0x64 DUP3 ADD MSTORE PUSH1 0x84 ADD PUSH2 0x124D JUMP JUMPDEST PUSH2 0x3E8 PUSH1 0x38 SLOAD PUSH1 0x5 PUSH2 0x23C1 SWAP2 SWAP1 PUSH2 0x3D55 JUMP JUMPDEST PUSH2 0x23CB SWAP2 SWAP1 PUSH2 0x3CBC JUMP JUMPDEST DUP3 GT ISZERO PUSH2 0x2437 JUMPI PUSH1 0x40 MLOAD PUSH3 0x461BCD PUSH1 0xE5 SHL DUP2 MSTORE PUSH1 0x20 PUSH1 0x4 DUP3 ADD MSTORE PUSH1 0x34 PUSH1 0x24 DUP3 ADD MSTORE PUSH32 0x5377617020616D6F756E742063616E6E6F742062652068696768657220746861 PUSH1 0x44 DUP3 ADD MSTORE PUSH20 0x371018171A92903A37BA30B61039BAB838363C97 PUSH1 0x61 SHL PUSH1 0x64 DUP3 ADD MSTORE PUSH1 0x84 ADD PUSH2 0x124D JUMP JUMPDEST POP PUSH1 0x1E DUP2 SWAP1 SSTORE PUSH1 0x1 JUMPDEST SWAP2 SWAP1 POP JUMP JUMPDEST PUSH2 0x19BF CALLER PUSH1 0x0 PUSH2 0x30C2 JUMP JUMPDEST PUSH1 0x17 SLOAD PUSH1 0x0 SWAP1 PUSH1 0x1 PUSH1 0x1 PUSH1 0xA0 SHL SUB AND CALLER EQ PUSH2 0x247D JUMPI PUSH1 0x40 MLOAD PUSH3 0x461BCD PUSH1 0xE5 SHL DUP2 MSTORE PUSH1 0x4 ADD PUSH2 0x124D SWAP1 PUSH2 0x3C00 JUMP JUMPDEST POP PUSH1 0x29 DUP1 SLOAD PUSH1 0xFF NOT AND SWAP1 SSTORE PUSH1 0x1 SWAP1 JUMP JUMPDEST PUSH1 0x17 SLOAD PUSH1 0x1 PUSH1 0x1 PUSH1 0xA0 SHL SUB AND CALLER EQ PUSH2 0x24B7 JUMPI PUSH1 0x40 MLOAD PUSH3 0x461BCD PUSH1 0xE5 SHL DUP2 MSTORE PUSH1 0x4 ADD PUSH2 0x124D SWAP1 PUSH2 0x3C00 JUMP JUMPDEST PUSH1 0x1 PUSH1 0x1 PUSH1 0xA0 SHL SUB DUP2 AND PUSH2 0x251C JUMPI PUSH1 0x40 MLOAD PUSH3 0x461BCD PUSH1 0xE5 SHL DUP2 MSTORE PUSH1 0x20 PUSH1 0x4 DUP3 ADD MSTORE PUSH1 0x26 PUSH1 0x24 DUP3 ADD MSTORE PUSH32 0x4F776E61626C653A206E6577206F776E657220697320746865207A65726F2061 PUSH1 0x44 DUP3 ADD MSTORE PUSH6 0x646472657373 PUSH1 0xD0 SHL PUSH1 0x64 DUP3 ADD MSTORE PUSH1 0x84 ADD PUSH2 0x124D JUMP JUMPDEST PUSH1 0x17 SLOAD PUSH1 0x40 MLOAD PUSH1 0x1 PUSH1 0x1 PUSH1 0xA0 SHL SUB DUP1 DUP5 AND SWAP3 AND SWAP1 PUSH32 0x8BE0079C531659141344CD1FD0A4F28419497F9722A3DAAFE3B4186F6B6457E0 SWAP1 PUSH1 0x0 SWAP1 LOG3 PUSH1 0x17 DUP1 SLOAD PUSH1 0x1 PUSH1 0x1 PUSH1 0xA0 SHL SUB NOT AND PUSH1 0x1 PUSH1 0x1 PUSH1 0xA0 SHL SUB SWAP3 SWAP1 SWAP3 AND SWAP2 SWAP1 SWAP2 OR SWAP1 SSTORE JUMP JUMPDEST PUSH1 0x17 SLOAD PUSH1 0x0 SWAP1 PUSH1 0x1 PUSH1 0x1 PUSH1 0xA0 SHL SUB AND CALLER EQ PUSH2 0x25A5 JUMPI PUSH1 0x40 MLOAD PUSH3 0x461BCD PUSH1 0xE5 SHL DUP2 MSTORE PUSH1 0x4 ADD PUSH2 0x124D SWAP1 PUSH2 0x3C00 JUMP JUMPDEST PUSH1 0x25 SLOAD PUSH1 0x26 SLOAD PUSH2 0x25B5 SWAP2 SWAP1 PUSH2 0x3C76 JUMP JUMPDEST TIMESTAMP GT PUSH2 0x2603 JUMPI PUSH1 0x40 MLOAD PUSH3 0x461BCD PUSH1 0xE5 SHL DUP2 MSTORE PUSH1 0x20 PUSH1 0x4 DUP3 ADD DUP2 SWAP1 MSTORE PUSH1 0x24 DUP3 ADD MSTORE PUSH32 0x4D757374207761697420666F7220636F6F6C646F776E20746F2066696E697368 PUSH1 0x44 DUP3 ADD MSTORE PUSH1 0x64 ADD PUSH2 0x124D JUMP JUMPDEST PUSH2 0x3E8 DUP3 GT ISZERO PUSH2 0x2668 JUMPI PUSH1 0x40 MLOAD PUSH3 0x461BCD PUSH1 0xE5 SHL DUP2 MSTORE PUSH1 0x20 PUSH1 0x4 DUP3 ADD MSTORE PUSH1 0x2A PUSH1 0x24 DUP3 ADD MSTORE PUSH32 0x4D6179206E6F74206E756B65206D6F7265207468616E20313025206F6620746F PUSH1 0x44 DUP3 ADD MSTORE PUSH10 0x6B656E7320696E204C5 PUSH1 0xB4 SHL PUSH1 0x64 DUP3 ADD MSTORE PUSH1 0x84 ADD PUSH2 0x124D JUMP JUMPDEST TIMESTAMP PUSH1 0x26 SSTORE PUSH1 0x19 SLOAD PUSH1 0x40 MLOAD PUSH4 0x70A08231 PUSH1 0xE0 SHL DUP2 MSTORE PUSH1 0x1 PUSH1 0x1 PUSH1 0xA0 SHL SUB SWAP1 SWAP2 AND PUSH1 0x4 DUP3 ADD MSTORE PUSH1 0x0 SWAP1 ADDRESS SWAP1 PUSH4 0x70A08231 SWAP1 PUSH1 0x24 ADD PUSH1 0x20 PUSH1 0x40 MLOAD DUP1 DUP4 SUB DUP2 DUP7 DUP1 EXTCODESIZE ISZERO DUP1 ISZERO PUSH2 0x26B2 JUMPI PUSH1 0x0 DUP1 REVERT JUMPDEST POP GAS STATICCALL ISZERO DUP1 ISZERO PUSH2 0x26C6 JUMPI RETURNDATASIZE PUSH1 0x0 DUP1 RETURNDATACOPY RETURNDATASIZE PUSH1 0x0 REVERT JUMPDEST POP POP POP POP PUSH1 0x40 MLOAD RETURNDATASIZE PUSH1 0x1F NOT PUSH1 0x1F DUP3 ADD AND DUP3 ADD DUP1 PUSH1 0x40 MSTORE POP DUP2 ADD SWAP1 PUSH2 0x26EA SWAP2 SWAP1 PUSH2 0x3B0B JUMP JUMPDEST SWAP1 POP PUSH1 0x0 PUSH2 0x2704 PUSH2 0x2710 PUSH2 0x26FE DUP5 DUP8 PUSH2 0x340D JUMP JUMPDEST SWAP1 PUSH2 0x348C JUMP JUMPDEST SWAP1 POP DUP1 ISZERO PUSH2 0x2725 JUMPI PUSH1 0x19 SLOAD PUSH2 0x2725 SWAP1 PUSH1 0x1 PUSH1 0x1 PUSH1 0xA0 SHL SUB AND PUSH2 0xDEAD DUP4 PUSH2 0x2D67 JUMP JUMPDEST PUSH1 0x19 SLOAD PUSH1 0x40 DUP1 MLOAD PUSH1 0x1 PUSH3 0x93517 PUSH1 0xE0 SHL SUB NOT DUP2 MSTORE SWAP1 MLOAD PUSH1 0x1 PUSH1 0x1 PUSH1 0xA0 SHL SUB SWAP1 SWAP3 AND SWAP2 DUP3 SWAP2 PUSH4 0xFFF6CAE9 SWAP2 PUSH1 0x4 DUP1 DUP4 ADD SWAP3 PUSH1 0x0 SWAP3 SWAP2 SWAP1 DUP3 SWAP1 SUB ADD DUP2 DUP4 DUP8 DUP1 EXTCODESIZE ISZERO DUP1 ISZERO PUSH2 0x276F JUMPI PUSH1 0x0 DUP1 REVERT JUMPDEST POP GAS CALL ISZERO DUP1 ISZERO PUSH2 0x2783 JUMPI RETURNDATASIZE PUSH1 0x0 DUP1 RETURNDATACOPY RETURNDATASIZE PUSH1 0x0 REVERT JUMPDEST POP POP PUSH1 0x40 MLOAD PUSH32 0x8462566617872A3FBAB94534675218431FF9E204063EE3F4F43D965626A39ABB SWAP3 POP PUSH1 0x0 SWAP2 POP LOG1 POP PUSH1 0x1 SWAP5 SWAP4 POP POP POP POP JUMP JUMPDEST PUSH1 0x0 PUSH22 0x9ABE14CD44753B52C4926A9672793542D78C3615CF3A DUP3 SGT ISZERO PUSH2 0x27E3 JUMPI PUSH2 0x27E3 PUSH2 0x3E45 JUMP JUMPDEST PUSH22 0x9ABE14CD44753B52C4926A9672793542D78C3615CF39 NOT DUP3 SLT ISZERO PUSH2 0x280A JUMPI PUSH2 0x280A PUSH2 0x3E45 JUMP JUMPDEST PUSH2 0x1166 PUSH10 0xD3C21BCECCEDA1000000 DUP4 PUSH2 0x3CD0 JUMP JUMPDEST PUSH1 0x0 PUSH22 0x9ABE14CD44753B52C4926A9672793542D78C3615CF3A DUP4 SGT ISZERO PUSH2 0x2846 JUMPI PUSH2 0x2846 PUSH2 0x3E45 JUMP JUMPDEST PUSH22 0x9ABE14CD44753B52C4926A9672793542D78C3615CF3A DUP3 SGT ISZERO PUSH2 0x286C JUMPI PUSH2 0x286C PUSH2 0x3E45 JUMP JUMPDEST DUP2 PUSH2 0x2879 JUMPI PUSH2 0x2879 PUSH2 0x3E45 JUMP JUMPDEST PUSH1 0x0 PUSH2 0x2884 DUP5 PUSH2 0x27BB JUMP JUMPDEST SWAP1 POP PUSH1 0x0 PUSH2 0x2891 DUP5 PUSH2 0x27BB JUMP JUMPDEST SWAP1 POP PUSH2 0x289D DUP3 DUP3 PUSH2 0x34CE JUMP JUMPDEST SWAP6 SWAP5 POP POP POP POP POP JUMP JUMPDEST PUSH1 0x0 DUP3 ISZERO DUP1 PUSH2 0x28B3 JUMPI POP DUP2 ISZERO JUMPDEST ISZERO PUSH2 0x28C0 JUMPI POP PUSH1 0x0 PUSH2 0x1166 JUMP JUMPDEST PUSH10 0xD3C21BCECCEDA1000000 DUP3 EQ ISZERO PUSH2 0x28D9 JUMPI POP DUP2 PUSH2 0x1166 JUMP JUMPDEST PUSH10 0xD3C21BCECCEDA1000000 DUP4 EQ ISZERO PUSH2 0x28F2 JUMPI POP DUP1 PUSH2 0x1166 JUMP JUMPDEST PUSH1 0x0 PUSH10 0xD3C21BCECCEDA1000000 PUSH2 0x2908 DUP6 PUSH2 0x352C JUMP JUMPDEST PUSH2 0x2912 SWAP2 SWAP1 PUSH2 0x3C8E JUMP JUMPDEST SWAP1 POP PUSH1 0x0 PUSH2 0x291F DUP6 PUSH2 0x354D JUMP JUMPDEST SWAP1 POP PUSH1 0x0 PUSH10 0xD3C21BCECCEDA1000000 PUSH2 0x2937 DUP7 PUSH2 0x352C JUMP JUMPDEST PUSH2 0x2941 SWAP2 SWAP1 PUSH2 0x3C8E JUMP JUMPDEST SWAP1 POP PUSH1 0x0 PUSH2 0x294E DUP7 PUSH2 0x354D JUMP JUMPDEST SWAP1 POP PUSH1 0x0 PUSH2 0x295C DUP4 DUP7 PUSH2 0x3CD0 JUMP JUMPDEST SWAP1 POP DUP5 ISZERO PUSH2 0x297C JUMPI DUP3 PUSH2 0x296F DUP7 DUP4 PUSH2 0x3C8E JUMP JUMPDEST EQ PUSH2 0x297C JUMPI PUSH2 0x297C PUSH2 0x3E45 JUMP JUMPDEST PUSH1 0x0 PUSH2 0x2992 PUSH10 0xD3C21BCECCEDA1000000 DUP4 PUSH2 0x3CD0 JUMP JUMPDEST SWAP1 POP DUP2 ISZERO PUSH2 0x29BC JUMPI PUSH10 0xD3C21BCECCEDA1000000 PUSH2 0x29AF DUP4 DUP4 PUSH2 0x3C8E JUMP JUMPDEST EQ PUSH2 0x29BC JUMPI PUSH2 0x29BC PUSH2 0x3E45 JUMP JUMPDEST SWAP1 POP DUP1 PUSH1 0x0 PUSH2 0x29CB DUP6 DUP8 PUSH2 0x3CD0 JUMP JUMPDEST SWAP1 POP DUP6 ISZERO PUSH2 0x29EB JUMPI DUP5 PUSH2 0x29DE DUP8 DUP4 PUSH2 0x3C8E JUMP JUMPDEST EQ PUSH2 0x29EB JUMPI PUSH2 0x29EB PUSH2 0x3E45 JUMP JUMPDEST PUSH1 0x0 PUSH2 0x29F7 DUP6 DUP10 PUSH2 0x3CD0 JUMP JUMPDEST SWAP1 POP DUP8 ISZERO PUSH2 0x2A17 JUMPI DUP5 PUSH2 0x2A0A DUP10 DUP4 PUSH2 0x3C8E JUMP JUMPDEST EQ PUSH2 0x2A17 JUMPI PUSH2 0x2A17 PUSH2 0x3E45 JUMP JUMPDEST PUSH2 0x2A26 PUSH5 0xE8D4A51000 DUP9 PUSH2 0x3C8E JUMP JUMPDEST SWAP7 POP PUSH2 0x2A37 PUSH5 0xE8D4A51000 DUP7 PUSH2 0x3C8E JUMP JUMPDEST SWAP5 POP PUSH1 0x0 PUSH2 0x2A45 DUP7 DUP10 PUSH2 0x3CD0 JUMP JUMPDEST SWAP1 POP DUP8 ISZERO PUSH2 0x2A65 JUMPI DUP6 PUSH2 0x2A58 DUP10 DUP4 PUSH2 0x3C8E JUMP JUMPDEST EQ PUSH2 0x2A65 JUMPI PUSH2 0x2A65 PUSH2 0x3E45 JUMP JUMPDEST DUP5 PUSH2 0x2A70 DUP2 DUP6 PUSH2 0x2A99 JUMP JUMPDEST SWAP1 POP PUSH2 0x2A7C DUP2 DUP5 PUSH2 0x2A99 JUMP JUMPDEST SWAP1 POP PUSH2 0x2A88 DUP2 DUP4 PUSH2 0x2A99 JUMP JUMPDEST SWAP14 SWAP13 POP POP POP POP POP POP POP POP POP POP POP POP POP JUMP JUMPDEST PUSH1 0x0 DUP1 PUSH2 0x2AA6 DUP4 DUP6 PUSH2 0x3C35 JUMP JUMPDEST SWAP1 POP PUSH1 0x0 DUP5 SGT DUP1 ISZERO PUSH2 0x2AB8 JUMPI POP PUSH1 0x0 DUP4 SGT JUMPDEST ISZERO PUSH2 0x2AD7 JUMPI DUP4 DUP2 SGT DUP1 ISZERO PUSH2 0x2ACB JUMPI POP DUP3 DUP2 SGT JUMPDEST PUSH2 0x2AD7 JUMPI PUSH2 0x2AD7 PUSH2 0x3E45 JUMP JUMPDEST PUSH1 0x0 DUP5 SLT DUP1 ISZERO PUSH2 0x2AE7 JUMPI POP PUSH1 0x0 DUP4 SLT JUMPDEST ISZERO PUSH2 0x1A19 JUMPI DUP4 DUP2 SLT DUP1 ISZERO PUSH2 0x2AFA JUMPI POP DUP3 DUP2 SLT JUMPDEST PUSH2 0x1A19 JUMPI PUSH2 0x1A19 PUSH2 0x3E45 JUMP JUMPDEST PUSH1 0x0 PUSH2 0x1166 PUSH10 0xD3C21BCECCEDA1000000 DUP4 PUSH2 0x3C8E JUMP JUMPDEST PUSH1 0x1 PUSH1 0x1 PUSH1 0xA0 SHL SUB DUP4 AND PUSH2 0x2B7E JUMPI PUSH1 0x40 MLOAD PUSH3 0x461BCD PUSH1 0xE5 SHL DUP2 MSTORE PUSH1 0x20 PUSH1 0x4 DUP3 ADD MSTORE PUSH1 0x24 DUP1 DUP3 ADD MSTORE PUSH32 0x45524332303A20617070726F76652066726F6D20746865207A65726F20616464 PUSH1 0x44 DUP3 ADD MSTORE PUSH4 0x72657373 PUSH1 0xE0 SHL PUSH1 0x64 DUP3 ADD MSTORE PUSH1 0x84 ADD PUSH2 0x124D JUMP JUMPDEST PUSH1 0x1 PUSH1 0x1 PUSH1 0xA0 SHL SUB DUP3 AND PUSH2 0x2BDF JUMPI PUSH1 0x40 MLOAD PUSH3 0x461BCD PUSH1 0xE5 SHL DUP2 MSTORE PUSH1 0x20 PUSH1 0x4 DUP3 ADD MSTORE PUSH1 0x22 PUSH1 0x24 DUP3 ADD MSTORE PUSH32 0x45524332303A20617070726F766520746F20746865207A65726F206164647265 PUSH1 0x44 DUP3 ADD MSTORE PUSH2 0x7373 PUSH1 0xF0 SHL PUSH1 0x64 DUP3 ADD MSTORE PUSH1 0x84 ADD PUSH2 0x124D JUMP JUMPDEST PUSH1 0x1 PUSH1 0x1 PUSH1 0xA0 SHL SUB DUP4 DUP2 AND PUSH1 0x0 DUP2 DUP2 MSTORE PUSH1 0xB PUSH1 0x20 SWAP1 DUP2 MSTORE PUSH1 0x40 DUP1 DUP4 KECCAK256 SWAP5 DUP8 AND DUP1 DUP5 MSTORE SWAP5 DUP3 MSTORE SWAP2 DUP3 SWAP1 KECCAK256 DUP6 SWAP1 SSTORE SWAP1 MLOAD DUP5 DUP2 MSTORE PUSH32 0x8C5BE1E5EBEC7D5BD14F71427D1E84F3DD0314C0F7B2291E5B200AC8C7C3B925 SWAP2 ADD PUSH1 0x40 MLOAD DUP1 SWAP2 SUB SWAP1 LOG3 POP POP POP JUMP JUMPDEST PUSH1 0x0 PUSH2 0x2C4B DUP3 PUSH2 0x1996 JUMP JUMPDEST ISZERO PUSH2 0x2C55 JUMPI PUSH1 0x0 DUP1 REVERT JUMPDEST PUSH1 0x1 PUSH1 0x1 PUSH1 0xA0 SHL SUB DUP3 AND PUSH1 0x0 SWAP1 DUP2 MSTORE PUSH1 0xA PUSH1 0x20 MSTORE PUSH1 0x40 SWAP1 KECCAK256 SLOAD PUSH7 0x2386F26FC10000 GT ISZERO PUSH2 0x2CB2 JUMPI PUSH1 0x40 MLOAD PUSH3 0x461BCD PUSH1 0xE5 SHL DUP2 MSTORE PUSH1 0x20 PUSH1 0x4 DUP3 ADD MSTORE PUSH1 0xB PUSH1 0x24 DUP3 ADD MSTORE PUSH11 0x496E7366636E74466E6473 PUSH1 0xA8 SHL PUSH1 0x44 DUP3 ADD MSTORE PUSH1 0x64 ADD PUSH2 0x124D JUMP JUMPDEST PUSH2 0x2CBB DUP3 PUSH2 0x3578 JUMP JUMPDEST PUSH2 0x2CF8 JUMPI PUSH1 0x40 MLOAD PUSH3 0x461BCD PUSH1 0xE5 SHL DUP2 MSTORE PUSH1 0x20 PUSH1 0x4 DUP3 ADD MSTORE PUSH1 0xE PUSH1 0x24 DUP3 ADD MSTORE PUSH14 0x15D85B1B195D125CD31BD8DAD959 PUSH1 0x92 SHL PUSH1 0x44 DUP3 ADD MSTORE PUSH1 0x64 ADD PUSH2 0x124D JUMP JUMPDEST POP PUSH1 0x1 PUSH1 0x1 PUSH1 0xA0 SHL SUB AND PUSH1 0x0 SWAP1 DUP2 MSTORE PUSH1 0xD PUSH1 0x20 SWAP1 DUP2 MSTORE PUSH1 0x40 DUP1 DUP4 KECCAK256 DUP1 SLOAD PUSH1 0xFF NOT AND PUSH1 0x1 SWAP1 DUP2 OR SWAP1 SWAP2 SSTORE PUSH1 0xE DUP4 MSTORE DUP2 DUP5 KECCAK256 DUP5 SWAP1 SSTORE PUSH1 0xF DUP4 MSTORE DUP2 DUP5 KECCAK256 DUP1 SLOAD PUSH1 0x1 PUSH1 0x1 PUSH1 0xA0 SHL SUB NOT AND SWAP1 SSTORE PUSH1 0xC DUP4 MSTORE DUP2 DUP5 KECCAK256 TIMESTAMP SWAP1 DUP2 SWAP1 SSTORE PUSH1 0x11 DUP5 MSTORE DUP3 DUP6 KECCAK256 SSTORE PUSH1 0xA DUP4 MSTORE DUP2 DUP5 KECCAK256 SLOAD PUSH1 0x12 SWAP1 SWAP4 MSTORE SWAP3 KECCAK256 SSTORE SWAP1 JUMP JUMPDEST PUSH1 0x1 PUSH1 0x1 PUSH1 0xA0 SHL SUB DUP4 AND PUSH2 0x2DCB JUMPI PUSH1 0x40 MLOAD PUSH3 0x461BCD PUSH1 0xE5 SHL DUP2 MSTORE PUSH1 0x20 PUSH1 0x4 DUP3 ADD MSTORE PUSH1 0x25 PUSH1 0x24 DUP3 ADD MSTORE PUSH32 0x45524332303A207472616E736665722066726F6D20746865207A65726F206164 PUSH1 0x44 DUP3 ADD MSTORE PUSH5 0x6472657373 PUSH1 0xD8 SHL PUSH1 0x64 DUP3 ADD MSTORE PUSH1 0x84 ADD PUSH2 0x124D JUMP JUMPDEST PUSH1 0x1 PUSH1 0x1 PUSH1 0xA0 SHL SUB DUP3 AND PUSH2 0x2E2D JUMPI PUSH1 0x40 MLOAD PUSH3 0x461BCD PUSH1 0xE5 SHL DUP2 MSTORE PUSH1 0x20 PUSH1 0x4 DUP3 ADD MSTORE PUSH1 0x23 PUSH1 0x24 DUP3 ADD MSTORE PUSH32 0x45524332303A207472616E7366657220746F20746865207A65726F2061646472 PUSH1 0x44 DUP3 ADD MSTORE PUSH3 0x657373 PUSH1 0xE8 SHL PUSH1 0x64 DUP3 ADD MSTORE PUSH1 0x84 ADD PUSH2 0x124D JUMP JUMPDEST PUSH2 0x2E36 DUP4 PUSH2 0x1996 JUMP JUMPDEST ISZERO PUSH2 0x2E77 JUMPI PUSH1 0x40 MLOAD PUSH3 0x461BCD PUSH1 0xE5 SHL DUP2 MSTORE PUSH1 0x20 PUSH1 0x4 DUP3 ADD MSTORE PUSH1 0x11 PUSH1 0x24 DUP3 ADD MSTORE PUSH17 0x29BA35B22BB6363A21B7373A2A393739B3 PUSH1 0x79 SHL PUSH1 0x44 DUP3 ADD MSTORE PUSH1 0x64 ADD PUSH2 0x124D JUMP JUMPDEST PUSH2 0x2E80 DUP4 PUSH2 0x3578 JUMP JUMPDEST PUSH2 0x2EC3 JUMPI PUSH1 0x40 MLOAD PUSH3 0x461BCD PUSH1 0xE5 SHL DUP2 MSTORE PUSH1 0x20 PUSH1 0x4 DUP3 ADD MSTORE PUSH1 0x14 PUSH1 0x24 DUP3 ADD MSTORE PUSH20 0x2637B1B5B2B22BB6363A21B7373A2A393739B339 PUSH1 0x61 SHL PUSH1 0x44 DUP3 ADD MSTORE PUSH1 0x64 ADD PUSH2 0x124D JUMP JUMPDEST PUSH1 0x1 PUSH1 0x1 PUSH1 0xA0 SHL SUB DUP4 AND PUSH1 0x0 SWAP1 DUP2 MSTORE PUSH1 0xA PUSH1 0x20 MSTORE PUSH1 0x40 SWAP1 KECCAK256 SLOAD DUP2 GT ISZERO PUSH2 0x2F3A JUMPI PUSH1 0x40 MLOAD PUSH3 0x461BCD PUSH1 0xE5 SHL DUP2 MSTORE PUSH1 0x20 PUSH1 0x4 DUP3 ADD MSTORE PUSH1 0x26 PUSH1 0x24 DUP3 ADD MSTORE PUSH32 0x45524332303A207472616E7366657220616D6F756E7420657863656564732062 PUSH1 0x44 DUP3 ADD MSTORE PUSH6 0x616C616E6365 PUSH1 0xD0 SHL PUSH1 0x64 DUP3 ADD MSTORE PUSH1 0x84 ADD PUSH2 0x124D JUMP JUMPDEST PUSH2 0x2F43 DUP3 PUSH2 0x1996 JUMP JUMPDEST ISZERO PUSH2 0x2F51 JUMPI PUSH2 0x2F51 DUP3 PUSH2 0x1EF8 JUMP JUMPDEST DUP1 PUSH2 0x2F5A PUSH2 0x33DA JUMP JUMPDEST ISZERO PUSH2 0x2FB3 JUMPI PUSH1 0x0 PUSH2 0x2F6A DUP4 PUSH2 0x35E2 JUMP JUMPDEST SWAP1 POP DUP1 ISZERO PUSH2 0x2FB1 JUMPI PUSH2 0x2F7C DUP2 DUP4 PUSH2 0x3DB3 JUMP JUMPDEST PUSH1 0x16 SLOAD PUSH1 0x1 PUSH1 0x1 PUSH1 0xA0 SHL SUB AND PUSH1 0x0 SWAP1 DUP2 MSTORE PUSH1 0xA PUSH1 0x20 MSTORE PUSH1 0x40 DUP2 KECCAK256 DUP1 SLOAD SWAP3 SWAP5 POP DUP4 SWAP3 SWAP1 SWAP2 SWAP1 PUSH2 0x2FAB SWAP1 DUP5 SWAP1 PUSH2 0x3C76 JUMP JUMPDEST SWAP1 SWAP2 SSTORE POP POP JUMPDEST POP JUMPDEST PUSH1 0x1 PUSH1 0x1 PUSH1 0xA0 SHL SUB DUP5 AND PUSH1 0x0 SWAP1 DUP2 MSTORE PUSH1 0xA PUSH1 0x20 MSTORE PUSH1 0x40 DUP2 KECCAK256 DUP1 SLOAD DUP5 SWAP3 SWAP1 PUSH2 0x2FDB SWAP1 DUP5 SWAP1 PUSH2 0x3DB3 JUMP JUMPDEST SWAP1 SWAP2 SSTORE POP POP PUSH1 0x1 PUSH1 0x1 PUSH1 0xA0 SHL SUB DUP4 AND PUSH1 0x0 SWAP1 DUP2 MSTORE PUSH1 0xA PUSH1 0x20 MSTORE PUSH1 0x40 DUP2 KECCAK256 DUP1 SLOAD DUP4 SWAP3 SWAP1 PUSH2 0x3008 SWAP1 DUP5 SWAP1 PUSH2 0x3C76 JUMP JUMPDEST SWAP3 POP POP DUP2 SWAP1 SSTORE POP DUP3 PUSH1 0x1 PUSH1 0x1 PUSH1 0xA0 SHL SUB AND DUP5 PUSH1 0x1 PUSH1 0x1 PUSH1 0xA0 SHL SUB AND PUSH32 0xDDF252AD1BE2C89B69C2B068FC378DAA952BA7F163C4A11628F55A4DF523B3EF DUP5 PUSH1 0x40 MLOAD PUSH2 0x3054 SWAP2 DUP2 MSTORE PUSH1 0x20 ADD SWAP1 JUMP JUMPDEST PUSH1 0x40 MLOAD DUP1 SWAP2 SUB SWAP1 LOG3 POP POP POP POP JUMP JUMPDEST PUSH2 0x306B DUP2 PUSH2 0x1996 JUMP JUMPDEST PUSH2 0x3074 JUMPI PUSH1 0x0 DUP1 REVERT JUMPDEST PUSH2 0x307D DUP3 PUSH2 0x366B JUMP JUMPDEST PUSH2 0x3086 DUP2 PUSH2 0x3744 JUMP JUMPDEST PUSH2 0x30B0 DUP2 PUSH1 0x1 PUSH1 0x1 PUSH1 0xA0 SHL SUB AND PUSH1 0x0 SWAP1 DUP2 MSTORE PUSH1 0xA PUSH1 0x20 SWAP1 DUP2 MSTORE PUSH1 0x40 DUP1 DUP4 KECCAK256 SLOAD PUSH1 0x10 SWAP1 SWAP3 MSTORE SWAP1 SWAP2 KECCAK256 SSTORE JUMP JUMPDEST PUSH2 0x30BA DUP2 DUP4 PUSH2 0x379F JUMP JUMPDEST PUSH2 0x1968 PUSH2 0x3813 JUMP JUMPDEST PUSH2 0x30CB DUP3 PUSH2 0x1996 JUMP JUMPDEST PUSH2 0x30D4 JUMPI PUSH1 0x0 DUP1 REVERT JUMPDEST DUP1 ISZERO PUSH2 0x30E3 JUMPI PUSH2 0x30E3 DUP3 PUSH2 0x1EF8 JUMP JUMPDEST PUSH1 0x1 PUSH1 0x1 PUSH1 0xA0 SHL SUB DUP3 AND PUSH1 0x0 SWAP1 DUP2 MSTORE PUSH1 0x10 PUSH1 0x20 MSTORE PUSH1 0x40 SWAP1 KECCAK256 SLOAD ISZERO PUSH2 0x3112 JUMPI PUSH2 0x310A DUP3 PUSH2 0x3744 JUMP JUMPDEST PUSH2 0x3112 PUSH2 0x3813 JUMP JUMPDEST POP PUSH1 0x1 PUSH1 0x1 PUSH1 0xA0 SHL SUB AND PUSH1 0x0 SWAP1 DUP2 MSTORE PUSH1 0xD PUSH1 0x20 SWAP1 DUP2 MSTORE PUSH1 0x40 DUP1 DUP4 KECCAK256 DUP1 SLOAD PUSH1 0xFF NOT AND SWAP1 SSTORE PUSH1 0xF DUP3 MSTORE DUP1 DUP4 KECCAK256 DUP1 SLOAD PUSH1 0x1 PUSH1 0x1 PUSH1 0xA0 SHL SUB NOT AND SWAP1 SSTORE PUSH1 0x10 DUP3 MSTORE DUP1 DUP4 KECCAK256 DUP4 SWAP1 SSTORE PUSH1 0xC DUP3 MSTORE DUP1 DUP4 KECCAK256 DUP4 SWAP1 SSTORE PUSH1 0x11 DUP3 MSTORE DUP1 DUP4 KECCAK256 DUP4 SWAP1 SSTORE PUSH1 0x12 DUP3 MSTORE DUP1 DUP4 KECCAK256 DUP4 SWAP1 SSTORE PUSH1 0xE SWAP1 SWAP2 MSTORE SWAP1 KECCAK256 TIMESTAMP SWAP1 SSTORE JUMP JUMPDEST PUSH1 0x1 PUSH1 0x1 PUSH1 0xA0 SHL SUB DUP2 AND PUSH1 0x0 SWAP1 DUP2 MSTORE PUSH1 0xC PUSH1 0x20 MSTORE PUSH1 0x40 DUP2 KECCAK256 SLOAD PUSH2 0x1166 SWAP1 TIMESTAMP PUSH2 0x3DB3 JUMP JUMPDEST PUSH1 0x1 PUSH1 0x1 PUSH1 0xA0 SHL SUB DUP3 AND PUSH1 0x0 DUP2 DUP2 MSTORE PUSH1 0x3B PUSH1 0x20 MSTORE PUSH1 0x40 DUP1 DUP3 KECCAK256 DUP1 SLOAD PUSH1 0xFF NOT AND DUP6 ISZERO ISZERO SWAP1 DUP2 OR SWAP1 SWAP2 SSTORE SWAP1 MLOAD SWAP1 SWAP3 SWAP2 PUSH32 0xFFA9187BF1F18BF477BD0EA1BCBB64E93B6A98132473929EDFCE215CD9B16FAB SWAP2 LOG3 POP POP JUMP JUMPDEST PUSH1 0x7 SLOAD TIMESTAMP LT PUSH2 0x3203 JUMPI PUSH1 0x0 DUP1 REVERT JUMPDEST PUSH2 0x320C DUP3 PUSH2 0x1996 JUMP JUMPDEST ISZERO PUSH2 0x3259 JUMPI PUSH1 0x40 MLOAD PUSH3 0x461BCD PUSH1 0xE5 SHL DUP2 MSTORE PUSH1 0x20 PUSH1 0x4 DUP3 ADD MSTORE PUSH1 0x1E PUSH1 0x24 DUP3 ADD MSTORE PUSH32 0x63616E6E6F74207377617020696E746F207374616B65642077616C6C65740000 PUSH1 0x44 DUP3 ADD MSTORE PUSH1 0x64 ADD PUSH2 0x124D JUMP JUMPDEST PUSH1 0x5 SLOAD PUSH1 0x6 SLOAD PUSH1 0x40 MLOAD PUSH4 0x23B872DD PUSH1 0xE0 SHL DUP2 MSTORE PUSH1 0x1 PUSH1 0x1 PUSH1 0xA0 SHL SUB DUP6 DUP2 AND PUSH1 0x4 DUP4 ADD MSTORE SWAP2 DUP3 AND PUSH1 0x24 DUP3 ADD MSTORE PUSH1 0x44 DUP2 ADD DUP5 SWAP1 MSTORE SWAP2 AND SWAP1 PUSH4 0x23B872DD SWAP1 PUSH1 0x64 ADD PUSH1 0x20 PUSH1 0x40 MLOAD DUP1 DUP4 SUB DUP2 PUSH1 0x0 DUP8 DUP1 EXTCODESIZE ISZERO DUP1 ISZERO PUSH2 0x32B1 JUMPI PUSH1 0x0 DUP1 REVERT JUMPDEST POP GAS CALL ISZERO DUP1 ISZERO PUSH2 0x32C5 JUMPI RETURNDATASIZE PUSH1 0x0 DUP1 RETURNDATACOPY RETURNDATASIZE PUSH1 0x0 REVERT JUMPDEST POP POP POP POP PUSH1 0x40 MLOAD RETURNDATASIZE PUSH1 0x1F NOT PUSH1 0x1F DUP3 ADD AND DUP3 ADD DUP1 PUSH1 0x40 MSTORE POP DUP2 ADD SWAP1 PUSH2 0x32E9 SWAP2 SWAP1 PUSH2 0x3AD5 JUMP JUMPDEST POP PUSH1 0x6 SLOAD PUSH1 0x40 MLOAD PUSH4 0x6039FBDB PUSH1 0xE0 SHL DUP2 MSTORE PUSH1 0x1 PUSH1 0x1 PUSH1 0xA0 SHL SUB DUP5 DUP2 AND PUSH1 0x4 DUP4 ADD MSTORE PUSH1 0x24 DUP3 ADD DUP5 SWAP1 MSTORE SWAP1 SWAP2 AND SWAP1 PUSH4 0x6039FBDB SWAP1 PUSH1 0x44 ADD PUSH1 0x0 PUSH1 0x40 MLOAD DUP1 DUP4 SUB DUP2 PUSH1 0x0 DUP8 DUP1 EXTCODESIZE ISZERO DUP1 ISZERO PUSH2 0x3338 JUMPI PUSH1 0x0 DUP1 REVERT JUMPDEST POP GAS CALL ISZERO DUP1 ISZERO PUSH2 0x334C JUMPI RETURNDATASIZE PUSH1 0x0 DUP1 RETURNDATACOPY RETURNDATASIZE PUSH1 0x0 REVERT JUMPDEST POP POP POP POP PUSH1 0x1 PUSH1 0x1 PUSH1 0xA0 SHL SUB DUP3 AND PUSH1 0x0 SWAP1 DUP2 MSTORE PUSH1 0xA PUSH1 0x20 MSTORE PUSH1 0x40 DUP2 KECCAK256 DUP1 SLOAD DUP4 SWAP3 SWAP1 PUSH2 0x3378 SWAP1 DUP5 SWAP1 PUSH2 0x3C76 JUMP JUMPDEST SWAP3 POP POP DUP2 SWAP1 SSTORE POP DUP1 PUSH1 0x0 DUP1 DUP3 DUP3 SLOAD PUSH2 0x3390 SWAP2 SWAP1 PUSH2 0x3C76 JUMP JUMPDEST SWAP1 SWAP2 SSTORE POP POP PUSH1 0x40 MLOAD DUP2 DUP2 MSTORE PUSH1 0x1 PUSH1 0x1 PUSH1 0xA0 SHL SUB DUP4 AND SWAP1 PUSH1 0x0 SWAP1 PUSH32 0xDDF252AD1BE2C89B69C2B068FC378DAA952BA7F163C4A11628F55A4DF523B3EF SWAP1 PUSH1 0x20 ADD PUSH1 0x40 MLOAD DUP1 SWAP2 SUB SWAP1 LOG3 POP POP JUMP JUMPDEST PUSH1 0x16 SLOAD PUSH1 0x0 SWAP1 PUSH1 0x1 PUSH1 0x1 PUSH1 0xA0 SHL SUB AND ISZERO DUP1 ISZERO SWAP1 PUSH2 0x13DF JUMPI POP PUSH1 0x16 SLOAD PUSH2 0x3407 SWAP1 PUSH1 0x1 PUSH1 0x1 PUSH1 0xA0 SHL SUB AND PUSH2 0x1996 JUMP JUMPDEST ISZERO SWAP1 POP SWAP1 JUMP JUMPDEST PUSH1 0x0 DUP3 PUSH2 0x341C JUMPI POP PUSH1 0x0 PUSH2 0x1166 JUMP JUMPDEST PUSH1 0x0 PUSH2 0x3428 DUP4 DUP6 PUSH2 0x3D55 JUMP JUMPDEST SWAP1 POP DUP3 PUSH2 0x3435 DUP6 DUP4 PUSH2 0x3CBC JUMP JUMPDEST EQ PUSH2 0x1A19 JUMPI PUSH1 0x40 MLOAD PUSH3 0x461BCD PUSH1 0xE5 SHL DUP2 MSTORE PUSH1 0x20 PUSH1 0x4 DUP3 ADD MSTORE PUSH1 0x21 PUSH1 0x24 DUP3 ADD MSTORE PUSH32 0x536166654D6174683A206D756C7469706C69636174696F6E206F766572666C6F PUSH1 0x44 DUP3 ADD MSTORE PUSH1 0x77 PUSH1 0xF8 SHL PUSH1 0x64 DUP3 ADD MSTORE PUSH1 0x84 ADD PUSH2 0x124D JUMP JUMPDEST PUSH1 0x0 PUSH2 0x1A19 DUP4 DUP4 PUSH1 0x40 MLOAD DUP1 PUSH1 0x40 ADD PUSH1 0x40 MSTORE DUP1 PUSH1 0x1A DUP2 MSTORE PUSH1 0x20 ADD PUSH32 0x536166654D6174683A206469766973696F6E206279207A65726F000000000000 DUP2 MSTORE POP PUSH2 0x3909 JUMP JUMPDEST PUSH1 0x0 PUSH10 0xD3C21BCECCEDA1000000 DUP3 EQ ISZERO PUSH2 0x34E9 JUMPI POP DUP2 PUSH2 0x1166 JUMP JUMPDEST DUP2 PUSH2 0x34F6 JUMPI PUSH2 0x34F6 PUSH2 0x3E45 JUMP JUMPDEST PUSH20 0xAF298D050E4395D69670B12B7F41000000000000 DUP3 SGT ISZERO PUSH2 0x351A JUMPI PUSH2 0x351A PUSH2 0x3E45 JUMP JUMPDEST PUSH2 0x1A19 DUP4 PUSH2 0x3527 DUP5 PUSH2 0x3937 JUMP JUMPDEST PUSH2 0x28A6 JUMP JUMPDEST PUSH1 0x0 PUSH10 0xD3C21BCECCEDA1000000 PUSH2 0x3543 DUP2 DUP5 PUSH2 0x3C8E JUMP JUMPDEST PUSH2 0x1166 SWAP2 SWAP1 PUSH2 0x3CD0 JUMP JUMPDEST PUSH1 0x0 PUSH10 0xD3C21BCECCEDA1000000 PUSH2 0x3564 DUP2 DUP5 PUSH2 0x3C8E JUMP JUMPDEST PUSH2 0x356E SWAP2 SWAP1 PUSH2 0x3CD0 JUMP JUMPDEST PUSH2 0x1166 SWAP1 DUP4 PUSH2 0x3D74 JUMP JUMPDEST PUSH1 0x1 PUSH1 0x1 PUSH1 0xA0 SHL SUB DUP2 AND PUSH1 0x0 SWAP1 DUP2 MSTORE PUSH1 0xE PUSH1 0x20 MSTORE PUSH1 0x40 DUP2 KECCAK256 SLOAD DUP1 PUSH2 0x359F JUMPI POP PUSH1 0x1 SWAP3 SWAP2 POP POP JUMP JUMPDEST PUSH1 0x0 PUSH2 0x35AE DUP3 PUSH3 0x69780 PUSH2 0x3C76 JUMP JUMPDEST SWAP1 POP DUP1 TIMESTAMP GT ISZERO PUSH2 0x35D8 JUMPI POP POP POP PUSH1 0x1 PUSH1 0x1 PUSH1 0xA0 SHL SUB AND PUSH1 0x0 SWAP1 DUP2 MSTORE PUSH1 0xE PUSH1 0x20 MSTORE PUSH1 0x40 DUP2 KECCAK256 SSTORE PUSH1 0x1 SWAP1 JUMP JUMPDEST POP PUSH1 0x0 SWAP4 SWAP3 POP POP POP JUMP JUMPDEST PUSH1 0x0 DUP1 PUSH1 0x4 SLOAD TIMESTAMP PUSH2 0x35F3 SWAP2 SWAP1 PUSH2 0x3DB3 JUMP JUMPDEST SWAP1 POP PUSH4 0x1E13380 DUP2 GT ISZERO PUSH2 0x360A JUMPI POP PUSH1 0x0 SWAP3 SWAP2 POP POP JUMP JUMPDEST PUSH4 0x168E6A0 DUP2 GT ISZERO PUSH2 0x3622 JUMPI PUSH2 0x1A19 PUSH2 0x190 DUP5 PUSH2 0x3CBC JUMP JUMPDEST PUSH3 0xF099C0 DUP2 GT ISZERO PUSH2 0x3638 JUMPI PUSH2 0x1A19 PUSH1 0xC8 DUP5 PUSH2 0x3CBC JUMP JUMPDEST PUSH3 0x784CE0 DUP2 GT ISZERO PUSH2 0x365A JUMPI PUSH2 0x364F PUSH2 0x190 DUP5 PUSH2 0x3CBC JUMP JUMPDEST PUSH2 0x1A19 SWAP1 PUSH1 0x3 PUSH2 0x3D55 JUMP JUMPDEST PUSH2 0x1A19 PUSH1 0x64 DUP5 PUSH2 0x3CBC JUMP JUMPDEST POP SWAP2 SWAP1 POP JUMP JUMPDEST PUSH1 0x1 PUSH1 0x1 PUSH1 0xA0 SHL SUB DUP2 AND PUSH1 0x0 SWAP1 DUP2 MSTORE PUSH1 0x15 PUSH1 0x20 MSTORE PUSH1 0x40 SWAP1 KECCAK256 SLOAD PUSH1 0xFF AND PUSH2 0x15AF JUMPI PUSH1 0x14 SLOAD PUSH1 0xC GT PUSH2 0x36DD JUMPI PUSH1 0x40 MLOAD PUSH3 0x461BCD PUSH1 0xE5 SHL DUP2 MSTORE PUSH1 0x20 PUSH1 0x4 DUP3 ADD MSTORE PUSH1 0x1D PUSH1 0x24 DUP3 ADD MSTORE PUSH32 0x566F7465204974657261746F72206D7573742062652072656275696C74000000 PUSH1 0x44 DUP3 ADD MSTORE PUSH1 0x64 ADD PUSH2 0x124D JUMP JUMPDEST PUSH1 0x14 DUP1 SLOAD PUSH1 0x1 DUP2 DUP2 ADD SWAP1 SWAP3 SSTORE PUSH32 0xCE6D7B5282BD9A3661AE061FEED1DBDA4E52AB073B1F9285BE6E155D9C38D4EC ADD DUP1 SLOAD PUSH1 0x1 PUSH1 0x1 PUSH1 0xA0 SHL SUB DUP5 AND PUSH1 0x1 PUSH1 0x1 PUSH1 0xA0 SHL SUB NOT SWAP1 SWAP2 AND DUP2 OR SWAP1 SWAP2 SSTORE PUSH1 0x0 SWAP1 DUP2 MSTORE PUSH1 0x15 PUSH1 0x20 MSTORE PUSH1 0x40 SWAP1 KECCAK256 DUP1 SLOAD PUSH1 0xFF NOT AND SWAP1 SWAP2 OR SWAP1 SSTORE POP JUMP JUMPDEST PUSH1 0x1 PUSH1 0x1 PUSH1 0xA0 SHL SUB DUP1 DUP3 AND PUSH1 0x0 SWAP1 DUP2 MSTORE PUSH1 0xF PUSH1 0x20 SWAP1 DUP2 MSTORE PUSH1 0x40 DUP1 DUP4 KECCAK256 SLOAD PUSH1 0x10 DUP4 MSTORE DUP2 DUP5 KECCAK256 SLOAD SWAP5 AND DUP1 DUP5 MSTORE PUSH1 0x13 SWAP1 SWAP3 MSTORE SWAP1 SWAP2 KECCAK256 SLOAD SWAP1 SWAP2 PUSH2 0x3782 SWAP2 PUSH2 0x3DB3 JUMP JUMPDEST PUSH1 0x1 PUSH1 0x1 PUSH1 0xA0 SHL SUB SWAP1 SWAP2 AND PUSH1 0x0 SWAP1 DUP2 MSTORE PUSH1 0x13 PUSH1 0x20 MSTORE PUSH1 0x40 SWAP1 KECCAK256 SSTORE POP JUMP JUMPDEST PUSH1 0x1 PUSH1 0x1 PUSH1 0xA0 SHL SUB DUP1 DUP4 AND PUSH1 0x0 SWAP1 DUP2 MSTORE PUSH1 0x10 PUSH1 0x20 SWAP1 DUP2 MSTORE PUSH1 0x40 DUP1 DUP4 KECCAK256 SLOAD SWAP4 DUP6 AND DUP4 MSTORE PUSH1 0x13 SWAP1 SWAP2 MSTORE SWAP1 KECCAK256 SLOAD PUSH2 0x37D3 SWAP2 SWAP1 PUSH2 0x3C76 JUMP JUMPDEST PUSH1 0x1 PUSH1 0x1 PUSH1 0xA0 SHL SUB SWAP2 DUP3 AND PUSH1 0x0 DUP2 DUP2 MSTORE PUSH1 0x13 PUSH1 0x20 SWAP1 DUP2 MSTORE PUSH1 0x40 DUP1 DUP4 KECCAK256 SWAP5 SWAP1 SWAP5 SSTORE SWAP5 SWAP1 SWAP4 AND DUP4 MSTORE PUSH1 0xF SWAP1 SWAP4 MSTORE SWAP1 KECCAK256 DUP1 SLOAD PUSH1 0x1 PUSH1 0x1 PUSH1 0xA0 SHL SUB NOT AND SWAP1 SWAP2 OR SWAP1 SSTORE JUMP JUMPDEST PUSH1 0x0 DUP1 PUSH1 0x0 JUMPDEST PUSH1 0x14 SLOAD DUP2 LT ISZERO PUSH2 0x3884 JUMPI PUSH1 0x0 PUSH1 0x14 DUP3 DUP2 SLOAD DUP2 LT PUSH2 0x3838 JUMPI PUSH2 0x3838 PUSH2 0x3E87 JUMP JUMPDEST PUSH1 0x0 SWAP2 DUP3 MSTORE PUSH1 0x20 DUP1 DUP4 KECCAK256 SWAP1 SWAP2 ADD SLOAD PUSH1 0x1 PUSH1 0x1 PUSH1 0xA0 SHL SUB AND DUP1 DUP4 MSTORE PUSH1 0x13 SWAP1 SWAP2 MSTORE PUSH1 0x40 SWAP1 SWAP2 KECCAK256 SLOAD SWAP1 SWAP2 POP DUP5 DUP2 GT ISZERO PUSH2 0x386F JUMPI DUP1 SWAP5 POP DUP2 SWAP4 POP JUMPDEST POP POP DUP1 DUP1 PUSH2 0x387C SWAP1 PUSH2 0x3E16 JUMP JUMPDEST SWAP2 POP POP PUSH2 0x3819 JUMP JUMPDEST POP PUSH1 0x16 SLOAD PUSH1 0x1 PUSH1 0x1 PUSH1 0xA0 SHL SUB DUP3 DUP2 AND SWAP2 AND EQ ISZERO PUSH2 0x389F JUMPI POP POP JUMP JUMPDEST PUSH1 0x16 SLOAD PUSH1 0x40 DUP1 MLOAD PUSH1 0x1 PUSH1 0x1 PUSH1 0xA0 SHL SUB SWAP3 DUP4 AND DUP2 MSTORE SWAP2 DUP4 AND PUSH1 0x20 DUP4 ADD MSTORE PUSH32 0x4611BA562B1BE5E5BAF710C558258FE11B3EEB5D1D1358F3DBFCED2E3B1C24E SWAP2 ADD PUSH1 0x40 MLOAD DUP1 SWAP2 SUB SWAP1 LOG1 PUSH1 0x16 DUP1 SLOAD PUSH1 0x1 PUSH1 0x1 PUSH1 0xA0 SHL SUB NOT AND PUSH1 0x1 PUSH1 0x1 PUSH1 0xA0 SHL SUB SWAP3 SWAP1 SWAP3 AND SWAP2 SWAP1 SWAP2 OR SWAP1 SSTORE POP JUMP JUMPDEST PUSH1 0x0 DUP2 DUP4 PUSH2 0x392A JUMPI PUSH1 0x40 MLOAD PUSH3 0x461BCD PUSH1 0xE5 SHL DUP2 MSTORE PUSH1 0x4 ADD PUSH2 0x124D SWAP2 SWAP1 PUSH2 0x3BAB JUMP JUMPDEST POP PUSH1 0x0 PUSH2 0x289D DUP5 DUP7 PUSH2 0x3CBC JUMP JUMPDEST PUSH1 0x0 DUP2 PUSH2 0x3946 JUMPI PUSH2 0x3946 PUSH2 0x3E45 JUMP JUMPDEST DUP2 PUSH2 0x395B PUSH10 0xD3C21BCECCEDA1000000 DUP1 PUSH2 0x3CD0 JUMP JUMPDEST PUSH2 0x1166 SWAP2 SWAP1 PUSH2 0x3C8E JUMP JUMPDEST PUSH1 0x40 MLOAD DUP1 PUSH2 0x180 ADD PUSH1 0x40 MSTORE DUP1 PUSH1 0xC SWAP1 PUSH1 0x20 DUP3 MUL DUP1 CALLDATASIZE DUP4 CALLDATACOPY POP SWAP2 SWAP3 SWAP2 POP POP JUMP JUMPDEST POP DUP1 SLOAD PUSH1 0x0 DUP3 SSTORE SWAP1 PUSH1 0x0 MSTORE PUSH1 0x20 PUSH1 0x0 KECCAK256 SWAP1 DUP2 ADD SWAP1 PUSH2 0x15AF SWAP2 SWAP1 JUMPDEST DUP1 DUP3 GT ISZERO PUSH2 0x39B2 JUMPI PUSH1 0x0 DUP2 SSTORE PUSH1 0x1 ADD PUSH2 0x399E JUMP JUMPDEST POP SWAP1 JUMP JUMPDEST DUP1 CALLDATALOAD PUSH1 0x1 PUSH1 0x1 PUSH1 0xA0 SHL SUB DUP2 AND DUP2 EQ PUSH2 0x2440 JUMPI PUSH1 0x0 DUP1 REVERT JUMPDEST PUSH1 0x0 PUSH1 0x20 DUP3 DUP5 SUB SLT ISZERO PUSH2 0x39DF JUMPI PUSH1 0x0 DUP1 REVERT JUMPDEST PUSH2 0x1A19 DUP3 PUSH2 0x39B6 JUMP JUMPDEST PUSH1 0x0 DUP1 PUSH1 0x40 DUP4 DUP6 SUB SLT ISZERO PUSH2 0x39FB JUMPI PUSH1 0x0 DUP1 REVERT JUMPDEST PUSH2 0x3A04 DUP4 PUSH2 0x39B6 JUMP JUMPDEST SWAP2 POP PUSH2 0x3A12 PUSH1 0x20 DUP5 ADD PUSH2 0x39B6 JUMP JUMPDEST SWAP1 POP SWAP3 POP SWAP3 SWAP1 POP JUMP JUMPDEST PUSH1 0x0 DUP1 PUSH1 0x0 PUSH1 0x60 DUP5 DUP7 SUB SLT ISZERO PUSH2 0x3A30 JUMPI PUSH1 0x0 DUP1 REVERT JUMPDEST PUSH2 0x3A39 DUP5 PUSH2 0x39B6 JUMP JUMPDEST SWAP3 POP PUSH2 0x3A47 PUSH1 0x20 DUP6 ADD PUSH2 0x39B6 JUMP JUMPDEST SWAP2 POP PUSH1 0x40 DUP5 ADD CALLDATALOAD SWAP1 POP SWAP3 POP SWAP3 POP SWAP3 JUMP JUMPDEST PUSH1 0x0 DUP1 PUSH1 0x40 DUP4 DUP6 SUB SLT ISZERO PUSH2 0x3A6A JUMPI PUSH1 0x0 DUP1 REVERT JUMPDEST PUSH2 0x3A73 DUP4 PUSH2 0x39B6 JUMP JUMPDEST SWAP2 POP PUSH1 0x20 DUP4 ADD CALLDATALOAD PUSH2 0x3A83 DUP2 PUSH2 0x3E9D JUMP JUMPDEST DUP1 SWAP2 POP POP SWAP3 POP SWAP3 SWAP1 POP JUMP JUMPDEST PUSH1 0x0 DUP1 PUSH1 0x40 DUP4 DUP6 SUB SLT ISZERO PUSH2 0x3AA1 JUMPI PUSH1 0x0 DUP1 REVERT JUMPDEST PUSH2 0x3AAA DUP4 PUSH2 0x39B6 JUMP JUMPDEST SWAP5 PUSH1 0x20 SWAP4 SWAP1 SWAP4 ADD CALLDATALOAD SWAP4 POP POP POP JUMP JUMPDEST PUSH1 0x0 PUSH1 0x20 DUP3 DUP5 SUB SLT ISZERO PUSH2 0x3ACA JUMPI PUSH1 0x0 DUP1 REVERT JUMPDEST DUP2 CALLDATALOAD PUSH2 0x1A19 DUP2 PUSH2 0x3E9D JUMP JUMPDEST PUSH1 0x0 PUSH1 0x20 DUP3 DUP5 SUB SLT ISZERO PUSH2 0x3AE7 JUMPI PUSH1 0x0 DUP1 REVERT JUMPDEST DUP2 MLOAD PUSH2 0x1A19 DUP2 PUSH2 0x3E9D JUMP JUMPDEST PUSH1 0x0 PUSH1 0x20 DUP3 DUP5 SUB SLT ISZERO PUSH2 0x3B04 JUMPI PUSH1 0x0 DUP1 REVERT JUMPDEST POP CALLDATALOAD SWAP2 SWAP1 POP JUMP JUMPDEST PUSH1 0x0 PUSH1 0x20 DUP3 DUP5 SUB SLT ISZERO PUSH2 0x3B1D JUMPI PUSH1 0x0 DUP1 REVERT JUMPDEST POP MLOAD SWAP2 SWAP1 POP JUMP JUMPDEST PUSH1 0x0 DUP1 PUSH1 0x40 DUP4 DUP6 SUB SLT ISZERO PUSH2 0x3B37 JUMPI PUSH1 0x0 DUP1 REVERT JUMPDEST POP POP DUP1 CALLDATALOAD SWAP3 PUSH1 0x20 SWAP1 SWAP2 ADD CALLDATALOAD SWAP2 POP JUMP JUMPDEST PUSH1 0x0 DUP1 PUSH1 0x0 PUSH1 0x60 DUP5 DUP7 SUB SLT ISZERO PUSH2 0x3B5B JUMPI PUSH1 0x0 DUP1 REVERT JUMPDEST DUP4 CALLDATALOAD SWAP3 POP PUSH1 0x20 DUP5 ADD CALLDATALOAD SWAP2 POP PUSH1 0x40 DUP5 ADD CALLDATALOAD PUSH2 0x3B74 DUP2 PUSH2 0x3E9D JUMP JUMPDEST DUP1 SWAP2 POP POP SWAP3 POP SWAP3 POP SWAP3 JUMP JUMPDEST PUSH1 0x0 DUP1 PUSH1 0x0 PUSH1 0x60 DUP5 DUP7 SUB SLT ISZERO PUSH2 0x3B94 JUMPI PUSH1 0x0 DUP1 REVERT JUMPDEST POP POP DUP2 CALLDATALOAD SWAP4 PUSH1 0x20 DUP4 ADD CALLDATALOAD SWAP4 POP PUSH1 0x40 SWAP1 SWAP3 ADD CALLDATALOAD SWAP2 SWAP1 POP JUMP JUMPDEST PUSH1 0x0 PUSH1 0x20 DUP1 DUP4 MSTORE DUP4 MLOAD DUP1 DUP3 DUP6 ADD MSTORE PUSH1 0x0 JUMPDEST DUP2 DUP2 LT ISZERO PUSH2 0x3BD8 JUMPI DUP6 DUP2 ADD DUP4 ADD MLOAD DUP6 DUP3 ADD PUSH1 0x40 ADD MSTORE DUP3 ADD PUSH2 0x3BBC JUMP JUMPDEST DUP2 DUP2 GT ISZERO PUSH2 0x3BEA JUMPI PUSH1 0x0 PUSH1 0x40 DUP4 DUP8 ADD ADD MSTORE JUMPDEST POP PUSH1 0x1F ADD PUSH1 0x1F NOT AND SWAP3 SWAP1 SWAP3 ADD PUSH1 0x40 ADD SWAP4 SWAP3 POP POP POP JUMP JUMPDEST PUSH1 0x20 DUP1 DUP3 MSTORE DUP2 DUP2 ADD MSTORE PUSH32 0x4F776E61626C653A2063616C6C6572206973206E6F7420746865206F776E6572 PUSH1 0x40 DUP3 ADD MSTORE PUSH1 0x60 ADD SWAP1 JUMP JUMPDEST PUSH1 0x0 DUP1 DUP3 SLT DUP1 ISZERO PUSH1 0x1 PUSH1 0x1 PUSH1 0xFF SHL SUB DUP5 SWAP1 SUB DUP6 SGT AND ISZERO PUSH2 0x3C57 JUMPI PUSH2 0x3C57 PUSH2 0x3E5B JUMP JUMPDEST PUSH1 0x1 PUSH1 0xFF SHL DUP4 SWAP1 SUB DUP5 SLT DUP2 AND ISZERO PUSH2 0x3C70 JUMPI PUSH2 0x3C70 PUSH2 0x3E5B JUMP JUMPDEST POP POP ADD SWAP1 JUMP JUMPDEST PUSH1 0x0 DUP3 NOT DUP3 GT ISZERO PUSH2 0x3C89 JUMPI PUSH2 0x3C89 PUSH2 0x3E5B JUMP JUMPDEST POP ADD SWAP1 JUMP JUMPDEST PUSH1 0x0 DUP3 PUSH2 0x3C9D JUMPI PUSH2 0x3C9D PUSH2 0x3E71 JUMP JUMPDEST PUSH1 0x1 PUSH1 0xFF SHL DUP3 EQ PUSH1 0x0 NOT DUP5 EQ AND ISZERO PUSH2 0x3CB7 JUMPI PUSH2 0x3CB7 PUSH2 0x3E5B JUMP JUMPDEST POP SDIV SWAP1 JUMP JUMPDEST PUSH1 0x0 DUP3 PUSH2 0x3CCB JUMPI PUSH2 0x3CCB PUSH2 0x3E71 JUMP JUMPDEST POP DIV SWAP1 JUMP JUMPDEST PUSH1 0x0 PUSH1 0x1 PUSH1 0x1 PUSH1 0xFF SHL SUB DUP2 DUP5 SGT DUP3 DUP5 SGT DUP1 DUP3 AND DUP7 DUP5 DIV DUP7 GT AND ISZERO PUSH2 0x3CF6 JUMPI PUSH2 0x3CF6 PUSH2 0x3E5B JUMP JUMPDEST PUSH1 0x1 PUSH1 0xFF SHL PUSH1 0x0 DUP8 SLT DUP3 DUP2 AND DUP8 DUP4 SDIV DUP10 SLT AND ISZERO PUSH2 0x3D15 JUMPI PUSH2 0x3D15 PUSH2 0x3E5B JUMP JUMPDEST PUSH1 0x0 DUP8 SLT SWAP3 POP DUP8 DUP3 SDIV DUP8 SLT DUP5 DUP5 AND AND ISZERO PUSH2 0x3D31 JUMPI PUSH2 0x3D31 PUSH2 0x3E5B JUMP JUMPDEST DUP8 DUP6 SDIV DUP8 SLT DUP2 DUP5 AND AND ISZERO PUSH2 0x3D47 JUMPI PUSH2 0x3D47 PUSH2 0x3E5B JUMP JUMPDEST POP POP POP SWAP3 SWAP1 SWAP4 MUL SWAP4 SWAP3 POP POP POP JUMP JUMPDEST PUSH1 0x0 DUP2 PUSH1 0x0 NOT DIV DUP4 GT DUP3 ISZERO ISZERO AND ISZERO PUSH2 0x3D6F JUMPI PUSH2 0x3D6F PUSH2 0x3E5B JUMP JUMPDEST POP MUL SWAP1 JUMP JUMPDEST PUSH1 0x0 DUP1 DUP4 SLT DUP1 ISZERO PUSH1 0x1 PUSH1 0xFF SHL DUP6 ADD DUP5 SLT AND ISZERO PUSH2 0x3D92 JUMPI PUSH2 0x3D92 PUSH2 0x3E5B JUMP JUMPDEST PUSH1 0x1 PUSH1 0x1 PUSH1 0xFF SHL SUB DUP5 ADD DUP4 SGT DUP2 AND ISZERO PUSH2 0x3DAD JUMPI PUSH2 0x3DAD PUSH2 0x3E5B JUMP JUMPDEST POP POP SUB SWAP1 JUMP JUMPDEST PUSH1 0x0 DUP3 DUP3 LT ISZERO PUSH2 0x3DC5 JUMPI PUSH2 0x3DC5 PUSH2 0x3E5B JUMP JUMPDEST POP SUB SWAP1 JUMP JUMPDEST PUSH1 0x0 DUP2 PUSH2 0x3DD9 JUMPI PUSH2 0x3DD9 PUSH2 0x3E5B JUMP JUMPDEST POP PUSH1 0x0 NOT ADD SWAP1 JUMP JUMPDEST PUSH1 0x1 DUP2 DUP2 SHR SWAP1 DUP3 AND DUP1 PUSH2 0x3DF5 JUMPI PUSH1 0x7F DUP3 AND SWAP2 POP JUMPDEST PUSH1 0x20 DUP3 LT DUP2 EQ ISZERO PUSH2 0x3665 JUMPI PUSH4 0x4E487B71 PUSH1 0xE0 SHL PUSH1 0x0 MSTORE PUSH1 0x22 PUSH1 0x4 MSTORE PUSH1 0x24 PUSH1 0x0 REVERT JUMPDEST PUSH1 0x0 PUSH1 0x0 NOT DUP3 EQ ISZERO PUSH2 0x3E2A JUMPI PUSH2 0x3E2A PUSH2 0x3E5B JUMP JUMPDEST POP PUSH1 0x1 ADD SWAP1 JUMP JUMPDEST PUSH1 0x0 DUP3 PUSH2 0x3E40 JUMPI PUSH2 0x3E40 PUSH2 0x3E71 JUMP JUMPDEST POP MOD SWAP1 JUMP JUMPDEST PUSH4 0x4E487B71 PUSH1 0xE0 SHL PUSH1 0x0 MSTORE PUSH1 0x1 PUSH1 0x4 MSTORE PUSH1 0x24 PUSH1 0x0 REVERT JUMPDEST PUSH4 0x4E487B71 PUSH1 0xE0 SHL PUSH1 0x0 MSTORE PUSH1 0x11 PUSH1 0x4 MSTORE PUSH1 0x24 PUSH1 0x0 REVERT JUMPDEST PUSH4 0x4E487B71 PUSH1 0xE0 SHL PUSH1 0x0 MSTORE PUSH1 0x12 PUSH1 0x4 MSTORE PUSH1 0x24 PUSH1 0x0 REVERT JUMPDEST PUSH4 0x4E487B71 PUSH1 0xE0 SHL PUSH1 0x0 MSTORE PUSH1 0x32 PUSH1 0x4 MSTORE PUSH1 0x24 PUSH1 0x0 REVERT JUMPDEST DUP1 ISZERO ISZERO DUP2 EQ PUSH2 0x15AF JUMPI PUSH1 0x0 DUP1 REVERT INVALID LOG2 PUSH5 0x6970667358 0x22 SLT KECCAK256 0x2B 0xD2 0xD3 0x1F 0xE1 PC LOG3 0x21 0xBC CREATE PUSH21 0xB8AF42012DA59F12DF49E7D1D07E86B148BE8F2078 PUSH5 0x736F6C6343 STOP ADDMOD SMOD STOP CALLER 0x4F PUSH24 0x6E61626C653A2063616C6C6572206973206E6F7420746865 KECCAK256 PUSH16 0x776E6572000000000000000000000000 "
		},
		"gasEstimates": {
			"creation": {
				"codeDepositCost": "3219400",
				"executionCost": "infinite",
				"totalCost": "infinite"
			},
			"external": {
				"HoneyBadgerAddress()": "2516",
				"HoneyBadgerFuelTankAddress()": "2494",
				"_isExcludedMaxTransactionAmount(address)": "2600",
				"allianceWallet()": "2514",
				"allowance(address,address)": "infinite",
				"approve(address,uint256)": "24732",
				"automatedMarketMakerPairs(address)": "2686",
				"balanceOf(address)": "infinite",
				"buyAllianceFee()": "2395",
				"buyDevFee()": "2440",
				"buyLiquidityFee()": "2350",
				"buyMarketingFee()": "2373",
				"buyTotalFees()": "2351",
				"calculateYield(uint256,uint256)": "infinite",
				"contractStart()": "2415",
				"currentCharityWallet()": "2493",
				"currentVotes(address)": "2691",
				"currentlyStaked(address)": "2709",
				"deadAddress()": "284",
				"decimals()": "2423",
				"decreaseAllowance(address,uint256)": "27080",
				"devWallet()": "2450",
				"disableTransferDelay()": "26734",
				"enableTrading()": "48682",
				"excludeFromFees(address,bool)": "28392",
				"excludeFromMaxTransaction(address,bool)": "27041",
				"getBlockTime()": "335",
				"increaseAllowance(address,uint256)": "27112",
				"initializeCoinThruster()": "infinite",
				"isExcludedFromFees(address)": "2684",
				"isStaked(address)": "2629",
				"lastLpBurnTime()": "2440",
				"lastManualLpBurnTime()": "2352",
				"launched()": "2421",
				"limitsInEffect()": "2423",
				"lpBurnEnabled()": "2422",
				"lpBurnFrequency()": "2374",
				"manualBurnFrequency()": "2419",
				"manualBurnLiquidityPairTokens(uint256)": "infinite",
				"marketingWallet()": "2404",
				"maxTransactionAmount()": "2373",
				"maxWallet()": "2438",
				"name()": "infinite",
				"owner()": "2422",
				"percentForLPBurn()": "2441",
				"periodStart(address)": "2664",
				"rebuildVotingIterator()": "infinite",
				"reifyYield(address)": "infinite",
				"removeLimits()": "26735",
				"renounceOwnership()": "30252",
				"sellAllianceFee()": "2418",
				"sellDevFee()": "2396",
				"sellLiquidityFee()": "2394",
				"sellMarketingFee()": "2419",
				"sellTotalFees()": "2440",
				"setAutoLPBurnSettings(uint256,uint256,bool)": "71118",
				"setAutomatedMarketMakerPair(address,bool)": "30684",
				"stakeWallet()": "134646",
				"stakingCoordinatesAmount(address)": "2686",
				"stakingCoordinatesTime(address)": "2641",
				"swapEnabled()": "2499",
				"swapEndTime()": "2461",
				"swapHoneyBadger(uint256)": "infinite",
				"swapTokensAtAmount()": "2395",
				"symbol()": "infinite",
				"tokensForAlliance()": "2354",
				"tokensForDev()": "2374",
				"tokensForLiquidity()": "2463",
				"tokensForMarketing()": "2353",
				"totalStartingSupply()": "2461",
				"totalSupply()": "2397",
				"tradingActive()": "2389",
				"transfer(address,uint256)": "infinite",
				"transferDelayEnabled()": "2377",
				"transferFrom(address,address,uint256)": "infinite",
				"transferOwnership(address)": "30488",
				"uniswapV2Pair()": "2428",
				"uniswapV2Router()": "2428",
				"unlockStartTime(address)": "2621",
				"unstakeWallet()": "infinite",
				"unstakeWalletSansReify()": "infinite",
				"updateAllianceWallet(address)": "30437",
				"updateBuyFees(uint256,uint256,uint256)": "infinite",
				"updateMarketingWallet(address)": "30501",
				"updateMaxTxnAmount(uint256)": "infinite",
				"updateMaxWalletAmount(uint256)": "infinite",
				"updateSellFees(uint256,uint256,uint256)": "infinite",
				"updateSwapEnabled(bool)": "26856",
				"updateSwapTokensAtAmount(uint256)": "infinite",
				"voteCounts(address)": "2620",
				"voteForAddress(address)": "infinite",
				"voteIterator(uint256)": "4793",
				"voteIteratorLength()": "2349",
				"voteWeights(address)": "2642",
				"voteWithRebuildIfNecessary(address)": "infinite",
				"walletWasVotedFor(address)": "2642"
			},
			"internal": {
				"__transfer(address,address,uint256)": "infinite",
				"_setAutomatedMarketMakerPair(address,bool)": "25872",
				"addLiquidity(uint256,uint256)": "infinite",
				"autoBurnLiquidityPairTokens()": "infinite",
				"swapBack()": "infinite",
				"swapTokensForEth(uint256)": "infinite"
			}
		},
		"methodIdentifiers": {
			"HoneyBadgerAddress()": "2681eb81",
			"HoneyBadgerFuelTankAddress()": "923e7074",
			"_isExcludedMaxTransactionAmount(address)": "10d5de53",
			"allianceWallet()": "b7023c2c",
			"allowance(address,address)": "dd62ed3e",
			"approve(address,uint256)": "095ea7b3",
			"automatedMarketMakerPairs(address)": "b62496f5",
			"balanceOf(address)": "70a08231",
			"buyAllianceFee()": "cb8fda1c",
			"buyDevFee()": "9c3b4fdc",
			"buyLiquidityFee()": "f11a24d3",
			"buyMarketingFee()": "7bce5a04",
			"buyTotalFees()": "d85ba063",
			"calculateYield(uint256,uint256)": "043cbe5b",
			"contractStart()": "9aa13f04",
			"currentCharityWallet()": "c31db906",
			"currentVotes(address)": "e593c34b",
			"currentlyStaked(address)": "c57db2c0",
			"deadAddress()": "27c8f835",
			"decimals()": "313ce567",
			"decreaseAllowance(address,uint256)": "a457c2d7",
			"devWallet()": "8ea5220f",
			"disableTransferDelay()": "e884f260",
			"enableTrading()": "8a8c523c",
			"excludeFromFees(address,bool)": "c0246668",
			"excludeFromMaxTransaction(address,bool)": "7571336a",
			"getBlockTime()": "87ceff09",
			"increaseAllowance(address,uint256)": "39509351",
			"initializeCoinThruster()": "0cc874c7",
			"isExcludedFromFees(address)": "4fbee193",
			"isStaked(address)": "6177fd18",
			"lastLpBurnTime()": "a4c82a00",
			"lastManualLpBurnTime()": "9ec22c0e",
			"launched()": "8091f3bf",
			"limitsInEffect()": "4a62bb65",
			"lpBurnEnabled()": "2e82f1a0",
			"lpBurnFrequency()": "2c3e486c",
			"manualBurnFrequency()": "184c16c5",
			"manualBurnLiquidityPairTokens(uint256)": "fe72b27a",
			"marketingWallet()": "75f0a874",
			"maxTransactionAmount()": "c8c8ebe4",
			"maxWallet()": "f8b45b05",
			"name()": "06fdde03",
			"owner()": "8da5cb5b",
			"percentForLPBurn()": "199ffc72",
			"periodStart(address)": "37425fa0",
			"rebuildVotingIterator()": "59357df5",
			"reifyYield(address)": "a8ce45a9",
			"removeLimits()": "751039fc",
			"renounceOwnership()": "715018a6",
			"sellAllianceFee()": "748e2a43",
			"sellDevFee()": "a0d82dc5",
			"sellLiquidityFee()": "f6374342",
			"sellMarketingFee()": "92136913",
			"sellTotalFees()": "6a486a8e",
			"setAutoLPBurnSettings(uint256,uint256,bool)": "730c1888",
			"setAutomatedMarketMakerPair(address,bool)": "9a7a23d6",
			"stakeWallet()": "0f9154b5",
			"stakingCoordinatesAmount(address)": "a73d1b06",
			"stakingCoordinatesTime(address)": "d0dc0d80",
			"swapEnabled()": "6ddd1713",
			"swapEndTime()": "efebc720",
			"swapHoneyBadger(uint256)": "9da37a11",
			"swapTokensAtAmount()": "e2f45605",
			"symbol()": "95d89b41",
			"tokensForAlliance()": "01440c90",
			"tokensForDev()": "9fccce32",
			"tokensForLiquidity()": "1a8145bb",
			"tokensForMarketing()": "1f3fed8f",
			"totalStartingSupply()": "8a702625",
			"totalSupply()": "18160ddd",
			"tradingActive()": "bbc0c742",
			"transfer(address,uint256)": "a9059cbb",
			"transferDelayEnabled()": "c876d0b9",
			"transferFrom(address,address,uint256)": "23b872dd",
			"transferOwnership(address)": "f2fde38b",
			"uniswapV2Pair()": "49bd5a5e",
			"uniswapV2Router()": "1694505e",
			"unlockStartTime(address)": "21ac17f8",
			"unstakeWallet()": "62ad0b15",
			"unstakeWalletSansReify()": "d643391f",
			"updateAllianceWallet(address)": "3eeaeafc",
			"updateBuyFees(uint256,uint256,uint256)": "8095d564",
			"updateMarketingWallet(address)": "aacebbe3",
			"updateMaxTxnAmount(uint256)": "203e727e",
			"updateMaxWalletAmount(uint256)": "c18bc195",
			"updateSellFees(uint256,uint256,uint256)": "c17b5b8c",
			"updateSwapEnabled(bool)": "924de9b7",
			"updateSwapTokensAtAmount(uint256)": "d257b34f",
			"voteCounts(address)": "66a267a9",
			"voteForAddress(address)": "f6f70594",
			"voteIterator(uint256)": "611cda25",
			"voteIteratorLength()": "94e0b68a",
			"voteWeights(address)": "67cc910f",
			"voteWithRebuildIfNecessary(address)": "23c40de2",
			"walletWasVotedFor(address)": "aab7c9eb"
		}
	},
	"abi": [
		{
			"inputs": [
				{
					"internalType": "address",
					"name": "_HoneyBadgerAddress",
					"type": "address"
				},
				{
					"internalType": "address",
					"name": "_HoneyBadgerFuelTankAddress",
					"type": "address"
				}
			],
			"stateMutability": "nonpayable",
			"type": "constructor"
		},
		{
			"anonymous": false,
			"inputs": [
				{
					"indexed": true,
					"internalType": "address",
					"name": "owner",
					"type": "address"
				},
				{
					"indexed": true,
					"internalType": "address",
					"name": "spender",
					"type": "address"
				},
				{
					"indexed": false,
					"internalType": "uint256",
					"name": "value",
					"type": "uint256"
				}
			],
			"name": "Approval",
			"type": "event"
		},
		{
			"anonymous": false,
			"inputs": [],
			"name": "AutoNukeLP",
			"type": "event"
		},
		{
			"anonymous": false,
			"inputs": [
				{
					"indexed": true,
					"internalType": "address",
					"name": "sniper",
					"type": "address"
				}
			],
			"name": "BoughtEarly",
			"type": "event"
		},
		{
			"anonymous": false,
			"inputs": [
				{
					"indexed": true,
					"internalType": "address",
					"name": "account",
					"type": "address"
				},
				{
					"indexed": false,
					"internalType": "bool",
					"name": "isExcluded",
					"type": "bool"
				}
			],
			"name": "ExcludeFromFees",
			"type": "event"
		},
		{
			"anonymous": false,
			"inputs": [],
			"name": "ManualNukeLP",
			"type": "event"
		},
		{
			"anonymous": false,
			"inputs": [
				{
					"indexed": false,
					"internalType": "address",
					"name": "oldW",
					"type": "address"
				},
				{
					"indexed": false,
					"internalType": "address",
					"name": "newW",
					"type": "address"
				}
			],
			"name": "NewCharityWallet",
			"type": "event"
		},
		{
			"anonymous": false,
			"inputs": [
				{
					"indexed": true,
					"internalType": "address",
					"name": "previousOwner",
					"type": "address"
				},
				{
					"indexed": true,
					"internalType": "address",
					"name": "newOwner",
					"type": "address"
				}
			],
			"name": "OwnershipTransferred",
			"type": "event"
		},
		{
			"anonymous": false,
			"inputs": [
				{
					"indexed": true,
					"internalType": "address",
					"name": "pair",
					"type": "address"
				},
				{
					"indexed": true,
					"internalType": "bool",
					"name": "value",
					"type": "bool"
				}
			],
			"name": "SetAutomatedMarketMakerPair",
			"type": "event"
		},
		{
			"anonymous": false,
			"inputs": [
				{
					"indexed": false,
					"internalType": "uint256",
					"name": "tokensSwapped",
					"type": "uint256"
				},
				{
					"indexed": false,
					"internalType": "uint256",
					"name": "ethReceived",
					"type": "uint256"
				},
				{
					"indexed": false,
					"internalType": "uint256",
					"name": "tokensIntoLiquidity",
					"type": "uint256"
				}
			],
			"name": "SwapAndLiquify",
			"type": "event"
		},
		{
			"anonymous": false,
			"inputs": [
				{
					"indexed": true,
					"internalType": "address",
					"name": "from",
					"type": "address"
				},
				{
					"indexed": true,
					"internalType": "address",
					"name": "to",
					"type": "address"
				},
				{
					"indexed": false,
					"internalType": "uint256",
					"name": "value",
					"type": "uint256"
				}
			],
			"name": "Transfer",
			"type": "event"
		},
		{
			"anonymous": false,
			"inputs": [
				{
					"indexed": true,
					"internalType": "address",
					"name": "newAddress",
					"type": "address"
				},
				{
					"indexed": true,
					"internalType": "address",
					"name": "oldAddress",
					"type": "address"
				}
			],
			"name": "UpdateUniswapV2Router",
			"type": "event"
		},
		{
			"anonymous": false,
			"inputs": [
				{
					"indexed": true,
					"internalType": "address",
					"name": "newWallet",
					"type": "address"
				},
				{
					"indexed": true,
					"internalType": "address",
					"name": "oldWallet",
					"type": "address"
				}
			],
			"name": "allianceWalletUpdated",
			"type": "event"
		},
		{
			"anonymous": false,
			"inputs": [
				{
					"indexed": true,
					"internalType": "address",
					"name": "newWallet",
					"type": "address"
				},
				{
					"indexed": true,
					"internalType": "address",
					"name": "oldWallet",
					"type": "address"
				}
			],
			"name": "devWalletUpdated",
			"type": "event"
		},
		{
			"anonymous": false,
			"inputs": [
				{
					"indexed": true,
					"internalType": "address",
					"name": "newWallet",
					"type": "address"
				},
				{
					"indexed": true,
					"internalType": "address",
					"name": "oldWallet",
					"type": "address"
				}
			],
			"name": "marketingWalletUpdated",
			"type": "event"
		},
		{
			"inputs": [],
			"name": "HoneyBadgerAddress",
			"outputs": [
				{
					"internalType": "address",
					"name": "",
					"type": "address"
				}
			],
			"stateMutability": "view",
			"type": "function"
		},
		{
			"inputs": [],
			"name": "HoneyBadgerFuelTankAddress",
			"outputs": [
				{
					"internalType": "address",
					"name": "",
					"type": "address"
				}
			],
			"stateMutability": "view",
			"type": "function"
		},
		{
			"inputs": [
				{
					"internalType": "address",
					"name": "",
					"type": "address"
				}
			],
			"name": "_isExcludedMaxTransactionAmount",
			"outputs": [
				{
					"internalType": "bool",
					"name": "",
					"type": "bool"
				}
			],
			"stateMutability": "view",
			"type": "function"
		},
		{
			"inputs": [],
			"name": "allianceWallet",
			"outputs": [
				{
					"internalType": "address",
					"name": "",
					"type": "address"
				}
			],
			"stateMutability": "view",
			"type": "function"
		},
		{
			"inputs": [
				{
					"internalType": "address",
					"name": "owner",
					"type": "address"
				},
				{
					"internalType": "address",
					"name": "spender",
					"type": "address"
				}
			],
			"name": "allowance",
			"outputs": [
				{
					"internalType": "uint256",
					"name": "",
					"type": "uint256"
				}
			],
			"stateMutability": "view",
			"type": "function"
		},
		{
			"inputs": [
				{
					"internalType": "address",
					"name": "spender",
					"type": "address"
				},
				{
					"internalType": "uint256",
					"name": "amount",
					"type": "uint256"
				}
			],
			"name": "approve",
			"outputs": [
				{
					"internalType": "bool",
					"name": "",
					"type": "bool"
				}
			],
			"stateMutability": "nonpayable",
			"type": "function"
		},
		{
			"inputs": [
				{
					"internalType": "address",
					"name": "",
					"type": "address"
				}
			],
			"name": "automatedMarketMakerPairs",
			"outputs": [
				{
					"internalType": "bool",
					"name": "",
					"type": "bool"
				}
			],
			"stateMutability": "view",
			"type": "function"
		},
		{
			"inputs": [
				{
					"internalType": "address",
					"name": "account",
					"type": "address"
				}
			],
			"name": "balanceOf",
			"outputs": [
				{
					"internalType": "uint256",
					"name": "",
					"type": "uint256"
				}
			],
			"stateMutability": "view",
			"type": "function"
		},
		{
			"inputs": [],
			"name": "buyAllianceFee",
			"outputs": [
				{
					"internalType": "uint256",
					"name": "",
					"type": "uint256"
				}
			],
			"stateMutability": "view",
			"type": "function"
		},
		{
			"inputs": [],
			"name": "buyDevFee",
			"outputs": [
				{
					"internalType": "uint256",
					"name": "",
					"type": "uint256"
				}
			],
			"stateMutability": "view",
			"type": "function"
		},
		{
			"inputs": [],
			"name": "buyLiquidityFee",
			"outputs": [
				{
					"internalType": "uint256",
					"name": "",
					"type": "uint256"
				}
			],
			"stateMutability": "view",
			"type": "function"
		},
		{
			"inputs": [],
			"name": "buyMarketingFee",
			"outputs": [
				{
					"internalType": "uint256",
					"name": "",
					"type": "uint256"
				}
			],
			"stateMutability": "view",
			"type": "function"
		},
		{
			"inputs": [],
			"name": "buyTotalFees",
			"outputs": [
				{
					"internalType": "uint256",
					"name": "",
					"type": "uint256"
				}
			],
			"stateMutability": "view",
			"type": "function"
		},
		{
			"inputs": [
				{
					"internalType": "uint256",
					"name": "principal",
					"type": "uint256"
				},
				{
					"internalType": "uint256",
					"name": "n",
					"type": "uint256"
				}
			],
			"name": "calculateYield",
			"outputs": [
				{
					"internalType": "uint256",
					"name": "",
					"type": "uint256"
				}
			],
			"stateMutability": "pure",
			"type": "function"
		},
		{
			"inputs": [],
			"name": "contractStart",
			"outputs": [
				{
					"internalType": "uint256",
					"name": "",
					"type": "uint256"
				}
			],
			"stateMutability": "view",
			"type": "function"
		},
		{
			"inputs": [],
			"name": "currentCharityWallet",
			"outputs": [
				{
					"internalType": "address",
					"name": "",
					"type": "address"
				}
			],
			"stateMutability": "view",
			"type": "function"
		},
		{
			"inputs": [
				{
					"internalType": "address",
					"name": "",
					"type": "address"
				}
			],
			"name": "currentVotes",
			"outputs": [
				{
					"internalType": "address",
					"name": "",
					"type": "address"
				}
			],
			"stateMutability": "view",
			"type": "function"
		},
		{
			"inputs": [
				{
					"internalType": "address",
					"name": "",
					"type": "address"
				}
			],
			"name": "currentlyStaked",
			"outputs": [
				{
					"internalType": "bool",
					"name": "",
					"type": "bool"
				}
			],
			"stateMutability": "view",
			"type": "function"
		},
		{
			"inputs": [],
			"name": "deadAddress",
			"outputs": [
				{
					"internalType": "address",
					"name": "",
					"type": "address"
				}
			],
			"stateMutability": "view",
			"type": "function"
		},
		{
			"inputs": [],
			"name": "decimals",
			"outputs": [
				{
					"internalType": "uint8",
					"name": "",
					"type": "uint8"
				}
			],
			"stateMutability": "view",
			"type": "function"
		},
		{
			"inputs": [
				{
					"internalType": "address",
					"name": "spender",
					"type": "address"
				},
				{
					"internalType": "uint256",
					"name": "subtractedValue",
					"type": "uint256"
				}
			],
			"name": "decreaseAllowance",
			"outputs": [
				{
					"internalType": "bool",
					"name": "",
					"type": "bool"
				}
			],
			"stateMutability": "nonpayable",
			"type": "function"
		},
		{
			"inputs": [],
			"name": "devWallet",
			"outputs": [
				{
					"internalType": "address",
					"name": "",
					"type": "address"
				}
			],
			"stateMutability": "view",
			"type": "function"
		},
		{
			"inputs": [],
			"name": "disableTransferDelay",
			"outputs": [
				{
					"internalType": "bool",
					"name": "",
					"type": "bool"
				}
			],
			"stateMutability": "nonpayable",
			"type": "function"
		},
		{
			"inputs": [],
			"name": "enableTrading",
			"outputs": [],
			"stateMutability": "nonpayable",
			"type": "function"
		},
		{
			"inputs": [
				{
					"internalType": "address",
					"name": "account",
					"type": "address"
				},
				{
					"internalType": "bool",
					"name": "excluded",
					"type": "bool"
				}
			],
			"name": "excludeFromFees",
			"outputs": [],
			"stateMutability": "nonpayable",
			"type": "function"
		},
		{
			"inputs": [
				{
					"internalType": "address",
					"name": "updAds",
					"type": "address"
				},
				{
					"internalType": "bool",
					"name": "isEx",
					"type": "bool"
				}
			],
			"name": "excludeFromMaxTransaction",
			"outputs": [],
			"stateMutability": "nonpayable",
			"type": "function"
		},
		{
			"inputs": [],
			"name": "getBlockTime",
			"outputs": [
				{
					"internalType": "uint256",
					"name": "",
					"type": "uint256"
				}
			],
			"stateMutability": "view",
			"type": "function"
		},
		{
			"inputs": [
				{
					"internalType": "address",
					"name": "spender",
					"type": "address"
				},
				{
					"internalType": "uint256",
					"name": "addedValue",
					"type": "uint256"
				}
			],
			"name": "increaseAllowance",
			"outputs": [
				{
					"internalType": "bool",
					"name": "",
					"type": "bool"
				}
			],
			"stateMutability": "nonpayable",
			"type": "function"
		},
		{
			"inputs": [],
			"name": "initializeCoinThruster",
			"outputs": [],
			"stateMutability": "nonpayable",
			"type": "function"
		},
		{
			"inputs": [
				{
					"internalType": "address",
					"name": "account",
					"type": "address"
				}
			],
			"name": "isExcludedFromFees",
			"outputs": [
				{
					"internalType": "bool",
					"name": "",
					"type": "bool"
				}
			],
			"stateMutability": "view",
			"type": "function"
		},
		{
			"inputs": [
				{
					"internalType": "address",
					"name": "wallet",
					"type": "address"
				}
			],
			"name": "isStaked",
			"outputs": [
				{
					"internalType": "bool",
					"name": "",
					"type": "bool"
				}
			],
			"stateMutability": "view",
			"type": "function"
		},
		{
			"inputs": [],
			"name": "lastLpBurnTime",
			"outputs": [
				{
					"internalType": "uint256",
					"name": "",
					"type": "uint256"
				}
			],
			"stateMutability": "view",
			"type": "function"
		},
		{
			"inputs": [],
			"name": "lastManualLpBurnTime",
			"outputs": [
				{
					"internalType": "uint256",
					"name": "",
					"type": "uint256"
				}
			],
			"stateMutability": "view",
			"type": "function"
		},
		{
			"inputs": [],
			"name": "launched",
			"outputs": [
				{
					"internalType": "bool",
					"name": "",
					"type": "bool"
				}
			],
			"stateMutability": "view",
			"type": "function"
		},
		{
			"inputs": [],
			"name": "limitsInEffect",
			"outputs": [
				{
					"internalType": "bool",
					"name": "",
					"type": "bool"
				}
			],
			"stateMutability": "view",
			"type": "function"
		},
		{
			"inputs": [],
			"name": "lpBurnEnabled",
			"outputs": [
				{
					"internalType": "bool",
					"name": "",
					"type": "bool"
				}
			],
			"stateMutability": "view",
			"type": "function"
		},
		{
			"inputs": [],
			"name": "lpBurnFrequency",
			"outputs": [
				{
					"internalType": "uint256",
					"name": "",
					"type": "uint256"
				}
			],
			"stateMutability": "view",
			"type": "function"
		},
		{
			"inputs": [],
			"name": "manualBurnFrequency",
			"outputs": [
				{
					"internalType": "uint256",
					"name": "",
					"type": "uint256"
				}
			],
			"stateMutability": "view",
			"type": "function"
		},
		{
			"inputs": [
				{
					"internalType": "uint256",
					"name": "percent",
					"type": "uint256"
				}
			],
			"name": "manualBurnLiquidityPairTokens",
			"outputs": [
				{
					"internalType": "bool",
					"name": "",
					"type": "bool"
				}
			],
			"stateMutability": "nonpayable",
			"type": "function"
		},
		{
			"inputs": [],
			"name": "marketingWallet",
			"outputs": [
				{
					"internalType": "address",
					"name": "",
					"type": "address"
				}
			],
			"stateMutability": "view",
			"type": "function"
		},
		{
			"inputs": [],
			"name": "maxTransactionAmount",
			"outputs": [
				{
					"internalType": "uint256",
					"name": "",
					"type": "uint256"
				}
			],
			"stateMutability": "view",
			"type": "function"
		},
		{
			"inputs": [],
			"name": "maxWallet",
			"outputs": [
				{
					"internalType": "uint256",
					"name": "",
					"type": "uint256"
				}
			],
			"stateMutability": "view",
			"type": "function"
		},
		{
			"inputs": [],
			"name": "name",
			"outputs": [
				{
					"internalType": "string",
					"name": "",
					"type": "string"
				}
			],
			"stateMutability": "view",
			"type": "function"
		},
		{
			"inputs": [],
			"name": "owner",
			"outputs": [
				{
					"internalType": "address",
					"name": "",
					"type": "address"
				}
			],
			"stateMutability": "view",
			"type": "function"
		},
		{
			"inputs": [],
			"name": "percentForLPBurn",
			"outputs": [
				{
					"internalType": "uint256",
					"name": "",
					"type": "uint256"
				}
			],
			"stateMutability": "view",
			"type": "function"
		},
		{
			"inputs": [
				{
					"internalType": "address",
					"name": "",
					"type": "address"
				}
			],
			"name": "periodStart",
			"outputs": [
				{
					"internalType": "uint256",
					"name": "",
					"type": "uint256"
				}
			],
			"stateMutability": "view",
			"type": "function"
		},
		{
			"inputs": [],
			"name": "rebuildVotingIterator",
			"outputs": [],
			"stateMutability": "nonpayable",
			"type": "function"
		},
		{
			"inputs": [
				{
					"internalType": "address",
					"name": "wallet",
					"type": "address"
				}
			],
			"name": "reifyYield",
			"outputs": [],
			"stateMutability": "nonpayable",
			"type": "function"
		},
		{
			"inputs": [],
			"name": "removeLimits",
			"outputs": [
				{
					"internalType": "bool",
					"name": "",
					"type": "bool"
				}
			],
			"stateMutability": "nonpayable",
			"type": "function"
		},
		{
			"inputs": [],
			"name": "renounceOwnership",
			"outputs": [],
			"stateMutability": "nonpayable",
			"type": "function"
		},
		{
			"inputs": [],
			"name": "sellAllianceFee",
			"outputs": [
				{
					"internalType": "uint256",
					"name": "",
					"type": "uint256"
				}
			],
			"stateMutability": "view",
			"type": "function"
		},
		{
			"inputs": [],
			"name": "sellDevFee",
			"outputs": [
				{
					"internalType": "uint256",
					"name": "",
					"type": "uint256"
				}
			],
			"stateMutability": "view",
			"type": "function"
		},
		{
			"inputs": [],
			"name": "sellLiquidityFee",
			"outputs": [
				{
					"internalType": "uint256",
					"name": "",
					"type": "uint256"
				}
			],
			"stateMutability": "view",
			"type": "function"
		},
		{
			"inputs": [],
			"name": "sellMarketingFee",
			"outputs": [
				{
					"internalType": "uint256",
					"name": "",
					"type": "uint256"
				}
			],
			"stateMutability": "view",
			"type": "function"
		},
		{
			"inputs": [],
			"name": "sellTotalFees",
			"outputs": [
				{
					"internalType": "uint256",
					"name": "",
					"type": "uint256"
				}
			],
			"stateMutability": "view",
			"type": "function"
		},
		{
			"inputs": [
				{
					"internalType": "uint256",
					"name": "_frequencyInSeconds",
					"type": "uint256"
				},
				{
					"internalType": "uint256",
					"name": "_percent",
					"type": "uint256"
				},
				{
					"internalType": "bool",
					"name": "_Enabled",
					"type": "bool"
				}
			],
			"name": "setAutoLPBurnSettings",
			"outputs": [],
			"stateMutability": "nonpayable",
			"type": "function"
		},
		{
			"inputs": [
				{
					"internalType": "address",
					"name": "pair",
					"type": "address"
				},
				{
					"internalType": "bool",
					"name": "value",
					"type": "bool"
				}
			],
			"name": "setAutomatedMarketMakerPair",
			"outputs": [],
			"stateMutability": "nonpayable",
			"type": "function"
		},
		{
			"inputs": [],
			"name": "stakeWallet",
			"outputs": [
				{
					"internalType": "bool",
					"name": "",
					"type": "bool"
				}
			],
			"stateMutability": "nonpayable",
			"type": "function"
		},
		{
			"inputs": [
				{
					"internalType": "address",
					"name": "",
					"type": "address"
				}
			],
			"name": "stakingCoordinatesAmount",
			"outputs": [
				{
					"internalType": "uint256",
					"name": "",
					"type": "uint256"
				}
			],
			"stateMutability": "view",
			"type": "function"
		},
		{
			"inputs": [
				{
					"internalType": "address",
					"name": "",
					"type": "address"
				}
			],
			"name": "stakingCoordinatesTime",
			"outputs": [
				{
					"internalType": "uint256",
					"name": "",
					"type": "uint256"
				}
			],
			"stateMutability": "view",
			"type": "function"
		},
		{
			"inputs": [],
			"name": "swapEnabled",
			"outputs": [
				{
					"internalType": "bool",
					"name": "",
					"type": "bool"
				}
			],
			"stateMutability": "view",
			"type": "function"
		},
		{
			"inputs": [],
			"name": "swapEndTime",
			"outputs": [
				{
					"internalType": "uint256",
					"name": "",
					"type": "uint256"
				}
			],
			"stateMutability": "view",
			"type": "function"
		},
		{
			"inputs": [
				{
					"internalType": "uint256",
					"name": "amount",
					"type": "uint256"
				}
			],
			"name": "swapHoneyBadger",
			"outputs": [],
			"stateMutability": "nonpayable",
			"type": "function"
		},
		{
			"inputs": [],
			"name": "swapTokensAtAmount",
			"outputs": [
				{
					"internalType": "uint256",
					"name": "",
					"type": "uint256"
				}
			],
			"stateMutability": "view",
			"type": "function"
		},
		{
			"inputs": [],
			"name": "symbol",
			"outputs": [
				{
					"internalType": "string",
					"name": "",
					"type": "string"
				}
			],
			"stateMutability": "view",
			"type": "function"
		},
		{
			"inputs": [],
			"name": "tokensForAlliance",
			"outputs": [
				{
					"internalType": "uint256",
					"name": "",
					"type": "uint256"
				}
			],
			"stateMutability": "view",
			"type": "function"
		},
		{
			"inputs": [],
			"name": "tokensForDev",
			"outputs": [
				{
					"internalType": "uint256",
					"name": "",
					"type": "uint256"
				}
			],
			"stateMutability": "view",
			"type": "function"
		},
		{
			"inputs": [],
			"name": "tokensForLiquidity",
			"outputs": [
				{
					"internalType": "uint256",
					"name": "",
					"type": "uint256"
				}
			],
			"stateMutability": "view",
			"type": "function"
		},
		{
			"inputs": [],
			"name": "tokensForMarketing",
			"outputs": [
				{
					"internalType": "uint256",
					"name": "",
					"type": "uint256"
				}
			],
			"stateMutability": "view",
			"type": "function"
		},
		{
			"inputs": [],
			"name": "totalStartingSupply",
			"outputs": [
				{
					"internalType": "uint256",
					"name": "",
					"type": "uint256"
				}
			],
			"stateMutability": "view",
			"type": "function"
		},
		{
			"inputs": [],
			"name": "totalSupply",
			"outputs": [
				{
					"internalType": "uint256",
					"name": "",
					"type": "uint256"
				}
			],
			"stateMutability": "view",
			"type": "function"
		},
		{
			"inputs": [],
			"name": "tradingActive",
			"outputs": [
				{
					"internalType": "bool",
					"name": "",
					"type": "bool"
				}
			],
			"stateMutability": "view",
			"type": "function"
		},
		{
			"inputs": [
				{
					"internalType": "address",
					"name": "recipient",
					"type": "address"
				},
				{
					"internalType": "uint256",
					"name": "amount",
					"type": "uint256"
				}
			],
			"name": "transfer",
			"outputs": [
				{
					"internalType": "bool",
					"name": "",
					"type": "bool"
				}
			],
			"stateMutability": "nonpayable",
			"type": "function"
		},
		{
			"inputs": [],
			"name": "transferDelayEnabled",
			"outputs": [
				{
					"internalType": "bool",
					"name": "",
					"type": "bool"
				}
			],
			"stateMutability": "view",
			"type": "function"
		},
		{
			"inputs": [
				{
					"internalType": "address",
					"name": "sender",
					"type": "address"
				},
				{
					"internalType": "address",
					"name": "recipient",
					"type": "address"
				},
				{
					"internalType": "uint256",
					"name": "amount",
					"type": "uint256"
				}
			],
			"name": "transferFrom",
			"outputs": [
				{
					"internalType": "bool",
					"name": "",
					"type": "bool"
				}
			],
			"stateMutability": "nonpayable",
			"type": "function"
		},
		{
			"inputs": [
				{
					"internalType": "address",
					"name": "newOwner",
					"type": "address"
				}
			],
			"name": "transferOwnership",
			"outputs": [],
			"stateMutability": "nonpayable",
			"type": "function"
		},
		{
			"inputs": [],
			"name": "uniswapV2Pair",
			"outputs": [
				{
					"internalType": "address",
					"name": "",
					"type": "address"
				}
			],
			"stateMutability": "view",
			"type": "function"
		},
		{
			"inputs": [],
			"name": "uniswapV2Router",
			"outputs": [
				{
					"internalType": "contract IUniswapV2Router02",
					"name": "",
					"type": "address"
				}
			],
			"stateMutability": "view",
			"type": "function"
		},
		{
			"inputs": [
				{
					"internalType": "address",
					"name": "",
					"type": "address"
				}
			],
			"name": "unlockStartTime",
			"outputs": [
				{
					"internalType": "uint256",
					"name": "",
					"type": "uint256"
				}
			],
			"stateMutability": "view",
			"type": "function"
		},
		{
			"inputs": [],
			"name": "unstakeWallet",
			"outputs": [],
			"stateMutability": "nonpayable",
			"type": "function"
		},
		{
			"inputs": [],
			"name": "unstakeWalletSansReify",
			"outputs": [],
			"stateMutability": "nonpayable",
			"type": "function"
		},
		{
			"inputs": [
				{
					"internalType": "address",
					"name": "newWallet",
					"type": "address"
				}
			],
			"name": "updateAllianceWallet",
			"outputs": [],
			"stateMutability": "nonpayable",
			"type": "function"
		},
		{
			"inputs": [
				{
					"internalType": "uint256",
					"name": "_allianceFee",
					"type": "uint256"
				},
				{
					"internalType": "uint256",
					"name": "_marketingFee",
					"type": "uint256"
				},
				{
					"internalType": "uint256",
					"name": "_liquidityFee",
					"type": "uint256"
				}
			],
			"name": "updateBuyFees",
			"outputs": [],
			"stateMutability": "nonpayable",
			"type": "function"
		},
		{
			"inputs": [
				{
					"internalType": "address",
					"name": "newMarketingWallet",
					"type": "address"
				}
			],
			"name": "updateMarketingWallet",
			"outputs": [],
			"stateMutability": "nonpayable",
			"type": "function"
		},
		{
			"inputs": [
				{
					"internalType": "uint256",
					"name": "newNum",
					"type": "uint256"
				}
			],
			"name": "updateMaxTxnAmount",
			"outputs": [],
			"stateMutability": "nonpayable",
			"type": "function"
		},
		{
			"inputs": [
				{
					"internalType": "uint256",
					"name": "newNum",
					"type": "uint256"
				}
			],
			"name": "updateMaxWalletAmount",
			"outputs": [],
			"stateMutability": "nonpayable",
			"type": "function"
		},
		{
			"inputs": [
				{
					"internalType": "uint256",
					"name": "_allianceFee",
					"type": "uint256"
				},
				{
					"internalType": "uint256",
					"name": "_marketingFee",
					"type": "uint256"
				},
				{
					"internalType": "uint256",
					"name": "_liquidityFee",
					"type": "uint256"
				}
			],
			"name": "updateSellFees",
			"outputs": [],
			"stateMutability": "nonpayable",
			"type": "function"
		},
		{
			"inputs": [
				{
					"internalType": "bool",
					"name": "enabled",
					"type": "bool"
				}
			],
			"name": "updateSwapEnabled",
			"outputs": [],
			"stateMutability": "nonpayable",
			"type": "function"
		},
		{
			"inputs": [
				{
					"internalType": "uint256",
					"name": "newAmount",
					"type": "uint256"
				}
			],
			"name": "updateSwapTokensAtAmount",
			"outputs": [
				{
					"internalType": "bool",
					"name": "",
					"type": "bool"
				}
			],
			"stateMutability": "nonpayable",
			"type": "function"
		},
		{
			"inputs": [
				{
					"internalType": "address",
					"name": "",
					"type": "address"
				}
			],
			"name": "voteCounts",
			"outputs": [
				{
					"internalType": "uint256",
					"name": "",
					"type": "uint256"
				}
			],
			"stateMutability": "view",
			"type": "function"
		},
		{
			"inputs": [
				{
					"internalType": "address",
					"name": "charityWalletVote",
					"type": "address"
				}
			],
			"name": "voteForAddress",
			"outputs": [],
			"stateMutability": "nonpayable",
			"type": "function"
		},
		{
			"inputs": [
				{
					"internalType": "uint256",
					"name": "",
					"type": "uint256"
				}
			],
			"name": "voteIterator",
			"outputs": [
				{
					"internalType": "address",
					"name": "",
					"type": "address"
				}
			],
			"stateMutability": "view",
			"type": "function"
		},
		{
			"inputs": [],
			"name": "voteIteratorLength",
			"outputs": [
				{
					"internalType": "uint256",
					"name": "",
					"type": "uint256"
				}
			],
			"stateMutability": "view",
			"type": "function"
		},
		{
			"inputs": [
				{
					"internalType": "address",
					"name": "",
					"type": "address"
				}
			],
			"name": "voteWeights",
			"outputs": [
				{
					"internalType": "uint256",
					"name": "",
					"type": "uint256"
				}
			],
			"stateMutability": "view",
			"type": "function"
		},
		{
			"inputs": [
				{
					"internalType": "address",
					"name": "charityWalletVote",
					"type": "address"
				}
			],
			"name": "voteWithRebuildIfNecessary",
			"outputs": [],
			"stateMutability": "nonpayable",
			"type": "function"
		},
		{
			"inputs": [
				{
					"internalType": "address",
					"name": "",
					"type": "address"
				}
			],
			"name": "walletWasVotedFor",
			"outputs": [
				{
					"internalType": "bool",
					"name": "",
					"type": "bool"
				}
			],
			"stateMutability": "view",
			"type": "function"
		},
		{
			"stateMutability": "payable",
			"type": "receive"
		}
	]
}