{
	"data": {
		"bytecode": {
			"linkReferences": {},
			"object": "6000805560c0604052600b60808190526a2437b732bca130b233b2b960a91b60a0908152620000329160019190620006ee565b50604080518082019091526004808252634842444360e01b60209092019182526200006091600291620006ee565b5060038054601260ff199182161790915560088054821690556b033b2e3c9fd0803ce800000060095560196021556022805482166001908117909155610e10602355610708602555602780548316821762ffff001916905560298054909216179055348015620000cf57600080fd5b5060405162004e2538038062004e25833981016040819052620000f291620007d5565b426004819055600580546001600160a01b038086166001600160a01b0319928316179092556006805492851692909116919091179055829082906200013b906206978062000866565b60075550600090506200014d6200057d565b601780546001600160a01b0319166001600160a01b038316908117909155604051919250906000907f8be0079c531659141344cd1fd0a4f28419497f9722a3daafe3b4186f6b6457e0908290a350737a250d5630b4cf539739df2c5dacb4c659f2488d620001bd81600162000581565b601880546001600160a01b0319166001600160a01b0383169081179091556040805163c45a015560e01b8152905163c45a015591600480820192602092909190829003018186803b1580156200021257600080fd5b505afa15801562000227573d6000803e3d6000fd5b505050506040513d601f19601f820116820180604052508101906200024d9190620007b1565b6001600160a01b031663c9c6539630836001600160a01b031663ad5c46486040518163ffffffff1660e01b815260040160206040518083038186803b1580156200029657600080fd5b505afa158015620002ab573d6000803e3d6000fd5b505050506040513d601f19601f82011682018060405250810190620002d19190620007b1565b6040518363ffffffff1660e01b8152600401620002f09291906200080c565b602060405180830381600087803b1580156200030b57600080fd5b505af115801562000320573d6000803e3d6000fd5b505050506040513d601f19601f82011682018060405250810190620003469190620007b1565b601980546001600160a01b0319166001600160a01b039283161790819055620003729116600162000581565b6019546200038b906001600160a01b03166001620005ef565b6c0c9f2c9cd04674edea40000000603881905560049060019060059082908290600790839081906103e890620003c29083620008a2565b620003ce919062000881565b601d556038546103e890620003e5906005620008a2565b620003f1919062000881565b601f556038546127109062000408906005620008a2565b62000414919062000881565b601e55602b889055602c869055602e879055602d8590558462000438878a62000866565b62000444919062000866565b602a5560308490556031839055603382905560328190558062000468848662000866565b62000474919062000866565b602f556200048162000643565b601c80546001600160a01b0319166001600160a01b0392909216919091179055620004ab62000643565b601a80546001600160a01b0319166001600160a01b0392909216919091179055620004d562000643565b601b80546001600160a01b0319166001600160a01b03929092169190911790556200050b6200050362000643565b600162000652565b6200051830600162000652565b6200052761dead600162000652565b6200053d6200053562000643565b600162000581565b6200054a30600162000581565b6200055961dead600162000581565b50506038543360009081526020805260409020555062000917975050505050505050565b3390565b6200058b6200057d565b6017546001600160a01b03908116911614620005c45760405162461bcd60e51b8152600401620005bb9062000831565b60405180910390fd5b6001600160a01b03919091166000908152603a60205260409020805460ff1916911515919091179055565b6001600160a01b0382166000818152603b6020526040808220805460ff191685151590811790915590519092917fffa9187bf1f18bf477bd0ea1bcbb64e93b6a98132473929edfce215cd9b16fab91a35050565b6017546001600160a01b031690565b6200065c6200057d565b6017546001600160a01b039081169116146200068c5760405162461bcd60e51b8152600401620005bb9062000831565b6001600160a01b03821660008181526039602052604090819020805460ff1916841515179055517f9d8f7706ea1113d1a167b526eca956215946dd36cc7df39eb16180222d8b5df790620006e290849062000826565b60405180910390a25050565b828054620006fc90620008c4565b90600052602060002090601f0160209004810192826200072057600085556200076b565b82601f106200073b57805160ff19168380011785556200076b565b828001600101855582156200076b579182015b828111156200076b5782518255916020019190600101906200074e565b50620007799291506200077d565b5090565b5b808211156200077957600081556001016200077e565b80516001600160a01b0381168114620007ac57600080fd5b919050565b600060208284031215620007c3578081fd5b620007ce8262000794565b9392505050565b60008060408385031215620007e8578081fd5b620007f38362000794565b9150620008036020840162000794565b90509250929050565b6001600160a01b0392831681529116602082015260400190565b901515815260200190565b6020808252818101527f4f776e61626c653a2063616c6c6572206973206e6f7420746865206f776e6572604082015260600190565b600082198211156200087c576200087c62000901565b500190565b6000826200089d57634e487b7160e01b81526012600452602481fd5b500490565b6000816000190483118215151615620008bf57620008bf62000901565b500290565b600281046001821680620008d957607f821691505b60208210811415620008fb57634e487b7160e01b600052602260045260246000fd5b50919050565b634e487b7160e01b600052601160045260246000fd5b6144fe80620009276000396000f3fe6080604052600436106105425760003560e01c80638a702625116102bd578063b7023c2c11610180578063d85ba063116100e7578063efebc720116100a0578063f63743421161007a578063f637434214610ee8578063f6f7059414610efd578063f8b45b0514610f1d578063fe72b27a14610f3257610549565b8063efebc72014610e9e578063f11a24d314610eb3578063f2fde38b14610ec857610549565b8063d85ba06314610dff578063dd62ed3e14610e14578063e2f4560514610e34578063e593c34b14610e49578063e7ad9fcd14610e69578063e884f26014610e8957610549565b8063c876d0b911610139578063c876d0b914610d6b578063c8c8ebe414610d80578063cb8fda1c14610d95578063d0dc0d8014610daa578063d257b34f14610dca578063d643391f14610dea57610549565b8063b7023c2c14610ccc578063bbc0c74214610ce1578063c024666814610cf6578063c18bc19514610d16578063c31db90614610d36578063c57db2c014610d4b57610549565b80639da37a1111610224578063a73d1b06116101dd578063a73d1b0614610c0c578063a8ce45a914610c2c578063a9059cbb14610c4c578063aab7c9eb14610c6c578063aacebbe314610c8c578063b62496f514610cac57610549565b80639da37a1114610b785780639ec22c0e14610b985780639fccce3214610bad578063a0d82dc514610bc2578063a457c2d714610bd7578063a4c82a0014610bf757610549565b8063924de9b711610276578063924de9b714610ae457806394e0b68a14610b0457806395d89b4114610b195780639a7a23d614610b2e5780639aa13f0414610b4e5780639c3b4fdc14610b6357610549565b80638a70262514610a665780638a8c523c14610a7b5780638da5cb5b14610a905780638ea5220f14610aa55780639213691314610aba578063923e707414610acf57610549565b806337425fa0116104055780636a486a8e1161036c578063751039fc11610325578063751039fc146109dd5780637571336a146109f257806375f0a87414610a125780637bce5a0414610a275780638091f3bf14610a3c57806387ceff0914610a5157610549565b80636a486a8e146109495780636ddd17131461095e57806370a0823114610973578063715018a614610993578063730c1888146109a8578063748e2a43146109c857610549565b806359357df5116103be57806359357df51461089f578063611cda25146108b45780636177fd18146108d457806362ad0b15146108f457806366a267a91461090957806367cc910f1461092957610549565b806337425fa0146107f557806339509351146108155780633eeaeafc1461083557806349bd5a5e146108555780634a62bb651461086a5780634fbee1931461087f57610549565b80631a8145bb116104a95780632681eb81116104625780632681eb811461075f57806327c8f835146107745780632c3e486c146107895780632e6ed7ef1461079e5780632e82f1a0146107be578063313ce567146107d357610549565b80631a8145bb146106b55780631f3fed8f146106ca578063203e727e146106df57806321ac17f8146106ff57806323b872dd1461071f57806323c40de21461073f57610549565b806310d5de53116104fb57806310d5de53146106145780631694505e1461063457806318160ddd146106565780631816467f1461066b578063184c16c51461068b578063199ffc72146106a057610549565b806301440c901461054e578063043cbe5b1461057957806306fdde0314610599578063095ea7b3146105bb5780630cc874c7146105e85780630f9154b5146105ff57610549565b3661054957005b600080fd5b34801561055a57600080fd5b50610563610f52565b6040516105709190614269565b60405180910390f35b34801561058557600080fd5b50610563610594366004613997565b610f58565b3480156105a557600080fd5b506105ae611025565b6040516105709190613a97565b3480156105c757600080fd5b506105db6105d6366004613906565b6110b7565b6040516105709190613a8c565b3480156105f457600080fd5b506105fd6110d4565b005b34801561060b57600080fd5b506105db611260565b34801561062057600080fd5b506105db61062f366004613849565b611277565b34801561064057600080fd5b5061064961128c565b6040516105709190613a21565b34801561066257600080fd5b5061056361129b565b34801561067757600080fd5b506105fd610686366004613849565b6112a1565b34801561069757600080fd5b50610563611333565b3480156106ac57600080fd5b50610563611339565b3480156106c157600080fd5b5061056361133f565b3480156106d657600080fd5b50610563611345565b3480156106eb57600080fd5b506105fd6106fa366004613967565b61134b565b34801561070b57600080fd5b5061056361071a366004613849565b6113e6565b34801561072b57600080fd5b506105db61073a366004613895565b6113f8565b34801561074b57600080fd5b506105fd61075a366004613849565b61148f565b34801561076b57600080fd5b506106496114db565b34801561078057600080fd5b506106496114ea565b34801561079557600080fd5b506105636114f0565b3480156107aa57600080fd5b506105fd6107b93660046139f0565b6114f6565b3480156107ca57600080fd5b506105db61158a565b3480156107df57600080fd5b506107e8611593565b6040516105709190614272565b34801561080157600080fd5b50610563610810366004613849565b61159c565b34801561082157600080fd5b506105db610830366004613906565b6115ae565b34801561084157600080fd5b506105fd610850366004613849565b6115fd565b34801561086157600080fd5b5061064961168f565b34801561087657600080fd5b506105db61169e565b34801561088b57600080fd5b506105db61089a366004613849565b6116a7565b3480156108ab57600080fd5b506105fd6116c9565b3480156108c057600080fd5b506106496108cf366004613967565b611a13565b3480156108e057600080fd5b506105db6108ef366004613849565b611a3d565b34801561090057600080fd5b506105fd611a5b565b34801561091557600080fd5b50610563610924366004613849565b611a6f565b34801561093557600080fd5b50610563610944366004613849565b611a81565b34801561095557600080fd5b50610563611a93565b34801561096a57600080fd5b506105db611a99565b34801561097f57600080fd5b5061056361098e366004613849565b611aa8565b34801561099f57600080fd5b506105fd611b08565b3480156109b457600080fd5b506105fd6109c33660046139b8565b611b87565b3480156109d457600080fd5b50610563611c26565b3480156109e957600080fd5b506105db611c2c565b3480156109fe57600080fd5b506105fd610a0d3660046138d0565b611c73565b348015610a1e57600080fd5b50610649611cd3565b348015610a3357600080fd5b50610563611ce2565b348015610a4857600080fd5b506105db611ce8565b348015610a5d57600080fd5b50610563611cf1565b348015610a7257600080fd5b50610563611cf5565b348015610a8757600080fd5b506105fd611cfb565b348015610a9c57600080fd5b50610649611d52565b348015610ab157600080fd5b50610649611d61565b348015610ac657600080fd5b50610563611d70565b348015610adb57600080fd5b50610649611d76565b348015610af057600080fd5b506105fd610aff36600461392f565b611d85565b348015610b1057600080fd5b50610563611dd6565b348015610b2557600080fd5b506105ae611ddc565b348015610b3a57600080fd5b506105fd610b493660046138d0565b611deb565b348015610b5a57600080fd5b50610563611e58565b348015610b6f57600080fd5b50610563611e5e565b348015610b8457600080fd5b506105fd610b93366004613967565b611e64565b348015610ba457600080fd5b50610563611e75565b348015610bb957600080fd5b50610563611e7b565b348015610bce57600080fd5b50610563611e81565b348015610be357600080fd5b506105db610bf2366004613906565b611e87565b348015610c0357600080fd5b50610563611f02565b348015610c1857600080fd5b50610563610c27366004613849565b611f08565b348015610c3857600080fd5b506105fd610c47366004613849565b611f1a565b348015610c5857600080fd5b506105db610c67366004613906565b612066565b348015610c7857600080fd5b506105db610c87366004613849565b61207a565b348015610c9857600080fd5b506105fd610ca7366004613849565b61208f565b348015610cb857600080fd5b506105db610cc7366004613849565b612121565b348015610cd857600080fd5b50610649612136565b348015610ced57600080fd5b506105db612145565b348015610d0257600080fd5b506105fd610d113660046138d0565b612153565b348015610d2257600080fd5b506105fd610d31366004613967565b6121e8565b348015610d4257600080fd5b50610649612283565b348015610d5757600080fd5b506105db610d66366004613849565b612292565b348015610d7757600080fd5b506105db6122a7565b348015610d8c57600080fd5b506105636122b0565b348015610da157600080fd5b506105636122b6565b348015610db657600080fd5b50610563610dc5366004613849565b6122bc565b348015610dd657600080fd5b506105db610de5366004613967565b6122ce565b348015610df657600080fd5b506105fd612385565b348015610e0b57600080fd5b50610563612397565b348015610e2057600080fd5b50610563610e2f366004613863565b61239d565b348015610e4057600080fd5b506105636123c8565b348015610e5557600080fd5b50610649610e64366004613849565b6123ce565b348015610e7557600080fd5b506105fd610e843660046139f0565b6123e9565b348015610e9557600080fd5b506105db612477565b348015610eaa57600080fd5b506105636124be565b348015610ebf57600080fd5b506105636124c4565b348015610ed457600080fd5b506105fd610ee3366004613849565b6124ca565b348015610ef457600080fd5b50610563612581565b348015610f0957600080fd5b506105fd610f18366004613849565b6114c7565b348015610f2957600080fd5b50610563612587565b348015610f3e57600080fd5b506105db610f4d366004613967565b61258d565b60375481565b600080610f648461276c565b90506000610f816501f331628785683635c9adc5dea000006127ca565b90506000610f8f600261276c565b90505b841561100557610fa360028661447a565b60011415610fd357610fbf610fb8848461285e565b8490612a8c565b9250610fcc6001866143fc565b9450611000565b610ff0610fe0838061285e565b610fea838561285e565b90612a8c565b9150610ffd600286614307565b94505b610f92565b8561100f84612b1c565b61101991906143fc565b93505050505b92915050565b6060600180546110349061442a565b80601f01602080910402602001604051908101604052809291908181526020018280546110609061442a565b80156110ad5780601f10611082576101008083540402835291602001916110ad565b820191906000526020600020905b81548152906001019060200180831161109057829003601f168201915b5050505050905090565b60006110cb6110c4612b30565b8484612b34565b50600192915050565b6007544210156110ff5760405162461bcd60e51b81526004016110f690613f1f565b60405180910390fd5b60085460ff16156111225760405162461bcd60e51b81526004016110f690613fff565b600660009054906101000a90046001600160a01b03166001600160a01b031663165505c16040518163ffffffff1660e01b8152600401600060405180830381600087803b15801561117257600080fd5b505af1158015611186573d6000803e3d6000fd5b50505050600054600954111561125157600080546009546111a791906143fc565b6006546001600160a01b03166000908152600a60205260409020549091506111d09082906142c1565b6006546001600160a01b03166000908152600a6020526040812091909155805482919081906112009084906142c1565b90915550506006546040516001600160a01b03909116906000907fddf252ad1be2c89b69c2b068fc378daa952ba7f163c4a11628f55a4df523b3ef90611247908590614269565b60405180910390a3505b6008805460ff19166001179055565b600061127261126d612b30565b612be8565b905090565b603a6020526000908152604090205460ff1681565b6018546001600160a01b031681565b60385481565b6112a9612b30565b6017546001600160a01b039081169116146112d65760405162461bcd60e51b81526004016110f690613fca565b601b546040516001600160a01b03918216918316907f90b8024c4923d3873ff5b9fcb43d0360d4b9217fa41225d07ba379993552e74390600090a3601b80546001600160a01b0319166001600160a01b0392909216919091179055565b60255481565b60215481565b60355481565b60345481565b611353612b30565b6017546001600160a01b039081169116146113805760405162461bcd60e51b81526004016110f690613fca565b670de0b6b3a76400006103e8603854600161139b919061439e565b6113a59190614307565b6113af9190614307565b8110156113ce5760405162461bcd60e51b81526004016110f69061421a565b6113e081670de0b6b3a764000061439e565b601d5550565b600e6020526000908152604090205481565b6000611405848484612cb6565b6001600160a01b0384166000908152600b6020526040812081611426612b30565b6001600160a01b03166001600160a01b03168152602001908152602001600020549050828110156114695760405162461bcd60e51b81526004016110f690613f82565b61148485611475612b30565b61147f86856143fc565b612b34565b506001949350505050565b601454600c1480156114ba57506001600160a01b03811660009081526015602052604090205460ff16155b156114c7576114c76116c9565b6114d8816114d3612b30565b612eab565b50565b6005546001600160a01b031681565b61dead81565b60235481565b6114fe612b30565b6017546001600160a01b0390811691161461152b5760405162461bcd60e51b81526004016110f690613fca565b602e849055602b839055602c829055602d819055838161154b84866142c1565b61155591906142c1565b61155f91906142c1565b602a819055603210156115845760405162461bcd60e51b81526004016110f690613e14565b50505050565b60225460ff1681565b60035460ff1690565b600c6020526000908152604090205481565b60006110cb6115bb612b30565b8484600b60006115c9612b30565b6001600160a01b03908116825260208083019390935260409182016000908120918b168152925290205461147f91906142c1565b611605612b30565b6017546001600160a01b039081169116146116325760405162461bcd60e51b81526004016110f690613fca565b601c546040516001600160a01b03918216918316907f7aed03a461ac9a82c523921aec0d4b0ae7365a310adc67f94526ba434e2d884790600090a3601c80546001600160a01b0319166001600160a01b0392909216919091179055565b6019546001600160a01b031681565b60275460ff1681565b6001600160a01b03811660009081526039602052604090205460ff165b919050565b601454600c146116eb5760405162461bcd60e51b81526004016110f690613b2d565b6116f36137e1565b60005b600c81101561177a576014818154811061172057634e487b7160e01b600052603260045260246000fd5b6000918252602090912001546001600160a01b03168282600c811061175557634e487b7160e01b600052603260045260246000fd5b6001600160a01b039092166020929092020152806117728161445f565b9150506116f6565b5060015b600c81101561191f5760008282600c81106117a957634e487b7160e01b600052603260045260246000fd5b602090810291909101516001600160a01b038116600090815260139092526040822054909250906117db6001856143fc565b905060005b82601360008885600c811061180557634e487b7160e01b600052603260045260246000fd5b60200201516001600160a01b03166001600160a01b031681526020019081526020016000205410156118b2578582600c811061185157634e487b7160e01b600052603260045260246000fd5b6020020151866118628460016142c1565b600c811061188057634e487b7160e01b600052603260045260246000fd5b6001600160a01b039092166020929092020152816118a0575060016118b2565b816118aa81614413565b9250506117e0565b80156118c9576001600160a01b0384168652611908565b83866118d68460016142c1565b600c81106118f457634e487b7160e01b600052603260045260246000fd5b6001600160a01b0390921660209290920201525b5050505080806119179061445f565b91505061177e565b50600b5b600681106119895760008282600c811061194d57634e487b7160e01b600052603260045260246000fd5b602090810291909101516001600160a01b03166000908152601590915260409020805460ff19169055508061198181614413565b915050611923565b5061199660146000613800565b60005b6006811015611a0f5760148282600c81106119c457634e487b7160e01b600052603260045260246000fd5b6020908102919091015182546001810184556000938452919092200180546001600160a01b0319166001600160a01b0390921691909117905580611a078161445f565b915050611999565b5050565b60148181548110611a2357600080fd5b6000918252602090912001546001600160a01b0316905081565b6001600160a01b03166000908152600d602052604090205460ff1690565b611a6d611a66612b30565b6001612eea565b565b60136020526000908152604090205481565b60106020526000908152604090205481565b602f5481565b60275462010000900460ff1681565b6001600160a01b0381166000908152600a6020526040812054611aca83611a3d565b8015611ae457506016546001600160a01b03848116911614155b1561101f57611af68161059485612fa6565b611b0090826142c1565b9150506116c4565b611b10612b30565b6017546001600160a01b03908116911614611b3d5760405162461bcd60e51b81526004016110f690613fca565b6017546040516000916001600160a01b0316907f8be0079c531659141344cd1fd0a4f28419497f9722a3daafe3b4186f6b6457e0908390a3601780546001600160a01b0319169055565b611b8f612b30565b6017546001600160a01b03908116911614611bbc5760405162461bcd60e51b81526004016110f690613fca565b610258831015611bde5760405162461bcd60e51b81526004016110f690613bec565b6103e88211158015611bee575060015b611c0a5760405162461bcd60e51b81526004016110f690613dc4565b6023929092556021556022805460ff1916911515919091179055565b60335481565b6000611c36612b30565b6017546001600160a01b03908116911614611c635760405162461bcd60e51b81526004016110f690613fca565b506027805460ff19169055600190565b611c7b612b30565b6017546001600160a01b03908116911614611ca85760405162461bcd60e51b81526004016110f690613fca565b6001600160a01b03919091166000908152603a60205260409020805460ff1916911515919091179055565b601a546001600160a01b031681565b602b5481565b60085460ff1681565b4290565b60095481565b611d03612b30565b6017546001600160a01b03908116911614611d305760405162461bcd60e51b81526004016110f690613fca565b6027805462ff00001961ff001990911661010017166201000017905542602455565b6017546001600160a01b031690565b601b546001600160a01b031681565b60305481565b6006546001600160a01b031681565b611d8d612b30565b6017546001600160a01b03908116911614611dba5760405162461bcd60e51b81526004016110f690613fca565b60278054911515620100000262ff000019909216919091179055565b60145490565b6060600280546110349061442a565b611df3612b30565b6017546001600160a01b03908116911614611e205760405162461bcd60e51b81526004016110f690613fca565b6019546001600160a01b0383811691161415611e4e5760405162461bcd60e51b81526004016110f690613c83565b611a0f8282612fc9565b60045490565b602d5481565b6114d8611e6f612b30565b8261301d565b60265481565b60365481565b60325481565b600080600b6000611e96612b30565b6001600160a01b0390811682526020808301939093526040918201600090812091881681529252902054905082811015611ee25760405162461bcd60e51b81526004016110f6906141d5565b611ef8611eed612b30565b8561147f86856143fc565b5060019392505050565b60245481565b60126020526000908152604090205481565b611f2381611a3d565b611f3f5760405162461bcd60e51b81526004016110f690613d73565b6000611f4a82612fa6565b9050603c811015611f5b57506114d8565b6001600160a01b0382166000908152600a6020526040812054611f7e9083610f58565b6001600160a01b0384166000908152600a6020526040812080549293508392909190611fab9084906142c1565b90915550611fb990506131d0565b15612031576000611fcb600783614307565b611fd690600361439e565b6016546001600160a01b03166000908152600a60205260408120805492935083929091906120059084906142c1565b90915550612015905081836142c1565b60008082825461202591906142c1565b90915550612048915050565b8060008082825461204291906142c1565b90915550505b50506001600160a01b03166000908152600c60205260409020429055565b60006110cb612073612b30565b8484612cb6565b60156020526000908152604090205460ff1681565b612097612b30565b6017546001600160a01b039081169116146120c45760405162461bcd60e51b81526004016110f690613fca565b601a546040516001600160a01b03918216918316907fa751787977eeb3902e30e1d19ca00c6ad274a1f622c31a206e32366700b0567490600090a3601a80546001600160a01b0319166001600160a01b0392909216919091179055565b603b6020526000908152604090205460ff1681565b601c546001600160a01b031681565b602754610100900460ff1681565b61215b612b30565b6017546001600160a01b039081169116146121885760405162461bcd60e51b81526004016110f690613fca565b6001600160a01b03821660008181526039602052604090819020805460ff1916841515179055517f9d8f7706ea1113d1a167b526eca956215946dd36cc7df39eb16180222d8b5df7906121dc908490613a8c565b60405180910390a25050565b6121f0612b30565b6017546001600160a01b0390811691161461221d5760405162461bcd60e51b81526004016110f690613fca565b670de0b6b3a76400006103e86038546005612238919061439e565b6122429190614307565b61224c9190614307565b81101561226b5760405162461bcd60e51b81526004016110f690613c3f565b61227d81670de0b6b3a764000061439e565b601f5550565b6016546001600160a01b031681565b600d6020526000908152604090205460ff1681565b60295460ff1681565b601d5481565b602e5481565b60116020526000908152604090205481565b60006122d8612b30565b6017546001600160a01b039081169116146123055760405162461bcd60e51b81526004016110f690613fca565b620186a06038546001612318919061439e565b6123229190614307565b8210156123415760405162461bcd60e51b81526004016110f690613e4b565b6103e86038546005612353919061439e565b61235d9190614307565b82111561237c5760405162461bcd60e51b81526004016110f690613ea0565b50601e55600190565b611a6d612390612b30565b6000612eea565b602a5481565b6001600160a01b039182166000908152600b6020908152604080832093909416825291909152205490565b601e5481565b600f602052600090815260409020546001600160a01b031681565b6123f1612b30565b6017546001600160a01b0390811691161461241e5760405162461bcd60e51b81526004016110f690613fca565b6033849055603083905560318290556032819055838161243e84866142c1565b61244891906142c1565b61245291906142c1565b602f819055603210156115845760405162461bcd60e51b81526004016110f690614167565b6000612481612b30565b6017546001600160a01b039081169116146124ae5760405162461bcd60e51b81526004016110f690613fca565b506029805460ff19169055600190565b60075481565b602c5481565b6124d2612b30565b6017546001600160a01b039081169116146124ff5760405162461bcd60e51b81526004016110f690613fca565b6001600160a01b0381166125255760405162461bcd60e51b81526004016110f690613b64565b6017546040516001600160a01b038084169216907f8be0079c531659141344cd1fd0a4f28419497f9722a3daafe3b4186f6b6457e090600090a3601780546001600160a01b0319166001600160a01b0392909216919091179055565b60315481565b601f5481565b6000612597612b30565b6017546001600160a01b039081169116146125c45760405162461bcd60e51b81526004016110f690613fca565b6025546026546125d491906142c1565b42116125f25760405162461bcd60e51b81526004016110f6906140b7565b6103e88211156126145760405162461bcd60e51b81526004016110f690614028565b426026556019546040516370a0823160e01b815260009130916370a082319161264b916001600160a01b0390911690600401613a21565b60206040518083038186803b15801561266357600080fd5b505afa158015612677573d6000803e3d6000fd5b505050506040513d601f19601f8201168201806040525081019061269b919061397f565b905060006126b56127106126af8487613203565b90613248565b905080156126d6576019546126d6906001600160a01b031661dead83612cb6565b6019546040805160016209351760e01b0319815290516001600160a01b0390921691829163fff6cae991600480830192600092919082900301818387803b15801561272057600080fd5b505af1158015612734573d6000803e3d6000fd5b50506040517f8462566617872a3fbab94534675218431ff9e204063ee3f4f43d965626a39abb925060009150a1506001949350505050565b600061277661328a565b82131561279357634e487b7160e01b600052600160045260246000fd5b61279b6132a4565b8212156127b857634e487b7160e01b600052600160045260246000fd5b6127c06132bf565b61101f908361431b565b60006127d461328a565b8313156127f157634e487b7160e01b600052600160045260246000fd5b6127f961328a565b82131561281657634e487b7160e01b600052600160045260246000fd5b8161283157634e487b7160e01b600052600160045260246000fd5b600061283c8461276c565b905060006128498461276c565b905061285582826132cd565b95945050505050565b600082158061286b575081155b156128785750600061101f565b6128806132bf565b82141561288e57508161101f565b6128966132bf565b8314156128a457508061101f565b60006128ae6132bf565b6128b785613337565b6128c191906142d9565b905060006128ce8561335d565b905060006128da6132bf565b6128e386613337565b6128ed91906142d9565b905060006128fa8661335d565b90506000612908838661431b565b90508415612936578261291b86836142d9565b1461293657634e487b7160e01b600052600160045260246000fd5b60006129406132bf565b61294a908361431b565b9050811561297f5761295a6132bf565b61296483836142d9565b1461297f57634e487b7160e01b600052600160045260246000fd5b905080600061298e858761431b565b905085156129bc57846129a187836142d9565b146129bc57634e487b7160e01b600052600160045260246000fd5b60006129c8858961431b565b905087156129f657846129db89836142d9565b146129f657634e487b7160e01b600052600160045260246000fd5b6129fe61338d565b612a0890886142d9565b9650612a1261338d565b612a1c90866142d9565b94506000612a2a868961431b565b90508715612a585785612a3d89836142d9565b14612a5857634e487b7160e01b600052600160045260246000fd5b84612a638185612a8c565b9050612a6f8184612a8c565b9050612a7b8183612a8c565b9d9c50505050505050505050505050565b600080612a998385614280565b9050600084138015612aab5750600083135b15612ad8578381138015612abe57508281135b612ad857634e487b7160e01b600052600160045260246000fd5b600084128015612ae85750600083125b15612b15578381128015612afb57508281125b612b1557634e487b7160e01b600052600160045260246000fd5b9392505050565b6000612b266132bf565b61101f90836142d9565b3390565b6001600160a01b038316612b5a5760405162461bcd60e51b81526004016110f6906140ec565b6001600160a01b038216612b805760405162461bcd60e51b81526004016110f690613baa565b6001600160a01b038084166000818152600b602090815260408083209487168084529490915290819020849055517f8c5be1e5ebec7d5bd14f71427d1e84f3dd0314c0f7b2291e5b200ac8c7c3b92590612bdb908590614269565b60405180910390a3505050565b6000612bf382611a3d565b15612bfd57600080fd5b612c0682613396565b612c225760405162461bcd60e51b81526004016110f690613d4e565b612c2b826133bb565b612c475760405162461bcd60e51b81526004016110f690613d26565b506001600160a01b03166000908152600d60209081526040808320805460ff19166001908117909155600e8352818420849055600f835281842080546001600160a01b0319169055600c835281842042908190556011845282852055600a835281842054601290935292205590565b6001600160a01b038316612cdc5760405162461bcd60e51b81526004016110f690614072565b6001600160a01b038216612d025760405162461bcd60e51b81526004016110f690613aea565b612d0b83611a3d565b15612d285760405162461bcd60e51b81526004016110f690613ef4565b612d31836133bb565b612d4d5760405162461bcd60e51b81526004016110f690613d96565b6001600160a01b0383166000908152600a6020526040902054811115612d855760405162461bcd60e51b81526004016110f690613ce0565b612d8e82611a3d565b15612d9c57612d9c82611f1a565b80612da56131d0565b15612dfe576000612db58361342a565b90508015612dfc57612dc781836143fc565b6016546001600160a01b03166000908152600a6020526040812080549294508392909190612df69084906142c1565b90915550505b505b6001600160a01b0384166000908152600a602052604081208054849290612e269084906143fc565b90915550506001600160a01b0383166000908152600a602052604081208054839290612e539084906142c1565b92505081905550826001600160a01b0316846001600160a01b03167fddf252ad1be2c89b69c2b068fc378daa952ba7f163c4a11628f55a4df523b3ef84604051612e9d9190614269565b60405180910390a350505050565b612eb481611a3d565b612ebd57600080fd5b612ec6826134b4565b612ecf8161355d565b612ed8816135b8565b612ee281836135de565b611a0f613652565b612ef382611a3d565b612efc57600080fd5b8015612f0b57612f0b82611f1a565b6001600160a01b03821660009081526010602052604090205415612f3a57612f328261355d565b612f3a613652565b506001600160a01b03166000908152600d60209081526040808320805460ff19169055600f825280832080546001600160a01b031916905560108252808320839055600c82528083208390556011825280832083905560128252808320839055600e9091529020429055565b6001600160a01b0381166000908152600c602052604081205461101f90426143fc565b6001600160a01b0382166000818152603b6020526040808220805460ff191685151590811790915590519092917fffa9187bf1f18bf477bd0ea1bcbb64e93b6a98132473929edfce215cd9b16fab91a35050565b600754421061302b57600080fd5b61303482611a3d565b156130515760405162461bcd60e51b81526004016110f69061419e565b6005546006546040516323b872dd60e01b81526001600160a01b03928316926323b872dd9261308a928792909116908690600401613a4f565b602060405180830381600087803b1580156130a457600080fd5b505af11580156130b8573d6000803e3d6000fd5b505050506040513d601f19601f820116820180604052508101906130dc919061394b565b50600654604051636039fbdb60e01b81526001600160a01b0390911690636039fbdb9061310f9085908590600401613a73565b600060405180830381600087803b15801561312957600080fd5b505af115801561313d573d6000803e3d6000fd5b505050506001600160a01b0382166000908152600a6020526040812080548392906131699084906142c1565b925050819055508060008082825461318191906142c1565b90915550506040516001600160a01b038316906000907fddf252ad1be2c89b69c2b068fc378daa952ba7f163c4a11628f55a4df523b3ef906131c4908590614269565b60405180910390a35050565b6016546000906001600160a01b03161580159061127257506016546131fd906001600160a01b0316611a3d565b15905090565b6000826132125750600061101f565b600061321e838561439e565b90508261322b8583614307565b14612b155760405162461bcd60e51b81526004016110f690613f41565b6000612b1583836040518060400160405280601a81526020017f536166654d6174683a206469766973696f6e206279207a65726f000000000000815250613759565b759abe14cd44753b52c4926a9672793542d78c3615cf3a90565b759abe14cd44753b52c4926a9672793542d78c3615cf391990565b69d3c21bcecceda100000090565b60006132d76132bf565b8214156132e557508161101f565b8161330057634e487b7160e01b600052600160045260246000fd5b613308613787565b82131561332557634e487b7160e01b600052600160045260246000fd5b612b15836133328461379f565b61285e565b60006133416132bf565b6133496132bf565b61335390846142d9565b61101f919061431b565b60006133676132bf565b61336f6132bf565b61337990846142d9565b613383919061431b565b61101f90836143bd565b64e8d4a5100090565b6001600160a01b03166000908152600a6020526040902054662386f26fc10000111590565b6001600160a01b0381166000908152600e6020526040812054806133e35760019150506116c4565b60006133f282620697806142c1565b90508042111561341f575050506001600160a01b0381166000908152600e602052604081205560016116c4565b6000925050506116c4565b6000806004544261343b91906143fc565b90506301e133808111156134535760009150506116c4565b630168e6a081111561346b57611b0061019084614307565b62f099c081111561348157611b0060c884614307565b62784ce08111156134a35761349861019084614307565b611b0090600361439e565b611b00606484614307565b50919050565b6001600160a01b03811660009081526015602052604090205460ff166114d857601454600c116134f65760405162461bcd60e51b81526004016110f690614130565b6014805460018181019092557fce6d7b5282bd9a3661ae061feed1dbda4e52ab073b1f9285be6e155d9c38d4ec0180546001600160a01b0384166001600160a01b031990911681179091556000908152601560205260409020805460ff1916909117905550565b6001600160a01b038082166000908152600f602090815260408083205460108352818420549416808452601390925290912054909161359b916143fc565b6001600160a01b0390911660009081526013602052604090205550565b6001600160a01b03166000908152600a6020908152604080832054601090925290912055565b6001600160a01b038083166000908152601060209081526040808320549385168352601390915290205461361291906142c1565b6001600160a01b03918216600081815260136020908152604080832094909455949093168352600f909352902080546001600160a01b0319169091179055565b60008060005b6014548110156136d15760006014828154811061368557634e487b7160e01b600052603260045260246000fd5b60009182526020808320909101546001600160a01b03168083526013909152604090912054909150848111156136bc578094508193505b505080806136c99061445f565b915050613658565b506016546001600160a01b03828116911614156136ef575050611a6d565b6016546040517f04611ba562b1be5e5baf710c558258fe11b3eeb5d1d1358f3dbfced2e3b1c24e9161372e916001600160a01b03909116908490613a35565b60405180910390a1601680546001600160a01b0319166001600160a01b039290921691909117905550565b6000818361377a5760405162461bcd60e51b81526004016110f69190613a97565b5060006128558486614307565b73af298d050e4395d69670b12b7f4100000000000090565b6000816137bc57634e487b7160e01b600052600160045260246000fd5b816137c56132bf565b6137cd6132bf565b6137d7919061431b565b61101f91906142d9565b604051806101800160405280600c906020820280368337509192915050565b50805460008255906000526020600020908101906114d891905b8082111561382e576000815560010161381a565b5090565b80356001600160a01b03811681146116c457600080fd5b60006020828403121561385a578081fd5b612b1582613832565b60008060408385031215613875578081fd5b61387e83613832565b915061388c60208401613832565b90509250929050565b6000806000606084860312156138a9578081fd5b6138b284613832565b92506138c060208501613832565b9150604084013590509250925092565b600080604083850312156138e2578182fd5b6138eb83613832565b915060208301356138fb816144ba565b809150509250929050565b60008060408385031215613918578182fd5b61392183613832565b946020939093013593505050565b600060208284031215613940578081fd5b8135612b15816144ba565b60006020828403121561395c578081fd5b8151612b15816144ba565b600060208284031215613978578081fd5b5035919050565b600060208284031215613990578081fd5b5051919050565b600080604083850312156139a9578182fd5b50508035926020909101359150565b6000806000606084860312156139cc578283fd5b833592506020840135915060408401356139e5816144ba565b809150509250925092565b60008060008060808587031215613a05578081fd5b5050823594602084013594506040840135936060013592509050565b6001600160a01b0391909116815260200190565b6001600160a01b0392831681529116602082015260400190565b6001600160a01b039384168152919092166020820152604081019190915260600190565b6001600160a01b03929092168252602082015260400190565b901515815260200190565b6000602080835283518082850152825b81811015613ac357858101830151858201604001528201613aa7565b81811115613ad45783604083870101525b50601f01601f1916929092016040019392505050565b60208082526023908201527f45524332303a207472616e7366657220746f20746865207a65726f206164647260408201526265737360e81b606082015260800190565b60208082526018908201527f566f74696e67204974657261746f72206e6f742066756c6c0000000000000000604082015260600190565b60208082526026908201527f4f776e61626c653a206e6577206f776e657220697320746865207a65726f206160408201526564647265737360d01b606082015260800190565b60208082526022908201527f45524332303a20617070726f766520746f20746865207a65726f206164647265604082015261737360f01b606082015260800190565b60208082526033908201527f63616e6e6f7420736574206275796261636b206d6f7265206f6674656e207468604082015272616e206576657279203130206d696e7574657360681b606082015260800190565b60208082526024908201527f43616e6e6f7420736574206d617857616c6c6574206c6f776572207468616e20604082015263302e352560e01b606082015260800190565b60208082526039908201527f54686520706169722063616e6e6f742062652072656d6f7665642066726f6d2060408201527f6175746f6d617465644d61726b65744d616b6572506169727300000000000000606082015260800190565b60208082526026908201527f45524332303a207472616e7366657220616d6f756e7420657863656564732062604082015265616c616e636560d01b606082015260800190565b6020808252600e908201526d15d85b1b195d125cd31bd8dad95960921b604082015260600190565b6020808252600b908201526a496e7366636e74466e647360a81b604082015260600190565b602080825260099082015268135cdd109954dd1ad960ba1b604082015260600190565b6020808252601490820152732637b1b5b2b22bb6363a21b7373a2a393739b33960611b604082015260600190565b60208082526030908201527f4d75737420736574206175746f204c50206275726e2070657263656e7420626560408201526f747765656e20302520616e642031302560801b606082015260800190565b6020808252601d908201527f4d757374206b656570206665657320617420323025206f72206c657373000000604082015260600190565b60208082526035908201527f5377617020616d6f756e742063616e6e6f74206265206c6f776572207468616e60408201527410181718181892903a37ba30b61039bab838363c9760591b606082015260800190565b60208082526034908201527f5377617020616d6f756e742063616e6e6f742062652068696768657220746861604082015273371018171a92903a37ba30b61039bab838363c9760611b606082015260800190565b60208082526011908201527029ba35b22bb6363a21b7373a2a393739b360791b604082015260600190565b6020808252600890820152674e6f74526561647960c01b604082015260600190565b60208082526021908201527f536166654d6174683a206d756c7469706c69636174696f6e206f766572666c6f6040820152607760f81b606082015260800190565b60208082526028908201527f45524332303a207472616e7366657220616d6f756e74206578636565647320616040820152676c6c6f77616e636560c01b606082015260800190565b6020808252818101527f4f776e61626c653a2063616c6c6572206973206e6f7420746865206f776e6572604082015260600190565b6020808252600f908201526e105b1c9958591e53185d5b98da1959608a1b604082015260600190565b6020808252602a908201527f4d6179206e6f74206e756b65206d6f7265207468616e20313025206f6620746f60408201526906b656e7320696e204c560b41b606082015260800190565b60208082526025908201527f45524332303a207472616e736665722066726f6d20746865207a65726f206164604082015264647265737360d81b606082015260800190565b6020808252818101527f4d757374207761697420666f7220636f6f6c646f776e20746f2066696e697368604082015260600190565b60208082526024908201527f45524332303a20617070726f76652066726f6d20746865207a65726f206164646040820152637265737360e01b606082015260800190565b6020808252601d908201527f566f7465204974657261746f72206d7573742062652072656275696c74000000604082015260600190565b6020808252601d908201527f4d757374206b656570206665657320617420323525206f72206c657373000000604082015260600190565b6020808252601e908201527f63616e6e6f74207377617020696e746f207374616b65642077616c6c65740000604082015260600190565b60208082526025908201527f45524332303a2064656372656173656420616c6c6f77616e63652062656c6f77604082015264207a65726f60d81b606082015260800190565b6020808252602f908201527f43616e6e6f7420736574206d61785472616e73616374696f6e416d6f756e742060408201526e6c6f776572207468616e20302e312560881b606082015260800190565b90815260200190565b60ff91909116815260200190565b600080821280156001600160ff1b03849003851316156142a2576142a261448e565b600160ff1b83900384128116156142bb576142bb61448e565b50500190565b600082198211156142d4576142d461448e565b500190565b6000826142e8576142e86144a4565b600160ff1b8214600019841416156143025761430261448e565b500590565b600082614316576143166144a4565b500490565b60006001600160ff1b03818413828413808216868404861116156143415761434161448e565b600160ff1b8487128281168783058912161561435f5761435f61448e565b85871292508782058712848416161561437a5761437a61448e565b878505871281841616156143905761439061448e565b505050929093029392505050565b60008160001904831182151516156143b8576143b861448e565b500290565b60008083128015600160ff1b8501841216156143db576143db61448e565b6001600160ff1b03840183138116156143f6576143f661448e565b50500390565b60008282101561440e5761440e61448e565b500390565b6000816144225761442261448e565b506000190190565b60028104600182168061443e57607f821691505b602082108114156134ae57634e487b7160e01b600052602260045260246000fd5b60006000198214156144735761447361448e565b5060010190565b600082614489576144896144a4565b500690565b634e487b7160e01b600052601160045260246000fd5b634e487b7160e01b600052601260045260246000fd5b80151581146114d857600080fdfea2646970667358221220135a414f9e1a04a5ed93069d22ff5a2054d892edb413a6b067c311a5ffb018fd64736f6c63430008000033",
			"opcodes": "PUSH1 0x0 DUP1 SSTORE PUSH1 0xC0 PUSH1 0x40 MSTORE PUSH1 0xB PUSH1 0x80 DUP2 SWAP1 MSTORE PUSH11 0x2437B732BCA130B233B2B9 PUSH1 0xA9 SHL PUSH1 0xA0 SWAP1 DUP2 MSTORE PUSH3 0x32 SWAP2 PUSH1 0x1 SWAP2 SWAP1 PUSH3 0x6EE JUMP JUMPDEST POP PUSH1 0x40 DUP1 MLOAD DUP1 DUP3 ADD SWAP1 SWAP2 MSTORE PUSH1 0x4 DUP1 DUP3 MSTORE PUSH4 0x48424443 PUSH1 0xE0 SHL PUSH1 0x20 SWAP1 SWAP3 ADD SWAP2 DUP3 MSTORE PUSH3 0x60 SWAP2 PUSH1 0x2 SWAP2 PUSH3 0x6EE JUMP JUMPDEST POP PUSH1 0x3 DUP1 SLOAD PUSH1 0x12 PUSH1 0xFF NOT SWAP2 DUP3 AND OR SWAP1 SWAP2 SSTORE PUSH1 0x8 DUP1 SLOAD DUP3 AND SWAP1 SSTORE PUSH12 0x33B2E3C9FD0803CE8000000 PUSH1 0x9 SSTORE PUSH1 0x19 PUSH1 0x21 SSTORE PUSH1 0x22 DUP1 SLOAD DUP3 AND PUSH1 0x1 SWAP1 DUP2 OR SWAP1 SWAP2 SSTORE PUSH2 0xE10 PUSH1 0x23 SSTORE PUSH2 0x708 PUSH1 0x25 SSTORE PUSH1 0x27 DUP1 SLOAD DUP4 AND DUP3 OR PUSH3 0xFFFF00 NOT AND SWAP1 SSTORE PUSH1 0x29 DUP1 SLOAD SWAP1 SWAP3 AND OR SWAP1 SSTORE CALLVALUE DUP1 ISZERO PUSH3 0xCF JUMPI PUSH1 0x0 DUP1 REVERT JUMPDEST POP PUSH1 0x40 MLOAD PUSH3 0x4E25 CODESIZE SUB DUP1 PUSH3 0x4E25 DUP4 CODECOPY DUP2 ADD PUSH1 0x40 DUP2 SWAP1 MSTORE PUSH3 0xF2 SWAP2 PUSH3 0x7D5 JUMP JUMPDEST TIMESTAMP PUSH1 0x4 DUP2 SWAP1 SSTORE PUSH1 0x5 DUP1 SLOAD PUSH1 0x1 PUSH1 0x1 PUSH1 0xA0 SHL SUB DUP1 DUP7 AND PUSH1 0x1 PUSH1 0x1 PUSH1 0xA0 SHL SUB NOT SWAP3 DUP4 AND OR SWAP1 SWAP3 SSTORE PUSH1 0x6 DUP1 SLOAD SWAP3 DUP6 AND SWAP3 SWAP1 SWAP2 AND SWAP2 SWAP1 SWAP2 OR SWAP1 SSTORE DUP3 SWAP1 DUP3 SWAP1 PUSH3 0x13B SWAP1 PUSH3 0x69780 PUSH3 0x866 JUMP JUMPDEST PUSH1 0x7 SSTORE POP PUSH1 0x0 SWAP1 POP PUSH3 0x14D PUSH3 0x57D JUMP JUMPDEST PUSH1 0x17 DUP1 SLOAD PUSH1 0x1 PUSH1 0x1 PUSH1 0xA0 SHL SUB NOT AND PUSH1 0x1 PUSH1 0x1 PUSH1 0xA0 SHL SUB DUP4 AND SWAP1 DUP2 OR SWAP1 SWAP2 SSTORE PUSH1 0x40 MLOAD SWAP2 SWAP3 POP SWAP1 PUSH1 0x0 SWAP1 PUSH32 0x8BE0079C531659141344CD1FD0A4F28419497F9722A3DAAFE3B4186F6B6457E0 SWAP1 DUP3 SWAP1 LOG3 POP PUSH20 0x7A250D5630B4CF539739DF2C5DACB4C659F2488D PUSH3 0x1BD DUP2 PUSH1 0x1 PUSH3 0x581 JUMP JUMPDEST PUSH1 0x18 DUP1 SLOAD PUSH1 0x1 PUSH1 0x1 PUSH1 0xA0 SHL SUB NOT AND PUSH1 0x1 PUSH1 0x1 PUSH1 0xA0 SHL SUB DUP4 AND SWAP1 DUP2 OR SWAP1 SWAP2 SSTORE PUSH1 0x40 DUP1 MLOAD PUSH4 0xC45A0155 PUSH1 0xE0 SHL DUP2 MSTORE SWAP1 MLOAD PUSH4 0xC45A0155 SWAP2 PUSH1 0x4 DUP1 DUP3 ADD SWAP3 PUSH1 0x20 SWAP3 SWAP1 SWAP2 SWAP1 DUP3 SWAP1 SUB ADD DUP2 DUP7 DUP1 EXTCODESIZE ISZERO DUP1 ISZERO PUSH3 0x212 JUMPI PUSH1 0x0 DUP1 REVERT JUMPDEST POP GAS STATICCALL ISZERO DUP1 ISZERO PUSH3 0x227 JUMPI RETURNDATASIZE PUSH1 0x0 DUP1 RETURNDATACOPY RETURNDATASIZE PUSH1 0x0 REVERT JUMPDEST POP POP POP POP PUSH1 0x40 MLOAD RETURNDATASIZE PUSH1 0x1F NOT PUSH1 0x1F DUP3 ADD AND DUP3 ADD DUP1 PUSH1 0x40 MSTORE POP DUP2 ADD SWAP1 PUSH3 0x24D SWAP2 SWAP1 PUSH3 0x7B1 JUMP JUMPDEST PUSH1 0x1 PUSH1 0x1 PUSH1 0xA0 SHL SUB AND PUSH4 0xC9C65396 ADDRESS DUP4 PUSH1 0x1 PUSH1 0x1 PUSH1 0xA0 SHL SUB AND PUSH4 0xAD5C4648 PUSH1 0x40 MLOAD DUP2 PUSH4 0xFFFFFFFF AND PUSH1 0xE0 SHL DUP2 MSTORE PUSH1 0x4 ADD PUSH1 0x20 PUSH1 0x40 MLOAD DUP1 DUP4 SUB DUP2 DUP7 DUP1 EXTCODESIZE ISZERO DUP1 ISZERO PUSH3 0x296 JUMPI PUSH1 0x0 DUP1 REVERT JUMPDEST POP GAS STATICCALL ISZERO DUP1 ISZERO PUSH3 0x2AB JUMPI RETURNDATASIZE PUSH1 0x0 DUP1 RETURNDATACOPY RETURNDATASIZE PUSH1 0x0 REVERT JUMPDEST POP POP POP POP PUSH1 0x40 MLOAD RETURNDATASIZE PUSH1 0x1F NOT PUSH1 0x1F DUP3 ADD AND DUP3 ADD DUP1 PUSH1 0x40 MSTORE POP DUP2 ADD SWAP1 PUSH3 0x2D1 SWAP2 SWAP1 PUSH3 0x7B1 JUMP JUMPDEST PUSH1 0x40 MLOAD DUP4 PUSH4 0xFFFFFFFF AND PUSH1 0xE0 SHL DUP2 MSTORE PUSH1 0x4 ADD PUSH3 0x2F0 SWAP3 SWAP2 SWAP1 PUSH3 0x80C JUMP JUMPDEST PUSH1 0x20 PUSH1 0x40 MLOAD DUP1 DUP4 SUB DUP2 PUSH1 0x0 DUP8 DUP1 EXTCODESIZE ISZERO DUP1 ISZERO PUSH3 0x30B JUMPI PUSH1 0x0 DUP1 REVERT JUMPDEST POP GAS CALL ISZERO DUP1 ISZERO PUSH3 0x320 JUMPI RETURNDATASIZE PUSH1 0x0 DUP1 RETURNDATACOPY RETURNDATASIZE PUSH1 0x0 REVERT JUMPDEST POP POP POP POP PUSH1 0x40 MLOAD RETURNDATASIZE PUSH1 0x1F NOT PUSH1 0x1F DUP3 ADD AND DUP3 ADD DUP1 PUSH1 0x40 MSTORE POP DUP2 ADD SWAP1 PUSH3 0x346 SWAP2 SWAP1 PUSH3 0x7B1 JUMP JUMPDEST PUSH1 0x19 DUP1 SLOAD PUSH1 0x1 PUSH1 0x1 PUSH1 0xA0 SHL SUB NOT AND PUSH1 0x1 PUSH1 0x1 PUSH1 0xA0 SHL SUB SWAP3 DUP4 AND OR SWAP1 DUP2 SWAP1 SSTORE PUSH3 0x372 SWAP2 AND PUSH1 0x1 PUSH3 0x581 JUMP JUMPDEST PUSH1 0x19 SLOAD PUSH3 0x38B SWAP1 PUSH1 0x1 PUSH1 0x1 PUSH1 0xA0 SHL SUB AND PUSH1 0x1 PUSH3 0x5EF JUMP JUMPDEST PUSH13 0xC9F2C9CD04674EDEA40000000 PUSH1 0x38 DUP2 SWAP1 SSTORE PUSH1 0x4 SWAP1 PUSH1 0x1 SWAP1 PUSH1 0x5 SWAP1 DUP3 SWAP1 DUP3 SWAP1 PUSH1 0x7 SWAP1 DUP4 SWAP1 DUP2 SWAP1 PUSH2 0x3E8 SWAP1 PUSH3 0x3C2 SWAP1 DUP4 PUSH3 0x8A2 JUMP JUMPDEST PUSH3 0x3CE SWAP2 SWAP1 PUSH3 0x881 JUMP JUMPDEST PUSH1 0x1D SSTORE PUSH1 0x38 SLOAD PUSH2 0x3E8 SWAP1 PUSH3 0x3E5 SWAP1 PUSH1 0x5 PUSH3 0x8A2 JUMP JUMPDEST PUSH3 0x3F1 SWAP2 SWAP1 PUSH3 0x881 JUMP JUMPDEST PUSH1 0x1F SSTORE PUSH1 0x38 SLOAD PUSH2 0x2710 SWAP1 PUSH3 0x408 SWAP1 PUSH1 0x5 PUSH3 0x8A2 JUMP JUMPDEST PUSH3 0x414 SWAP2 SWAP1 PUSH3 0x881 JUMP JUMPDEST PUSH1 0x1E SSTORE PUSH1 0x2B DUP9 SWAP1 SSTORE PUSH1 0x2C DUP7 SWAP1 SSTORE PUSH1 0x2E DUP8 SWAP1 SSTORE PUSH1 0x2D DUP6 SWAP1 SSTORE DUP5 PUSH3 0x438 DUP8 DUP11 PUSH3 0x866 JUMP JUMPDEST PUSH3 0x444 SWAP2 SWAP1 PUSH3 0x866 JUMP JUMPDEST PUSH1 0x2A SSTORE PUSH1 0x30 DUP5 SWAP1 SSTORE PUSH1 0x31 DUP4 SWAP1 SSTORE PUSH1 0x33 DUP3 SWAP1 SSTORE PUSH1 0x32 DUP2 SWAP1 SSTORE DUP1 PUSH3 0x468 DUP5 DUP7 PUSH3 0x866 JUMP JUMPDEST PUSH3 0x474 SWAP2 SWAP1 PUSH3 0x866 JUMP JUMPDEST PUSH1 0x2F SSTORE PUSH3 0x481 PUSH3 0x643 JUMP JUMPDEST PUSH1 0x1C DUP1 SLOAD PUSH1 0x1 PUSH1 0x1 PUSH1 0xA0 SHL SUB NOT AND PUSH1 0x1 PUSH1 0x1 PUSH1 0xA0 SHL SUB SWAP3 SWAP1 SWAP3 AND SWAP2 SWAP1 SWAP2 OR SWAP1 SSTORE PUSH3 0x4AB PUSH3 0x643 JUMP JUMPDEST PUSH1 0x1A DUP1 SLOAD PUSH1 0x1 PUSH1 0x1 PUSH1 0xA0 SHL SUB NOT AND PUSH1 0x1 PUSH1 0x1 PUSH1 0xA0 SHL SUB SWAP3 SWAP1 SWAP3 AND SWAP2 SWAP1 SWAP2 OR SWAP1 SSTORE PUSH3 0x4D5 PUSH3 0x643 JUMP JUMPDEST PUSH1 0x1B DUP1 SLOAD PUSH1 0x1 PUSH1 0x1 PUSH1 0xA0 SHL SUB NOT AND PUSH1 0x1 PUSH1 0x1 PUSH1 0xA0 SHL SUB SWAP3 SWAP1 SWAP3 AND SWAP2 SWAP1 SWAP2 OR SWAP1 SSTORE PUSH3 0x50B PUSH3 0x503 PUSH3 0x643 JUMP JUMPDEST PUSH1 0x1 PUSH3 0x652 JUMP JUMPDEST PUSH3 0x518 ADDRESS PUSH1 0x1 PUSH3 0x652 JUMP JUMPDEST PUSH3 0x527 PUSH2 0xDEAD PUSH1 0x1 PUSH3 0x652 JUMP JUMPDEST PUSH3 0x53D PUSH3 0x535 PUSH3 0x643 JUMP JUMPDEST PUSH1 0x1 PUSH3 0x581 JUMP JUMPDEST PUSH3 0x54A ADDRESS PUSH1 0x1 PUSH3 0x581 JUMP JUMPDEST PUSH3 0x559 PUSH2 0xDEAD PUSH1 0x1 PUSH3 0x581 JUMP JUMPDEST POP POP PUSH1 0x38 SLOAD CALLER PUSH1 0x0 SWAP1 DUP2 MSTORE PUSH1 0x20 DUP1 MSTORE PUSH1 0x40 SWAP1 KECCAK256 SSTORE POP PUSH3 0x917 SWAP8 POP POP POP POP POP POP POP POP JUMP JUMPDEST CALLER SWAP1 JUMP JUMPDEST PUSH3 0x58B PUSH3 0x57D JUMP JUMPDEST PUSH1 0x17 SLOAD PUSH1 0x1 PUSH1 0x1 PUSH1 0xA0 SHL SUB SWAP1 DUP2 AND SWAP2 AND EQ PUSH3 0x5C4 JUMPI PUSH1 0x40 MLOAD PUSH3 0x461BCD PUSH1 0xE5 SHL DUP2 MSTORE PUSH1 0x4 ADD PUSH3 0x5BB SWAP1 PUSH3 0x831 JUMP JUMPDEST PUSH1 0x40 MLOAD DUP1 SWAP2 SUB SWAP1 REVERT JUMPDEST PUSH1 0x1 PUSH1 0x1 PUSH1 0xA0 SHL SUB SWAP2 SWAP1 SWAP2 AND PUSH1 0x0 SWAP1 DUP2 MSTORE PUSH1 0x3A PUSH1 0x20 MSTORE PUSH1 0x40 SWAP1 KECCAK256 DUP1 SLOAD PUSH1 0xFF NOT AND SWAP2 ISZERO ISZERO SWAP2 SWAP1 SWAP2 OR SWAP1 SSTORE JUMP JUMPDEST PUSH1 0x1 PUSH1 0x1 PUSH1 0xA0 SHL SUB DUP3 AND PUSH1 0x0 DUP2 DUP2 MSTORE PUSH1 0x3B PUSH1 0x20 MSTORE PUSH1 0x40 DUP1 DUP3 KECCAK256 DUP1 SLOAD PUSH1 0xFF NOT AND DUP6 ISZERO ISZERO SWAP1 DUP2 OR SWAP1 SWAP2 SSTORE SWAP1 MLOAD SWAP1 SWAP3 SWAP2 PUSH32 0xFFA9187BF1F18BF477BD0EA1BCBB64E93B6A98132473929EDFCE215CD9B16FAB SWAP2 LOG3 POP POP JUMP JUMPDEST PUSH1 0x17 SLOAD PUSH1 0x1 PUSH1 0x1 PUSH1 0xA0 SHL SUB AND SWAP1 JUMP JUMPDEST PUSH3 0x65C PUSH3 0x57D JUMP JUMPDEST PUSH1 0x17 SLOAD PUSH1 0x1 PUSH1 0x1 PUSH1 0xA0 SHL SUB SWAP1 DUP2 AND SWAP2 AND EQ PUSH3 0x68C JUMPI PUSH1 0x40 MLOAD PUSH3 0x461BCD PUSH1 0xE5 SHL DUP2 MSTORE PUSH1 0x4 ADD PUSH3 0x5BB SWAP1 PUSH3 0x831 JUMP JUMPDEST PUSH1 0x1 PUSH1 0x1 PUSH1 0xA0 SHL SUB DUP3 AND PUSH1 0x0 DUP2 DUP2 MSTORE PUSH1 0x39 PUSH1 0x20 MSTORE PUSH1 0x40 SWAP1 DUP2 SWAP1 KECCAK256 DUP1 SLOAD PUSH1 0xFF NOT AND DUP5 ISZERO ISZERO OR SWAP1 SSTORE MLOAD PUSH32 0x9D8F7706EA1113D1A167B526ECA956215946DD36CC7DF39EB16180222D8B5DF7 SWAP1 PUSH3 0x6E2 SWAP1 DUP5 SWAP1 PUSH3 0x826 JUMP JUMPDEST PUSH1 0x40 MLOAD DUP1 SWAP2 SUB SWAP1 LOG2 POP POP JUMP JUMPDEST DUP3 DUP1 SLOAD PUSH3 0x6FC SWAP1 PUSH3 0x8C4 JUMP JUMPDEST SWAP1 PUSH1 0x0 MSTORE PUSH1 0x20 PUSH1 0x0 KECCAK256 SWAP1 PUSH1 0x1F ADD PUSH1 0x20 SWAP1 DIV DUP2 ADD SWAP3 DUP3 PUSH3 0x720 JUMPI PUSH1 0x0 DUP6 SSTORE PUSH3 0x76B JUMP JUMPDEST DUP3 PUSH1 0x1F LT PUSH3 0x73B JUMPI DUP1 MLOAD PUSH1 0xFF NOT AND DUP4 DUP1 ADD OR DUP6 SSTORE PUSH3 0x76B JUMP JUMPDEST DUP3 DUP1 ADD PUSH1 0x1 ADD DUP6 SSTORE DUP3 ISZERO PUSH3 0x76B JUMPI SWAP2 DUP3 ADD JUMPDEST DUP3 DUP2 GT ISZERO PUSH3 0x76B JUMPI DUP3 MLOAD DUP3 SSTORE SWAP2 PUSH1 0x20 ADD SWAP2 SWAP1 PUSH1 0x1 ADD SWAP1 PUSH3 0x74E JUMP JUMPDEST POP PUSH3 0x779 SWAP3 SWAP2 POP PUSH3 0x77D JUMP JUMPDEST POP SWAP1 JUMP JUMPDEST JUMPDEST DUP1 DUP3 GT ISZERO PUSH3 0x779 JUMPI PUSH1 0x0 DUP2 SSTORE PUSH1 0x1 ADD PUSH3 0x77E JUMP JUMPDEST DUP1 MLOAD PUSH1 0x1 PUSH1 0x1 PUSH1 0xA0 SHL SUB DUP2 AND DUP2 EQ PUSH3 0x7AC JUMPI PUSH1 0x0 DUP1 REVERT JUMPDEST SWAP2 SWAP1 POP JUMP JUMPDEST PUSH1 0x0 PUSH1 0x20 DUP3 DUP5 SUB SLT ISZERO PUSH3 0x7C3 JUMPI DUP1 DUP2 REVERT JUMPDEST PUSH3 0x7CE DUP3 PUSH3 0x794 JUMP JUMPDEST SWAP4 SWAP3 POP POP POP JUMP JUMPDEST PUSH1 0x0 DUP1 PUSH1 0x40 DUP4 DUP6 SUB SLT ISZERO PUSH3 0x7E8 JUMPI DUP1 DUP2 REVERT JUMPDEST PUSH3 0x7F3 DUP4 PUSH3 0x794 JUMP JUMPDEST SWAP2 POP PUSH3 0x803 PUSH1 0x20 DUP5 ADD PUSH3 0x794 JUMP JUMPDEST SWAP1 POP SWAP3 POP SWAP3 SWAP1 POP JUMP JUMPDEST PUSH1 0x1 PUSH1 0x1 PUSH1 0xA0 SHL SUB SWAP3 DUP4 AND DUP2 MSTORE SWAP2 AND PUSH1 0x20 DUP3 ADD MSTORE PUSH1 0x40 ADD SWAP1 JUMP JUMPDEST SWAP1 ISZERO ISZERO DUP2 MSTORE PUSH1 0x20 ADD SWAP1 JUMP JUMPDEST PUSH1 0x20 DUP1 DUP3 MSTORE DUP2 DUP2 ADD MSTORE PUSH32 0x4F776E61626C653A2063616C6C6572206973206E6F7420746865206F776E6572 PUSH1 0x40 DUP3 ADD MSTORE PUSH1 0x60 ADD SWAP1 JUMP JUMPDEST PUSH1 0x0 DUP3 NOT DUP3 GT ISZERO PUSH3 0x87C JUMPI PUSH3 0x87C PUSH3 0x901 JUMP JUMPDEST POP ADD SWAP1 JUMP JUMPDEST PUSH1 0x0 DUP3 PUSH3 0x89D JUMPI PUSH4 0x4E487B71 PUSH1 0xE0 SHL DUP2 MSTORE PUSH1 0x12 PUSH1 0x4 MSTORE PUSH1 0x24 DUP2 REVERT JUMPDEST POP DIV SWAP1 JUMP JUMPDEST PUSH1 0x0 DUP2 PUSH1 0x0 NOT DIV DUP4 GT DUP3 ISZERO ISZERO AND ISZERO PUSH3 0x8BF JUMPI PUSH3 0x8BF PUSH3 0x901 JUMP JUMPDEST POP MUL SWAP1 JUMP JUMPDEST PUSH1 0x2 DUP2 DIV PUSH1 0x1 DUP3 AND DUP1 PUSH3 0x8D9 JUMPI PUSH1 0x7F DUP3 AND SWAP2 POP JUMPDEST PUSH1 0x20 DUP3 LT DUP2 EQ ISZERO PUSH3 0x8FB JUMPI PUSH4 0x4E487B71 PUSH1 0xE0 SHL PUSH1 0x0 MSTORE PUSH1 0x22 PUSH1 0x4 MSTORE PUSH1 0x24 PUSH1 0x0 REVERT JUMPDEST POP SWAP2 SWAP1 POP JUMP JUMPDEST PUSH4 0x4E487B71 PUSH1 0xE0 SHL PUSH1 0x0 MSTORE PUSH1 0x11 PUSH1 0x4 MSTORE PUSH1 0x24 PUSH1 0x0 REVERT JUMPDEST PUSH2 0x44FE DUP1 PUSH3 0x927 PUSH1 0x0 CODECOPY PUSH1 0x0 RETURN INVALID PUSH1 0x80 PUSH1 0x40 MSTORE PUSH1 0x4 CALLDATASIZE LT PUSH2 0x542 JUMPI PUSH1 0x0 CALLDATALOAD PUSH1 0xE0 SHR DUP1 PUSH4 0x8A702625 GT PUSH2 0x2BD JUMPI DUP1 PUSH4 0xB7023C2C GT PUSH2 0x180 JUMPI DUP1 PUSH4 0xD85BA063 GT PUSH2 0xE7 JUMPI DUP1 PUSH4 0xEFEBC720 GT PUSH2 0xA0 JUMPI DUP1 PUSH4 0xF6374342 GT PUSH2 0x7A JUMPI DUP1 PUSH4 0xF6374342 EQ PUSH2 0xEE8 JUMPI DUP1 PUSH4 0xF6F70594 EQ PUSH2 0xEFD JUMPI DUP1 PUSH4 0xF8B45B05 EQ PUSH2 0xF1D JUMPI DUP1 PUSH4 0xFE72B27A EQ PUSH2 0xF32 JUMPI PUSH2 0x549 JUMP JUMPDEST DUP1 PUSH4 0xEFEBC720 EQ PUSH2 0xE9E JUMPI DUP1 PUSH4 0xF11A24D3 EQ PUSH2 0xEB3 JUMPI DUP1 PUSH4 0xF2FDE38B EQ PUSH2 0xEC8 JUMPI PUSH2 0x549 JUMP JUMPDEST DUP1 PUSH4 0xD85BA063 EQ PUSH2 0xDFF JUMPI DUP1 PUSH4 0xDD62ED3E EQ PUSH2 0xE14 JUMPI DUP1 PUSH4 0xE2F45605 EQ PUSH2 0xE34 JUMPI DUP1 PUSH4 0xE593C34B EQ PUSH2 0xE49 JUMPI DUP1 PUSH4 0xE7AD9FCD EQ PUSH2 0xE69 JUMPI DUP1 PUSH4 0xE884F260 EQ PUSH2 0xE89 JUMPI PUSH2 0x549 JUMP JUMPDEST DUP1 PUSH4 0xC876D0B9 GT PUSH2 0x139 JUMPI DUP1 PUSH4 0xC876D0B9 EQ PUSH2 0xD6B JUMPI DUP1 PUSH4 0xC8C8EBE4 EQ PUSH2 0xD80 JUMPI DUP1 PUSH4 0xCB8FDA1C EQ PUSH2 0xD95 JUMPI DUP1 PUSH4 0xD0DC0D80 EQ PUSH2 0xDAA JUMPI DUP1 PUSH4 0xD257B34F EQ PUSH2 0xDCA JUMPI DUP1 PUSH4 0xD643391F EQ PUSH2 0xDEA JUMPI PUSH2 0x549 JUMP JUMPDEST DUP1 PUSH4 0xB7023C2C EQ PUSH2 0xCCC JUMPI DUP1 PUSH4 0xBBC0C742 EQ PUSH2 0xCE1 JUMPI DUP1 PUSH4 0xC0246668 EQ PUSH2 0xCF6 JUMPI DUP1 PUSH4 0xC18BC195 EQ PUSH2 0xD16 JUMPI DUP1 PUSH4 0xC31DB906 EQ PUSH2 0xD36 JUMPI DUP1 PUSH4 0xC57DB2C0 EQ PUSH2 0xD4B JUMPI PUSH2 0x549 JUMP JUMPDEST DUP1 PUSH4 0x9DA37A11 GT PUSH2 0x224 JUMPI DUP1 PUSH4 0xA73D1B06 GT PUSH2 0x1DD JUMPI DUP1 PUSH4 0xA73D1B06 EQ PUSH2 0xC0C JUMPI DUP1 PUSH4 0xA8CE45A9 EQ PUSH2 0xC2C JUMPI DUP1 PUSH4 0xA9059CBB EQ PUSH2 0xC4C JUMPI DUP1 PUSH4 0xAAB7C9EB EQ PUSH2 0xC6C JUMPI DUP1 PUSH4 0xAACEBBE3 EQ PUSH2 0xC8C JUMPI DUP1 PUSH4 0xB62496F5 EQ PUSH2 0xCAC JUMPI PUSH2 0x549 JUMP JUMPDEST DUP1 PUSH4 0x9DA37A11 EQ PUSH2 0xB78 JUMPI DUP1 PUSH4 0x9EC22C0E EQ PUSH2 0xB98 JUMPI DUP1 PUSH4 0x9FCCCE32 EQ PUSH2 0xBAD JUMPI DUP1 PUSH4 0xA0D82DC5 EQ PUSH2 0xBC2 JUMPI DUP1 PUSH4 0xA457C2D7 EQ PUSH2 0xBD7 JUMPI DUP1 PUSH4 0xA4C82A00 EQ PUSH2 0xBF7 JUMPI PUSH2 0x549 JUMP JUMPDEST DUP1 PUSH4 0x924DE9B7 GT PUSH2 0x276 JUMPI DUP1 PUSH4 0x924DE9B7 EQ PUSH2 0xAE4 JUMPI DUP1 PUSH4 0x94E0B68A EQ PUSH2 0xB04 JUMPI DUP1 PUSH4 0x95D89B41 EQ PUSH2 0xB19 JUMPI DUP1 PUSH4 0x9A7A23D6 EQ PUSH2 0xB2E JUMPI DUP1 PUSH4 0x9AA13F04 EQ PUSH2 0xB4E JUMPI DUP1 PUSH4 0x9C3B4FDC EQ PUSH2 0xB63 JUMPI PUSH2 0x549 JUMP JUMPDEST DUP1 PUSH4 0x8A702625 EQ PUSH2 0xA66 JUMPI DUP1 PUSH4 0x8A8C523C EQ PUSH2 0xA7B JUMPI DUP1 PUSH4 0x8DA5CB5B EQ PUSH2 0xA90 JUMPI DUP1 PUSH4 0x8EA5220F EQ PUSH2 0xAA5 JUMPI DUP1 PUSH4 0x92136913 EQ PUSH2 0xABA JUMPI DUP1 PUSH4 0x923E7074 EQ PUSH2 0xACF JUMPI PUSH2 0x549 JUMP JUMPDEST DUP1 PUSH4 0x37425FA0 GT PUSH2 0x405 JUMPI DUP1 PUSH4 0x6A486A8E GT PUSH2 0x36C JUMPI DUP1 PUSH4 0x751039FC GT PUSH2 0x325 JUMPI DUP1 PUSH4 0x751039FC EQ PUSH2 0x9DD JUMPI DUP1 PUSH4 0x7571336A EQ PUSH2 0x9F2 JUMPI DUP1 PUSH4 0x75F0A874 EQ PUSH2 0xA12 JUMPI DUP1 PUSH4 0x7BCE5A04 EQ PUSH2 0xA27 JUMPI DUP1 PUSH4 0x8091F3BF EQ PUSH2 0xA3C JUMPI DUP1 PUSH4 0x87CEFF09 EQ PUSH2 0xA51 JUMPI PUSH2 0x549 JUMP JUMPDEST DUP1 PUSH4 0x6A486A8E EQ PUSH2 0x949 JUMPI DUP1 PUSH4 0x6DDD1713 EQ PUSH2 0x95E JUMPI DUP1 PUSH4 0x70A08231 EQ PUSH2 0x973 JUMPI DUP1 PUSH4 0x715018A6 EQ PUSH2 0x993 JUMPI DUP1 PUSH4 0x730C1888 EQ PUSH2 0x9A8 JUMPI DUP1 PUSH4 0x748E2A43 EQ PUSH2 0x9C8 JUMPI PUSH2 0x549 JUMP JUMPDEST DUP1 PUSH4 0x59357DF5 GT PUSH2 0x3BE JUMPI DUP1 PUSH4 0x59357DF5 EQ PUSH2 0x89F JUMPI DUP1 PUSH4 0x611CDA25 EQ PUSH2 0x8B4 JUMPI DUP1 PUSH4 0x6177FD18 EQ PUSH2 0x8D4 JUMPI DUP1 PUSH4 0x62AD0B15 EQ PUSH2 0x8F4 JUMPI DUP1 PUSH4 0x66A267A9 EQ PUSH2 0x909 JUMPI DUP1 PUSH4 0x67CC910F EQ PUSH2 0x929 JUMPI PUSH2 0x549 JUMP JUMPDEST DUP1 PUSH4 0x37425FA0 EQ PUSH2 0x7F5 JUMPI DUP1 PUSH4 0x39509351 EQ PUSH2 0x815 JUMPI DUP1 PUSH4 0x3EEAEAFC EQ PUSH2 0x835 JUMPI DUP1 PUSH4 0x49BD5A5E EQ PUSH2 0x855 JUMPI DUP1 PUSH4 0x4A62BB65 EQ PUSH2 0x86A JUMPI DUP1 PUSH4 0x4FBEE193 EQ PUSH2 0x87F JUMPI PUSH2 0x549 JUMP JUMPDEST DUP1 PUSH4 0x1A8145BB GT PUSH2 0x4A9 JUMPI DUP1 PUSH4 0x2681EB81 GT PUSH2 0x462 JUMPI DUP1 PUSH4 0x2681EB81 EQ PUSH2 0x75F JUMPI DUP1 PUSH4 0x27C8F835 EQ PUSH2 0x774 JUMPI DUP1 PUSH4 0x2C3E486C EQ PUSH2 0x789 JUMPI DUP1 PUSH4 0x2E6ED7EF EQ PUSH2 0x79E JUMPI DUP1 PUSH4 0x2E82F1A0 EQ PUSH2 0x7BE JUMPI DUP1 PUSH4 0x313CE567 EQ PUSH2 0x7D3 JUMPI PUSH2 0x549 JUMP JUMPDEST DUP1 PUSH4 0x1A8145BB EQ PUSH2 0x6B5 JUMPI DUP1 PUSH4 0x1F3FED8F EQ PUSH2 0x6CA JUMPI DUP1 PUSH4 0x203E727E EQ PUSH2 0x6DF JUMPI DUP1 PUSH4 0x21AC17F8 EQ PUSH2 0x6FF JUMPI DUP1 PUSH4 0x23B872DD EQ PUSH2 0x71F JUMPI DUP1 PUSH4 0x23C40DE2 EQ PUSH2 0x73F JUMPI PUSH2 0x549 JUMP JUMPDEST DUP1 PUSH4 0x10D5DE53 GT PUSH2 0x4FB JUMPI DUP1 PUSH4 0x10D5DE53 EQ PUSH2 0x614 JUMPI DUP1 PUSH4 0x1694505E EQ PUSH2 0x634 JUMPI DUP1 PUSH4 0x18160DDD EQ PUSH2 0x656 JUMPI DUP1 PUSH4 0x1816467F EQ PUSH2 0x66B JUMPI DUP1 PUSH4 0x184C16C5 EQ PUSH2 0x68B JUMPI DUP1 PUSH4 0x199FFC72 EQ PUSH2 0x6A0 JUMPI PUSH2 0x549 JUMP JUMPDEST DUP1 PUSH4 0x1440C90 EQ PUSH2 0x54E JUMPI DUP1 PUSH4 0x43CBE5B EQ PUSH2 0x579 JUMPI DUP1 PUSH4 0x6FDDE03 EQ PUSH2 0x599 JUMPI DUP1 PUSH4 0x95EA7B3 EQ PUSH2 0x5BB JUMPI DUP1 PUSH4 0xCC874C7 EQ PUSH2 0x5E8 JUMPI DUP1 PUSH4 0xF9154B5 EQ PUSH2 0x5FF JUMPI PUSH2 0x549 JUMP JUMPDEST CALLDATASIZE PUSH2 0x549 JUMPI STOP JUMPDEST PUSH1 0x0 DUP1 REVERT JUMPDEST CALLVALUE DUP1 ISZERO PUSH2 0x55A JUMPI PUSH1 0x0 DUP1 REVERT JUMPDEST POP PUSH2 0x563 PUSH2 0xF52 JUMP JUMPDEST PUSH1 0x40 MLOAD PUSH2 0x570 SWAP2 SWAP1 PUSH2 0x4269 JUMP JUMPDEST PUSH1 0x40 MLOAD DUP1 SWAP2 SUB SWAP1 RETURN JUMPDEST CALLVALUE DUP1 ISZERO PUSH2 0x585 JUMPI PUSH1 0x0 DUP1 REVERT JUMPDEST POP PUSH2 0x563 PUSH2 0x594 CALLDATASIZE PUSH1 0x4 PUSH2 0x3997 JUMP JUMPDEST PUSH2 0xF58 JUMP JUMPDEST CALLVALUE DUP1 ISZERO PUSH2 0x5A5 JUMPI PUSH1 0x0 DUP1 REVERT JUMPDEST POP PUSH2 0x5AE PUSH2 0x1025 JUMP JUMPDEST PUSH1 0x40 MLOAD PUSH2 0x570 SWAP2 SWAP1 PUSH2 0x3A97 JUMP JUMPDEST CALLVALUE DUP1 ISZERO PUSH2 0x5C7 JUMPI PUSH1 0x0 DUP1 REVERT JUMPDEST POP PUSH2 0x5DB PUSH2 0x5D6 CALLDATASIZE PUSH1 0x4 PUSH2 0x3906 JUMP JUMPDEST PUSH2 0x10B7 JUMP JUMPDEST PUSH1 0x40 MLOAD PUSH2 0x570 SWAP2 SWAP1 PUSH2 0x3A8C JUMP JUMPDEST CALLVALUE DUP1 ISZERO PUSH2 0x5F4 JUMPI PUSH1 0x0 DUP1 REVERT JUMPDEST POP PUSH2 0x5FD PUSH2 0x10D4 JUMP JUMPDEST STOP JUMPDEST CALLVALUE DUP1 ISZERO PUSH2 0x60B JUMPI PUSH1 0x0 DUP1 REVERT JUMPDEST POP PUSH2 0x5DB PUSH2 0x1260 JUMP JUMPDEST CALLVALUE DUP1 ISZERO PUSH2 0x620 JUMPI PUSH1 0x0 DUP1 REVERT JUMPDEST POP PUSH2 0x5DB PUSH2 0x62F CALLDATASIZE PUSH1 0x4 PUSH2 0x3849 JUMP JUMPDEST PUSH2 0x1277 JUMP JUMPDEST CALLVALUE DUP1 ISZERO PUSH2 0x640 JUMPI PUSH1 0x0 DUP1 REVERT JUMPDEST POP PUSH2 0x649 PUSH2 0x128C JUMP JUMPDEST PUSH1 0x40 MLOAD PUSH2 0x570 SWAP2 SWAP1 PUSH2 0x3A21 JUMP JUMPDEST CALLVALUE DUP1 ISZERO PUSH2 0x662 JUMPI PUSH1 0x0 DUP1 REVERT JUMPDEST POP PUSH2 0x563 PUSH2 0x129B JUMP JUMPDEST CALLVALUE DUP1 ISZERO PUSH2 0x677 JUMPI PUSH1 0x0 DUP1 REVERT JUMPDEST POP PUSH2 0x5FD PUSH2 0x686 CALLDATASIZE PUSH1 0x4 PUSH2 0x3849 JUMP JUMPDEST PUSH2 0x12A1 JUMP JUMPDEST CALLVALUE DUP1 ISZERO PUSH2 0x697 JUMPI PUSH1 0x0 DUP1 REVERT JUMPDEST POP PUSH2 0x563 PUSH2 0x1333 JUMP JUMPDEST CALLVALUE DUP1 ISZERO PUSH2 0x6AC JUMPI PUSH1 0x0 DUP1 REVERT JUMPDEST POP PUSH2 0x563 PUSH2 0x1339 JUMP JUMPDEST CALLVALUE DUP1 ISZERO PUSH2 0x6C1 JUMPI PUSH1 0x0 DUP1 REVERT JUMPDEST POP PUSH2 0x563 PUSH2 0x133F JUMP JUMPDEST CALLVALUE DUP1 ISZERO PUSH2 0x6D6 JUMPI PUSH1 0x0 DUP1 REVERT JUMPDEST POP PUSH2 0x563 PUSH2 0x1345 JUMP JUMPDEST CALLVALUE DUP1 ISZERO PUSH2 0x6EB JUMPI PUSH1 0x0 DUP1 REVERT JUMPDEST POP PUSH2 0x5FD PUSH2 0x6FA CALLDATASIZE PUSH1 0x4 PUSH2 0x3967 JUMP JUMPDEST PUSH2 0x134B JUMP JUMPDEST CALLVALUE DUP1 ISZERO PUSH2 0x70B JUMPI PUSH1 0x0 DUP1 REVERT JUMPDEST POP PUSH2 0x563 PUSH2 0x71A CALLDATASIZE PUSH1 0x4 PUSH2 0x3849 JUMP JUMPDEST PUSH2 0x13E6 JUMP JUMPDEST CALLVALUE DUP1 ISZERO PUSH2 0x72B JUMPI PUSH1 0x0 DUP1 REVERT JUMPDEST POP PUSH2 0x5DB PUSH2 0x73A CALLDATASIZE PUSH1 0x4 PUSH2 0x3895 JUMP JUMPDEST PUSH2 0x13F8 JUMP JUMPDEST CALLVALUE DUP1 ISZERO PUSH2 0x74B JUMPI PUSH1 0x0 DUP1 REVERT JUMPDEST POP PUSH2 0x5FD PUSH2 0x75A CALLDATASIZE PUSH1 0x4 PUSH2 0x3849 JUMP JUMPDEST PUSH2 0x148F JUMP JUMPDEST CALLVALUE DUP1 ISZERO PUSH2 0x76B JUMPI PUSH1 0x0 DUP1 REVERT JUMPDEST POP PUSH2 0x649 PUSH2 0x14DB JUMP JUMPDEST CALLVALUE DUP1 ISZERO PUSH2 0x780 JUMPI PUSH1 0x0 DUP1 REVERT JUMPDEST POP PUSH2 0x649 PUSH2 0x14EA JUMP JUMPDEST CALLVALUE DUP1 ISZERO PUSH2 0x795 JUMPI PUSH1 0x0 DUP1 REVERT JUMPDEST POP PUSH2 0x563 PUSH2 0x14F0 JUMP JUMPDEST CALLVALUE DUP1 ISZERO PUSH2 0x7AA JUMPI PUSH1 0x0 DUP1 REVERT JUMPDEST POP PUSH2 0x5FD PUSH2 0x7B9 CALLDATASIZE PUSH1 0x4 PUSH2 0x39F0 JUMP JUMPDEST PUSH2 0x14F6 JUMP JUMPDEST CALLVALUE DUP1 ISZERO PUSH2 0x7CA JUMPI PUSH1 0x0 DUP1 REVERT JUMPDEST POP PUSH2 0x5DB PUSH2 0x158A JUMP JUMPDEST CALLVALUE DUP1 ISZERO PUSH2 0x7DF JUMPI PUSH1 0x0 DUP1 REVERT JUMPDEST POP PUSH2 0x7E8 PUSH2 0x1593 JUMP JUMPDEST PUSH1 0x40 MLOAD PUSH2 0x570 SWAP2 SWAP1 PUSH2 0x4272 JUMP JUMPDEST CALLVALUE DUP1 ISZERO PUSH2 0x801 JUMPI PUSH1 0x0 DUP1 REVERT JUMPDEST POP PUSH2 0x563 PUSH2 0x810 CALLDATASIZE PUSH1 0x4 PUSH2 0x3849 JUMP JUMPDEST PUSH2 0x159C JUMP JUMPDEST CALLVALUE DUP1 ISZERO PUSH2 0x821 JUMPI PUSH1 0x0 DUP1 REVERT JUMPDEST POP PUSH2 0x5DB PUSH2 0x830 CALLDATASIZE PUSH1 0x4 PUSH2 0x3906 JUMP JUMPDEST PUSH2 0x15AE JUMP JUMPDEST CALLVALUE DUP1 ISZERO PUSH2 0x841 JUMPI PUSH1 0x0 DUP1 REVERT JUMPDEST POP PUSH2 0x5FD PUSH2 0x850 CALLDATASIZE PUSH1 0x4 PUSH2 0x3849 JUMP JUMPDEST PUSH2 0x15FD JUMP JUMPDEST CALLVALUE DUP1 ISZERO PUSH2 0x861 JUMPI PUSH1 0x0 DUP1 REVERT JUMPDEST POP PUSH2 0x649 PUSH2 0x168F JUMP JUMPDEST CALLVALUE DUP1 ISZERO PUSH2 0x876 JUMPI PUSH1 0x0 DUP1 REVERT JUMPDEST POP PUSH2 0x5DB PUSH2 0x169E JUMP JUMPDEST CALLVALUE DUP1 ISZERO PUSH2 0x88B JUMPI PUSH1 0x0 DUP1 REVERT JUMPDEST POP PUSH2 0x5DB PUSH2 0x89A CALLDATASIZE PUSH1 0x4 PUSH2 0x3849 JUMP JUMPDEST PUSH2 0x16A7 JUMP JUMPDEST CALLVALUE DUP1 ISZERO PUSH2 0x8AB JUMPI PUSH1 0x0 DUP1 REVERT JUMPDEST POP PUSH2 0x5FD PUSH2 0x16C9 JUMP JUMPDEST CALLVALUE DUP1 ISZERO PUSH2 0x8C0 JUMPI PUSH1 0x0 DUP1 REVERT JUMPDEST POP PUSH2 0x649 PUSH2 0x8CF CALLDATASIZE PUSH1 0x4 PUSH2 0x3967 JUMP JUMPDEST PUSH2 0x1A13 JUMP JUMPDEST CALLVALUE DUP1 ISZERO PUSH2 0x8E0 JUMPI PUSH1 0x0 DUP1 REVERT JUMPDEST POP PUSH2 0x5DB PUSH2 0x8EF CALLDATASIZE PUSH1 0x4 PUSH2 0x3849 JUMP JUMPDEST PUSH2 0x1A3D JUMP JUMPDEST CALLVALUE DUP1 ISZERO PUSH2 0x900 JUMPI PUSH1 0x0 DUP1 REVERT JUMPDEST POP PUSH2 0x5FD PUSH2 0x1A5B JUMP JUMPDEST CALLVALUE DUP1 ISZERO PUSH2 0x915 JUMPI PUSH1 0x0 DUP1 REVERT JUMPDEST POP PUSH2 0x563 PUSH2 0x924 CALLDATASIZE PUSH1 0x4 PUSH2 0x3849 JUMP JUMPDEST PUSH2 0x1A6F JUMP JUMPDEST CALLVALUE DUP1 ISZERO PUSH2 0x935 JUMPI PUSH1 0x0 DUP1 REVERT JUMPDEST POP PUSH2 0x563 PUSH2 0x944 CALLDATASIZE PUSH1 0x4 PUSH2 0x3849 JUMP JUMPDEST PUSH2 0x1A81 JUMP JUMPDEST CALLVALUE DUP1 ISZERO PUSH2 0x955 JUMPI PUSH1 0x0 DUP1 REVERT JUMPDEST POP PUSH2 0x563 PUSH2 0x1A93 JUMP JUMPDEST CALLVALUE DUP1 ISZERO PUSH2 0x96A JUMPI PUSH1 0x0 DUP1 REVERT JUMPDEST POP PUSH2 0x5DB PUSH2 0x1A99 JUMP JUMPDEST CALLVALUE DUP1 ISZERO PUSH2 0x97F JUMPI PUSH1 0x0 DUP1 REVERT JUMPDEST POP PUSH2 0x563 PUSH2 0x98E CALLDATASIZE PUSH1 0x4 PUSH2 0x3849 JUMP JUMPDEST PUSH2 0x1AA8 JUMP JUMPDEST CALLVALUE DUP1 ISZERO PUSH2 0x99F JUMPI PUSH1 0x0 DUP1 REVERT JUMPDEST POP PUSH2 0x5FD PUSH2 0x1B08 JUMP JUMPDEST CALLVALUE DUP1 ISZERO PUSH2 0x9B4 JUMPI PUSH1 0x0 DUP1 REVERT JUMPDEST POP PUSH2 0x5FD PUSH2 0x9C3 CALLDATASIZE PUSH1 0x4 PUSH2 0x39B8 JUMP JUMPDEST PUSH2 0x1B87 JUMP JUMPDEST CALLVALUE DUP1 ISZERO PUSH2 0x9D4 JUMPI PUSH1 0x0 DUP1 REVERT JUMPDEST POP PUSH2 0x563 PUSH2 0x1C26 JUMP JUMPDEST CALLVALUE DUP1 ISZERO PUSH2 0x9E9 JUMPI PUSH1 0x0 DUP1 REVERT JUMPDEST POP PUSH2 0x5DB PUSH2 0x1C2C JUMP JUMPDEST CALLVALUE DUP1 ISZERO PUSH2 0x9FE JUMPI PUSH1 0x0 DUP1 REVERT JUMPDEST POP PUSH2 0x5FD PUSH2 0xA0D CALLDATASIZE PUSH1 0x4 PUSH2 0x38D0 JUMP JUMPDEST PUSH2 0x1C73 JUMP JUMPDEST CALLVALUE DUP1 ISZERO PUSH2 0xA1E JUMPI PUSH1 0x0 DUP1 REVERT JUMPDEST POP PUSH2 0x649 PUSH2 0x1CD3 JUMP JUMPDEST CALLVALUE DUP1 ISZERO PUSH2 0xA33 JUMPI PUSH1 0x0 DUP1 REVERT JUMPDEST POP PUSH2 0x563 PUSH2 0x1CE2 JUMP JUMPDEST CALLVALUE DUP1 ISZERO PUSH2 0xA48 JUMPI PUSH1 0x0 DUP1 REVERT JUMPDEST POP PUSH2 0x5DB PUSH2 0x1CE8 JUMP JUMPDEST CALLVALUE DUP1 ISZERO PUSH2 0xA5D JUMPI PUSH1 0x0 DUP1 REVERT JUMPDEST POP PUSH2 0x563 PUSH2 0x1CF1 JUMP JUMPDEST CALLVALUE DUP1 ISZERO PUSH2 0xA72 JUMPI PUSH1 0x0 DUP1 REVERT JUMPDEST POP PUSH2 0x563 PUSH2 0x1CF5 JUMP JUMPDEST CALLVALUE DUP1 ISZERO PUSH2 0xA87 JUMPI PUSH1 0x0 DUP1 REVERT JUMPDEST POP PUSH2 0x5FD PUSH2 0x1CFB JUMP JUMPDEST CALLVALUE DUP1 ISZERO PUSH2 0xA9C JUMPI PUSH1 0x0 DUP1 REVERT JUMPDEST POP PUSH2 0x649 PUSH2 0x1D52 JUMP JUMPDEST CALLVALUE DUP1 ISZERO PUSH2 0xAB1 JUMPI PUSH1 0x0 DUP1 REVERT JUMPDEST POP PUSH2 0x649 PUSH2 0x1D61 JUMP JUMPDEST CALLVALUE DUP1 ISZERO PUSH2 0xAC6 JUMPI PUSH1 0x0 DUP1 REVERT JUMPDEST POP PUSH2 0x563 PUSH2 0x1D70 JUMP JUMPDEST CALLVALUE DUP1 ISZERO PUSH2 0xADB JUMPI PUSH1 0x0 DUP1 REVERT JUMPDEST POP PUSH2 0x649 PUSH2 0x1D76 JUMP JUMPDEST CALLVALUE DUP1 ISZERO PUSH2 0xAF0 JUMPI PUSH1 0x0 DUP1 REVERT JUMPDEST POP PUSH2 0x5FD PUSH2 0xAFF CALLDATASIZE PUSH1 0x4 PUSH2 0x392F JUMP JUMPDEST PUSH2 0x1D85 JUMP JUMPDEST CALLVALUE DUP1 ISZERO PUSH2 0xB10 JUMPI PUSH1 0x0 DUP1 REVERT JUMPDEST POP PUSH2 0x563 PUSH2 0x1DD6 JUMP JUMPDEST CALLVALUE DUP1 ISZERO PUSH2 0xB25 JUMPI PUSH1 0x0 DUP1 REVERT JUMPDEST POP PUSH2 0x5AE PUSH2 0x1DDC JUMP JUMPDEST CALLVALUE DUP1 ISZERO PUSH2 0xB3A JUMPI PUSH1 0x0 DUP1 REVERT JUMPDEST POP PUSH2 0x5FD PUSH2 0xB49 CALLDATASIZE PUSH1 0x4 PUSH2 0x38D0 JUMP JUMPDEST PUSH2 0x1DEB JUMP JUMPDEST CALLVALUE DUP1 ISZERO PUSH2 0xB5A JUMPI PUSH1 0x0 DUP1 REVERT JUMPDEST POP PUSH2 0x563 PUSH2 0x1E58 JUMP JUMPDEST CALLVALUE DUP1 ISZERO PUSH2 0xB6F JUMPI PUSH1 0x0 DUP1 REVERT JUMPDEST POP PUSH2 0x563 PUSH2 0x1E5E JUMP JUMPDEST CALLVALUE DUP1 ISZERO PUSH2 0xB84 JUMPI PUSH1 0x0 DUP1 REVERT JUMPDEST POP PUSH2 0x5FD PUSH2 0xB93 CALLDATASIZE PUSH1 0x4 PUSH2 0x3967 JUMP JUMPDEST PUSH2 0x1E64 JUMP JUMPDEST CALLVALUE DUP1 ISZERO PUSH2 0xBA4 JUMPI PUSH1 0x0 DUP1 REVERT JUMPDEST POP PUSH2 0x563 PUSH2 0x1E75 JUMP JUMPDEST CALLVALUE DUP1 ISZERO PUSH2 0xBB9 JUMPI PUSH1 0x0 DUP1 REVERT JUMPDEST POP PUSH2 0x563 PUSH2 0x1E7B JUMP JUMPDEST CALLVALUE DUP1 ISZERO PUSH2 0xBCE JUMPI PUSH1 0x0 DUP1 REVERT JUMPDEST POP PUSH2 0x563 PUSH2 0x1E81 JUMP JUMPDEST CALLVALUE DUP1 ISZERO PUSH2 0xBE3 JUMPI PUSH1 0x0 DUP1 REVERT JUMPDEST POP PUSH2 0x5DB PUSH2 0xBF2 CALLDATASIZE PUSH1 0x4 PUSH2 0x3906 JUMP JUMPDEST PUSH2 0x1E87 JUMP JUMPDEST CALLVALUE DUP1 ISZERO PUSH2 0xC03 JUMPI PUSH1 0x0 DUP1 REVERT JUMPDEST POP PUSH2 0x563 PUSH2 0x1F02 JUMP JUMPDEST CALLVALUE DUP1 ISZERO PUSH2 0xC18 JUMPI PUSH1 0x0 DUP1 REVERT JUMPDEST POP PUSH2 0x563 PUSH2 0xC27 CALLDATASIZE PUSH1 0x4 PUSH2 0x3849 JUMP JUMPDEST PUSH2 0x1F08 JUMP JUMPDEST CALLVALUE DUP1 ISZERO PUSH2 0xC38 JUMPI PUSH1 0x0 DUP1 REVERT JUMPDEST POP PUSH2 0x5FD PUSH2 0xC47 CALLDATASIZE PUSH1 0x4 PUSH2 0x3849 JUMP JUMPDEST PUSH2 0x1F1A JUMP JUMPDEST CALLVALUE DUP1 ISZERO PUSH2 0xC58 JUMPI PUSH1 0x0 DUP1 REVERT JUMPDEST POP PUSH2 0x5DB PUSH2 0xC67 CALLDATASIZE PUSH1 0x4 PUSH2 0x3906 JUMP JUMPDEST PUSH2 0x2066 JUMP JUMPDEST CALLVALUE DUP1 ISZERO PUSH2 0xC78 JUMPI PUSH1 0x0 DUP1 REVERT JUMPDEST POP PUSH2 0x5DB PUSH2 0xC87 CALLDATASIZE PUSH1 0x4 PUSH2 0x3849 JUMP JUMPDEST PUSH2 0x207A JUMP JUMPDEST CALLVALUE DUP1 ISZERO PUSH2 0xC98 JUMPI PUSH1 0x0 DUP1 REVERT JUMPDEST POP PUSH2 0x5FD PUSH2 0xCA7 CALLDATASIZE PUSH1 0x4 PUSH2 0x3849 JUMP JUMPDEST PUSH2 0x208F JUMP JUMPDEST CALLVALUE DUP1 ISZERO PUSH2 0xCB8 JUMPI PUSH1 0x0 DUP1 REVERT JUMPDEST POP PUSH2 0x5DB PUSH2 0xCC7 CALLDATASIZE PUSH1 0x4 PUSH2 0x3849 JUMP JUMPDEST PUSH2 0x2121 JUMP JUMPDEST CALLVALUE DUP1 ISZERO PUSH2 0xCD8 JUMPI PUSH1 0x0 DUP1 REVERT JUMPDEST POP PUSH2 0x649 PUSH2 0x2136 JUMP JUMPDEST CALLVALUE DUP1 ISZERO PUSH2 0xCED JUMPI PUSH1 0x0 DUP1 REVERT JUMPDEST POP PUSH2 0x5DB PUSH2 0x2145 JUMP JUMPDEST CALLVALUE DUP1 ISZERO PUSH2 0xD02 JUMPI PUSH1 0x0 DUP1 REVERT JUMPDEST POP PUSH2 0x5FD PUSH2 0xD11 CALLDATASIZE PUSH1 0x4 PUSH2 0x38D0 JUMP JUMPDEST PUSH2 0x2153 JUMP JUMPDEST CALLVALUE DUP1 ISZERO PUSH2 0xD22 JUMPI PUSH1 0x0 DUP1 REVERT JUMPDEST POP PUSH2 0x5FD PUSH2 0xD31 CALLDATASIZE PUSH1 0x4 PUSH2 0x3967 JUMP JUMPDEST PUSH2 0x21E8 JUMP JUMPDEST CALLVALUE DUP1 ISZERO PUSH2 0xD42 JUMPI PUSH1 0x0 DUP1 REVERT JUMPDEST POP PUSH2 0x649 PUSH2 0x2283 JUMP JUMPDEST CALLVALUE DUP1 ISZERO PUSH2 0xD57 JUMPI PUSH1 0x0 DUP1 REVERT JUMPDEST POP PUSH2 0x5DB PUSH2 0xD66 CALLDATASIZE PUSH1 0x4 PUSH2 0x3849 JUMP JUMPDEST PUSH2 0x2292 JUMP JUMPDEST CALLVALUE DUP1 ISZERO PUSH2 0xD77 JUMPI PUSH1 0x0 DUP1 REVERT JUMPDEST POP PUSH2 0x5DB PUSH2 0x22A7 JUMP JUMPDEST CALLVALUE DUP1 ISZERO PUSH2 0xD8C JUMPI PUSH1 0x0 DUP1 REVERT JUMPDEST POP PUSH2 0x563 PUSH2 0x22B0 JUMP JUMPDEST CALLVALUE DUP1 ISZERO PUSH2 0xDA1 JUMPI PUSH1 0x0 DUP1 REVERT JUMPDEST POP PUSH2 0x563 PUSH2 0x22B6 JUMP JUMPDEST CALLVALUE DUP1 ISZERO PUSH2 0xDB6 JUMPI PUSH1 0x0 DUP1 REVERT JUMPDEST POP PUSH2 0x563 PUSH2 0xDC5 CALLDATASIZE PUSH1 0x4 PUSH2 0x3849 JUMP JUMPDEST PUSH2 0x22BC JUMP JUMPDEST CALLVALUE DUP1 ISZERO PUSH2 0xDD6 JUMPI PUSH1 0x0 DUP1 REVERT JUMPDEST POP PUSH2 0x5DB PUSH2 0xDE5 CALLDATASIZE PUSH1 0x4 PUSH2 0x3967 JUMP JUMPDEST PUSH2 0x22CE JUMP JUMPDEST CALLVALUE DUP1 ISZERO PUSH2 0xDF6 JUMPI PUSH1 0x0 DUP1 REVERT JUMPDEST POP PUSH2 0x5FD PUSH2 0x2385 JUMP JUMPDEST CALLVALUE DUP1 ISZERO PUSH2 0xE0B JUMPI PUSH1 0x0 DUP1 REVERT JUMPDEST POP PUSH2 0x563 PUSH2 0x2397 JUMP JUMPDEST CALLVALUE DUP1 ISZERO PUSH2 0xE20 JUMPI PUSH1 0x0 DUP1 REVERT JUMPDEST POP PUSH2 0x563 PUSH2 0xE2F CALLDATASIZE PUSH1 0x4 PUSH2 0x3863 JUMP JUMPDEST PUSH2 0x239D JUMP JUMPDEST CALLVALUE DUP1 ISZERO PUSH2 0xE40 JUMPI PUSH1 0x0 DUP1 REVERT JUMPDEST POP PUSH2 0x563 PUSH2 0x23C8 JUMP JUMPDEST CALLVALUE DUP1 ISZERO PUSH2 0xE55 JUMPI PUSH1 0x0 DUP1 REVERT JUMPDEST POP PUSH2 0x649 PUSH2 0xE64 CALLDATASIZE PUSH1 0x4 PUSH2 0x3849 JUMP JUMPDEST PUSH2 0x23CE JUMP JUMPDEST CALLVALUE DUP1 ISZERO PUSH2 0xE75 JUMPI PUSH1 0x0 DUP1 REVERT JUMPDEST POP PUSH2 0x5FD PUSH2 0xE84 CALLDATASIZE PUSH1 0x4 PUSH2 0x39F0 JUMP JUMPDEST PUSH2 0x23E9 JUMP JUMPDEST CALLVALUE DUP1 ISZERO PUSH2 0xE95 JUMPI PUSH1 0x0 DUP1 REVERT JUMPDEST POP PUSH2 0x5DB PUSH2 0x2477 JUMP JUMPDEST CALLVALUE DUP1 ISZERO PUSH2 0xEAA JUMPI PUSH1 0x0 DUP1 REVERT JUMPDEST POP PUSH2 0x563 PUSH2 0x24BE JUMP JUMPDEST CALLVALUE DUP1 ISZERO PUSH2 0xEBF JUMPI PUSH1 0x0 DUP1 REVERT JUMPDEST POP PUSH2 0x563 PUSH2 0x24C4 JUMP JUMPDEST CALLVALUE DUP1 ISZERO PUSH2 0xED4 JUMPI PUSH1 0x0 DUP1 REVERT JUMPDEST POP PUSH2 0x5FD PUSH2 0xEE3 CALLDATASIZE PUSH1 0x4 PUSH2 0x3849 JUMP JUMPDEST PUSH2 0x24CA JUMP JUMPDEST CALLVALUE DUP1 ISZERO PUSH2 0xEF4 JUMPI PUSH1 0x0 DUP1 REVERT JUMPDEST POP PUSH2 0x563 PUSH2 0x2581 JUMP JUMPDEST CALLVALUE DUP1 ISZERO PUSH2 0xF09 JUMPI PUSH1 0x0 DUP1 REVERT JUMPDEST POP PUSH2 0x5FD PUSH2 0xF18 CALLDATASIZE PUSH1 0x4 PUSH2 0x3849 JUMP JUMPDEST PUSH2 0x14C7 JUMP JUMPDEST CALLVALUE DUP1 ISZERO PUSH2 0xF29 JUMPI PUSH1 0x0 DUP1 REVERT JUMPDEST POP PUSH2 0x563 PUSH2 0x2587 JUMP JUMPDEST CALLVALUE DUP1 ISZERO PUSH2 0xF3E JUMPI PUSH1 0x0 DUP1 REVERT JUMPDEST POP PUSH2 0x5DB PUSH2 0xF4D CALLDATASIZE PUSH1 0x4 PUSH2 0x3967 JUMP JUMPDEST PUSH2 0x258D JUMP JUMPDEST PUSH1 0x37 SLOAD DUP2 JUMP JUMPDEST PUSH1 0x0 DUP1 PUSH2 0xF64 DUP5 PUSH2 0x276C JUMP JUMPDEST SWAP1 POP PUSH1 0x0 PUSH2 0xF81 PUSH6 0x1F331628785 PUSH9 0x3635C9ADC5DEA00000 PUSH2 0x27CA JUMP JUMPDEST SWAP1 POP PUSH1 0x0 PUSH2 0xF8F PUSH1 0x2 PUSH2 0x276C JUMP JUMPDEST SWAP1 POP JUMPDEST DUP5 ISZERO PUSH2 0x1005 JUMPI PUSH2 0xFA3 PUSH1 0x2 DUP7 PUSH2 0x447A JUMP JUMPDEST PUSH1 0x1 EQ ISZERO PUSH2 0xFD3 JUMPI PUSH2 0xFBF PUSH2 0xFB8 DUP5 DUP5 PUSH2 0x285E JUMP JUMPDEST DUP5 SWAP1 PUSH2 0x2A8C JUMP JUMPDEST SWAP3 POP PUSH2 0xFCC PUSH1 0x1 DUP7 PUSH2 0x43FC JUMP JUMPDEST SWAP5 POP PUSH2 0x1000 JUMP JUMPDEST PUSH2 0xFF0 PUSH2 0xFE0 DUP4 DUP1 PUSH2 0x285E JUMP JUMPDEST PUSH2 0xFEA DUP4 DUP6 PUSH2 0x285E JUMP JUMPDEST SWAP1 PUSH2 0x2A8C JUMP JUMPDEST SWAP2 POP PUSH2 0xFFD PUSH1 0x2 DUP7 PUSH2 0x4307 JUMP JUMPDEST SWAP5 POP JUMPDEST PUSH2 0xF92 JUMP JUMPDEST DUP6 PUSH2 0x100F DUP5 PUSH2 0x2B1C JUMP JUMPDEST PUSH2 0x1019 SWAP2 SWAP1 PUSH2 0x43FC JUMP JUMPDEST SWAP4 POP POP POP POP JUMPDEST SWAP3 SWAP2 POP POP JUMP JUMPDEST PUSH1 0x60 PUSH1 0x1 DUP1 SLOAD PUSH2 0x1034 SWAP1 PUSH2 0x442A JUMP JUMPDEST DUP1 PUSH1 0x1F ADD PUSH1 0x20 DUP1 SWAP2 DIV MUL PUSH1 0x20 ADD PUSH1 0x40 MLOAD SWAP1 DUP2 ADD PUSH1 0x40 MSTORE DUP1 SWAP3 SWAP2 SWAP1 DUP2 DUP2 MSTORE PUSH1 0x20 ADD DUP3 DUP1 SLOAD PUSH2 0x1060 SWAP1 PUSH2 0x442A JUMP JUMPDEST DUP1 ISZERO PUSH2 0x10AD JUMPI DUP1 PUSH1 0x1F LT PUSH2 0x1082 JUMPI PUSH2 0x100 DUP1 DUP4 SLOAD DIV MUL DUP4 MSTORE SWAP2 PUSH1 0x20 ADD SWAP2 PUSH2 0x10AD JUMP JUMPDEST DUP3 ADD SWAP2 SWAP1 PUSH1 0x0 MSTORE PUSH1 0x20 PUSH1 0x0 KECCAK256 SWAP1 JUMPDEST DUP2 SLOAD DUP2 MSTORE SWAP1 PUSH1 0x1 ADD SWAP1 PUSH1 0x20 ADD DUP1 DUP4 GT PUSH2 0x1090 JUMPI DUP3 SWAP1 SUB PUSH1 0x1F AND DUP3 ADD SWAP2 JUMPDEST POP POP POP POP POP SWAP1 POP SWAP1 JUMP JUMPDEST PUSH1 0x0 PUSH2 0x10CB PUSH2 0x10C4 PUSH2 0x2B30 JUMP JUMPDEST DUP5 DUP5 PUSH2 0x2B34 JUMP JUMPDEST POP PUSH1 0x1 SWAP3 SWAP2 POP POP JUMP JUMPDEST PUSH1 0x7 SLOAD TIMESTAMP LT ISZERO PUSH2 0x10FF JUMPI PUSH1 0x40 MLOAD PUSH3 0x461BCD PUSH1 0xE5 SHL DUP2 MSTORE PUSH1 0x4 ADD PUSH2 0x10F6 SWAP1 PUSH2 0x3F1F JUMP JUMPDEST PUSH1 0x40 MLOAD DUP1 SWAP2 SUB SWAP1 REVERT JUMPDEST PUSH1 0x8 SLOAD PUSH1 0xFF AND ISZERO PUSH2 0x1122 JUMPI PUSH1 0x40 MLOAD PUSH3 0x461BCD PUSH1 0xE5 SHL DUP2 MSTORE PUSH1 0x4 ADD PUSH2 0x10F6 SWAP1 PUSH2 0x3FFF JUMP JUMPDEST PUSH1 0x6 PUSH1 0x0 SWAP1 SLOAD SWAP1 PUSH2 0x100 EXP SWAP1 DIV PUSH1 0x1 PUSH1 0x1 PUSH1 0xA0 SHL SUB AND PUSH1 0x1 PUSH1 0x1 PUSH1 0xA0 SHL SUB AND PUSH4 0x165505C1 PUSH1 0x40 MLOAD DUP2 PUSH4 0xFFFFFFFF AND PUSH1 0xE0 SHL DUP2 MSTORE PUSH1 0x4 ADD PUSH1 0x0 PUSH1 0x40 MLOAD DUP1 DUP4 SUB DUP2 PUSH1 0x0 DUP8 DUP1 EXTCODESIZE ISZERO DUP1 ISZERO PUSH2 0x1172 JUMPI PUSH1 0x0 DUP1 REVERT JUMPDEST POP GAS CALL ISZERO DUP1 ISZERO PUSH2 0x1186 JUMPI RETURNDATASIZE PUSH1 0x0 DUP1 RETURNDATACOPY RETURNDATASIZE PUSH1 0x0 REVERT JUMPDEST POP POP POP POP PUSH1 0x0 SLOAD PUSH1 0x9 SLOAD GT ISZERO PUSH2 0x1251 JUMPI PUSH1 0x0 DUP1 SLOAD PUSH1 0x9 SLOAD PUSH2 0x11A7 SWAP2 SWAP1 PUSH2 0x43FC JUMP JUMPDEST PUSH1 0x6 SLOAD PUSH1 0x1 PUSH1 0x1 PUSH1 0xA0 SHL SUB AND PUSH1 0x0 SWAP1 DUP2 MSTORE PUSH1 0xA PUSH1 0x20 MSTORE PUSH1 0x40 SWAP1 KECCAK256 SLOAD SWAP1 SWAP2 POP PUSH2 0x11D0 SWAP1 DUP3 SWAP1 PUSH2 0x42C1 JUMP JUMPDEST PUSH1 0x6 SLOAD PUSH1 0x1 PUSH1 0x1 PUSH1 0xA0 SHL SUB AND PUSH1 0x0 SWAP1 DUP2 MSTORE PUSH1 0xA PUSH1 0x20 MSTORE PUSH1 0x40 DUP2 KECCAK256 SWAP2 SWAP1 SWAP2 SSTORE DUP1 SLOAD DUP3 SWAP2 SWAP1 DUP2 SWAP1 PUSH2 0x1200 SWAP1 DUP5 SWAP1 PUSH2 0x42C1 JUMP JUMPDEST SWAP1 SWAP2 SSTORE POP POP PUSH1 0x6 SLOAD PUSH1 0x40 MLOAD PUSH1 0x1 PUSH1 0x1 PUSH1 0xA0 SHL SUB SWAP1 SWAP2 AND SWAP1 PUSH1 0x0 SWAP1 PUSH32 0xDDF252AD1BE2C89B69C2B068FC378DAA952BA7F163C4A11628F55A4DF523B3EF SWAP1 PUSH2 0x1247 SWAP1 DUP6 SWAP1 PUSH2 0x4269 JUMP JUMPDEST PUSH1 0x40 MLOAD DUP1 SWAP2 SUB SWAP1 LOG3 POP JUMPDEST PUSH1 0x8 DUP1 SLOAD PUSH1 0xFF NOT AND PUSH1 0x1 OR SWAP1 SSTORE JUMP JUMPDEST PUSH1 0x0 PUSH2 0x1272 PUSH2 0x126D PUSH2 0x2B30 JUMP JUMPDEST PUSH2 0x2BE8 JUMP JUMPDEST SWAP1 POP SWAP1 JUMP JUMPDEST PUSH1 0x3A PUSH1 0x20 MSTORE PUSH1 0x0 SWAP1 DUP2 MSTORE PUSH1 0x40 SWAP1 KECCAK256 SLOAD PUSH1 0xFF AND DUP2 JUMP JUMPDEST PUSH1 0x18 SLOAD PUSH1 0x1 PUSH1 0x1 PUSH1 0xA0 SHL SUB AND DUP2 JUMP JUMPDEST PUSH1 0x38 SLOAD DUP2 JUMP JUMPDEST PUSH2 0x12A9 PUSH2 0x2B30 JUMP JUMPDEST PUSH1 0x17 SLOAD PUSH1 0x1 PUSH1 0x1 PUSH1 0xA0 SHL SUB SWAP1 DUP2 AND SWAP2 AND EQ PUSH2 0x12D6 JUMPI PUSH1 0x40 MLOAD PUSH3 0x461BCD PUSH1 0xE5 SHL DUP2 MSTORE PUSH1 0x4 ADD PUSH2 0x10F6 SWAP1 PUSH2 0x3FCA JUMP JUMPDEST PUSH1 0x1B SLOAD PUSH1 0x40 MLOAD PUSH1 0x1 PUSH1 0x1 PUSH1 0xA0 SHL SUB SWAP2 DUP3 AND SWAP2 DUP4 AND SWAP1 PUSH32 0x90B8024C4923D3873FF5B9FCB43D0360D4B9217FA41225D07BA379993552E743 SWAP1 PUSH1 0x0 SWAP1 LOG3 PUSH1 0x1B DUP1 SLOAD PUSH1 0x1 PUSH1 0x1 PUSH1 0xA0 SHL SUB NOT AND PUSH1 0x1 PUSH1 0x1 PUSH1 0xA0 SHL SUB SWAP3 SWAP1 SWAP3 AND SWAP2 SWAP1 SWAP2 OR SWAP1 SSTORE JUMP JUMPDEST PUSH1 0x25 SLOAD DUP2 JUMP JUMPDEST PUSH1 0x21 SLOAD DUP2 JUMP JUMPDEST PUSH1 0x35 SLOAD DUP2 JUMP JUMPDEST PUSH1 0x34 SLOAD DUP2 JUMP JUMPDEST PUSH2 0x1353 PUSH2 0x2B30 JUMP JUMPDEST PUSH1 0x17 SLOAD PUSH1 0x1 PUSH1 0x1 PUSH1 0xA0 SHL SUB SWAP1 DUP2 AND SWAP2 AND EQ PUSH2 0x1380 JUMPI PUSH1 0x40 MLOAD PUSH3 0x461BCD PUSH1 0xE5 SHL DUP2 MSTORE PUSH1 0x4 ADD PUSH2 0x10F6 SWAP1 PUSH2 0x3FCA JUMP JUMPDEST PUSH8 0xDE0B6B3A7640000 PUSH2 0x3E8 PUSH1 0x38 SLOAD PUSH1 0x1 PUSH2 0x139B SWAP2 SWAP1 PUSH2 0x439E JUMP JUMPDEST PUSH2 0x13A5 SWAP2 SWAP1 PUSH2 0x4307 JUMP JUMPDEST PUSH2 0x13AF SWAP2 SWAP1 PUSH2 0x4307 JUMP JUMPDEST DUP2 LT ISZERO PUSH2 0x13CE JUMPI PUSH1 0x40 MLOAD PUSH3 0x461BCD PUSH1 0xE5 SHL DUP2 MSTORE PUSH1 0x4 ADD PUSH2 0x10F6 SWAP1 PUSH2 0x421A JUMP JUMPDEST PUSH2 0x13E0 DUP2 PUSH8 0xDE0B6B3A7640000 PUSH2 0x439E JUMP JUMPDEST PUSH1 0x1D SSTORE POP JUMP JUMPDEST PUSH1 0xE PUSH1 0x20 MSTORE PUSH1 0x0 SWAP1 DUP2 MSTORE PUSH1 0x40 SWAP1 KECCAK256 SLOAD DUP2 JUMP JUMPDEST PUSH1 0x0 PUSH2 0x1405 DUP5 DUP5 DUP5 PUSH2 0x2CB6 JUMP JUMPDEST PUSH1 0x1 PUSH1 0x1 PUSH1 0xA0 SHL SUB DUP5 AND PUSH1 0x0 SWAP1 DUP2 MSTORE PUSH1 0xB PUSH1 0x20 MSTORE PUSH1 0x40 DUP2 KECCAK256 DUP2 PUSH2 0x1426 PUSH2 0x2B30 JUMP JUMPDEST PUSH1 0x1 PUSH1 0x1 PUSH1 0xA0 SHL SUB AND PUSH1 0x1 PUSH1 0x1 PUSH1 0xA0 SHL SUB AND DUP2 MSTORE PUSH1 0x20 ADD SWAP1 DUP2 MSTORE PUSH1 0x20 ADD PUSH1 0x0 KECCAK256 SLOAD SWAP1 POP DUP3 DUP2 LT ISZERO PUSH2 0x1469 JUMPI PUSH1 0x40 MLOAD PUSH3 0x461BCD PUSH1 0xE5 SHL DUP2 MSTORE PUSH1 0x4 ADD PUSH2 0x10F6 SWAP1 PUSH2 0x3F82 JUMP JUMPDEST PUSH2 0x1484 DUP6 PUSH2 0x1475 PUSH2 0x2B30 JUMP JUMPDEST PUSH2 0x147F DUP7 DUP6 PUSH2 0x43FC JUMP JUMPDEST PUSH2 0x2B34 JUMP JUMPDEST POP PUSH1 0x1 SWAP5 SWAP4 POP POP POP POP JUMP JUMPDEST PUSH1 0x14 SLOAD PUSH1 0xC EQ DUP1 ISZERO PUSH2 0x14BA JUMPI POP PUSH1 0x1 PUSH1 0x1 PUSH1 0xA0 SHL SUB DUP2 AND PUSH1 0x0 SWAP1 DUP2 MSTORE PUSH1 0x15 PUSH1 0x20 MSTORE PUSH1 0x40 SWAP1 KECCAK256 SLOAD PUSH1 0xFF AND ISZERO JUMPDEST ISZERO PUSH2 0x14C7 JUMPI PUSH2 0x14C7 PUSH2 0x16C9 JUMP JUMPDEST PUSH2 0x14D8 DUP2 PUSH2 0x14D3 PUSH2 0x2B30 JUMP JUMPDEST PUSH2 0x2EAB JUMP JUMPDEST POP JUMP JUMPDEST PUSH1 0x5 SLOAD PUSH1 0x1 PUSH1 0x1 PUSH1 0xA0 SHL SUB AND DUP2 JUMP JUMPDEST PUSH2 0xDEAD DUP2 JUMP JUMPDEST PUSH1 0x23 SLOAD DUP2 JUMP JUMPDEST PUSH2 0x14FE PUSH2 0x2B30 JUMP JUMPDEST PUSH1 0x17 SLOAD PUSH1 0x1 PUSH1 0x1 PUSH1 0xA0 SHL SUB SWAP1 DUP2 AND SWAP2 AND EQ PUSH2 0x152B JUMPI PUSH1 0x40 MLOAD PUSH3 0x461BCD PUSH1 0xE5 SHL DUP2 MSTORE PUSH1 0x4 ADD PUSH2 0x10F6 SWAP1 PUSH2 0x3FCA JUMP JUMPDEST PUSH1 0x2E DUP5 SWAP1 SSTORE PUSH1 0x2B DUP4 SWAP1 SSTORE PUSH1 0x2C DUP3 SWAP1 SSTORE PUSH1 0x2D DUP2 SWAP1 SSTORE DUP4 DUP2 PUSH2 0x154B DUP5 DUP7 PUSH2 0x42C1 JUMP JUMPDEST PUSH2 0x1555 SWAP2 SWAP1 PUSH2 0x42C1 JUMP JUMPDEST PUSH2 0x155F SWAP2 SWAP1 PUSH2 0x42C1 JUMP JUMPDEST PUSH1 0x2A DUP2 SWAP1 SSTORE PUSH1 0x32 LT ISZERO PUSH2 0x1584 JUMPI PUSH1 0x40 MLOAD PUSH3 0x461BCD PUSH1 0xE5 SHL DUP2 MSTORE PUSH1 0x4 ADD PUSH2 0x10F6 SWAP1 PUSH2 0x3E14 JUMP JUMPDEST POP POP POP POP JUMP JUMPDEST PUSH1 0x22 SLOAD PUSH1 0xFF AND DUP2 JUMP JUMPDEST PUSH1 0x3 SLOAD PUSH1 0xFF AND SWAP1 JUMP JUMPDEST PUSH1 0xC PUSH1 0x20 MSTORE PUSH1 0x0 SWAP1 DUP2 MSTORE PUSH1 0x40 SWAP1 KECCAK256 SLOAD DUP2 JUMP JUMPDEST PUSH1 0x0 PUSH2 0x10CB PUSH2 0x15BB PUSH2 0x2B30 JUMP JUMPDEST DUP5 DUP5 PUSH1 0xB PUSH1 0x0 PUSH2 0x15C9 PUSH2 0x2B30 JUMP JUMPDEST PUSH1 0x1 PUSH1 0x1 PUSH1 0xA0 SHL SUB SWAP1 DUP2 AND DUP3 MSTORE PUSH1 0x20 DUP1 DUP4 ADD SWAP4 SWAP1 SWAP4 MSTORE PUSH1 0x40 SWAP2 DUP3 ADD PUSH1 0x0 SWAP1 DUP2 KECCAK256 SWAP2 DUP12 AND DUP2 MSTORE SWAP3 MSTORE SWAP1 KECCAK256 SLOAD PUSH2 0x147F SWAP2 SWAP1 PUSH2 0x42C1 JUMP JUMPDEST PUSH2 0x1605 PUSH2 0x2B30 JUMP JUMPDEST PUSH1 0x17 SLOAD PUSH1 0x1 PUSH1 0x1 PUSH1 0xA0 SHL SUB SWAP1 DUP2 AND SWAP2 AND EQ PUSH2 0x1632 JUMPI PUSH1 0x40 MLOAD PUSH3 0x461BCD PUSH1 0xE5 SHL DUP2 MSTORE PUSH1 0x4 ADD PUSH2 0x10F6 SWAP1 PUSH2 0x3FCA JUMP JUMPDEST PUSH1 0x1C SLOAD PUSH1 0x40 MLOAD PUSH1 0x1 PUSH1 0x1 PUSH1 0xA0 SHL SUB SWAP2 DUP3 AND SWAP2 DUP4 AND SWAP1 PUSH32 0x7AED03A461AC9A82C523921AEC0D4B0AE7365A310ADC67F94526BA434E2D8847 SWAP1 PUSH1 0x0 SWAP1 LOG3 PUSH1 0x1C DUP1 SLOAD PUSH1 0x1 PUSH1 0x1 PUSH1 0xA0 SHL SUB NOT AND PUSH1 0x1 PUSH1 0x1 PUSH1 0xA0 SHL SUB SWAP3 SWAP1 SWAP3 AND SWAP2 SWAP1 SWAP2 OR SWAP1 SSTORE JUMP JUMPDEST PUSH1 0x19 SLOAD PUSH1 0x1 PUSH1 0x1 PUSH1 0xA0 SHL SUB AND DUP2 JUMP JUMPDEST PUSH1 0x27 SLOAD PUSH1 0xFF AND DUP2 JUMP JUMPDEST PUSH1 0x1 PUSH1 0x1 PUSH1 0xA0 SHL SUB DUP2 AND PUSH1 0x0 SWAP1 DUP2 MSTORE PUSH1 0x39 PUSH1 0x20 MSTORE PUSH1 0x40 SWAP1 KECCAK256 SLOAD PUSH1 0xFF AND JUMPDEST SWAP2 SWAP1 POP JUMP JUMPDEST PUSH1 0x14 SLOAD PUSH1 0xC EQ PUSH2 0x16EB JUMPI PUSH1 0x40 MLOAD PUSH3 0x461BCD PUSH1 0xE5 SHL DUP2 MSTORE PUSH1 0x4 ADD PUSH2 0x10F6 SWAP1 PUSH2 0x3B2D JUMP JUMPDEST PUSH2 0x16F3 PUSH2 0x37E1 JUMP JUMPDEST PUSH1 0x0 JUMPDEST PUSH1 0xC DUP2 LT ISZERO PUSH2 0x177A JUMPI PUSH1 0x14 DUP2 DUP2 SLOAD DUP2 LT PUSH2 0x1720 JUMPI PUSH4 0x4E487B71 PUSH1 0xE0 SHL PUSH1 0x0 MSTORE PUSH1 0x32 PUSH1 0x4 MSTORE PUSH1 0x24 PUSH1 0x0 REVERT JUMPDEST PUSH1 0x0 SWAP2 DUP3 MSTORE PUSH1 0x20 SWAP1 SWAP2 KECCAK256 ADD SLOAD PUSH1 0x1 PUSH1 0x1 PUSH1 0xA0 SHL SUB AND DUP3 DUP3 PUSH1 0xC DUP2 LT PUSH2 0x1755 JUMPI PUSH4 0x4E487B71 PUSH1 0xE0 SHL PUSH1 0x0 MSTORE PUSH1 0x32 PUSH1 0x4 MSTORE PUSH1 0x24 PUSH1 0x0 REVERT JUMPDEST PUSH1 0x1 PUSH1 0x1 PUSH1 0xA0 SHL SUB SWAP1 SWAP3 AND PUSH1 0x20 SWAP3 SWAP1 SWAP3 MUL ADD MSTORE DUP1 PUSH2 0x1772 DUP2 PUSH2 0x445F JUMP JUMPDEST SWAP2 POP POP PUSH2 0x16F6 JUMP JUMPDEST POP PUSH1 0x1 JUMPDEST PUSH1 0xC DUP2 LT ISZERO PUSH2 0x191F JUMPI PUSH1 0x0 DUP3 DUP3 PUSH1 0xC DUP2 LT PUSH2 0x17A9 JUMPI PUSH4 0x4E487B71 PUSH1 0xE0 SHL PUSH1 0x0 MSTORE PUSH1 0x32 PUSH1 0x4 MSTORE PUSH1 0x24 PUSH1 0x0 REVERT JUMPDEST PUSH1 0x20 SWAP1 DUP2 MUL SWAP2 SWAP1 SWAP2 ADD MLOAD PUSH1 0x1 PUSH1 0x1 PUSH1 0xA0 SHL SUB DUP2 AND PUSH1 0x0 SWAP1 DUP2 MSTORE PUSH1 0x13 SWAP1 SWAP3 MSTORE PUSH1 0x40 DUP3 KECCAK256 SLOAD SWAP1 SWAP3 POP SWAP1 PUSH2 0x17DB PUSH1 0x1 DUP6 PUSH2 0x43FC JUMP JUMPDEST SWAP1 POP PUSH1 0x0 JUMPDEST DUP3 PUSH1 0x13 PUSH1 0x0 DUP9 DUP6 PUSH1 0xC DUP2 LT PUSH2 0x1805 JUMPI PUSH4 0x4E487B71 PUSH1 0xE0 SHL PUSH1 0x0 MSTORE PUSH1 0x32 PUSH1 0x4 MSTORE PUSH1 0x24 PUSH1 0x0 REVERT JUMPDEST PUSH1 0x20 MUL ADD MLOAD PUSH1 0x1 PUSH1 0x1 PUSH1 0xA0 SHL SUB AND PUSH1 0x1 PUSH1 0x1 PUSH1 0xA0 SHL SUB AND DUP2 MSTORE PUSH1 0x20 ADD SWAP1 DUP2 MSTORE PUSH1 0x20 ADD PUSH1 0x0 KECCAK256 SLOAD LT ISZERO PUSH2 0x18B2 JUMPI DUP6 DUP3 PUSH1 0xC DUP2 LT PUSH2 0x1851 JUMPI PUSH4 0x4E487B71 PUSH1 0xE0 SHL PUSH1 0x0 MSTORE PUSH1 0x32 PUSH1 0x4 MSTORE PUSH1 0x24 PUSH1 0x0 REVERT JUMPDEST PUSH1 0x20 MUL ADD MLOAD DUP7 PUSH2 0x1862 DUP5 PUSH1 0x1 PUSH2 0x42C1 JUMP JUMPDEST PUSH1 0xC DUP2 LT PUSH2 0x1880 JUMPI PUSH4 0x4E487B71 PUSH1 0xE0 SHL PUSH1 0x0 MSTORE PUSH1 0x32 PUSH1 0x4 MSTORE PUSH1 0x24 PUSH1 0x0 REVERT JUMPDEST PUSH1 0x1 PUSH1 0x1 PUSH1 0xA0 SHL SUB SWAP1 SWAP3 AND PUSH1 0x20 SWAP3 SWAP1 SWAP3 MUL ADD MSTORE DUP2 PUSH2 0x18A0 JUMPI POP PUSH1 0x1 PUSH2 0x18B2 JUMP JUMPDEST DUP2 PUSH2 0x18AA DUP2 PUSH2 0x4413 JUMP JUMPDEST SWAP3 POP POP PUSH2 0x17E0 JUMP JUMPDEST DUP1 ISZERO PUSH2 0x18C9 JUMPI PUSH1 0x1 PUSH1 0x1 PUSH1 0xA0 SHL SUB DUP5 AND DUP7 MSTORE PUSH2 0x1908 JUMP JUMPDEST DUP4 DUP7 PUSH2 0x18D6 DUP5 PUSH1 0x1 PUSH2 0x42C1 JUMP JUMPDEST PUSH1 0xC DUP2 LT PUSH2 0x18F4 JUMPI PUSH4 0x4E487B71 PUSH1 0xE0 SHL PUSH1 0x0 MSTORE PUSH1 0x32 PUSH1 0x4 MSTORE PUSH1 0x24 PUSH1 0x0 REVERT JUMPDEST PUSH1 0x1 PUSH1 0x1 PUSH1 0xA0 SHL SUB SWAP1 SWAP3 AND PUSH1 0x20 SWAP3 SWAP1 SWAP3 MUL ADD MSTORE JUMPDEST POP POP POP POP DUP1 DUP1 PUSH2 0x1917 SWAP1 PUSH2 0x445F JUMP JUMPDEST SWAP2 POP POP PUSH2 0x177E JUMP JUMPDEST POP PUSH1 0xB JUMPDEST PUSH1 0x6 DUP2 LT PUSH2 0x1989 JUMPI PUSH1 0x0 DUP3 DUP3 PUSH1 0xC DUP2 LT PUSH2 0x194D JUMPI PUSH4 0x4E487B71 PUSH1 0xE0 SHL PUSH1 0x0 MSTORE PUSH1 0x32 PUSH1 0x4 MSTORE PUSH1 0x24 PUSH1 0x0 REVERT JUMPDEST PUSH1 0x20 SWAP1 DUP2 MUL SWAP2 SWAP1 SWAP2 ADD MLOAD PUSH1 0x1 PUSH1 0x1 PUSH1 0xA0 SHL SUB AND PUSH1 0x0 SWAP1 DUP2 MSTORE PUSH1 0x15 SWAP1 SWAP2 MSTORE PUSH1 0x40 SWAP1 KECCAK256 DUP1 SLOAD PUSH1 0xFF NOT AND SWAP1 SSTORE POP DUP1 PUSH2 0x1981 DUP2 PUSH2 0x4413 JUMP JUMPDEST SWAP2 POP POP PUSH2 0x1923 JUMP JUMPDEST POP PUSH2 0x1996 PUSH1 0x14 PUSH1 0x0 PUSH2 0x3800 JUMP JUMPDEST PUSH1 0x0 JUMPDEST PUSH1 0x6 DUP2 LT ISZERO PUSH2 0x1A0F JUMPI PUSH1 0x14 DUP3 DUP3 PUSH1 0xC DUP2 LT PUSH2 0x19C4 JUMPI PUSH4 0x4E487B71 PUSH1 0xE0 SHL PUSH1 0x0 MSTORE PUSH1 0x32 PUSH1 0x4 MSTORE PUSH1 0x24 PUSH1 0x0 REVERT JUMPDEST PUSH1 0x20 SWAP1 DUP2 MUL SWAP2 SWAP1 SWAP2 ADD MLOAD DUP3 SLOAD PUSH1 0x1 DUP2 ADD DUP5 SSTORE PUSH1 0x0 SWAP4 DUP5 MSTORE SWAP2 SWAP1 SWAP3 KECCAK256 ADD DUP1 SLOAD PUSH1 0x1 PUSH1 0x1 PUSH1 0xA0 SHL SUB NOT AND PUSH1 0x1 PUSH1 0x1 PUSH1 0xA0 SHL SUB SWAP1 SWAP3 AND SWAP2 SWAP1 SWAP2 OR SWAP1 SSTORE DUP1 PUSH2 0x1A07 DUP2 PUSH2 0x445F JUMP JUMPDEST SWAP2 POP POP PUSH2 0x1999 JUMP JUMPDEST POP POP JUMP JUMPDEST PUSH1 0x14 DUP2 DUP2 SLOAD DUP2 LT PUSH2 0x1A23 JUMPI PUSH1 0x0 DUP1 REVERT JUMPDEST PUSH1 0x0 SWAP2 DUP3 MSTORE PUSH1 0x20 SWAP1 SWAP2 KECCAK256 ADD SLOAD PUSH1 0x1 PUSH1 0x1 PUSH1 0xA0 SHL SUB AND SWAP1 POP DUP2 JUMP JUMPDEST PUSH1 0x1 PUSH1 0x1 PUSH1 0xA0 SHL SUB AND PUSH1 0x0 SWAP1 DUP2 MSTORE PUSH1 0xD PUSH1 0x20 MSTORE PUSH1 0x40 SWAP1 KECCAK256 SLOAD PUSH1 0xFF AND SWAP1 JUMP JUMPDEST PUSH2 0x1A6D PUSH2 0x1A66 PUSH2 0x2B30 JUMP JUMPDEST PUSH1 0x1 PUSH2 0x2EEA JUMP JUMPDEST JUMP JUMPDEST PUSH1 0x13 PUSH1 0x20 MSTORE PUSH1 0x0 SWAP1 DUP2 MSTORE PUSH1 0x40 SWAP1 KECCAK256 SLOAD DUP2 JUMP JUMPDEST PUSH1 0x10 PUSH1 0x20 MSTORE PUSH1 0x0 SWAP1 DUP2 MSTORE PUSH1 0x40 SWAP1 KECCAK256 SLOAD DUP2 JUMP JUMPDEST PUSH1 0x2F SLOAD DUP2 JUMP JUMPDEST PUSH1 0x27 SLOAD PUSH3 0x10000 SWAP1 DIV PUSH1 0xFF AND DUP2 JUMP JUMPDEST PUSH1 0x1 PUSH1 0x1 PUSH1 0xA0 SHL SUB DUP2 AND PUSH1 0x0 SWAP1 DUP2 MSTORE PUSH1 0xA PUSH1 0x20 MSTORE PUSH1 0x40 DUP2 KECCAK256 SLOAD PUSH2 0x1ACA DUP4 PUSH2 0x1A3D JUMP JUMPDEST DUP1 ISZERO PUSH2 0x1AE4 JUMPI POP PUSH1 0x16 SLOAD PUSH1 0x1 PUSH1 0x1 PUSH1 0xA0 SHL SUB DUP5 DUP2 AND SWAP2 AND EQ ISZERO JUMPDEST ISZERO PUSH2 0x101F JUMPI PUSH2 0x1AF6 DUP2 PUSH2 0x594 DUP6 PUSH2 0x2FA6 JUMP JUMPDEST PUSH2 0x1B00 SWAP1 DUP3 PUSH2 0x42C1 JUMP JUMPDEST SWAP2 POP POP PUSH2 0x16C4 JUMP JUMPDEST PUSH2 0x1B10 PUSH2 0x2B30 JUMP JUMPDEST PUSH1 0x17 SLOAD PUSH1 0x1 PUSH1 0x1 PUSH1 0xA0 SHL SUB SWAP1 DUP2 AND SWAP2 AND EQ PUSH2 0x1B3D JUMPI PUSH1 0x40 MLOAD PUSH3 0x461BCD PUSH1 0xE5 SHL DUP2 MSTORE PUSH1 0x4 ADD PUSH2 0x10F6 SWAP1 PUSH2 0x3FCA JUMP JUMPDEST PUSH1 0x17 SLOAD PUSH1 0x40 MLOAD PUSH1 0x0 SWAP2 PUSH1 0x1 PUSH1 0x1 PUSH1 0xA0 SHL SUB AND SWAP1 PUSH32 0x8BE0079C531659141344CD1FD0A4F28419497F9722A3DAAFE3B4186F6B6457E0 SWAP1 DUP4 SWAP1 LOG3 PUSH1 0x17 DUP1 SLOAD PUSH1 0x1 PUSH1 0x1 PUSH1 0xA0 SHL SUB NOT AND SWAP1 SSTORE JUMP JUMPDEST PUSH2 0x1B8F PUSH2 0x2B30 JUMP JUMPDEST PUSH1 0x17 SLOAD PUSH1 0x1 PUSH1 0x1 PUSH1 0xA0 SHL SUB SWAP1 DUP2 AND SWAP2 AND EQ PUSH2 0x1BBC JUMPI PUSH1 0x40 MLOAD PUSH3 0x461BCD PUSH1 0xE5 SHL DUP2 MSTORE PUSH1 0x4 ADD PUSH2 0x10F6 SWAP1 PUSH2 0x3FCA JUMP JUMPDEST PUSH2 0x258 DUP4 LT ISZERO PUSH2 0x1BDE JUMPI PUSH1 0x40 MLOAD PUSH3 0x461BCD PUSH1 0xE5 SHL DUP2 MSTORE PUSH1 0x4 ADD PUSH2 0x10F6 SWAP1 PUSH2 0x3BEC JUMP JUMPDEST PUSH2 0x3E8 DUP3 GT ISZERO DUP1 ISZERO PUSH2 0x1BEE JUMPI POP PUSH1 0x1 JUMPDEST PUSH2 0x1C0A JUMPI PUSH1 0x40 MLOAD PUSH3 0x461BCD PUSH1 0xE5 SHL DUP2 MSTORE PUSH1 0x4 ADD PUSH2 0x10F6 SWAP1 PUSH2 0x3DC4 JUMP JUMPDEST PUSH1 0x23 SWAP3 SWAP1 SWAP3 SSTORE PUSH1 0x21 SSTORE PUSH1 0x22 DUP1 SLOAD PUSH1 0xFF NOT AND SWAP2 ISZERO ISZERO SWAP2 SWAP1 SWAP2 OR SWAP1 SSTORE JUMP JUMPDEST PUSH1 0x33 SLOAD DUP2 JUMP JUMPDEST PUSH1 0x0 PUSH2 0x1C36 PUSH2 0x2B30 JUMP JUMPDEST PUSH1 0x17 SLOAD PUSH1 0x1 PUSH1 0x1 PUSH1 0xA0 SHL SUB SWAP1 DUP2 AND SWAP2 AND EQ PUSH2 0x1C63 JUMPI PUSH1 0x40 MLOAD PUSH3 0x461BCD PUSH1 0xE5 SHL DUP2 MSTORE PUSH1 0x4 ADD PUSH2 0x10F6 SWAP1 PUSH2 0x3FCA JUMP JUMPDEST POP PUSH1 0x27 DUP1 SLOAD PUSH1 0xFF NOT AND SWAP1 SSTORE PUSH1 0x1 SWAP1 JUMP JUMPDEST PUSH2 0x1C7B PUSH2 0x2B30 JUMP JUMPDEST PUSH1 0x17 SLOAD PUSH1 0x1 PUSH1 0x1 PUSH1 0xA0 SHL SUB SWAP1 DUP2 AND SWAP2 AND EQ PUSH2 0x1CA8 JUMPI PUSH1 0x40 MLOAD PUSH3 0x461BCD PUSH1 0xE5 SHL DUP2 MSTORE PUSH1 0x4 ADD PUSH2 0x10F6 SWAP1 PUSH2 0x3FCA JUMP JUMPDEST PUSH1 0x1 PUSH1 0x1 PUSH1 0xA0 SHL SUB SWAP2 SWAP1 SWAP2 AND PUSH1 0x0 SWAP1 DUP2 MSTORE PUSH1 0x3A PUSH1 0x20 MSTORE PUSH1 0x40 SWAP1 KECCAK256 DUP1 SLOAD PUSH1 0xFF NOT AND SWAP2 ISZERO ISZERO SWAP2 SWAP1 SWAP2 OR SWAP1 SSTORE JUMP JUMPDEST PUSH1 0x1A SLOAD PUSH1 0x1 PUSH1 0x1 PUSH1 0xA0 SHL SUB AND DUP2 JUMP JUMPDEST PUSH1 0x2B SLOAD DUP2 JUMP JUMPDEST PUSH1 0x8 SLOAD PUSH1 0xFF AND DUP2 JUMP JUMPDEST TIMESTAMP SWAP1 JUMP JUMPDEST PUSH1 0x9 SLOAD DUP2 JUMP JUMPDEST PUSH2 0x1D03 PUSH2 0x2B30 JUMP JUMPDEST PUSH1 0x17 SLOAD PUSH1 0x1 PUSH1 0x1 PUSH1 0xA0 SHL SUB SWAP1 DUP2 AND SWAP2 AND EQ PUSH2 0x1D30 JUMPI PUSH1 0x40 MLOAD PUSH3 0x461BCD PUSH1 0xE5 SHL DUP2 MSTORE PUSH1 0x4 ADD PUSH2 0x10F6 SWAP1 PUSH2 0x3FCA JUMP JUMPDEST PUSH1 0x27 DUP1 SLOAD PUSH3 0xFF0000 NOT PUSH2 0xFF00 NOT SWAP1 SWAP2 AND PUSH2 0x100 OR AND PUSH3 0x10000 OR SWAP1 SSTORE TIMESTAMP PUSH1 0x24 SSTORE JUMP JUMPDEST PUSH1 0x17 SLOAD PUSH1 0x1 PUSH1 0x1 PUSH1 0xA0 SHL SUB AND SWAP1 JUMP JUMPDEST PUSH1 0x1B SLOAD PUSH1 0x1 PUSH1 0x1 PUSH1 0xA0 SHL SUB AND DUP2 JUMP JUMPDEST PUSH1 0x30 SLOAD DUP2 JUMP JUMPDEST PUSH1 0x6 SLOAD PUSH1 0x1 PUSH1 0x1 PUSH1 0xA0 SHL SUB AND DUP2 JUMP JUMPDEST PUSH2 0x1D8D PUSH2 0x2B30 JUMP JUMPDEST PUSH1 0x17 SLOAD PUSH1 0x1 PUSH1 0x1 PUSH1 0xA0 SHL SUB SWAP1 DUP2 AND SWAP2 AND EQ PUSH2 0x1DBA JUMPI PUSH1 0x40 MLOAD PUSH3 0x461BCD PUSH1 0xE5 SHL DUP2 MSTORE PUSH1 0x4 ADD PUSH2 0x10F6 SWAP1 PUSH2 0x3FCA JUMP JUMPDEST PUSH1 0x27 DUP1 SLOAD SWAP2 ISZERO ISZERO PUSH3 0x10000 MUL PUSH3 0xFF0000 NOT SWAP1 SWAP3 AND SWAP2 SWAP1 SWAP2 OR SWAP1 SSTORE JUMP JUMPDEST PUSH1 0x14 SLOAD SWAP1 JUMP JUMPDEST PUSH1 0x60 PUSH1 0x2 DUP1 SLOAD PUSH2 0x1034 SWAP1 PUSH2 0x442A JUMP JUMPDEST PUSH2 0x1DF3 PUSH2 0x2B30 JUMP JUMPDEST PUSH1 0x17 SLOAD PUSH1 0x1 PUSH1 0x1 PUSH1 0xA0 SHL SUB SWAP1 DUP2 AND SWAP2 AND EQ PUSH2 0x1E20 JUMPI PUSH1 0x40 MLOAD PUSH3 0x461BCD PUSH1 0xE5 SHL DUP2 MSTORE PUSH1 0x4 ADD PUSH2 0x10F6 SWAP1 PUSH2 0x3FCA JUMP JUMPDEST PUSH1 0x19 SLOAD PUSH1 0x1 PUSH1 0x1 PUSH1 0xA0 SHL SUB DUP4 DUP2 AND SWAP2 AND EQ ISZERO PUSH2 0x1E4E JUMPI PUSH1 0x40 MLOAD PUSH3 0x461BCD PUSH1 0xE5 SHL DUP2 MSTORE PUSH1 0x4 ADD PUSH2 0x10F6 SWAP1 PUSH2 0x3C83 JUMP JUMPDEST PUSH2 0x1A0F DUP3 DUP3 PUSH2 0x2FC9 JUMP JUMPDEST PUSH1 0x4 SLOAD SWAP1 JUMP JUMPDEST PUSH1 0x2D SLOAD DUP2 JUMP JUMPDEST PUSH2 0x14D8 PUSH2 0x1E6F PUSH2 0x2B30 JUMP JUMPDEST DUP3 PUSH2 0x301D JUMP JUMPDEST PUSH1 0x26 SLOAD DUP2 JUMP JUMPDEST PUSH1 0x36 SLOAD DUP2 JUMP JUMPDEST PUSH1 0x32 SLOAD DUP2 JUMP JUMPDEST PUSH1 0x0 DUP1 PUSH1 0xB PUSH1 0x0 PUSH2 0x1E96 PUSH2 0x2B30 JUMP JUMPDEST PUSH1 0x1 PUSH1 0x1 PUSH1 0xA0 SHL SUB SWAP1 DUP2 AND DUP3 MSTORE PUSH1 0x20 DUP1 DUP4 ADD SWAP4 SWAP1 SWAP4 MSTORE PUSH1 0x40 SWAP2 DUP3 ADD PUSH1 0x0 SWAP1 DUP2 KECCAK256 SWAP2 DUP9 AND DUP2 MSTORE SWAP3 MSTORE SWAP1 KECCAK256 SLOAD SWAP1 POP DUP3 DUP2 LT ISZERO PUSH2 0x1EE2 JUMPI PUSH1 0x40 MLOAD PUSH3 0x461BCD PUSH1 0xE5 SHL DUP2 MSTORE PUSH1 0x4 ADD PUSH2 0x10F6 SWAP1 PUSH2 0x41D5 JUMP JUMPDEST PUSH2 0x1EF8 PUSH2 0x1EED PUSH2 0x2B30 JUMP JUMPDEST DUP6 PUSH2 0x147F DUP7 DUP6 PUSH2 0x43FC JUMP JUMPDEST POP PUSH1 0x1 SWAP4 SWAP3 POP POP POP JUMP JUMPDEST PUSH1 0x24 SLOAD DUP2 JUMP JUMPDEST PUSH1 0x12 PUSH1 0x20 MSTORE PUSH1 0x0 SWAP1 DUP2 MSTORE PUSH1 0x40 SWAP1 KECCAK256 SLOAD DUP2 JUMP JUMPDEST PUSH2 0x1F23 DUP2 PUSH2 0x1A3D JUMP JUMPDEST PUSH2 0x1F3F JUMPI PUSH1 0x40 MLOAD PUSH3 0x461BCD PUSH1 0xE5 SHL DUP2 MSTORE PUSH1 0x4 ADD PUSH2 0x10F6 SWAP1 PUSH2 0x3D73 JUMP JUMPDEST PUSH1 0x0 PUSH2 0x1F4A DUP3 PUSH2 0x2FA6 JUMP JUMPDEST SWAP1 POP PUSH1 0x3C DUP2 LT ISZERO PUSH2 0x1F5B JUMPI POP PUSH2 0x14D8 JUMP JUMPDEST PUSH1 0x1 PUSH1 0x1 PUSH1 0xA0 SHL SUB DUP3 AND PUSH1 0x0 SWAP1 DUP2 MSTORE PUSH1 0xA PUSH1 0x20 MSTORE PUSH1 0x40 DUP2 KECCAK256 SLOAD PUSH2 0x1F7E SWAP1 DUP4 PUSH2 0xF58 JUMP JUMPDEST PUSH1 0x1 PUSH1 0x1 PUSH1 0xA0 SHL SUB DUP5 AND PUSH1 0x0 SWAP1 DUP2 MSTORE PUSH1 0xA PUSH1 0x20 MSTORE PUSH1 0x40 DUP2 KECCAK256 DUP1 SLOAD SWAP3 SWAP4 POP DUP4 SWAP3 SWAP1 SWAP2 SWAP1 PUSH2 0x1FAB SWAP1 DUP5 SWAP1 PUSH2 0x42C1 JUMP JUMPDEST SWAP1 SWAP2 SSTORE POP PUSH2 0x1FB9 SWAP1 POP PUSH2 0x31D0 JUMP JUMPDEST ISZERO PUSH2 0x2031 JUMPI PUSH1 0x0 PUSH2 0x1FCB PUSH1 0x7 DUP4 PUSH2 0x4307 JUMP JUMPDEST PUSH2 0x1FD6 SWAP1 PUSH1 0x3 PUSH2 0x439E JUMP JUMPDEST PUSH1 0x16 SLOAD PUSH1 0x1 PUSH1 0x1 PUSH1 0xA0 SHL SUB AND PUSH1 0x0 SWAP1 DUP2 MSTORE PUSH1 0xA PUSH1 0x20 MSTORE PUSH1 0x40 DUP2 KECCAK256 DUP1 SLOAD SWAP3 SWAP4 POP DUP4 SWAP3 SWAP1 SWAP2 SWAP1 PUSH2 0x2005 SWAP1 DUP5 SWAP1 PUSH2 0x42C1 JUMP JUMPDEST SWAP1 SWAP2 SSTORE POP PUSH2 0x2015 SWAP1 POP DUP2 DUP4 PUSH2 0x42C1 JUMP JUMPDEST PUSH1 0x0 DUP1 DUP3 DUP3 SLOAD PUSH2 0x2025 SWAP2 SWAP1 PUSH2 0x42C1 JUMP JUMPDEST SWAP1 SWAP2 SSTORE POP PUSH2 0x2048 SWAP2 POP POP JUMP JUMPDEST DUP1 PUSH1 0x0 DUP1 DUP3 DUP3 SLOAD PUSH2 0x2042 SWAP2 SWAP1 PUSH2 0x42C1 JUMP JUMPDEST SWAP1 SWAP2 SSTORE POP POP JUMPDEST POP POP PUSH1 0x1 PUSH1 0x1 PUSH1 0xA0 SHL SUB AND PUSH1 0x0 SWAP1 DUP2 MSTORE PUSH1 0xC PUSH1 0x20 MSTORE PUSH1 0x40 SWAP1 KECCAK256 TIMESTAMP SWAP1 SSTORE JUMP JUMPDEST PUSH1 0x0 PUSH2 0x10CB PUSH2 0x2073 PUSH2 0x2B30 JUMP JUMPDEST DUP5 DUP5 PUSH2 0x2CB6 JUMP JUMPDEST PUSH1 0x15 PUSH1 0x20 MSTORE PUSH1 0x0 SWAP1 DUP2 MSTORE PUSH1 0x40 SWAP1 KECCAK256 SLOAD PUSH1 0xFF AND DUP2 JUMP JUMPDEST PUSH2 0x2097 PUSH2 0x2B30 JUMP JUMPDEST PUSH1 0x17 SLOAD PUSH1 0x1 PUSH1 0x1 PUSH1 0xA0 SHL SUB SWAP1 DUP2 AND SWAP2 AND EQ PUSH2 0x20C4 JUMPI PUSH1 0x40 MLOAD PUSH3 0x461BCD PUSH1 0xE5 SHL DUP2 MSTORE PUSH1 0x4 ADD PUSH2 0x10F6 SWAP1 PUSH2 0x3FCA JUMP JUMPDEST PUSH1 0x1A SLOAD PUSH1 0x40 MLOAD PUSH1 0x1 PUSH1 0x1 PUSH1 0xA0 SHL SUB SWAP2 DUP3 AND SWAP2 DUP4 AND SWAP1 PUSH32 0xA751787977EEB3902E30E1D19CA00C6AD274A1F622C31A206E32366700B05674 SWAP1 PUSH1 0x0 SWAP1 LOG3 PUSH1 0x1A DUP1 SLOAD PUSH1 0x1 PUSH1 0x1 PUSH1 0xA0 SHL SUB NOT AND PUSH1 0x1 PUSH1 0x1 PUSH1 0xA0 SHL SUB SWAP3 SWAP1 SWAP3 AND SWAP2 SWAP1 SWAP2 OR SWAP1 SSTORE JUMP JUMPDEST PUSH1 0x3B PUSH1 0x20 MSTORE PUSH1 0x0 SWAP1 DUP2 MSTORE PUSH1 0x40 SWAP1 KECCAK256 SLOAD PUSH1 0xFF AND DUP2 JUMP JUMPDEST PUSH1 0x1C SLOAD PUSH1 0x1 PUSH1 0x1 PUSH1 0xA0 SHL SUB AND DUP2 JUMP JUMPDEST PUSH1 0x27 SLOAD PUSH2 0x100 SWAP1 DIV PUSH1 0xFF AND DUP2 JUMP JUMPDEST PUSH2 0x215B PUSH2 0x2B30 JUMP JUMPDEST PUSH1 0x17 SLOAD PUSH1 0x1 PUSH1 0x1 PUSH1 0xA0 SHL SUB SWAP1 DUP2 AND SWAP2 AND EQ PUSH2 0x2188 JUMPI PUSH1 0x40 MLOAD PUSH3 0x461BCD PUSH1 0xE5 SHL DUP2 MSTORE PUSH1 0x4 ADD PUSH2 0x10F6 SWAP1 PUSH2 0x3FCA JUMP JUMPDEST PUSH1 0x1 PUSH1 0x1 PUSH1 0xA0 SHL SUB DUP3 AND PUSH1 0x0 DUP2 DUP2 MSTORE PUSH1 0x39 PUSH1 0x20 MSTORE PUSH1 0x40 SWAP1 DUP2 SWAP1 KECCAK256 DUP1 SLOAD PUSH1 0xFF NOT AND DUP5 ISZERO ISZERO OR SWAP1 SSTORE MLOAD PUSH32 0x9D8F7706EA1113D1A167B526ECA956215946DD36CC7DF39EB16180222D8B5DF7 SWAP1 PUSH2 0x21DC SWAP1 DUP5 SWAP1 PUSH2 0x3A8C JUMP JUMPDEST PUSH1 0x40 MLOAD DUP1 SWAP2 SUB SWAP1 LOG2 POP POP JUMP JUMPDEST PUSH2 0x21F0 PUSH2 0x2B30 JUMP JUMPDEST PUSH1 0x17 SLOAD PUSH1 0x1 PUSH1 0x1 PUSH1 0xA0 SHL SUB SWAP1 DUP2 AND SWAP2 AND EQ PUSH2 0x221D JUMPI PUSH1 0x40 MLOAD PUSH3 0x461BCD PUSH1 0xE5 SHL DUP2 MSTORE PUSH1 0x4 ADD PUSH2 0x10F6 SWAP1 PUSH2 0x3FCA JUMP JUMPDEST PUSH8 0xDE0B6B3A7640000 PUSH2 0x3E8 PUSH1 0x38 SLOAD PUSH1 0x5 PUSH2 0x2238 SWAP2 SWAP1 PUSH2 0x439E JUMP JUMPDEST PUSH2 0x2242 SWAP2 SWAP1 PUSH2 0x4307 JUMP JUMPDEST PUSH2 0x224C SWAP2 SWAP1 PUSH2 0x4307 JUMP JUMPDEST DUP2 LT ISZERO PUSH2 0x226B JUMPI PUSH1 0x40 MLOAD PUSH3 0x461BCD PUSH1 0xE5 SHL DUP2 MSTORE PUSH1 0x4 ADD PUSH2 0x10F6 SWAP1 PUSH2 0x3C3F JUMP JUMPDEST PUSH2 0x227D DUP2 PUSH8 0xDE0B6B3A7640000 PUSH2 0x439E JUMP JUMPDEST PUSH1 0x1F SSTORE POP JUMP JUMPDEST PUSH1 0x16 SLOAD PUSH1 0x1 PUSH1 0x1 PUSH1 0xA0 SHL SUB AND DUP2 JUMP JUMPDEST PUSH1 0xD PUSH1 0x20 MSTORE PUSH1 0x0 SWAP1 DUP2 MSTORE PUSH1 0x40 SWAP1 KECCAK256 SLOAD PUSH1 0xFF AND DUP2 JUMP JUMPDEST PUSH1 0x29 SLOAD PUSH1 0xFF AND DUP2 JUMP JUMPDEST PUSH1 0x1D SLOAD DUP2 JUMP JUMPDEST PUSH1 0x2E SLOAD DUP2 JUMP JUMPDEST PUSH1 0x11 PUSH1 0x20 MSTORE PUSH1 0x0 SWAP1 DUP2 MSTORE PUSH1 0x40 SWAP1 KECCAK256 SLOAD DUP2 JUMP JUMPDEST PUSH1 0x0 PUSH2 0x22D8 PUSH2 0x2B30 JUMP JUMPDEST PUSH1 0x17 SLOAD PUSH1 0x1 PUSH1 0x1 PUSH1 0xA0 SHL SUB SWAP1 DUP2 AND SWAP2 AND EQ PUSH2 0x2305 JUMPI PUSH1 0x40 MLOAD PUSH3 0x461BCD PUSH1 0xE5 SHL DUP2 MSTORE PUSH1 0x4 ADD PUSH2 0x10F6 SWAP1 PUSH2 0x3FCA JUMP JUMPDEST PUSH3 0x186A0 PUSH1 0x38 SLOAD PUSH1 0x1 PUSH2 0x2318 SWAP2 SWAP1 PUSH2 0x439E JUMP JUMPDEST PUSH2 0x2322 SWAP2 SWAP1 PUSH2 0x4307 JUMP JUMPDEST DUP3 LT ISZERO PUSH2 0x2341 JUMPI PUSH1 0x40 MLOAD PUSH3 0x461BCD PUSH1 0xE5 SHL DUP2 MSTORE PUSH1 0x4 ADD PUSH2 0x10F6 SWAP1 PUSH2 0x3E4B JUMP JUMPDEST PUSH2 0x3E8 PUSH1 0x38 SLOAD PUSH1 0x5 PUSH2 0x2353 SWAP2 SWAP1 PUSH2 0x439E JUMP JUMPDEST PUSH2 0x235D SWAP2 SWAP1 PUSH2 0x4307 JUMP JUMPDEST DUP3 GT ISZERO PUSH2 0x237C JUMPI PUSH1 0x40 MLOAD PUSH3 0x461BCD PUSH1 0xE5 SHL DUP2 MSTORE PUSH1 0x4 ADD PUSH2 0x10F6 SWAP1 PUSH2 0x3EA0 JUMP JUMPDEST POP PUSH1 0x1E SSTORE PUSH1 0x1 SWAP1 JUMP JUMPDEST PUSH2 0x1A6D PUSH2 0x2390 PUSH2 0x2B30 JUMP JUMPDEST PUSH1 0x0 PUSH2 0x2EEA JUMP JUMPDEST PUSH1 0x2A SLOAD DUP2 JUMP JUMPDEST PUSH1 0x1 PUSH1 0x1 PUSH1 0xA0 SHL SUB SWAP2 DUP3 AND PUSH1 0x0 SWAP1 DUP2 MSTORE PUSH1 0xB PUSH1 0x20 SWAP1 DUP2 MSTORE PUSH1 0x40 DUP1 DUP4 KECCAK256 SWAP4 SWAP1 SWAP5 AND DUP3 MSTORE SWAP2 SWAP1 SWAP2 MSTORE KECCAK256 SLOAD SWAP1 JUMP JUMPDEST PUSH1 0x1E SLOAD DUP2 JUMP JUMPDEST PUSH1 0xF PUSH1 0x20 MSTORE PUSH1 0x0 SWAP1 DUP2 MSTORE PUSH1 0x40 SWAP1 KECCAK256 SLOAD PUSH1 0x1 PUSH1 0x1 PUSH1 0xA0 SHL SUB AND DUP2 JUMP JUMPDEST PUSH2 0x23F1 PUSH2 0x2B30 JUMP JUMPDEST PUSH1 0x17 SLOAD PUSH1 0x1 PUSH1 0x1 PUSH1 0xA0 SHL SUB SWAP1 DUP2 AND SWAP2 AND EQ PUSH2 0x241E JUMPI PUSH1 0x40 MLOAD PUSH3 0x461BCD PUSH1 0xE5 SHL DUP2 MSTORE PUSH1 0x4 ADD PUSH2 0x10F6 SWAP1 PUSH2 0x3FCA JUMP JUMPDEST PUSH1 0x33 DUP5 SWAP1 SSTORE PUSH1 0x30 DUP4 SWAP1 SSTORE PUSH1 0x31 DUP3 SWAP1 SSTORE PUSH1 0x32 DUP2 SWAP1 SSTORE DUP4 DUP2 PUSH2 0x243E DUP5 DUP7 PUSH2 0x42C1 JUMP JUMPDEST PUSH2 0x2448 SWAP2 SWAP1 PUSH2 0x42C1 JUMP JUMPDEST PUSH2 0x2452 SWAP2 SWAP1 PUSH2 0x42C1 JUMP JUMPDEST PUSH1 0x2F DUP2 SWAP1 SSTORE PUSH1 0x32 LT ISZERO PUSH2 0x1584 JUMPI PUSH1 0x40 MLOAD PUSH3 0x461BCD PUSH1 0xE5 SHL DUP2 MSTORE PUSH1 0x4 ADD PUSH2 0x10F6 SWAP1 PUSH2 0x4167 JUMP JUMPDEST PUSH1 0x0 PUSH2 0x2481 PUSH2 0x2B30 JUMP JUMPDEST PUSH1 0x17 SLOAD PUSH1 0x1 PUSH1 0x1 PUSH1 0xA0 SHL SUB SWAP1 DUP2 AND SWAP2 AND EQ PUSH2 0x24AE JUMPI PUSH1 0x40 MLOAD PUSH3 0x461BCD PUSH1 0xE5 SHL DUP2 MSTORE PUSH1 0x4 ADD PUSH2 0x10F6 SWAP1 PUSH2 0x3FCA JUMP JUMPDEST POP PUSH1 0x29 DUP1 SLOAD PUSH1 0xFF NOT AND SWAP1 SSTORE PUSH1 0x1 SWAP1 JUMP JUMPDEST PUSH1 0x7 SLOAD DUP2 JUMP JUMPDEST PUSH1 0x2C SLOAD DUP2 JUMP JUMPDEST PUSH2 0x24D2 PUSH2 0x2B30 JUMP JUMPDEST PUSH1 0x17 SLOAD PUSH1 0x1 PUSH1 0x1 PUSH1 0xA0 SHL SUB SWAP1 DUP2 AND SWAP2 AND EQ PUSH2 0x24FF JUMPI PUSH1 0x40 MLOAD PUSH3 0x461BCD PUSH1 0xE5 SHL DUP2 MSTORE PUSH1 0x4 ADD PUSH2 0x10F6 SWAP1 PUSH2 0x3FCA JUMP JUMPDEST PUSH1 0x1 PUSH1 0x1 PUSH1 0xA0 SHL SUB DUP2 AND PUSH2 0x2525 JUMPI PUSH1 0x40 MLOAD PUSH3 0x461BCD PUSH1 0xE5 SHL DUP2 MSTORE PUSH1 0x4 ADD PUSH2 0x10F6 SWAP1 PUSH2 0x3B64 JUMP JUMPDEST PUSH1 0x17 SLOAD PUSH1 0x40 MLOAD PUSH1 0x1 PUSH1 0x1 PUSH1 0xA0 SHL SUB DUP1 DUP5 AND SWAP3 AND SWAP1 PUSH32 0x8BE0079C531659141344CD1FD0A4F28419497F9722A3DAAFE3B4186F6B6457E0 SWAP1 PUSH1 0x0 SWAP1 LOG3 PUSH1 0x17 DUP1 SLOAD PUSH1 0x1 PUSH1 0x1 PUSH1 0xA0 SHL SUB NOT AND PUSH1 0x1 PUSH1 0x1 PUSH1 0xA0 SHL SUB SWAP3 SWAP1 SWAP3 AND SWAP2 SWAP1 SWAP2 OR SWAP1 SSTORE JUMP JUMPDEST PUSH1 0x31 SLOAD DUP2 JUMP JUMPDEST PUSH1 0x1F SLOAD DUP2 JUMP JUMPDEST PUSH1 0x0 PUSH2 0x2597 PUSH2 0x2B30 JUMP JUMPDEST PUSH1 0x17 SLOAD PUSH1 0x1 PUSH1 0x1 PUSH1 0xA0 SHL SUB SWAP1 DUP2 AND SWAP2 AND EQ PUSH2 0x25C4 JUMPI PUSH1 0x40 MLOAD PUSH3 0x461BCD PUSH1 0xE5 SHL DUP2 MSTORE PUSH1 0x4 ADD PUSH2 0x10F6 SWAP1 PUSH2 0x3FCA JUMP JUMPDEST PUSH1 0x25 SLOAD PUSH1 0x26 SLOAD PUSH2 0x25D4 SWAP2 SWAP1 PUSH2 0x42C1 JUMP JUMPDEST TIMESTAMP GT PUSH2 0x25F2 JUMPI PUSH1 0x40 MLOAD PUSH3 0x461BCD PUSH1 0xE5 SHL DUP2 MSTORE PUSH1 0x4 ADD PUSH2 0x10F6 SWAP1 PUSH2 0x40B7 JUMP JUMPDEST PUSH2 0x3E8 DUP3 GT ISZERO PUSH2 0x2614 JUMPI PUSH1 0x40 MLOAD PUSH3 0x461BCD PUSH1 0xE5 SHL DUP2 MSTORE PUSH1 0x4 ADD PUSH2 0x10F6 SWAP1 PUSH2 0x4028 JUMP JUMPDEST TIMESTAMP PUSH1 0x26 SSTORE PUSH1 0x19 SLOAD PUSH1 0x40 MLOAD PUSH4 0x70A08231 PUSH1 0xE0 SHL DUP2 MSTORE PUSH1 0x0 SWAP2 ADDRESS SWAP2 PUSH4 0x70A08231 SWAP2 PUSH2 0x264B SWAP2 PUSH1 0x1 PUSH1 0x1 PUSH1 0xA0 SHL SUB SWAP1 SWAP2 AND SWAP1 PUSH1 0x4 ADD PUSH2 0x3A21 JUMP JUMPDEST PUSH1 0x20 PUSH1 0x40 MLOAD DUP1 DUP4 SUB DUP2 DUP7 DUP1 EXTCODESIZE ISZERO DUP1 ISZERO PUSH2 0x2663 JUMPI PUSH1 0x0 DUP1 REVERT JUMPDEST POP GAS STATICCALL ISZERO DUP1 ISZERO PUSH2 0x2677 JUMPI RETURNDATASIZE PUSH1 0x0 DUP1 RETURNDATACOPY RETURNDATASIZE PUSH1 0x0 REVERT JUMPDEST POP POP POP POP PUSH1 0x40 MLOAD RETURNDATASIZE PUSH1 0x1F NOT PUSH1 0x1F DUP3 ADD AND DUP3 ADD DUP1 PUSH1 0x40 MSTORE POP DUP2 ADD SWAP1 PUSH2 0x269B SWAP2 SWAP1 PUSH2 0x397F JUMP JUMPDEST SWAP1 POP PUSH1 0x0 PUSH2 0x26B5 PUSH2 0x2710 PUSH2 0x26AF DUP5 DUP8 PUSH2 0x3203 JUMP JUMPDEST SWAP1 PUSH2 0x3248 JUMP JUMPDEST SWAP1 POP DUP1 ISZERO PUSH2 0x26D6 JUMPI PUSH1 0x19 SLOAD PUSH2 0x26D6 SWAP1 PUSH1 0x1 PUSH1 0x1 PUSH1 0xA0 SHL SUB AND PUSH2 0xDEAD DUP4 PUSH2 0x2CB6 JUMP JUMPDEST PUSH1 0x19 SLOAD PUSH1 0x40 DUP1 MLOAD PUSH1 0x1 PUSH3 0x93517 PUSH1 0xE0 SHL SUB NOT DUP2 MSTORE SWAP1 MLOAD PUSH1 0x1 PUSH1 0x1 PUSH1 0xA0 SHL SUB SWAP1 SWAP3 AND SWAP2 DUP3 SWAP2 PUSH4 0xFFF6CAE9 SWAP2 PUSH1 0x4 DUP1 DUP4 ADD SWAP3 PUSH1 0x0 SWAP3 SWAP2 SWAP1 DUP3 SWAP1 SUB ADD DUP2 DUP4 DUP8 DUP1 EXTCODESIZE ISZERO DUP1 ISZERO PUSH2 0x2720 JUMPI PUSH1 0x0 DUP1 REVERT JUMPDEST POP GAS CALL ISZERO DUP1 ISZERO PUSH2 0x2734 JUMPI RETURNDATASIZE PUSH1 0x0 DUP1 RETURNDATACOPY RETURNDATASIZE PUSH1 0x0 REVERT JUMPDEST POP POP PUSH1 0x40 MLOAD PUSH32 0x8462566617872A3FBAB94534675218431FF9E204063EE3F4F43D965626A39ABB SWAP3 POP PUSH1 0x0 SWAP2 POP LOG1 POP PUSH1 0x1 SWAP5 SWAP4 POP POP POP POP JUMP JUMPDEST PUSH1 0x0 PUSH2 0x2776 PUSH2 0x328A JUMP JUMPDEST DUP3 SGT ISZERO PUSH2 0x2793 JUMPI PUSH4 0x4E487B71 PUSH1 0xE0 SHL PUSH1 0x0 MSTORE PUSH1 0x1 PUSH1 0x4 MSTORE PUSH1 0x24 PUSH1 0x0 REVERT JUMPDEST PUSH2 0x279B PUSH2 0x32A4 JUMP JUMPDEST DUP3 SLT ISZERO PUSH2 0x27B8 JUMPI PUSH4 0x4E487B71 PUSH1 0xE0 SHL PUSH1 0x0 MSTORE PUSH1 0x1 PUSH1 0x4 MSTORE PUSH1 0x24 PUSH1 0x0 REVERT JUMPDEST PUSH2 0x27C0 PUSH2 0x32BF JUMP JUMPDEST PUSH2 0x101F SWAP1 DUP4 PUSH2 0x431B JUMP JUMPDEST PUSH1 0x0 PUSH2 0x27D4 PUSH2 0x328A JUMP JUMPDEST DUP4 SGT ISZERO PUSH2 0x27F1 JUMPI PUSH4 0x4E487B71 PUSH1 0xE0 SHL PUSH1 0x0 MSTORE PUSH1 0x1 PUSH1 0x4 MSTORE PUSH1 0x24 PUSH1 0x0 REVERT JUMPDEST PUSH2 0x27F9 PUSH2 0x328A JUMP JUMPDEST DUP3 SGT ISZERO PUSH2 0x2816 JUMPI PUSH4 0x4E487B71 PUSH1 0xE0 SHL PUSH1 0x0 MSTORE PUSH1 0x1 PUSH1 0x4 MSTORE PUSH1 0x24 PUSH1 0x0 REVERT JUMPDEST DUP2 PUSH2 0x2831 JUMPI PUSH4 0x4E487B71 PUSH1 0xE0 SHL PUSH1 0x0 MSTORE PUSH1 0x1 PUSH1 0x4 MSTORE PUSH1 0x24 PUSH1 0x0 REVERT JUMPDEST PUSH1 0x0 PUSH2 0x283C DUP5 PUSH2 0x276C JUMP JUMPDEST SWAP1 POP PUSH1 0x0 PUSH2 0x2849 DUP5 PUSH2 0x276C JUMP JUMPDEST SWAP1 POP PUSH2 0x2855 DUP3 DUP3 PUSH2 0x32CD JUMP JUMPDEST SWAP6 SWAP5 POP POP POP POP POP JUMP JUMPDEST PUSH1 0x0 DUP3 ISZERO DUP1 PUSH2 0x286B JUMPI POP DUP2 ISZERO JUMPDEST ISZERO PUSH2 0x2878 JUMPI POP PUSH1 0x0 PUSH2 0x101F JUMP JUMPDEST PUSH2 0x2880 PUSH2 0x32BF JUMP JUMPDEST DUP3 EQ ISZERO PUSH2 0x288E JUMPI POP DUP2 PUSH2 0x101F JUMP JUMPDEST PUSH2 0x2896 PUSH2 0x32BF JUMP JUMPDEST DUP4 EQ ISZERO PUSH2 0x28A4 JUMPI POP DUP1 PUSH2 0x101F JUMP JUMPDEST PUSH1 0x0 PUSH2 0x28AE PUSH2 0x32BF JUMP JUMPDEST PUSH2 0x28B7 DUP6 PUSH2 0x3337 JUMP JUMPDEST PUSH2 0x28C1 SWAP2 SWAP1 PUSH2 0x42D9 JUMP JUMPDEST SWAP1 POP PUSH1 0x0 PUSH2 0x28CE DUP6 PUSH2 0x335D JUMP JUMPDEST SWAP1 POP PUSH1 0x0 PUSH2 0x28DA PUSH2 0x32BF JUMP JUMPDEST PUSH2 0x28E3 DUP7 PUSH2 0x3337 JUMP JUMPDEST PUSH2 0x28ED SWAP2 SWAP1 PUSH2 0x42D9 JUMP JUMPDEST SWAP1 POP PUSH1 0x0 PUSH2 0x28FA DUP7 PUSH2 0x335D JUMP JUMPDEST SWAP1 POP PUSH1 0x0 PUSH2 0x2908 DUP4 DUP7 PUSH2 0x431B JUMP JUMPDEST SWAP1 POP DUP5 ISZERO PUSH2 0x2936 JUMPI DUP3 PUSH2 0x291B DUP7 DUP4 PUSH2 0x42D9 JUMP JUMPDEST EQ PUSH2 0x2936 JUMPI PUSH4 0x4E487B71 PUSH1 0xE0 SHL PUSH1 0x0 MSTORE PUSH1 0x1 PUSH1 0x4 MSTORE PUSH1 0x24 PUSH1 0x0 REVERT JUMPDEST PUSH1 0x0 PUSH2 0x2940 PUSH2 0x32BF JUMP JUMPDEST PUSH2 0x294A SWAP1 DUP4 PUSH2 0x431B JUMP JUMPDEST SWAP1 POP DUP2 ISZERO PUSH2 0x297F JUMPI PUSH2 0x295A PUSH2 0x32BF JUMP JUMPDEST PUSH2 0x2964 DUP4 DUP4 PUSH2 0x42D9 JUMP JUMPDEST EQ PUSH2 0x297F JUMPI PUSH4 0x4E487B71 PUSH1 0xE0 SHL PUSH1 0x0 MSTORE PUSH1 0x1 PUSH1 0x4 MSTORE PUSH1 0x24 PUSH1 0x0 REVERT JUMPDEST SWAP1 POP DUP1 PUSH1 0x0 PUSH2 0x298E DUP6 DUP8 PUSH2 0x431B JUMP JUMPDEST SWAP1 POP DUP6 ISZERO PUSH2 0x29BC JUMPI DUP5 PUSH2 0x29A1 DUP8 DUP4 PUSH2 0x42D9 JUMP JUMPDEST EQ PUSH2 0x29BC JUMPI PUSH4 0x4E487B71 PUSH1 0xE0 SHL PUSH1 0x0 MSTORE PUSH1 0x1 PUSH1 0x4 MSTORE PUSH1 0x24 PUSH1 0x0 REVERT JUMPDEST PUSH1 0x0 PUSH2 0x29C8 DUP6 DUP10 PUSH2 0x431B JUMP JUMPDEST SWAP1 POP DUP8 ISZERO PUSH2 0x29F6 JUMPI DUP5 PUSH2 0x29DB DUP10 DUP4 PUSH2 0x42D9 JUMP JUMPDEST EQ PUSH2 0x29F6 JUMPI PUSH4 0x4E487B71 PUSH1 0xE0 SHL PUSH1 0x0 MSTORE PUSH1 0x1 PUSH1 0x4 MSTORE PUSH1 0x24 PUSH1 0x0 REVERT JUMPDEST PUSH2 0x29FE PUSH2 0x338D JUMP JUMPDEST PUSH2 0x2A08 SWAP1 DUP9 PUSH2 0x42D9 JUMP JUMPDEST SWAP7 POP PUSH2 0x2A12 PUSH2 0x338D JUMP JUMPDEST PUSH2 0x2A1C SWAP1 DUP7 PUSH2 0x42D9 JUMP JUMPDEST SWAP5 POP PUSH1 0x0 PUSH2 0x2A2A DUP7 DUP10 PUSH2 0x431B JUMP JUMPDEST SWAP1 POP DUP8 ISZERO PUSH2 0x2A58 JUMPI DUP6 PUSH2 0x2A3D DUP10 DUP4 PUSH2 0x42D9 JUMP JUMPDEST EQ PUSH2 0x2A58 JUMPI PUSH4 0x4E487B71 PUSH1 0xE0 SHL PUSH1 0x0 MSTORE PUSH1 0x1 PUSH1 0x4 MSTORE PUSH1 0x24 PUSH1 0x0 REVERT JUMPDEST DUP5 PUSH2 0x2A63 DUP2 DUP6 PUSH2 0x2A8C JUMP JUMPDEST SWAP1 POP PUSH2 0x2A6F DUP2 DUP5 PUSH2 0x2A8C JUMP JUMPDEST SWAP1 POP PUSH2 0x2A7B DUP2 DUP4 PUSH2 0x2A8C JUMP JUMPDEST SWAP14 SWAP13 POP POP POP POP POP POP POP POP POP POP POP POP POP JUMP JUMPDEST PUSH1 0x0 DUP1 PUSH2 0x2A99 DUP4 DUP6 PUSH2 0x4280 JUMP JUMPDEST SWAP1 POP PUSH1 0x0 DUP5 SGT DUP1 ISZERO PUSH2 0x2AAB JUMPI POP PUSH1 0x0 DUP4 SGT JUMPDEST ISZERO PUSH2 0x2AD8 JUMPI DUP4 DUP2 SGT DUP1 ISZERO PUSH2 0x2ABE JUMPI POP DUP3 DUP2 SGT JUMPDEST PUSH2 0x2AD8 JUMPI PUSH4 0x4E487B71 PUSH1 0xE0 SHL PUSH1 0x0 MSTORE PUSH1 0x1 PUSH1 0x4 MSTORE PUSH1 0x24 PUSH1 0x0 REVERT JUMPDEST PUSH1 0x0 DUP5 SLT DUP1 ISZERO PUSH2 0x2AE8 JUMPI POP PUSH1 0x0 DUP4 SLT JUMPDEST ISZERO PUSH2 0x2B15 JUMPI DUP4 DUP2 SLT DUP1 ISZERO PUSH2 0x2AFB JUMPI POP DUP3 DUP2 SLT JUMPDEST PUSH2 0x2B15 JUMPI PUSH4 0x4E487B71 PUSH1 0xE0 SHL PUSH1 0x0 MSTORE PUSH1 0x1 PUSH1 0x4 MSTORE PUSH1 0x24 PUSH1 0x0 REVERT JUMPDEST SWAP4 SWAP3 POP POP POP JUMP JUMPDEST PUSH1 0x0 PUSH2 0x2B26 PUSH2 0x32BF JUMP JUMPDEST PUSH2 0x101F SWAP1 DUP4 PUSH2 0x42D9 JUMP JUMPDEST CALLER SWAP1 JUMP JUMPDEST PUSH1 0x1 PUSH1 0x1 PUSH1 0xA0 SHL SUB DUP4 AND PUSH2 0x2B5A JUMPI PUSH1 0x40 MLOAD PUSH3 0x461BCD PUSH1 0xE5 SHL DUP2 MSTORE PUSH1 0x4 ADD PUSH2 0x10F6 SWAP1 PUSH2 0x40EC JUMP JUMPDEST PUSH1 0x1 PUSH1 0x1 PUSH1 0xA0 SHL SUB DUP3 AND PUSH2 0x2B80 JUMPI PUSH1 0x40 MLOAD PUSH3 0x461BCD PUSH1 0xE5 SHL DUP2 MSTORE PUSH1 0x4 ADD PUSH2 0x10F6 SWAP1 PUSH2 0x3BAA JUMP JUMPDEST PUSH1 0x1 PUSH1 0x1 PUSH1 0xA0 SHL SUB DUP1 DUP5 AND PUSH1 0x0 DUP2 DUP2 MSTORE PUSH1 0xB PUSH1 0x20 SWAP1 DUP2 MSTORE PUSH1 0x40 DUP1 DUP4 KECCAK256 SWAP5 DUP8 AND DUP1 DUP5 MSTORE SWAP5 SWAP1 SWAP2 MSTORE SWAP1 DUP2 SWAP1 KECCAK256 DUP5 SWAP1 SSTORE MLOAD PUSH32 0x8C5BE1E5EBEC7D5BD14F71427D1E84F3DD0314C0F7B2291E5B200AC8C7C3B925 SWAP1 PUSH2 0x2BDB SWAP1 DUP6 SWAP1 PUSH2 0x4269 JUMP JUMPDEST PUSH1 0x40 MLOAD DUP1 SWAP2 SUB SWAP1 LOG3 POP POP POP JUMP JUMPDEST PUSH1 0x0 PUSH2 0x2BF3 DUP3 PUSH2 0x1A3D JUMP JUMPDEST ISZERO PUSH2 0x2BFD JUMPI PUSH1 0x0 DUP1 REVERT JUMPDEST PUSH2 0x2C06 DUP3 PUSH2 0x3396 JUMP JUMPDEST PUSH2 0x2C22 JUMPI PUSH1 0x40 MLOAD PUSH3 0x461BCD PUSH1 0xE5 SHL DUP2 MSTORE PUSH1 0x4 ADD PUSH2 0x10F6 SWAP1 PUSH2 0x3D4E JUMP JUMPDEST PUSH2 0x2C2B DUP3 PUSH2 0x33BB JUMP JUMPDEST PUSH2 0x2C47 JUMPI PUSH1 0x40 MLOAD PUSH3 0x461BCD PUSH1 0xE5 SHL DUP2 MSTORE PUSH1 0x4 ADD PUSH2 0x10F6 SWAP1 PUSH2 0x3D26 JUMP JUMPDEST POP PUSH1 0x1 PUSH1 0x1 PUSH1 0xA0 SHL SUB AND PUSH1 0x0 SWAP1 DUP2 MSTORE PUSH1 0xD PUSH1 0x20 SWAP1 DUP2 MSTORE PUSH1 0x40 DUP1 DUP4 KECCAK256 DUP1 SLOAD PUSH1 0xFF NOT AND PUSH1 0x1 SWAP1 DUP2 OR SWAP1 SWAP2 SSTORE PUSH1 0xE DUP4 MSTORE DUP2 DUP5 KECCAK256 DUP5 SWAP1 SSTORE PUSH1 0xF DUP4 MSTORE DUP2 DUP5 KECCAK256 DUP1 SLOAD PUSH1 0x1 PUSH1 0x1 PUSH1 0xA0 SHL SUB NOT AND SWAP1 SSTORE PUSH1 0xC DUP4 MSTORE DUP2 DUP5 KECCAK256 TIMESTAMP SWAP1 DUP2 SWAP1 SSTORE PUSH1 0x11 DUP5 MSTORE DUP3 DUP6 KECCAK256 SSTORE PUSH1 0xA DUP4 MSTORE DUP2 DUP5 KECCAK256 SLOAD PUSH1 0x12 SWAP1 SWAP4 MSTORE SWAP3 KECCAK256 SSTORE SWAP1 JUMP JUMPDEST PUSH1 0x1 PUSH1 0x1 PUSH1 0xA0 SHL SUB DUP4 AND PUSH2 0x2CDC JUMPI PUSH1 0x40 MLOAD PUSH3 0x461BCD PUSH1 0xE5 SHL DUP2 MSTORE PUSH1 0x4 ADD PUSH2 0x10F6 SWAP1 PUSH2 0x4072 JUMP JUMPDEST PUSH1 0x1 PUSH1 0x1 PUSH1 0xA0 SHL SUB DUP3 AND PUSH2 0x2D02 JUMPI PUSH1 0x40 MLOAD PUSH3 0x461BCD PUSH1 0xE5 SHL DUP2 MSTORE PUSH1 0x4 ADD PUSH2 0x10F6 SWAP1 PUSH2 0x3AEA JUMP JUMPDEST PUSH2 0x2D0B DUP4 PUSH2 0x1A3D JUMP JUMPDEST ISZERO PUSH2 0x2D28 JUMPI PUSH1 0x40 MLOAD PUSH3 0x461BCD PUSH1 0xE5 SHL DUP2 MSTORE PUSH1 0x4 ADD PUSH2 0x10F6 SWAP1 PUSH2 0x3EF4 JUMP JUMPDEST PUSH2 0x2D31 DUP4 PUSH2 0x33BB JUMP JUMPDEST PUSH2 0x2D4D JUMPI PUSH1 0x40 MLOAD PUSH3 0x461BCD PUSH1 0xE5 SHL DUP2 MSTORE PUSH1 0x4 ADD PUSH2 0x10F6 SWAP1 PUSH2 0x3D96 JUMP JUMPDEST PUSH1 0x1 PUSH1 0x1 PUSH1 0xA0 SHL SUB DUP4 AND PUSH1 0x0 SWAP1 DUP2 MSTORE PUSH1 0xA PUSH1 0x20 MSTORE PUSH1 0x40 SWAP1 KECCAK256 SLOAD DUP2 GT ISZERO PUSH2 0x2D85 JUMPI PUSH1 0x40 MLOAD PUSH3 0x461BCD PUSH1 0xE5 SHL DUP2 MSTORE PUSH1 0x4 ADD PUSH2 0x10F6 SWAP1 PUSH2 0x3CE0 JUMP JUMPDEST PUSH2 0x2D8E DUP3 PUSH2 0x1A3D JUMP JUMPDEST ISZERO PUSH2 0x2D9C JUMPI PUSH2 0x2D9C DUP3 PUSH2 0x1F1A JUMP JUMPDEST DUP1 PUSH2 0x2DA5 PUSH2 0x31D0 JUMP JUMPDEST ISZERO PUSH2 0x2DFE JUMPI PUSH1 0x0 PUSH2 0x2DB5 DUP4 PUSH2 0x342A JUMP JUMPDEST SWAP1 POP DUP1 ISZERO PUSH2 0x2DFC JUMPI PUSH2 0x2DC7 DUP2 DUP4 PUSH2 0x43FC JUMP JUMPDEST PUSH1 0x16 SLOAD PUSH1 0x1 PUSH1 0x1 PUSH1 0xA0 SHL SUB AND PUSH1 0x0 SWAP1 DUP2 MSTORE PUSH1 0xA PUSH1 0x20 MSTORE PUSH1 0x40 DUP2 KECCAK256 DUP1 SLOAD SWAP3 SWAP5 POP DUP4 SWAP3 SWAP1 SWAP2 SWAP1 PUSH2 0x2DF6 SWAP1 DUP5 SWAP1 PUSH2 0x42C1 JUMP JUMPDEST SWAP1 SWAP2 SSTORE POP POP JUMPDEST POP JUMPDEST PUSH1 0x1 PUSH1 0x1 PUSH1 0xA0 SHL SUB DUP5 AND PUSH1 0x0 SWAP1 DUP2 MSTORE PUSH1 0xA PUSH1 0x20 MSTORE PUSH1 0x40 DUP2 KECCAK256 DUP1 SLOAD DUP5 SWAP3 SWAP1 PUSH2 0x2E26 SWAP1 DUP5 SWAP1 PUSH2 0x43FC JUMP JUMPDEST SWAP1 SWAP2 SSTORE POP POP PUSH1 0x1 PUSH1 0x1 PUSH1 0xA0 SHL SUB DUP4 AND PUSH1 0x0 SWAP1 DUP2 MSTORE PUSH1 0xA PUSH1 0x20 MSTORE PUSH1 0x40 DUP2 KECCAK256 DUP1 SLOAD DUP4 SWAP3 SWAP1 PUSH2 0x2E53 SWAP1 DUP5 SWAP1 PUSH2 0x42C1 JUMP JUMPDEST SWAP3 POP POP DUP2 SWAP1 SSTORE POP DUP3 PUSH1 0x1 PUSH1 0x1 PUSH1 0xA0 SHL SUB AND DUP5 PUSH1 0x1 PUSH1 0x1 PUSH1 0xA0 SHL SUB AND PUSH32 0xDDF252AD1BE2C89B69C2B068FC378DAA952BA7F163C4A11628F55A4DF523B3EF DUP5 PUSH1 0x40 MLOAD PUSH2 0x2E9D SWAP2 SWAP1 PUSH2 0x4269 JUMP JUMPDEST PUSH1 0x40 MLOAD DUP1 SWAP2 SUB SWAP1 LOG3 POP POP POP POP JUMP JUMPDEST PUSH2 0x2EB4 DUP2 PUSH2 0x1A3D JUMP JUMPDEST PUSH2 0x2EBD JUMPI PUSH1 0x0 DUP1 REVERT JUMPDEST PUSH2 0x2EC6 DUP3 PUSH2 0x34B4 JUMP JUMPDEST PUSH2 0x2ECF DUP2 PUSH2 0x355D JUMP JUMPDEST PUSH2 0x2ED8 DUP2 PUSH2 0x35B8 JUMP JUMPDEST PUSH2 0x2EE2 DUP2 DUP4 PUSH2 0x35DE JUMP JUMPDEST PUSH2 0x1A0F PUSH2 0x3652 JUMP JUMPDEST PUSH2 0x2EF3 DUP3 PUSH2 0x1A3D JUMP JUMPDEST PUSH2 0x2EFC JUMPI PUSH1 0x0 DUP1 REVERT JUMPDEST DUP1 ISZERO PUSH2 0x2F0B JUMPI PUSH2 0x2F0B DUP3 PUSH2 0x1F1A JUMP JUMPDEST PUSH1 0x1 PUSH1 0x1 PUSH1 0xA0 SHL SUB DUP3 AND PUSH1 0x0 SWAP1 DUP2 MSTORE PUSH1 0x10 PUSH1 0x20 MSTORE PUSH1 0x40 SWAP1 KECCAK256 SLOAD ISZERO PUSH2 0x2F3A JUMPI PUSH2 0x2F32 DUP3 PUSH2 0x355D JUMP JUMPDEST PUSH2 0x2F3A PUSH2 0x3652 JUMP JUMPDEST POP PUSH1 0x1 PUSH1 0x1 PUSH1 0xA0 SHL SUB AND PUSH1 0x0 SWAP1 DUP2 MSTORE PUSH1 0xD PUSH1 0x20 SWAP1 DUP2 MSTORE PUSH1 0x40 DUP1 DUP4 KECCAK256 DUP1 SLOAD PUSH1 0xFF NOT AND SWAP1 SSTORE PUSH1 0xF DUP3 MSTORE DUP1 DUP4 KECCAK256 DUP1 SLOAD PUSH1 0x1 PUSH1 0x1 PUSH1 0xA0 SHL SUB NOT AND SWAP1 SSTORE PUSH1 0x10 DUP3 MSTORE DUP1 DUP4 KECCAK256 DUP4 SWAP1 SSTORE PUSH1 0xC DUP3 MSTORE DUP1 DUP4 KECCAK256 DUP4 SWAP1 SSTORE PUSH1 0x11 DUP3 MSTORE DUP1 DUP4 KECCAK256 DUP4 SWAP1 SSTORE PUSH1 0x12 DUP3 MSTORE DUP1 DUP4 KECCAK256 DUP4 SWAP1 SSTORE PUSH1 0xE SWAP1 SWAP2 MSTORE SWAP1 KECCAK256 TIMESTAMP SWAP1 SSTORE JUMP JUMPDEST PUSH1 0x1 PUSH1 0x1 PUSH1 0xA0 SHL SUB DUP2 AND PUSH1 0x0 SWAP1 DUP2 MSTORE PUSH1 0xC PUSH1 0x20 MSTORE PUSH1 0x40 DUP2 KECCAK256 SLOAD PUSH2 0x101F SWAP1 TIMESTAMP PUSH2 0x43FC JUMP JUMPDEST PUSH1 0x1 PUSH1 0x1 PUSH1 0xA0 SHL SUB DUP3 AND PUSH1 0x0 DUP2 DUP2 MSTORE PUSH1 0x3B PUSH1 0x20 MSTORE PUSH1 0x40 DUP1 DUP3 KECCAK256 DUP1 SLOAD PUSH1 0xFF NOT AND DUP6 ISZERO ISZERO SWAP1 DUP2 OR SWAP1 SWAP2 SSTORE SWAP1 MLOAD SWAP1 SWAP3 SWAP2 PUSH32 0xFFA9187BF1F18BF477BD0EA1BCBB64E93B6A98132473929EDFCE215CD9B16FAB SWAP2 LOG3 POP POP JUMP JUMPDEST PUSH1 0x7 SLOAD TIMESTAMP LT PUSH2 0x302B JUMPI PUSH1 0x0 DUP1 REVERT JUMPDEST PUSH2 0x3034 DUP3 PUSH2 0x1A3D JUMP JUMPDEST ISZERO PUSH2 0x3051 JUMPI PUSH1 0x40 MLOAD PUSH3 0x461BCD PUSH1 0xE5 SHL DUP2 MSTORE PUSH1 0x4 ADD PUSH2 0x10F6 SWAP1 PUSH2 0x419E JUMP JUMPDEST PUSH1 0x5 SLOAD PUSH1 0x6 SLOAD PUSH1 0x40 MLOAD PUSH4 0x23B872DD PUSH1 0xE0 SHL DUP2 MSTORE PUSH1 0x1 PUSH1 0x1 PUSH1 0xA0 SHL SUB SWAP3 DUP4 AND SWAP3 PUSH4 0x23B872DD SWAP3 PUSH2 0x308A SWAP3 DUP8 SWAP3 SWAP1 SWAP2 AND SWAP1 DUP7 SWAP1 PUSH1 0x4 ADD PUSH2 0x3A4F JUMP JUMPDEST PUSH1 0x20 PUSH1 0x40 MLOAD DUP1 DUP4 SUB DUP2 PUSH1 0x0 DUP8 DUP1 EXTCODESIZE ISZERO DUP1 ISZERO PUSH2 0x30A4 JUMPI PUSH1 0x0 DUP1 REVERT JUMPDEST POP GAS CALL ISZERO DUP1 ISZERO PUSH2 0x30B8 JUMPI RETURNDATASIZE PUSH1 0x0 DUP1 RETURNDATACOPY RETURNDATASIZE PUSH1 0x0 REVERT JUMPDEST POP POP POP POP PUSH1 0x40 MLOAD RETURNDATASIZE PUSH1 0x1F NOT PUSH1 0x1F DUP3 ADD AND DUP3 ADD DUP1 PUSH1 0x40 MSTORE POP DUP2 ADD SWAP1 PUSH2 0x30DC SWAP2 SWAP1 PUSH2 0x394B JUMP JUMPDEST POP PUSH1 0x6 SLOAD PUSH1 0x40 MLOAD PUSH4 0x6039FBDB PUSH1 0xE0 SHL DUP2 MSTORE PUSH1 0x1 PUSH1 0x1 PUSH1 0xA0 SHL SUB SWAP1 SWAP2 AND SWAP1 PUSH4 0x6039FBDB SWAP1 PUSH2 0x310F SWAP1 DUP6 SWAP1 DUP6 SWAP1 PUSH1 0x4 ADD PUSH2 0x3A73 JUMP JUMPDEST PUSH1 0x0 PUSH1 0x40 MLOAD DUP1 DUP4 SUB DUP2 PUSH1 0x0 DUP8 DUP1 EXTCODESIZE ISZERO DUP1 ISZERO PUSH2 0x3129 JUMPI PUSH1 0x0 DUP1 REVERT JUMPDEST POP GAS CALL ISZERO DUP1 ISZERO PUSH2 0x313D JUMPI RETURNDATASIZE PUSH1 0x0 DUP1 RETURNDATACOPY RETURNDATASIZE PUSH1 0x0 REVERT JUMPDEST POP POP POP POP PUSH1 0x1 PUSH1 0x1 PUSH1 0xA0 SHL SUB DUP3 AND PUSH1 0x0 SWAP1 DUP2 MSTORE PUSH1 0xA PUSH1 0x20 MSTORE PUSH1 0x40 DUP2 KECCAK256 DUP1 SLOAD DUP4 SWAP3 SWAP1 PUSH2 0x3169 SWAP1 DUP5 SWAP1 PUSH2 0x42C1 JUMP JUMPDEST SWAP3 POP POP DUP2 SWAP1 SSTORE POP DUP1 PUSH1 0x0 DUP1 DUP3 DUP3 SLOAD PUSH2 0x3181 SWAP2 SWAP1 PUSH2 0x42C1 JUMP JUMPDEST SWAP1 SWAP2 SSTORE POP POP PUSH1 0x40 MLOAD PUSH1 0x1 PUSH1 0x1 PUSH1 0xA0 SHL SUB DUP4 AND SWAP1 PUSH1 0x0 SWAP1 PUSH32 0xDDF252AD1BE2C89B69C2B068FC378DAA952BA7F163C4A11628F55A4DF523B3EF SWAP1 PUSH2 0x31C4 SWAP1 DUP6 SWAP1 PUSH2 0x4269 JUMP JUMPDEST PUSH1 0x40 MLOAD DUP1 SWAP2 SUB SWAP1 LOG3 POP POP JUMP JUMPDEST PUSH1 0x16 SLOAD PUSH1 0x0 SWAP1 PUSH1 0x1 PUSH1 0x1 PUSH1 0xA0 SHL SUB AND ISZERO DUP1 ISZERO SWAP1 PUSH2 0x1272 JUMPI POP PUSH1 0x16 SLOAD PUSH2 0x31FD SWAP1 PUSH1 0x1 PUSH1 0x1 PUSH1 0xA0 SHL SUB AND PUSH2 0x1A3D JUMP JUMPDEST ISZERO SWAP1 POP SWAP1 JUMP JUMPDEST PUSH1 0x0 DUP3 PUSH2 0x3212 JUMPI POP PUSH1 0x0 PUSH2 0x101F JUMP JUMPDEST PUSH1 0x0 PUSH2 0x321E DUP4 DUP6 PUSH2 0x439E JUMP JUMPDEST SWAP1 POP DUP3 PUSH2 0x322B DUP6 DUP4 PUSH2 0x4307 JUMP JUMPDEST EQ PUSH2 0x2B15 JUMPI PUSH1 0x40 MLOAD PUSH3 0x461BCD PUSH1 0xE5 SHL DUP2 MSTORE PUSH1 0x4 ADD PUSH2 0x10F6 SWAP1 PUSH2 0x3F41 JUMP JUMPDEST PUSH1 0x0 PUSH2 0x2B15 DUP4 DUP4 PUSH1 0x40 MLOAD DUP1 PUSH1 0x40 ADD PUSH1 0x40 MSTORE DUP1 PUSH1 0x1A DUP2 MSTORE PUSH1 0x20 ADD PUSH32 0x536166654D6174683A206469766973696F6E206279207A65726F000000000000 DUP2 MSTORE POP PUSH2 0x3759 JUMP JUMPDEST PUSH22 0x9ABE14CD44753B52C4926A9672793542D78C3615CF3A SWAP1 JUMP JUMPDEST PUSH22 0x9ABE14CD44753B52C4926A9672793542D78C3615CF39 NOT SWAP1 JUMP JUMPDEST PUSH10 0xD3C21BCECCEDA1000000 SWAP1 JUMP JUMPDEST PUSH1 0x0 PUSH2 0x32D7 PUSH2 0x32BF JUMP JUMPDEST DUP3 EQ ISZERO PUSH2 0x32E5 JUMPI POP DUP2 PUSH2 0x101F JUMP JUMPDEST DUP2 PUSH2 0x3300 JUMPI PUSH4 0x4E487B71 PUSH1 0xE0 SHL PUSH1 0x0 MSTORE PUSH1 0x1 PUSH1 0x4 MSTORE PUSH1 0x24 PUSH1 0x0 REVERT JUMPDEST PUSH2 0x3308 PUSH2 0x3787 JUMP JUMPDEST DUP3 SGT ISZERO PUSH2 0x3325 JUMPI PUSH4 0x4E487B71 PUSH1 0xE0 SHL PUSH1 0x0 MSTORE PUSH1 0x1 PUSH1 0x4 MSTORE PUSH1 0x24 PUSH1 0x0 REVERT JUMPDEST PUSH2 0x2B15 DUP4 PUSH2 0x3332 DUP5 PUSH2 0x379F JUMP JUMPDEST PUSH2 0x285E JUMP JUMPDEST PUSH1 0x0 PUSH2 0x3341 PUSH2 0x32BF JUMP JUMPDEST PUSH2 0x3349 PUSH2 0x32BF JUMP JUMPDEST PUSH2 0x3353 SWAP1 DUP5 PUSH2 0x42D9 JUMP JUMPDEST PUSH2 0x101F SWAP2 SWAP1 PUSH2 0x431B JUMP JUMPDEST PUSH1 0x0 PUSH2 0x3367 PUSH2 0x32BF JUMP JUMPDEST PUSH2 0x336F PUSH2 0x32BF JUMP JUMPDEST PUSH2 0x3379 SWAP1 DUP5 PUSH2 0x42D9 JUMP JUMPDEST PUSH2 0x3383 SWAP2 SWAP1 PUSH2 0x431B JUMP JUMPDEST PUSH2 0x101F SWAP1 DUP4 PUSH2 0x43BD JUMP JUMPDEST PUSH5 0xE8D4A51000 SWAP1 JUMP JUMPDEST PUSH1 0x1 PUSH1 0x1 PUSH1 0xA0 SHL SUB AND PUSH1 0x0 SWAP1 DUP2 MSTORE PUSH1 0xA PUSH1 0x20 MSTORE PUSH1 0x40 SWAP1 KECCAK256 SLOAD PUSH7 0x2386F26FC10000 GT ISZERO SWAP1 JUMP JUMPDEST PUSH1 0x1 PUSH1 0x1 PUSH1 0xA0 SHL SUB DUP2 AND PUSH1 0x0 SWAP1 DUP2 MSTORE PUSH1 0xE PUSH1 0x20 MSTORE PUSH1 0x40 DUP2 KECCAK256 SLOAD DUP1 PUSH2 0x33E3 JUMPI PUSH1 0x1 SWAP2 POP POP PUSH2 0x16C4 JUMP JUMPDEST PUSH1 0x0 PUSH2 0x33F2 DUP3 PUSH3 0x69780 PUSH2 0x42C1 JUMP JUMPDEST SWAP1 POP DUP1 TIMESTAMP GT ISZERO PUSH2 0x341F JUMPI POP POP POP PUSH1 0x1 PUSH1 0x1 PUSH1 0xA0 SHL SUB DUP2 AND PUSH1 0x0 SWAP1 DUP2 MSTORE PUSH1 0xE PUSH1 0x20 MSTORE PUSH1 0x40 DUP2 KECCAK256 SSTORE PUSH1 0x1 PUSH2 0x16C4 JUMP JUMPDEST PUSH1 0x0 SWAP3 POP POP POP PUSH2 0x16C4 JUMP JUMPDEST PUSH1 0x0 DUP1 PUSH1 0x4 SLOAD TIMESTAMP PUSH2 0x343B SWAP2 SWAP1 PUSH2 0x43FC JUMP JUMPDEST SWAP1 POP PUSH4 0x1E13380 DUP2 GT ISZERO PUSH2 0x3453 JUMPI PUSH1 0x0 SWAP2 POP POP PUSH2 0x16C4 JUMP JUMPDEST PUSH4 0x168E6A0 DUP2 GT ISZERO PUSH2 0x346B JUMPI PUSH2 0x1B00 PUSH2 0x190 DUP5 PUSH2 0x4307 JUMP JUMPDEST PUSH3 0xF099C0 DUP2 GT ISZERO PUSH2 0x3481 JUMPI PUSH2 0x1B00 PUSH1 0xC8 DUP5 PUSH2 0x4307 JUMP JUMPDEST PUSH3 0x784CE0 DUP2 GT ISZERO PUSH2 0x34A3 JUMPI PUSH2 0x3498 PUSH2 0x190 DUP5 PUSH2 0x4307 JUMP JUMPDEST PUSH2 0x1B00 SWAP1 PUSH1 0x3 PUSH2 0x439E JUMP JUMPDEST PUSH2 0x1B00 PUSH1 0x64 DUP5 PUSH2 0x4307 JUMP JUMPDEST POP SWAP2 SWAP1 POP JUMP JUMPDEST PUSH1 0x1 PUSH1 0x1 PUSH1 0xA0 SHL SUB DUP2 AND PUSH1 0x0 SWAP1 DUP2 MSTORE PUSH1 0x15 PUSH1 0x20 MSTORE PUSH1 0x40 SWAP1 KECCAK256 SLOAD PUSH1 0xFF AND PUSH2 0x14D8 JUMPI PUSH1 0x14 SLOAD PUSH1 0xC GT PUSH2 0x34F6 JUMPI PUSH1 0x40 MLOAD PUSH3 0x461BCD PUSH1 0xE5 SHL DUP2 MSTORE PUSH1 0x4 ADD PUSH2 0x10F6 SWAP1 PUSH2 0x4130 JUMP JUMPDEST PUSH1 0x14 DUP1 SLOAD PUSH1 0x1 DUP2 DUP2 ADD SWAP1 SWAP3 SSTORE PUSH32 0xCE6D7B5282BD9A3661AE061FEED1DBDA4E52AB073B1F9285BE6E155D9C38D4EC ADD DUP1 SLOAD PUSH1 0x1 PUSH1 0x1 PUSH1 0xA0 SHL SUB DUP5 AND PUSH1 0x1 PUSH1 0x1 PUSH1 0xA0 SHL SUB NOT SWAP1 SWAP2 AND DUP2 OR SWAP1 SWAP2 SSTORE PUSH1 0x0 SWAP1 DUP2 MSTORE PUSH1 0x15 PUSH1 0x20 MSTORE PUSH1 0x40 SWAP1 KECCAK256 DUP1 SLOAD PUSH1 0xFF NOT AND SWAP1 SWAP2 OR SWAP1 SSTORE POP JUMP JUMPDEST PUSH1 0x1 PUSH1 0x1 PUSH1 0xA0 SHL SUB DUP1 DUP3 AND PUSH1 0x0 SWAP1 DUP2 MSTORE PUSH1 0xF PUSH1 0x20 SWAP1 DUP2 MSTORE PUSH1 0x40 DUP1 DUP4 KECCAK256 SLOAD PUSH1 0x10 DUP4 MSTORE DUP2 DUP5 KECCAK256 SLOAD SWAP5 AND DUP1 DUP5 MSTORE PUSH1 0x13 SWAP1 SWAP3 MSTORE SWAP1 SWAP2 KECCAK256 SLOAD SWAP1 SWAP2 PUSH2 0x359B SWAP2 PUSH2 0x43FC JUMP JUMPDEST PUSH1 0x1 PUSH1 0x1 PUSH1 0xA0 SHL SUB SWAP1 SWAP2 AND PUSH1 0x0 SWAP1 DUP2 MSTORE PUSH1 0x13 PUSH1 0x20 MSTORE PUSH1 0x40 SWAP1 KECCAK256 SSTORE POP JUMP JUMPDEST PUSH1 0x1 PUSH1 0x1 PUSH1 0xA0 SHL SUB AND PUSH1 0x0 SWAP1 DUP2 MSTORE PUSH1 0xA PUSH1 0x20 SWAP1 DUP2 MSTORE PUSH1 0x40 DUP1 DUP4 KECCAK256 SLOAD PUSH1 0x10 SWAP1 SWAP3 MSTORE SWAP1 SWAP2 KECCAK256 SSTORE JUMP JUMPDEST PUSH1 0x1 PUSH1 0x1 PUSH1 0xA0 SHL SUB DUP1 DUP4 AND PUSH1 0x0 SWAP1 DUP2 MSTORE PUSH1 0x10 PUSH1 0x20 SWAP1 DUP2 MSTORE PUSH1 0x40 DUP1 DUP4 KECCAK256 SLOAD SWAP4 DUP6 AND DUP4 MSTORE PUSH1 0x13 SWAP1 SWAP2 MSTORE SWAP1 KECCAK256 SLOAD PUSH2 0x3612 SWAP2 SWAP1 PUSH2 0x42C1 JUMP JUMPDEST PUSH1 0x1 PUSH1 0x1 PUSH1 0xA0 SHL SUB SWAP2 DUP3 AND PUSH1 0x0 DUP2 DUP2 MSTORE PUSH1 0x13 PUSH1 0x20 SWAP1 DUP2 MSTORE PUSH1 0x40 DUP1 DUP4 KECCAK256 SWAP5 SWAP1 SWAP5 SSTORE SWAP5 SWAP1 SWAP4 AND DUP4 MSTORE PUSH1 0xF SWAP1 SWAP4 MSTORE SWAP1 KECCAK256 DUP1 SLOAD PUSH1 0x1 PUSH1 0x1 PUSH1 0xA0 SHL SUB NOT AND SWAP1 SWAP2 OR SWAP1 SSTORE JUMP JUMPDEST PUSH1 0x0 DUP1 PUSH1 0x0 JUMPDEST PUSH1 0x14 SLOAD DUP2 LT ISZERO PUSH2 0x36D1 JUMPI PUSH1 0x0 PUSH1 0x14 DUP3 DUP2 SLOAD DUP2 LT PUSH2 0x3685 JUMPI PUSH4 0x4E487B71 PUSH1 0xE0 SHL PUSH1 0x0 MSTORE PUSH1 0x32 PUSH1 0x4 MSTORE PUSH1 0x24 PUSH1 0x0 REVERT JUMPDEST PUSH1 0x0 SWAP2 DUP3 MSTORE PUSH1 0x20 DUP1 DUP4 KECCAK256 SWAP1 SWAP2 ADD SLOAD PUSH1 0x1 PUSH1 0x1 PUSH1 0xA0 SHL SUB AND DUP1 DUP4 MSTORE PUSH1 0x13 SWAP1 SWAP2 MSTORE PUSH1 0x40 SWAP1 SWAP2 KECCAK256 SLOAD SWAP1 SWAP2 POP DUP5 DUP2 GT ISZERO PUSH2 0x36BC JUMPI DUP1 SWAP5 POP DUP2 SWAP4 POP JUMPDEST POP POP DUP1 DUP1 PUSH2 0x36C9 SWAP1 PUSH2 0x445F JUMP JUMPDEST SWAP2 POP POP PUSH2 0x3658 JUMP JUMPDEST POP PUSH1 0x16 SLOAD PUSH1 0x1 PUSH1 0x1 PUSH1 0xA0 SHL SUB DUP3 DUP2 AND SWAP2 AND EQ ISZERO PUSH2 0x36EF JUMPI POP POP PUSH2 0x1A6D JUMP JUMPDEST PUSH1 0x16 SLOAD PUSH1 0x40 MLOAD PUSH32 0x4611BA562B1BE5E5BAF710C558258FE11B3EEB5D1D1358F3DBFCED2E3B1C24E SWAP2 PUSH2 0x372E SWAP2 PUSH1 0x1 PUSH1 0x1 PUSH1 0xA0 SHL SUB SWAP1 SWAP2 AND SWAP1 DUP5 SWAP1 PUSH2 0x3A35 JUMP JUMPDEST PUSH1 0x40 MLOAD DUP1 SWAP2 SUB SWAP1 LOG1 PUSH1 0x16 DUP1 SLOAD PUSH1 0x1 PUSH1 0x1 PUSH1 0xA0 SHL SUB NOT AND PUSH1 0x1 PUSH1 0x1 PUSH1 0xA0 SHL SUB SWAP3 SWAP1 SWAP3 AND SWAP2 SWAP1 SWAP2 OR SWAP1 SSTORE POP JUMP JUMPDEST PUSH1 0x0 DUP2 DUP4 PUSH2 0x377A JUMPI PUSH1 0x40 MLOAD PUSH3 0x461BCD PUSH1 0xE5 SHL DUP2 MSTORE PUSH1 0x4 ADD PUSH2 0x10F6 SWAP2 SWAP1 PUSH2 0x3A97 JUMP JUMPDEST POP PUSH1 0x0 PUSH2 0x2855 DUP5 DUP7 PUSH2 0x4307 JUMP JUMPDEST PUSH20 0xAF298D050E4395D69670B12B7F41000000000000 SWAP1 JUMP JUMPDEST PUSH1 0x0 DUP2 PUSH2 0x37BC JUMPI PUSH4 0x4E487B71 PUSH1 0xE0 SHL PUSH1 0x0 MSTORE PUSH1 0x1 PUSH1 0x4 MSTORE PUSH1 0x24 PUSH1 0x0 REVERT JUMPDEST DUP2 PUSH2 0x37C5 PUSH2 0x32BF JUMP JUMPDEST PUSH2 0x37CD PUSH2 0x32BF JUMP JUMPDEST PUSH2 0x37D7 SWAP2 SWAP1 PUSH2 0x431B JUMP JUMPDEST PUSH2 0x101F SWAP2 SWAP1 PUSH2 0x42D9 JUMP JUMPDEST PUSH1 0x40 MLOAD DUP1 PUSH2 0x180 ADD PUSH1 0x40 MSTORE DUP1 PUSH1 0xC SWAP1 PUSH1 0x20 DUP3 MUL DUP1 CALLDATASIZE DUP4 CALLDATACOPY POP SWAP2 SWAP3 SWAP2 POP POP JUMP JUMPDEST POP DUP1 SLOAD PUSH1 0x0 DUP3 SSTORE SWAP1 PUSH1 0x0 MSTORE PUSH1 0x20 PUSH1 0x0 KECCAK256 SWAP1 DUP2 ADD SWAP1 PUSH2 0x14D8 SWAP2 SWAP1 JUMPDEST DUP1 DUP3 GT ISZERO PUSH2 0x382E JUMPI PUSH1 0x0 DUP2 SSTORE PUSH1 0x1 ADD PUSH2 0x381A JUMP JUMPDEST POP SWAP1 JUMP JUMPDEST DUP1 CALLDATALOAD PUSH1 0x1 PUSH1 0x1 PUSH1 0xA0 SHL SUB DUP2 AND DUP2 EQ PUSH2 0x16C4 JUMPI PUSH1 0x0 DUP1 REVERT JUMPDEST PUSH1 0x0 PUSH1 0x20 DUP3 DUP5 SUB SLT ISZERO PUSH2 0x385A JUMPI DUP1 DUP2 REVERT JUMPDEST PUSH2 0x2B15 DUP3 PUSH2 0x3832 JUMP JUMPDEST PUSH1 0x0 DUP1 PUSH1 0x40 DUP4 DUP6 SUB SLT ISZERO PUSH2 0x3875 JUMPI DUP1 DUP2 REVERT JUMPDEST PUSH2 0x387E DUP4 PUSH2 0x3832 JUMP JUMPDEST SWAP2 POP PUSH2 0x388C PUSH1 0x20 DUP5 ADD PUSH2 0x3832 JUMP JUMPDEST SWAP1 POP SWAP3 POP SWAP3 SWAP1 POP JUMP JUMPDEST PUSH1 0x0 DUP1 PUSH1 0x0 PUSH1 0x60 DUP5 DUP7 SUB SLT ISZERO PUSH2 0x38A9 JUMPI DUP1 DUP2 REVERT JUMPDEST PUSH2 0x38B2 DUP5 PUSH2 0x3832 JUMP JUMPDEST SWAP3 POP PUSH2 0x38C0 PUSH1 0x20 DUP6 ADD PUSH2 0x3832 JUMP JUMPDEST SWAP2 POP PUSH1 0x40 DUP5 ADD CALLDATALOAD SWAP1 POP SWAP3 POP SWAP3 POP SWAP3 JUMP JUMPDEST PUSH1 0x0 DUP1 PUSH1 0x40 DUP4 DUP6 SUB SLT ISZERO PUSH2 0x38E2 JUMPI DUP2 DUP3 REVERT JUMPDEST PUSH2 0x38EB DUP4 PUSH2 0x3832 JUMP JUMPDEST SWAP2 POP PUSH1 0x20 DUP4 ADD CALLDATALOAD PUSH2 0x38FB DUP2 PUSH2 0x44BA JUMP JUMPDEST DUP1 SWAP2 POP POP SWAP3 POP SWAP3 SWAP1 POP JUMP JUMPDEST PUSH1 0x0 DUP1 PUSH1 0x40 DUP4 DUP6 SUB SLT ISZERO PUSH2 0x3918 JUMPI DUP2 DUP3 REVERT JUMPDEST PUSH2 0x3921 DUP4 PUSH2 0x3832 JUMP JUMPDEST SWAP5 PUSH1 0x20 SWAP4 SWAP1 SWAP4 ADD CALLDATALOAD SWAP4 POP POP POP JUMP JUMPDEST PUSH1 0x0 PUSH1 0x20 DUP3 DUP5 SUB SLT ISZERO PUSH2 0x3940 JUMPI DUP1 DUP2 REVERT JUMPDEST DUP2 CALLDATALOAD PUSH2 0x2B15 DUP2 PUSH2 0x44BA JUMP JUMPDEST PUSH1 0x0 PUSH1 0x20 DUP3 DUP5 SUB SLT ISZERO PUSH2 0x395C JUMPI DUP1 DUP2 REVERT JUMPDEST DUP2 MLOAD PUSH2 0x2B15 DUP2 PUSH2 0x44BA JUMP JUMPDEST PUSH1 0x0 PUSH1 0x20 DUP3 DUP5 SUB SLT ISZERO PUSH2 0x3978 JUMPI DUP1 DUP2 REVERT JUMPDEST POP CALLDATALOAD SWAP2 SWAP1 POP JUMP JUMPDEST PUSH1 0x0 PUSH1 0x20 DUP3 DUP5 SUB SLT ISZERO PUSH2 0x3990 JUMPI DUP1 DUP2 REVERT JUMPDEST POP MLOAD SWAP2 SWAP1 POP JUMP JUMPDEST PUSH1 0x0 DUP1 PUSH1 0x40 DUP4 DUP6 SUB SLT ISZERO PUSH2 0x39A9 JUMPI DUP2 DUP3 REVERT JUMPDEST POP POP DUP1 CALLDATALOAD SWAP3 PUSH1 0x20 SWAP1 SWAP2 ADD CALLDATALOAD SWAP2 POP JUMP JUMPDEST PUSH1 0x0 DUP1 PUSH1 0x0 PUSH1 0x60 DUP5 DUP7 SUB SLT ISZERO PUSH2 0x39CC JUMPI DUP3 DUP4 REVERT JUMPDEST DUP4 CALLDATALOAD SWAP3 POP PUSH1 0x20 DUP5 ADD CALLDATALOAD SWAP2 POP PUSH1 0x40 DUP5 ADD CALLDATALOAD PUSH2 0x39E5 DUP2 PUSH2 0x44BA JUMP JUMPDEST DUP1 SWAP2 POP POP SWAP3 POP SWAP3 POP SWAP3 JUMP JUMPDEST PUSH1 0x0 DUP1 PUSH1 0x0 DUP1 PUSH1 0x80 DUP6 DUP8 SUB SLT ISZERO PUSH2 0x3A05 JUMPI DUP1 DUP2 REVERT JUMPDEST POP POP DUP3 CALLDATALOAD SWAP5 PUSH1 0x20 DUP5 ADD CALLDATALOAD SWAP5 POP PUSH1 0x40 DUP5 ADD CALLDATALOAD SWAP4 PUSH1 0x60 ADD CALLDATALOAD SWAP3 POP SWAP1 POP JUMP JUMPDEST PUSH1 0x1 PUSH1 0x1 PUSH1 0xA0 SHL SUB SWAP2 SWAP1 SWAP2 AND DUP2 MSTORE PUSH1 0x20 ADD SWAP1 JUMP JUMPDEST PUSH1 0x1 PUSH1 0x1 PUSH1 0xA0 SHL SUB SWAP3 DUP4 AND DUP2 MSTORE SWAP2 AND PUSH1 0x20 DUP3 ADD MSTORE PUSH1 0x40 ADD SWAP1 JUMP JUMPDEST PUSH1 0x1 PUSH1 0x1 PUSH1 0xA0 SHL SUB SWAP4 DUP5 AND DUP2 MSTORE SWAP2 SWAP1 SWAP3 AND PUSH1 0x20 DUP3 ADD MSTORE PUSH1 0x40 DUP2 ADD SWAP2 SWAP1 SWAP2 MSTORE PUSH1 0x60 ADD SWAP1 JUMP JUMPDEST PUSH1 0x1 PUSH1 0x1 PUSH1 0xA0 SHL SUB SWAP3 SWAP1 SWAP3 AND DUP3 MSTORE PUSH1 0x20 DUP3 ADD MSTORE PUSH1 0x40 ADD SWAP1 JUMP JUMPDEST SWAP1 ISZERO ISZERO DUP2 MSTORE PUSH1 0x20 ADD SWAP1 JUMP JUMPDEST PUSH1 0x0 PUSH1 0x20 DUP1 DUP4 MSTORE DUP4 MLOAD DUP1 DUP3 DUP6 ADD MSTORE DUP3 JUMPDEST DUP2 DUP2 LT ISZERO PUSH2 0x3AC3 JUMPI DUP6 DUP2 ADD DUP4 ADD MLOAD DUP6 DUP3 ADD PUSH1 0x40 ADD MSTORE DUP3 ADD PUSH2 0x3AA7 JUMP JUMPDEST DUP2 DUP2 GT ISZERO PUSH2 0x3AD4 JUMPI DUP4 PUSH1 0x40 DUP4 DUP8 ADD ADD MSTORE JUMPDEST POP PUSH1 0x1F ADD PUSH1 0x1F NOT AND SWAP3 SWAP1 SWAP3 ADD PUSH1 0x40 ADD SWAP4 SWAP3 POP POP POP JUMP JUMPDEST PUSH1 0x20 DUP1 DUP3 MSTORE PUSH1 0x23 SWAP1 DUP3 ADD MSTORE PUSH32 0x45524332303A207472616E7366657220746F20746865207A65726F2061646472 PUSH1 0x40 DUP3 ADD MSTORE PUSH3 0x657373 PUSH1 0xE8 SHL PUSH1 0x60 DUP3 ADD MSTORE PUSH1 0x80 ADD SWAP1 JUMP JUMPDEST PUSH1 0x20 DUP1 DUP3 MSTORE PUSH1 0x18 SWAP1 DUP3 ADD MSTORE PUSH32 0x566F74696E67204974657261746F72206E6F742066756C6C0000000000000000 PUSH1 0x40 DUP3 ADD MSTORE PUSH1 0x60 ADD SWAP1 JUMP JUMPDEST PUSH1 0x20 DUP1 DUP3 MSTORE PUSH1 0x26 SWAP1 DUP3 ADD MSTORE PUSH32 0x4F776E61626C653A206E6577206F776E657220697320746865207A65726F2061 PUSH1 0x40 DUP3 ADD MSTORE PUSH6 0x646472657373 PUSH1 0xD0 SHL PUSH1 0x60 DUP3 ADD MSTORE PUSH1 0x80 ADD SWAP1 JUMP JUMPDEST PUSH1 0x20 DUP1 DUP3 MSTORE PUSH1 0x22 SWAP1 DUP3 ADD MSTORE PUSH32 0x45524332303A20617070726F766520746F20746865207A65726F206164647265 PUSH1 0x40 DUP3 ADD MSTORE PUSH2 0x7373 PUSH1 0xF0 SHL PUSH1 0x60 DUP3 ADD MSTORE PUSH1 0x80 ADD SWAP1 JUMP JUMPDEST PUSH1 0x20 DUP1 DUP3 MSTORE PUSH1 0x33 SWAP1 DUP3 ADD MSTORE PUSH32 0x63616E6E6F7420736574206275796261636B206D6F7265206F6674656E207468 PUSH1 0x40 DUP3 ADD MSTORE PUSH19 0x616E206576657279203130206D696E75746573 PUSH1 0x68 SHL PUSH1 0x60 DUP3 ADD MSTORE PUSH1 0x80 ADD SWAP1 JUMP JUMPDEST PUSH1 0x20 DUP1 DUP3 MSTORE PUSH1 0x24 SWAP1 DUP3 ADD MSTORE PUSH32 0x43616E6E6F7420736574206D617857616C6C6574206C6F776572207468616E20 PUSH1 0x40 DUP3 ADD MSTORE PUSH4 0x302E3525 PUSH1 0xE0 SHL PUSH1 0x60 DUP3 ADD MSTORE PUSH1 0x80 ADD SWAP1 JUMP JUMPDEST PUSH1 0x20 DUP1 DUP3 MSTORE PUSH1 0x39 SWAP1 DUP3 ADD MSTORE PUSH32 0x54686520706169722063616E6E6F742062652072656D6F7665642066726F6D20 PUSH1 0x40 DUP3 ADD MSTORE PUSH32 0x6175746F6D617465644D61726B65744D616B6572506169727300000000000000 PUSH1 0x60 DUP3 ADD MSTORE PUSH1 0x80 ADD SWAP1 JUMP JUMPDEST PUSH1 0x20 DUP1 DUP3 MSTORE PUSH1 0x26 SWAP1 DUP3 ADD MSTORE PUSH32 0x45524332303A207472616E7366657220616D6F756E7420657863656564732062 PUSH1 0x40 DUP3 ADD MSTORE PUSH6 0x616C616E6365 PUSH1 0xD0 SHL PUSH1 0x60 DUP3 ADD MSTORE PUSH1 0x80 ADD SWAP1 JUMP JUMPDEST PUSH1 0x20 DUP1 DUP3 MSTORE PUSH1 0xE SWAP1 DUP3 ADD MSTORE PUSH14 0x15D85B1B195D125CD31BD8DAD959 PUSH1 0x92 SHL PUSH1 0x40 DUP3 ADD MSTORE PUSH1 0x60 ADD SWAP1 JUMP JUMPDEST PUSH1 0x20 DUP1 DUP3 MSTORE PUSH1 0xB SWAP1 DUP3 ADD MSTORE PUSH11 0x496E7366636E74466E6473 PUSH1 0xA8 SHL PUSH1 0x40 DUP3 ADD MSTORE PUSH1 0x60 ADD SWAP1 JUMP JUMPDEST PUSH1 0x20 DUP1 DUP3 MSTORE PUSH1 0x9 SWAP1 DUP3 ADD MSTORE PUSH9 0x135CDD109954DD1AD9 PUSH1 0xBA SHL PUSH1 0x40 DUP3 ADD MSTORE PUSH1 0x60 ADD SWAP1 JUMP JUMPDEST PUSH1 0x20 DUP1 DUP3 MSTORE PUSH1 0x14 SWAP1 DUP3 ADD MSTORE PUSH20 0x2637B1B5B2B22BB6363A21B7373A2A393739B339 PUSH1 0x61 SHL PUSH1 0x40 DUP3 ADD MSTORE PUSH1 0x60 ADD SWAP1 JUMP JUMPDEST PUSH1 0x20 DUP1 DUP3 MSTORE PUSH1 0x30 SWAP1 DUP3 ADD MSTORE PUSH32 0x4D75737420736574206175746F204C50206275726E2070657263656E74206265 PUSH1 0x40 DUP3 ADD MSTORE PUSH16 0x747765656E20302520616E6420313025 PUSH1 0x80 SHL PUSH1 0x60 DUP3 ADD MSTORE PUSH1 0x80 ADD SWAP1 JUMP JUMPDEST PUSH1 0x20 DUP1 DUP3 MSTORE PUSH1 0x1D SWAP1 DUP3 ADD MSTORE PUSH32 0x4D757374206B656570206665657320617420323025206F72206C657373000000 PUSH1 0x40 DUP3 ADD MSTORE PUSH1 0x60 ADD SWAP1 JUMP JUMPDEST PUSH1 0x20 DUP1 DUP3 MSTORE PUSH1 0x35 SWAP1 DUP3 ADD MSTORE PUSH32 0x5377617020616D6F756E742063616E6E6F74206265206C6F776572207468616E PUSH1 0x40 DUP3 ADD MSTORE PUSH21 0x10181718181892903A37BA30B61039BAB838363C97 PUSH1 0x59 SHL PUSH1 0x60 DUP3 ADD MSTORE PUSH1 0x80 ADD SWAP1 JUMP JUMPDEST PUSH1 0x20 DUP1 DUP3 MSTORE PUSH1 0x34 SWAP1 DUP3 ADD MSTORE PUSH32 0x5377617020616D6F756E742063616E6E6F742062652068696768657220746861 PUSH1 0x40 DUP3 ADD MSTORE PUSH20 0x371018171A92903A37BA30B61039BAB838363C97 PUSH1 0x61 SHL PUSH1 0x60 DUP3 ADD MSTORE PUSH1 0x80 ADD SWAP1 JUMP JUMPDEST PUSH1 0x20 DUP1 DUP3 MSTORE PUSH1 0x11 SWAP1 DUP3 ADD MSTORE PUSH17 0x29BA35B22BB6363A21B7373A2A393739B3 PUSH1 0x79 SHL PUSH1 0x40 DUP3 ADD MSTORE PUSH1 0x60 ADD SWAP1 JUMP JUMPDEST PUSH1 0x20 DUP1 DUP3 MSTORE PUSH1 0x8 SWAP1 DUP3 ADD MSTORE PUSH8 0x4E6F745265616479 PUSH1 0xC0 SHL PUSH1 0x40 DUP3 ADD MSTORE PUSH1 0x60 ADD SWAP1 JUMP JUMPDEST PUSH1 0x20 DUP1 DUP3 MSTORE PUSH1 0x21 SWAP1 DUP3 ADD MSTORE PUSH32 0x536166654D6174683A206D756C7469706C69636174696F6E206F766572666C6F PUSH1 0x40 DUP3 ADD MSTORE PUSH1 0x77 PUSH1 0xF8 SHL PUSH1 0x60 DUP3 ADD MSTORE PUSH1 0x80 ADD SWAP1 JUMP JUMPDEST PUSH1 0x20 DUP1 DUP3 MSTORE PUSH1 0x28 SWAP1 DUP3 ADD MSTORE PUSH32 0x45524332303A207472616E7366657220616D6F756E7420657863656564732061 PUSH1 0x40 DUP3 ADD MSTORE PUSH8 0x6C6C6F77616E6365 PUSH1 0xC0 SHL PUSH1 0x60 DUP3 ADD MSTORE PUSH1 0x80 ADD SWAP1 JUMP JUMPDEST PUSH1 0x20 DUP1 DUP3 MSTORE DUP2 DUP2 ADD MSTORE PUSH32 0x4F776E61626C653A2063616C6C6572206973206E6F7420746865206F776E6572 PUSH1 0x40 DUP3 ADD MSTORE PUSH1 0x60 ADD SWAP1 JUMP JUMPDEST PUSH1 0x20 DUP1 DUP3 MSTORE PUSH1 0xF SWAP1 DUP3 ADD MSTORE PUSH15 0x105B1C9958591E53185D5B98DA1959 PUSH1 0x8A SHL PUSH1 0x40 DUP3 ADD MSTORE PUSH1 0x60 ADD SWAP1 JUMP JUMPDEST PUSH1 0x20 DUP1 DUP3 MSTORE PUSH1 0x2A SWAP1 DUP3 ADD MSTORE PUSH32 0x4D6179206E6F74206E756B65206D6F7265207468616E20313025206F6620746F PUSH1 0x40 DUP3 ADD MSTORE PUSH10 0x6B656E7320696E204C5 PUSH1 0xB4 SHL PUSH1 0x60 DUP3 ADD MSTORE PUSH1 0x80 ADD SWAP1 JUMP JUMPDEST PUSH1 0x20 DUP1 DUP3 MSTORE PUSH1 0x25 SWAP1 DUP3 ADD MSTORE PUSH32 0x45524332303A207472616E736665722066726F6D20746865207A65726F206164 PUSH1 0x40 DUP3 ADD MSTORE PUSH5 0x6472657373 PUSH1 0xD8 SHL PUSH1 0x60 DUP3 ADD MSTORE PUSH1 0x80 ADD SWAP1 JUMP JUMPDEST PUSH1 0x20 DUP1 DUP3 MSTORE DUP2 DUP2 ADD MSTORE PUSH32 0x4D757374207761697420666F7220636F6F6C646F776E20746F2066696E697368 PUSH1 0x40 DUP3 ADD MSTORE PUSH1 0x60 ADD SWAP1 JUMP JUMPDEST PUSH1 0x20 DUP1 DUP3 MSTORE PUSH1 0x24 SWAP1 DUP3 ADD MSTORE PUSH32 0x45524332303A20617070726F76652066726F6D20746865207A65726F20616464 PUSH1 0x40 DUP3 ADD MSTORE PUSH4 0x72657373 PUSH1 0xE0 SHL PUSH1 0x60 DUP3 ADD MSTORE PUSH1 0x80 ADD SWAP1 JUMP JUMPDEST PUSH1 0x20 DUP1 DUP3 MSTORE PUSH1 0x1D SWAP1 DUP3 ADD MSTORE PUSH32 0x566F7465204974657261746F72206D7573742062652072656275696C74000000 PUSH1 0x40 DUP3 ADD MSTORE PUSH1 0x60 ADD SWAP1 JUMP JUMPDEST PUSH1 0x20 DUP1 DUP3 MSTORE PUSH1 0x1D SWAP1 DUP3 ADD MSTORE PUSH32 0x4D757374206B656570206665657320617420323525206F72206C657373000000 PUSH1 0x40 DUP3 ADD MSTORE PUSH1 0x60 ADD SWAP1 JUMP JUMPDEST PUSH1 0x20 DUP1 DUP3 MSTORE PUSH1 0x1E SWAP1 DUP3 ADD MSTORE PUSH32 0x63616E6E6F74207377617020696E746F207374616B65642077616C6C65740000 PUSH1 0x40 DUP3 ADD MSTORE PUSH1 0x60 ADD SWAP1 JUMP JUMPDEST PUSH1 0x20 DUP1 DUP3 MSTORE PUSH1 0x25 SWAP1 DUP3 ADD MSTORE PUSH32 0x45524332303A2064656372656173656420616C6C6F77616E63652062656C6F77 PUSH1 0x40 DUP3 ADD MSTORE PUSH5 0x207A65726F PUSH1 0xD8 SHL PUSH1 0x60 DUP3 ADD MSTORE PUSH1 0x80 ADD SWAP1 JUMP JUMPDEST PUSH1 0x20 DUP1 DUP3 MSTORE PUSH1 0x2F SWAP1 DUP3 ADD MSTORE PUSH32 0x43616E6E6F7420736574206D61785472616E73616374696F6E416D6F756E7420 PUSH1 0x40 DUP3 ADD MSTORE PUSH15 0x6C6F776572207468616E20302E3125 PUSH1 0x88 SHL PUSH1 0x60 DUP3 ADD MSTORE PUSH1 0x80 ADD SWAP1 JUMP JUMPDEST SWAP1 DUP2 MSTORE PUSH1 0x20 ADD SWAP1 JUMP JUMPDEST PUSH1 0xFF SWAP2 SWAP1 SWAP2 AND DUP2 MSTORE PUSH1 0x20 ADD SWAP1 JUMP JUMPDEST PUSH1 0x0 DUP1 DUP3 SLT DUP1 ISZERO PUSH1 0x1 PUSH1 0x1 PUSH1 0xFF SHL SUB DUP5 SWAP1 SUB DUP6 SGT AND ISZERO PUSH2 0x42A2 JUMPI PUSH2 0x42A2 PUSH2 0x448E JUMP JUMPDEST PUSH1 0x1 PUSH1 0xFF SHL DUP4 SWAP1 SUB DUP5 SLT DUP2 AND ISZERO PUSH2 0x42BB JUMPI PUSH2 0x42BB PUSH2 0x448E JUMP JUMPDEST POP POP ADD SWAP1 JUMP JUMPDEST PUSH1 0x0 DUP3 NOT DUP3 GT ISZERO PUSH2 0x42D4 JUMPI PUSH2 0x42D4 PUSH2 0x448E JUMP JUMPDEST POP ADD SWAP1 JUMP JUMPDEST PUSH1 0x0 DUP3 PUSH2 0x42E8 JUMPI PUSH2 0x42E8 PUSH2 0x44A4 JUMP JUMPDEST PUSH1 0x1 PUSH1 0xFF SHL DUP3 EQ PUSH1 0x0 NOT DUP5 EQ AND ISZERO PUSH2 0x4302 JUMPI PUSH2 0x4302 PUSH2 0x448E JUMP JUMPDEST POP SDIV SWAP1 JUMP JUMPDEST PUSH1 0x0 DUP3 PUSH2 0x4316 JUMPI PUSH2 0x4316 PUSH2 0x44A4 JUMP JUMPDEST POP DIV SWAP1 JUMP JUMPDEST PUSH1 0x0 PUSH1 0x1 PUSH1 0x1 PUSH1 0xFF SHL SUB DUP2 DUP5 SGT DUP3 DUP5 SGT DUP1 DUP3 AND DUP7 DUP5 DIV DUP7 GT AND ISZERO PUSH2 0x4341 JUMPI PUSH2 0x4341 PUSH2 0x448E JUMP JUMPDEST PUSH1 0x1 PUSH1 0xFF SHL DUP5 DUP8 SLT DUP3 DUP2 AND DUP8 DUP4 SDIV DUP10 SLT AND ISZERO PUSH2 0x435F JUMPI PUSH2 0x435F PUSH2 0x448E JUMP JUMPDEST DUP6 DUP8 SLT SWAP3 POP DUP8 DUP3 SDIV DUP8 SLT DUP5 DUP5 AND AND ISZERO PUSH2 0x437A JUMPI PUSH2 0x437A PUSH2 0x448E JUMP JUMPDEST DUP8 DUP6 SDIV DUP8 SLT DUP2 DUP5 AND AND ISZERO PUSH2 0x4390 JUMPI PUSH2 0x4390 PUSH2 0x448E JUMP JUMPDEST POP POP POP SWAP3 SWAP1 SWAP4 MUL SWAP4 SWAP3 POP POP POP JUMP JUMPDEST PUSH1 0x0 DUP2 PUSH1 0x0 NOT DIV DUP4 GT DUP3 ISZERO ISZERO AND ISZERO PUSH2 0x43B8 JUMPI PUSH2 0x43B8 PUSH2 0x448E JUMP JUMPDEST POP MUL SWAP1 JUMP JUMPDEST PUSH1 0x0 DUP1 DUP4 SLT DUP1 ISZERO PUSH1 0x1 PUSH1 0xFF SHL DUP6 ADD DUP5 SLT AND ISZERO PUSH2 0x43DB JUMPI PUSH2 0x43DB PUSH2 0x448E JUMP JUMPDEST PUSH1 0x1 PUSH1 0x1 PUSH1 0xFF SHL SUB DUP5 ADD DUP4 SGT DUP2 AND ISZERO PUSH2 0x43F6 JUMPI PUSH2 0x43F6 PUSH2 0x448E JUMP JUMPDEST POP POP SUB SWAP1 JUMP JUMPDEST PUSH1 0x0 DUP3 DUP3 LT ISZERO PUSH2 0x440E JUMPI PUSH2 0x440E PUSH2 0x448E JUMP JUMPDEST POP SUB SWAP1 JUMP JUMPDEST PUSH1 0x0 DUP2 PUSH2 0x4422 JUMPI PUSH2 0x4422 PUSH2 0x448E JUMP JUMPDEST POP PUSH1 0x0 NOT ADD SWAP1 JUMP JUMPDEST PUSH1 0x2 DUP2 DIV PUSH1 0x1 DUP3 AND DUP1 PUSH2 0x443E JUMPI PUSH1 0x7F DUP3 AND SWAP2 POP JUMPDEST PUSH1 0x20 DUP3 LT DUP2 EQ ISZERO PUSH2 0x34AE JUMPI PUSH4 0x4E487B71 PUSH1 0xE0 SHL PUSH1 0x0 MSTORE PUSH1 0x22 PUSH1 0x4 MSTORE PUSH1 0x24 PUSH1 0x0 REVERT JUMPDEST PUSH1 0x0 PUSH1 0x0 NOT DUP3 EQ ISZERO PUSH2 0x4473 JUMPI PUSH2 0x4473 PUSH2 0x448E JUMP JUMPDEST POP PUSH1 0x1 ADD SWAP1 JUMP JUMPDEST PUSH1 0x0 DUP3 PUSH2 0x4489 JUMPI PUSH2 0x4489 PUSH2 0x44A4 JUMP JUMPDEST POP MOD SWAP1 JUMP JUMPDEST PUSH4 0x4E487B71 PUSH1 0xE0 SHL PUSH1 0x0 MSTORE PUSH1 0x11 PUSH1 0x4 MSTORE PUSH1 0x24 PUSH1 0x0 REVERT JUMPDEST PUSH4 0x4E487B71 PUSH1 0xE0 SHL PUSH1 0x0 MSTORE PUSH1 0x12 PUSH1 0x4 MSTORE PUSH1 0x24 PUSH1 0x0 REVERT JUMPDEST DUP1 ISZERO ISZERO DUP2 EQ PUSH2 0x14D8 JUMPI PUSH1 0x0 DUP1 REVERT INVALID LOG2 PUSH5 0x6970667358 0x22 SLT KECCAK256 SGT GAS COINBASE 0x4F SWAP15 BYTE DIV 0xA5 0xED SWAP4 MOD SWAP14 0x22 SELFDESTRUCT GAS KECCAK256 SLOAD 0xD8 SWAP3 0xED 0xB4 SGT 0xA6 0xB0 PUSH8 0xC311A5FFB018FD64 PUSH20 0x6F6C634300080000330000000000000000000000 "
		},
		"gasEstimates": {
			"creation": {
				"codeDepositCost": "3532400",
				"executionCost": "infinite",
				"totalCost": "infinite"
			},
			"external": {
				"HoneyBadgerAddress()": "1138",
				"HoneyBadgerFuelTankAddress()": "1249",
				"_isExcludedMaxTransactionAmount(address)": "1333",
				"allianceWallet()": "1138",
				"allowance(address,address)": "infinite",
				"approve(address,uint256)": "22719",
				"automatedMarketMakerPairs(address)": "1441",
				"balanceOf(address)": "infinite",
				"buyAllianceFee()": "1139",
				"buyDevFee()": "1206",
				"buyLiquidityFee()": "1139",
				"buyMarketingFee()": "1161",
				"buyTotalFees()": "1095",
				"calculateYield(uint256,uint256)": "infinite",
				"contractStart()": "1184",
				"currentCharityWallet()": "1226",
				"currentVotes(address)": "1427",
				"currentlyStaked(address)": "1442",
				"deadAddress()": "342",
				"decimals()": "1224",
				"decreaseAllowance(address,uint256)": "infinite",
				"devWallet()": "1205",
				"disableTransferDelay()": "22113",
				"enableTrading()": "41964",
				"excludeFromFees(address,bool)": "23780",
				"excludeFromMaxTransaction(address,bool)": "22291",
				"getBlockTime()": "404",
				"increaseAllowance(address,uint256)": "infinite",
				"initializeCoinThruster()": "infinite",
				"isExcludedFromFees(address)": "infinite",
				"isStaked(address)": "1394",
				"lastLpBurnTime()": "1206",
				"lastManualLpBurnTime()": "1118",
				"launched()": "1195",
				"limitsInEffect()": "1197",
				"lpBurnEnabled()": "1196",
				"lpBurnFrequency()": "1140",
				"manualBurnFrequency()": "1185",
				"manualBurnLiquidityPairTokens(uint256)": "infinite",
				"marketingWallet()": "1181",
				"maxTransactionAmount()": "1117",
				"maxWallet()": "1160",
				"name()": "infinite",
				"owner()": "1183",
				"percentForLPBurn()": "1207",
				"periodStart(address)": "1321",
				"rebuildVotingIterator()": "infinite",
				"reifyYield(address)": "infinite",
				"removeLimits()": "22003",
				"renounceOwnership()": "24335",
				"sellAllianceFee()": "1206",
				"sellDevFee()": "1162",
				"sellLiquidityFee()": "1116",
				"sellMarketingFee()": "1185",
				"sellTotalFees()": "1096",
				"setAutoLPBurnSettings(uint256,uint256,bool)": "62301",
				"setAutomatedMarketMakerPair(address,bool)": "24745",
				"stakeWallet()": "116441",
				"stakingCoordinatesAmount(address)": "1319",
				"stakingCoordinatesTime(address)": "1385",
				"swapEnabled()": "1141",
				"swapEndTime()": "1117",
				"swapHoneyBadger(uint256)": "infinite",
				"swapTokensAtAmount()": "1139",
				"symbol()": "infinite",
				"tokensForAlliance()": "1098",
				"tokensForDev()": "1140",
				"tokensForLiquidity()": "1097",
				"tokensForMarketing()": "1119",
				"totalStartingSupply()": "1097",
				"totalSupply()": "1141",
				"tradingActive()": "1141",
				"transfer(address,uint256)": "infinite",
				"transferDelayEnabled()": "1107",
				"transferFrom(address,address,uint256)": "infinite",
				"transferOwnership(address)": "24572",
				"uniswapV2Pair()": "1205",
				"uniswapV2Router()": "1161",
				"unlockStartTime(address)": "1387",
				"unstakeWallet()": "infinite",
				"unstakeWalletSansReify()": "infinite",
				"updateAllianceWallet(address)": "24520",
				"updateBuyFees(uint256,uint256,uint256,uint256)": "infinite",
				"updateDevWallet(address)": "24542",
				"updateMarketingWallet(address)": "24562",
				"updateMaxTxnAmount(uint256)": "infinite",
				"updateMaxWalletAmount(uint256)": "infinite",
				"updateSellFees(uint256,uint256,uint256,uint256)": "infinite",
				"updateSwapEnabled(bool)": "22084",
				"updateSwapTokensAtAmount(uint256)": "infinite",
				"voteCounts(address)": "1408",
				"voteForAddress(address)": "infinite",
				"voteIterator(uint256)": "2128",
				"voteIteratorLength()": "1118",
				"voteWeights(address)": "1430",
				"voteWithRebuildIfNecessary(address)": "infinite",
				"walletWasVotedFor(address)": "1397"
			},
			"internal": {
				"__transfer(address,address,uint256)": "infinite",
				"_setAutomatedMarketMakerPair(address,bool)": "22472",
				"addLiquidity(uint256,uint256)": "infinite",
				"autoBurnLiquidityPairTokens()": "infinite",
				"swapBack()": "infinite",
				"swapTokensForEth(uint256)": "infinite"
			}
		},
		"methodIdentifiers": {
			"HoneyBadgerAddress()": "2681eb81",
			"HoneyBadgerFuelTankAddress()": "923e7074",
			"_isExcludedMaxTransactionAmount(address)": "10d5de53",
			"allianceWallet()": "b7023c2c",
			"allowance(address,address)": "dd62ed3e",
			"approve(address,uint256)": "095ea7b3",
			"automatedMarketMakerPairs(address)": "b62496f5",
			"balanceOf(address)": "70a08231",
			"buyAllianceFee()": "cb8fda1c",
			"buyDevFee()": "9c3b4fdc",
			"buyLiquidityFee()": "f11a24d3",
			"buyMarketingFee()": "7bce5a04",
			"buyTotalFees()": "d85ba063",
			"calculateYield(uint256,uint256)": "043cbe5b",
			"contractStart()": "9aa13f04",
			"currentCharityWallet()": "c31db906",
			"currentVotes(address)": "e593c34b",
			"currentlyStaked(address)": "c57db2c0",
			"deadAddress()": "27c8f835",
			"decimals()": "313ce567",
			"decreaseAllowance(address,uint256)": "a457c2d7",
			"devWallet()": "8ea5220f",
			"disableTransferDelay()": "e884f260",
			"enableTrading()": "8a8c523c",
			"excludeFromFees(address,bool)": "c0246668",
			"excludeFromMaxTransaction(address,bool)": "7571336a",
			"getBlockTime()": "87ceff09",
			"increaseAllowance(address,uint256)": "39509351",
			"initializeCoinThruster()": "0cc874c7",
			"isExcludedFromFees(address)": "4fbee193",
			"isStaked(address)": "6177fd18",
			"lastLpBurnTime()": "a4c82a00",
			"lastManualLpBurnTime()": "9ec22c0e",
			"launched()": "8091f3bf",
			"limitsInEffect()": "4a62bb65",
			"lpBurnEnabled()": "2e82f1a0",
			"lpBurnFrequency()": "2c3e486c",
			"manualBurnFrequency()": "184c16c5",
			"manualBurnLiquidityPairTokens(uint256)": "fe72b27a",
			"marketingWallet()": "75f0a874",
			"maxTransactionAmount()": "c8c8ebe4",
			"maxWallet()": "f8b45b05",
			"name()": "06fdde03",
			"owner()": "8da5cb5b",
			"percentForLPBurn()": "199ffc72",
			"periodStart(address)": "37425fa0",
			"rebuildVotingIterator()": "59357df5",
			"reifyYield(address)": "a8ce45a9",
			"removeLimits()": "751039fc",
			"renounceOwnership()": "715018a6",
			"sellAllianceFee()": "748e2a43",
			"sellDevFee()": "a0d82dc5",
			"sellLiquidityFee()": "f6374342",
			"sellMarketingFee()": "92136913",
			"sellTotalFees()": "6a486a8e",
			"setAutoLPBurnSettings(uint256,uint256,bool)": "730c1888",
			"setAutomatedMarketMakerPair(address,bool)": "9a7a23d6",
			"stakeWallet()": "0f9154b5",
			"stakingCoordinatesAmount(address)": "a73d1b06",
			"stakingCoordinatesTime(address)": "d0dc0d80",
			"swapEnabled()": "6ddd1713",
			"swapEndTime()": "efebc720",
			"swapHoneyBadger(uint256)": "9da37a11",
			"swapTokensAtAmount()": "e2f45605",
			"symbol()": "95d89b41",
			"tokensForAlliance()": "01440c90",
			"tokensForDev()": "9fccce32",
			"tokensForLiquidity()": "1a8145bb",
			"tokensForMarketing()": "1f3fed8f",
			"totalStartingSupply()": "8a702625",
			"totalSupply()": "18160ddd",
			"tradingActive()": "bbc0c742",
			"transfer(address,uint256)": "a9059cbb",
			"transferDelayEnabled()": "c876d0b9",
			"transferFrom(address,address,uint256)": "23b872dd",
			"transferOwnership(address)": "f2fde38b",
			"uniswapV2Pair()": "49bd5a5e",
			"uniswapV2Router()": "1694505e",
			"unlockStartTime(address)": "21ac17f8",
			"unstakeWallet()": "62ad0b15",
			"unstakeWalletSansReify()": "d643391f",
			"updateAllianceWallet(address)": "3eeaeafc",
			"updateBuyFees(uint256,uint256,uint256,uint256)": "2e6ed7ef",
			"updateDevWallet(address)": "1816467f",
			"updateMarketingWallet(address)": "aacebbe3",
			"updateMaxTxnAmount(uint256)": "203e727e",
			"updateMaxWalletAmount(uint256)": "c18bc195",
			"updateSellFees(uint256,uint256,uint256,uint256)": "e7ad9fcd",
			"updateSwapEnabled(bool)": "924de9b7",
			"updateSwapTokensAtAmount(uint256)": "d257b34f",
			"voteCounts(address)": "66a267a9",
			"voteForAddress(address)": "f6f70594",
			"voteIterator(uint256)": "611cda25",
			"voteIteratorLength()": "94e0b68a",
			"voteWeights(address)": "67cc910f",
			"voteWithRebuildIfNecessary(address)": "23c40de2",
			"walletWasVotedFor(address)": "aab7c9eb"
		}
	},
	"abi": [
		{
			"inputs": [
				{
					"internalType": "address",
					"name": "_HoneyBadgerAddress",
					"type": "address"
				},
				{
					"internalType": "address",
					"name": "_HoneyBadgerFuelTankAddress",
					"type": "address"
				}
			],
			"stateMutability": "nonpayable",
			"type": "constructor"
		},
		{
			"anonymous": false,
			"inputs": [
				{
					"indexed": true,
					"internalType": "address",
					"name": "owner",
					"type": "address"
				},
				{
					"indexed": true,
					"internalType": "address",
					"name": "spender",
					"type": "address"
				},
				{
					"indexed": false,
					"internalType": "uint256",
					"name": "value",
					"type": "uint256"
				}
			],
			"name": "Approval",
			"type": "event"
		},
		{
			"anonymous": false,
			"inputs": [],
			"name": "AutoNukeLP",
			"type": "event"
		},
		{
			"anonymous": false,
			"inputs": [
				{
					"indexed": true,
					"internalType": "address",
					"name": "sniper",
					"type": "address"
				}
			],
			"name": "BoughtEarly",
			"type": "event"
		},
		{
			"anonymous": false,
			"inputs": [
				{
					"indexed": true,
					"internalType": "address",
					"name": "account",
					"type": "address"
				},
				{
					"indexed": false,
					"internalType": "bool",
					"name": "isExcluded",
					"type": "bool"
				}
			],
			"name": "ExcludeFromFees",
			"type": "event"
		},
		{
			"anonymous": false,
			"inputs": [],
			"name": "ManualNukeLP",
			"type": "event"
		},
		{
			"anonymous": false,
			"inputs": [
				{
					"indexed": false,
					"internalType": "address",
					"name": "oldW",
					"type": "address"
				},
				{
					"indexed": false,
					"internalType": "address",
					"name": "newW",
					"type": "address"
				}
			],
			"name": "NewCharityWallet",
			"type": "event"
		},
		{
			"anonymous": false,
			"inputs": [
				{
					"indexed": true,
					"internalType": "address",
					"name": "previousOwner",
					"type": "address"
				},
				{
					"indexed": true,
					"internalType": "address",
					"name": "newOwner",
					"type": "address"
				}
			],
			"name": "OwnershipTransferred",
			"type": "event"
		},
		{
			"anonymous": false,
			"inputs": [
				{
					"indexed": true,
					"internalType": "address",
					"name": "pair",
					"type": "address"
				},
				{
					"indexed": true,
					"internalType": "bool",
					"name": "value",
					"type": "bool"
				}
			],
			"name": "SetAutomatedMarketMakerPair",
			"type": "event"
		},
		{
			"anonymous": false,
			"inputs": [
				{
					"indexed": false,
					"internalType": "uint256",
					"name": "tokensSwapped",
					"type": "uint256"
				},
				{
					"indexed": false,
					"internalType": "uint256",
					"name": "ethReceived",
					"type": "uint256"
				},
				{
					"indexed": false,
					"internalType": "uint256",
					"name": "tokensIntoLiquidity",
					"type": "uint256"
				}
			],
			"name": "SwapAndLiquify",
			"type": "event"
		},
		{
			"anonymous": false,
			"inputs": [
				{
					"indexed": true,
					"internalType": "address",
					"name": "from",
					"type": "address"
				},
				{
					"indexed": true,
					"internalType": "address",
					"name": "to",
					"type": "address"
				},
				{
					"indexed": false,
					"internalType": "uint256",
					"name": "value",
					"type": "uint256"
				}
			],
			"name": "Transfer",
			"type": "event"
		},
		{
			"anonymous": false,
			"inputs": [
				{
					"indexed": true,
					"internalType": "address",
					"name": "newAddress",
					"type": "address"
				},
				{
					"indexed": true,
					"internalType": "address",
					"name": "oldAddress",
					"type": "address"
				}
			],
			"name": "UpdateUniswapV2Router",
			"type": "event"
		},
		{
			"anonymous": false,
			"inputs": [
				{
					"indexed": true,
					"internalType": "address",
					"name": "newWallet",
					"type": "address"
				},
				{
					"indexed": true,
					"internalType": "address",
					"name": "oldWallet",
					"type": "address"
				}
			],
			"name": "allianceWalletUpdated",
			"type": "event"
		},
		{
			"anonymous": false,
			"inputs": [
				{
					"indexed": true,
					"internalType": "address",
					"name": "newWallet",
					"type": "address"
				},
				{
					"indexed": true,
					"internalType": "address",
					"name": "oldWallet",
					"type": "address"
				}
			],
			"name": "devWalletUpdated",
			"type": "event"
		},
		{
			"anonymous": false,
			"inputs": [
				{
					"indexed": true,
					"internalType": "address",
					"name": "newWallet",
					"type": "address"
				},
				{
					"indexed": true,
					"internalType": "address",
					"name": "oldWallet",
					"type": "address"
				}
			],
			"name": "marketingWalletUpdated",
			"type": "event"
		},
		{
			"inputs": [],
			"name": "HoneyBadgerAddress",
			"outputs": [
				{
					"internalType": "address",
					"name": "",
					"type": "address"
				}
			],
			"stateMutability": "view",
			"type": "function"
		},
		{
			"inputs": [],
			"name": "HoneyBadgerFuelTankAddress",
			"outputs": [
				{
					"internalType": "address",
					"name": "",
					"type": "address"
				}
			],
			"stateMutability": "view",
			"type": "function"
		},
		{
			"inputs": [
				{
					"internalType": "address",
					"name": "",
					"type": "address"
				}
			],
			"name": "_isExcludedMaxTransactionAmount",
			"outputs": [
				{
					"internalType": "bool",
					"name": "",
					"type": "bool"
				}
			],
			"stateMutability": "view",
			"type": "function"
		},
		{
			"inputs": [],
			"name": "allianceWallet",
			"outputs": [
				{
					"internalType": "address",
					"name": "",
					"type": "address"
				}
			],
			"stateMutability": "view",
			"type": "function"
		},
		{
			"inputs": [
				{
					"internalType": "address",
					"name": "owner",
					"type": "address"
				},
				{
					"internalType": "address",
					"name": "spender",
					"type": "address"
				}
			],
			"name": "allowance",
			"outputs": [
				{
					"internalType": "uint256",
					"name": "",
					"type": "uint256"
				}
			],
			"stateMutability": "view",
			"type": "function"
		},
		{
			"inputs": [
				{
					"internalType": "address",
					"name": "spender",
					"type": "address"
				},
				{
					"internalType": "uint256",
					"name": "amount",
					"type": "uint256"
				}
			],
			"name": "approve",
			"outputs": [
				{
					"internalType": "bool",
					"name": "",
					"type": "bool"
				}
			],
			"stateMutability": "nonpayable",
			"type": "function"
		},
		{
			"inputs": [
				{
					"internalType": "address",
					"name": "",
					"type": "address"
				}
			],
			"name": "automatedMarketMakerPairs",
			"outputs": [
				{
					"internalType": "bool",
					"name": "",
					"type": "bool"
				}
			],
			"stateMutability": "view",
			"type": "function"
		},
		{
			"inputs": [
				{
					"internalType": "address",
					"name": "account",
					"type": "address"
				}
			],
			"name": "balanceOf",
			"outputs": [
				{
					"internalType": "uint256",
					"name": "",
					"type": "uint256"
				}
			],
			"stateMutability": "view",
			"type": "function"
		},
		{
			"inputs": [],
			"name": "buyAllianceFee",
			"outputs": [
				{
					"internalType": "uint256",
					"name": "",
					"type": "uint256"
				}
			],
			"stateMutability": "view",
			"type": "function"
		},
		{
			"inputs": [],
			"name": "buyDevFee",
			"outputs": [
				{
					"internalType": "uint256",
					"name": "",
					"type": "uint256"
				}
			],
			"stateMutability": "view",
			"type": "function"
		},
		{
			"inputs": [],
			"name": "buyLiquidityFee",
			"outputs": [
				{
					"internalType": "uint256",
					"name": "",
					"type": "uint256"
				}
			],
			"stateMutability": "view",
			"type": "function"
		},
		{
			"inputs": [],
			"name": "buyMarketingFee",
			"outputs": [
				{
					"internalType": "uint256",
					"name": "",
					"type": "uint256"
				}
			],
			"stateMutability": "view",
			"type": "function"
		},
		{
			"inputs": [],
			"name": "buyTotalFees",
			"outputs": [
				{
					"internalType": "uint256",
					"name": "",
					"type": "uint256"
				}
			],
			"stateMutability": "view",
			"type": "function"
		},
		{
			"inputs": [
				{
					"internalType": "uint256",
					"name": "principal",
					"type": "uint256"
				},
				{
					"internalType": "uint256",
					"name": "n",
					"type": "uint256"
				}
			],
			"name": "calculateYield",
			"outputs": [
				{
					"internalType": "uint256",
					"name": "",
					"type": "uint256"
				}
			],
			"stateMutability": "pure",
			"type": "function"
		},
		{
			"inputs": [],
			"name": "contractStart",
			"outputs": [
				{
					"internalType": "uint256",
					"name": "",
					"type": "uint256"
				}
			],
			"stateMutability": "view",
			"type": "function"
		},
		{
			"inputs": [],
			"name": "currentCharityWallet",
			"outputs": [
				{
					"internalType": "address",
					"name": "",
					"type": "address"
				}
			],
			"stateMutability": "view",
			"type": "function"
		},
		{
			"inputs": [
				{
					"internalType": "address",
					"name": "",
					"type": "address"
				}
			],
			"name": "currentVotes",
			"outputs": [
				{
					"internalType": "address",
					"name": "",
					"type": "address"
				}
			],
			"stateMutability": "view",
			"type": "function"
		},
		{
			"inputs": [
				{
					"internalType": "address",
					"name": "",
					"type": "address"
				}
			],
			"name": "currentlyStaked",
			"outputs": [
				{
					"internalType": "bool",
					"name": "",
					"type": "bool"
				}
			],
			"stateMutability": "view",
			"type": "function"
		},
		{
			"inputs": [],
			"name": "deadAddress",
			"outputs": [
				{
					"internalType": "address",
					"name": "",
					"type": "address"
				}
			],
			"stateMutability": "view",
			"type": "function"
		},
		{
			"inputs": [],
			"name": "decimals",
			"outputs": [
				{
					"internalType": "uint8",
					"name": "",
					"type": "uint8"
				}
			],
			"stateMutability": "view",
			"type": "function"
		},
		{
			"inputs": [
				{
					"internalType": "address",
					"name": "spender",
					"type": "address"
				},
				{
					"internalType": "uint256",
					"name": "subtractedValue",
					"type": "uint256"
				}
			],
			"name": "decreaseAllowance",
			"outputs": [
				{
					"internalType": "bool",
					"name": "",
					"type": "bool"
				}
			],
			"stateMutability": "nonpayable",
			"type": "function"
		},
		{
			"inputs": [],
			"name": "devWallet",
			"outputs": [
				{
					"internalType": "address",
					"name": "",
					"type": "address"
				}
			],
			"stateMutability": "view",
			"type": "function"
		},
		{
			"inputs": [],
			"name": "disableTransferDelay",
			"outputs": [
				{
					"internalType": "bool",
					"name": "",
					"type": "bool"
				}
			],
			"stateMutability": "nonpayable",
			"type": "function"
		},
		{
			"inputs": [],
			"name": "enableTrading",
			"outputs": [],
			"stateMutability": "nonpayable",
			"type": "function"
		},
		{
			"inputs": [
				{
					"internalType": "address",
					"name": "account",
					"type": "address"
				},
				{
					"internalType": "bool",
					"name": "excluded",
					"type": "bool"
				}
			],
			"name": "excludeFromFees",
			"outputs": [],
			"stateMutability": "nonpayable",
			"type": "function"
		},
		{
			"inputs": [
				{
					"internalType": "address",
					"name": "updAds",
					"type": "address"
				},
				{
					"internalType": "bool",
					"name": "isEx",
					"type": "bool"
				}
			],
			"name": "excludeFromMaxTransaction",
			"outputs": [],
			"stateMutability": "nonpayable",
			"type": "function"
		},
		{
			"inputs": [],
			"name": "getBlockTime",
			"outputs": [
				{
					"internalType": "uint256",
					"name": "",
					"type": "uint256"
				}
			],
			"stateMutability": "view",
			"type": "function"
		},
		{
			"inputs": [
				{
					"internalType": "address",
					"name": "spender",
					"type": "address"
				},
				{
					"internalType": "uint256",
					"name": "addedValue",
					"type": "uint256"
				}
			],
			"name": "increaseAllowance",
			"outputs": [
				{
					"internalType": "bool",
					"name": "",
					"type": "bool"
				}
			],
			"stateMutability": "nonpayable",
			"type": "function"
		},
		{
			"inputs": [],
			"name": "initializeCoinThruster",
			"outputs": [],
			"stateMutability": "nonpayable",
			"type": "function"
		},
		{
			"inputs": [
				{
					"internalType": "address",
					"name": "account",
					"type": "address"
				}
			],
			"name": "isExcludedFromFees",
			"outputs": [
				{
					"internalType": "bool",
					"name": "",
					"type": "bool"
				}
			],
			"stateMutability": "view",
			"type": "function"
		},
		{
			"inputs": [
				{
					"internalType": "address",
					"name": "wallet",
					"type": "address"
				}
			],
			"name": "isStaked",
			"outputs": [
				{
					"internalType": "bool",
					"name": "",
					"type": "bool"
				}
			],
			"stateMutability": "view",
			"type": "function"
		},
		{
			"inputs": [],
			"name": "lastLpBurnTime",
			"outputs": [
				{
					"internalType": "uint256",
					"name": "",
					"type": "uint256"
				}
			],
			"stateMutability": "view",
			"type": "function"
		},
		{
			"inputs": [],
			"name": "lastManualLpBurnTime",
			"outputs": [
				{
					"internalType": "uint256",
					"name": "",
					"type": "uint256"
				}
			],
			"stateMutability": "view",
			"type": "function"
		},
		{
			"inputs": [],
			"name": "launched",
			"outputs": [
				{
					"internalType": "bool",
					"name": "",
					"type": "bool"
				}
			],
			"stateMutability": "view",
			"type": "function"
		},
		{
			"inputs": [],
			"name": "limitsInEffect",
			"outputs": [
				{
					"internalType": "bool",
					"name": "",
					"type": "bool"
				}
			],
			"stateMutability": "view",
			"type": "function"
		},
		{
			"inputs": [],
			"name": "lpBurnEnabled",
			"outputs": [
				{
					"internalType": "bool",
					"name": "",
					"type": "bool"
				}
			],
			"stateMutability": "view",
			"type": "function"
		},
		{
			"inputs": [],
			"name": "lpBurnFrequency",
			"outputs": [
				{
					"internalType": "uint256",
					"name": "",
					"type": "uint256"
				}
			],
			"stateMutability": "view",
			"type": "function"
		},
		{
			"inputs": [],
			"name": "manualBurnFrequency",
			"outputs": [
				{
					"internalType": "uint256",
					"name": "",
					"type": "uint256"
				}
			],
			"stateMutability": "view",
			"type": "function"
		},
		{
			"inputs": [
				{
					"internalType": "uint256",
					"name": "percent",
					"type": "uint256"
				}
			],
			"name": "manualBurnLiquidityPairTokens",
			"outputs": [
				{
					"internalType": "bool",
					"name": "",
					"type": "bool"
				}
			],
			"stateMutability": "nonpayable",
			"type": "function"
		},
		{
			"inputs": [],
			"name": "marketingWallet",
			"outputs": [
				{
					"internalType": "address",
					"name": "",
					"type": "address"
				}
			],
			"stateMutability": "view",
			"type": "function"
		},
		{
			"inputs": [],
			"name": "maxTransactionAmount",
			"outputs": [
				{
					"internalType": "uint256",
					"name": "",
					"type": "uint256"
				}
			],
			"stateMutability": "view",
			"type": "function"
		},
		{
			"inputs": [],
			"name": "maxWallet",
			"outputs": [
				{
					"internalType": "uint256",
					"name": "",
					"type": "uint256"
				}
			],
			"stateMutability": "view",
			"type": "function"
		},
		{
			"inputs": [],
			"name": "name",
			"outputs": [
				{
					"internalType": "string",
					"name": "",
					"type": "string"
				}
			],
			"stateMutability": "view",
			"type": "function"
		},
		{
			"inputs": [],
			"name": "owner",
			"outputs": [
				{
					"internalType": "address",
					"name": "",
					"type": "address"
				}
			],
			"stateMutability": "view",
			"type": "function"
		},
		{
			"inputs": [],
			"name": "percentForLPBurn",
			"outputs": [
				{
					"internalType": "uint256",
					"name": "",
					"type": "uint256"
				}
			],
			"stateMutability": "view",
			"type": "function"
		},
		{
			"inputs": [
				{
					"internalType": "address",
					"name": "",
					"type": "address"
				}
			],
			"name": "periodStart",
			"outputs": [
				{
					"internalType": "uint256",
					"name": "",
					"type": "uint256"
				}
			],
			"stateMutability": "view",
			"type": "function"
		},
		{
			"inputs": [],
			"name": "rebuildVotingIterator",
			"outputs": [],
			"stateMutability": "nonpayable",
			"type": "function"
		},
		{
			"inputs": [
				{
					"internalType": "address",
					"name": "wallet",
					"type": "address"
				}
			],
			"name": "reifyYield",
			"outputs": [],
			"stateMutability": "nonpayable",
			"type": "function"
		},
		{
			"inputs": [],
			"name": "removeLimits",
			"outputs": [
				{
					"internalType": "bool",
					"name": "",
					"type": "bool"
				}
			],
			"stateMutability": "nonpayable",
			"type": "function"
		},
		{
			"inputs": [],
			"name": "renounceOwnership",
			"outputs": [],
			"stateMutability": "nonpayable",
			"type": "function"
		},
		{
			"inputs": [],
			"name": "sellAllianceFee",
			"outputs": [
				{
					"internalType": "uint256",
					"name": "",
					"type": "uint256"
				}
			],
			"stateMutability": "view",
			"type": "function"
		},
		{
			"inputs": [],
			"name": "sellDevFee",
			"outputs": [
				{
					"internalType": "uint256",
					"name": "",
					"type": "uint256"
				}
			],
			"stateMutability": "view",
			"type": "function"
		},
		{
			"inputs": [],
			"name": "sellLiquidityFee",
			"outputs": [
				{
					"internalType": "uint256",
					"name": "",
					"type": "uint256"
				}
			],
			"stateMutability": "view",
			"type": "function"
		},
		{
			"inputs": [],
			"name": "sellMarketingFee",
			"outputs": [
				{
					"internalType": "uint256",
					"name": "",
					"type": "uint256"
				}
			],
			"stateMutability": "view",
			"type": "function"
		},
		{
			"inputs": [],
			"name": "sellTotalFees",
			"outputs": [
				{
					"internalType": "uint256",
					"name": "",
					"type": "uint256"
				}
			],
			"stateMutability": "view",
			"type": "function"
		},
		{
			"inputs": [
				{
					"internalType": "uint256",
					"name": "_frequencyInSeconds",
					"type": "uint256"
				},
				{
					"internalType": "uint256",
					"name": "_percent",
					"type": "uint256"
				},
				{
					"internalType": "bool",
					"name": "_Enabled",
					"type": "bool"
				}
			],
			"name": "setAutoLPBurnSettings",
			"outputs": [],
			"stateMutability": "nonpayable",
			"type": "function"
		},
		{
			"inputs": [
				{
					"internalType": "address",
					"name": "pair",
					"type": "address"
				},
				{
					"internalType": "bool",
					"name": "value",
					"type": "bool"
				}
			],
			"name": "setAutomatedMarketMakerPair",
			"outputs": [],
			"stateMutability": "nonpayable",
			"type": "function"
		},
		{
			"inputs": [],
			"name": "stakeWallet",
			"outputs": [
				{
					"internalType": "bool",
					"name": "",
					"type": "bool"
				}
			],
			"stateMutability": "nonpayable",
			"type": "function"
		},
		{
			"inputs": [
				{
					"internalType": "address",
					"name": "",
					"type": "address"
				}
			],
			"name": "stakingCoordinatesAmount",
			"outputs": [
				{
					"internalType": "uint256",
					"name": "",
					"type": "uint256"
				}
			],
			"stateMutability": "view",
			"type": "function"
		},
		{
			"inputs": [
				{
					"internalType": "address",
					"name": "",
					"type": "address"
				}
			],
			"name": "stakingCoordinatesTime",
			"outputs": [
				{
					"internalType": "uint256",
					"name": "",
					"type": "uint256"
				}
			],
			"stateMutability": "view",
			"type": "function"
		},
		{
			"inputs": [],
			"name": "swapEnabled",
			"outputs": [
				{
					"internalType": "bool",
					"name": "",
					"type": "bool"
				}
			],
			"stateMutability": "view",
			"type": "function"
		},
		{
			"inputs": [],
			"name": "swapEndTime",
			"outputs": [
				{
					"internalType": "uint256",
					"name": "",
					"type": "uint256"
				}
			],
			"stateMutability": "view",
			"type": "function"
		},
		{
			"inputs": [
				{
					"internalType": "uint256",
					"name": "amount",
					"type": "uint256"
				}
			],
			"name": "swapHoneyBadger",
			"outputs": [],
			"stateMutability": "nonpayable",
			"type": "function"
		},
		{
			"inputs": [],
			"name": "swapTokensAtAmount",
			"outputs": [
				{
					"internalType": "uint256",
					"name": "",
					"type": "uint256"
				}
			],
			"stateMutability": "view",
			"type": "function"
		},
		{
			"inputs": [],
			"name": "symbol",
			"outputs": [
				{
					"internalType": "string",
					"name": "",
					"type": "string"
				}
			],
			"stateMutability": "view",
			"type": "function"
		},
		{
			"inputs": [],
			"name": "tokensForAlliance",
			"outputs": [
				{
					"internalType": "uint256",
					"name": "",
					"type": "uint256"
				}
			],
			"stateMutability": "view",
			"type": "function"
		},
		{
			"inputs": [],
			"name": "tokensForDev",
			"outputs": [
				{
					"internalType": "uint256",
					"name": "",
					"type": "uint256"
				}
			],
			"stateMutability": "view",
			"type": "function"
		},
		{
			"inputs": [],
			"name": "tokensForLiquidity",
			"outputs": [
				{
					"internalType": "uint256",
					"name": "",
					"type": "uint256"
				}
			],
			"stateMutability": "view",
			"type": "function"
		},
		{
			"inputs": [],
			"name": "tokensForMarketing",
			"outputs": [
				{
					"internalType": "uint256",
					"name": "",
					"type": "uint256"
				}
			],
			"stateMutability": "view",
			"type": "function"
		},
		{
			"inputs": [],
			"name": "totalStartingSupply",
			"outputs": [
				{
					"internalType": "uint256",
					"name": "",
					"type": "uint256"
				}
			],
			"stateMutability": "view",
			"type": "function"
		},
		{
			"inputs": [],
			"name": "totalSupply",
			"outputs": [
				{
					"internalType": "uint256",
					"name": "",
					"type": "uint256"
				}
			],
			"stateMutability": "view",
			"type": "function"
		},
		{
			"inputs": [],
			"name": "tradingActive",
			"outputs": [
				{
					"internalType": "bool",
					"name": "",
					"type": "bool"
				}
			],
			"stateMutability": "view",
			"type": "function"
		},
		{
			"inputs": [
				{
					"internalType": "address",
					"name": "recipient",
					"type": "address"
				},
				{
					"internalType": "uint256",
					"name": "amount",
					"type": "uint256"
				}
			],
			"name": "transfer",
			"outputs": [
				{
					"internalType": "bool",
					"name": "",
					"type": "bool"
				}
			],
			"stateMutability": "nonpayable",
			"type": "function"
		},
		{
			"inputs": [],
			"name": "transferDelayEnabled",
			"outputs": [
				{
					"internalType": "bool",
					"name": "",
					"type": "bool"
				}
			],
			"stateMutability": "view",
			"type": "function"
		},
		{
			"inputs": [
				{
					"internalType": "address",
					"name": "sender",
					"type": "address"
				},
				{
					"internalType": "address",
					"name": "recipient",
					"type": "address"
				},
				{
					"internalType": "uint256",
					"name": "amount",
					"type": "uint256"
				}
			],
			"name": "transferFrom",
			"outputs": [
				{
					"internalType": "bool",
					"name": "",
					"type": "bool"
				}
			],
			"stateMutability": "nonpayable",
			"type": "function"
		},
		{
			"inputs": [
				{
					"internalType": "address",
					"name": "newOwner",
					"type": "address"
				}
			],
			"name": "transferOwnership",
			"outputs": [],
			"stateMutability": "nonpayable",
			"type": "function"
		},
		{
			"inputs": [],
			"name": "uniswapV2Pair",
			"outputs": [
				{
					"internalType": "address",
					"name": "",
					"type": "address"
				}
			],
			"stateMutability": "view",
			"type": "function"
		},
		{
			"inputs": [],
			"name": "uniswapV2Router",
			"outputs": [
				{
					"internalType": "contract IUniswapV2Router02",
					"name": "",
					"type": "address"
				}
			],
			"stateMutability": "view",
			"type": "function"
		},
		{
			"inputs": [
				{
					"internalType": "address",
					"name": "",
					"type": "address"
				}
			],
			"name": "unlockStartTime",
			"outputs": [
				{
					"internalType": "uint256",
					"name": "",
					"type": "uint256"
				}
			],
			"stateMutability": "view",
			"type": "function"
		},
		{
			"inputs": [],
			"name": "unstakeWallet",
			"outputs": [],
			"stateMutability": "nonpayable",
			"type": "function"
		},
		{
			"inputs": [],
			"name": "unstakeWalletSansReify",
			"outputs": [],
			"stateMutability": "nonpayable",
			"type": "function"
		},
		{
			"inputs": [
				{
					"internalType": "address",
					"name": "newWallet",
					"type": "address"
				}
			],
			"name": "updateAllianceWallet",
			"outputs": [],
			"stateMutability": "nonpayable",
			"type": "function"
		},
		{
			"inputs": [
				{
					"internalType": "uint256",
					"name": "_allianceFee",
					"type": "uint256"
				},
				{
					"internalType": "uint256",
					"name": "_marketingFee",
					"type": "uint256"
				},
				{
					"internalType": "uint256",
					"name": "_liquidityFee",
					"type": "uint256"
				},
				{
					"internalType": "uint256",
					"name": "_devFee",
					"type": "uint256"
				}
			],
			"name": "updateBuyFees",
			"outputs": [],
			"stateMutability": "nonpayable",
			"type": "function"
		},
		{
			"inputs": [
				{
					"internalType": "address",
					"name": "newWallet",
					"type": "address"
				}
			],
			"name": "updateDevWallet",
			"outputs": [],
			"stateMutability": "nonpayable",
			"type": "function"
		},
		{
			"inputs": [
				{
					"internalType": "address",
					"name": "newMarketingWallet",
					"type": "address"
				}
			],
			"name": "updateMarketingWallet",
			"outputs": [],
			"stateMutability": "nonpayable",
			"type": "function"
		},
		{
			"inputs": [
				{
					"internalType": "uint256",
					"name": "newNum",
					"type": "uint256"
				}
			],
			"name": "updateMaxTxnAmount",
			"outputs": [],
			"stateMutability": "nonpayable",
			"type": "function"
		},
		{
			"inputs": [
				{
					"internalType": "uint256",
					"name": "newNum",
					"type": "uint256"
				}
			],
			"name": "updateMaxWalletAmount",
			"outputs": [],
			"stateMutability": "nonpayable",
			"type": "function"
		},
		{
			"inputs": [
				{
					"internalType": "uint256",
					"name": "_allianceFee",
					"type": "uint256"
				},
				{
					"internalType": "uint256",
					"name": "_marketingFee",
					"type": "uint256"
				},
				{
					"internalType": "uint256",
					"name": "_liquidityFee",
					"type": "uint256"
				},
				{
					"internalType": "uint256",
					"name": "_devFee",
					"type": "uint256"
				}
			],
			"name": "updateSellFees",
			"outputs": [],
			"stateMutability": "nonpayable",
			"type": "function"
		},
		{
			"inputs": [
				{
					"internalType": "bool",
					"name": "enabled",
					"type": "bool"
				}
			],
			"name": "updateSwapEnabled",
			"outputs": [],
			"stateMutability": "nonpayable",
			"type": "function"
		},
		{
			"inputs": [
				{
					"internalType": "uint256",
					"name": "newAmount",
					"type": "uint256"
				}
			],
			"name": "updateSwapTokensAtAmount",
			"outputs": [
				{
					"internalType": "bool",
					"name": "",
					"type": "bool"
				}
			],
			"stateMutability": "nonpayable",
			"type": "function"
		},
		{
			"inputs": [
				{
					"internalType": "address",
					"name": "",
					"type": "address"
				}
			],
			"name": "voteCounts",
			"outputs": [
				{
					"internalType": "uint256",
					"name": "",
					"type": "uint256"
				}
			],
			"stateMutability": "view",
			"type": "function"
		},
		{
			"inputs": [
				{
					"internalType": "address",
					"name": "charityWalletVote",
					"type": "address"
				}
			],
			"name": "voteForAddress",
			"outputs": [],
			"stateMutability": "nonpayable",
			"type": "function"
		},
		{
			"inputs": [
				{
					"internalType": "uint256",
					"name": "",
					"type": "uint256"
				}
			],
			"name": "voteIterator",
			"outputs": [
				{
					"internalType": "address",
					"name": "",
					"type": "address"
				}
			],
			"stateMutability": "view",
			"type": "function"
		},
		{
			"inputs": [],
			"name": "voteIteratorLength",
			"outputs": [
				{
					"internalType": "uint256",
					"name": "",
					"type": "uint256"
				}
			],
			"stateMutability": "view",
			"type": "function"
		},
		{
			"inputs": [
				{
					"internalType": "address",
					"name": "",
					"type": "address"
				}
			],
			"name": "voteWeights",
			"outputs": [
				{
					"internalType": "uint256",
					"name": "",
					"type": "uint256"
				}
			],
			"stateMutability": "view",
			"type": "function"
		},
		{
			"inputs": [
				{
					"internalType": "address",
					"name": "charityWalletVote",
					"type": "address"
				}
			],
			"name": "voteWithRebuildIfNecessary",
			"outputs": [],
			"stateMutability": "nonpayable",
			"type": "function"
		},
		{
			"inputs": [
				{
					"internalType": "address",
					"name": "",
					"type": "address"
				}
			],
			"name": "walletWasVotedFor",
			"outputs": [
				{
					"internalType": "bool",
					"name": "",
					"type": "bool"
				}
			],
			"stateMutability": "view",
			"type": "function"
		},
		{
			"stateMutability": "payable",
			"type": "receive"
		}
	]
}