{
	"data": {
		"bytecode": {
			"linkReferences": {},
			"object": "6000805560c0604052600b60808190526a2437b732bca130b233b2b960a91b60a09081526200003291600191906200010b565b50604080518082019091526004808252634842444360e01b602090920191825262000060916002916200010b565b506003805460ff199081166012179091556008805490911690556b033b2e3c9fd0803ce80000006009553480156200009757600080fd5b506040516200276238038062002762833981016040819052620000ba91620001ce565b426004819055600580546001600160a01b038086166001600160a01b0319928316179092556006805492851692909116919091179055620000ff906206978062000206565b600755506200026a9050565b82805462000119906200022d565b90600052602060002090601f0160209004810192826200013d576000855562000188565b82601f106200015857805160ff191683800117855562000188565b8280016001018555821562000188579182015b82811115620001885782518255916020019190600101906200016b565b50620001969291506200019a565b5090565b5b808211156200019657600081556001016200019b565b80516001600160a01b0381168114620001c957600080fd5b919050565b60008060408385031215620001e257600080fd5b620001ed83620001b1565b9150620001fd60208401620001b1565b90509250929050565b600082198211156200022857634e487b7160e01b600052601160045260246000fd5b500190565b600181811c908216806200024257607f821691505b602082108114156200026457634e487b7160e01b600052602260045260246000fd5b50919050565b6124e8806200027a6000396000f3fe608060405234801561001057600080fd5b50600436106102535760003560e01c80638091f3bf11610146578063a8ce45a9116100c3578063d0dc0d8011610087578063d0dc0d801461051e578063d643391f1461053e578063dd62ed3e14610546578063e593c34b1461057f578063efebc720146105a8578063f6f70594146105b157600080fd5b8063a8ce45a91461049f578063a9059cbb146104b2578063aab7c9eb146104c5578063c31db906146104e8578063c57db2c0146104fb57600080fd5b806395d89b411161010a57806395d89b41146104495780639aa13f04146104515780639da37a1114610459578063a457c2d71461046c578063a73d1b061461047f57600080fd5b80638091f3bf1461041257806387ceff091461041f5780638a70262514610425578063923e70741461042e57806394e0b68a1461044157600080fd5b8063313ce567116101d45780636177fd18116101985780636177fd18146103a457806362ad0b15146103b757806366a267a9146103bf57806367cc910f146103df57806370a08231146103ff57600080fd5b8063313ce5671461034157806337425fa014610356578063395093511461037657806359357df514610389578063611cda251461039157600080fd5b806318160ddd1161021b57806318160ddd146102c857806321ac17f8146102d057806323b872dd146102f057806323c40de2146103035780632681eb811461031657600080fd5b8063043cbe5b1461025857806306fdde031461027e578063095ea7b3146102935780630cc874c7146102b65780630f9154b5146102c0575b600080fd5b61026b6102663660046121d3565b6105c4565b6040519081526020015b60405180910390f35b610286610689565b60405161027591906121f5565b6102a66102a136600461216e565b61071b565b6040519015158152602001610275565b6102be610731565b005b6102a66108f1565b60005461026b565b61026b6102de3660046120e4565b600e6020526000908152604090205481565b6102a66102fe366004612132565b610901565b6102be6103113660046120e4565b6109b2565b600554610329906001600160a01b031681565b6040516001600160a01b039091168152602001610275565b60035460405160ff9091168152602001610275565b61026b6103643660046120e4565b600c6020526000908152604090205481565b6102a661038436600461216e565b6109f7565b6102be610a2e565b61032961039f3660046121ba565b610d2a565b6102a66103b23660046120e4565b610d54565b6102be610d72565b61026b6103cd3660046120e4565b60136020526000908152604090205481565b61026b6103ed3660046120e4565b60106020526000908152604090205481565b61026b61040d3660046120e4565b610d7f565b6008546102a69060ff1681565b4261026b565b61026b60095481565b600654610329906001600160a01b031681565b60145461026b565b610286610dde565b60045461026b565b6102be6104673660046121ba565b610ded565b6102a661047a36600461216e565b610df7565b61026b61048d3660046120e4565b60126020526000908152604090205481565b6102be6104ad3660046120e4565b610e92565b6102a66104c036600461216e565b610ff8565b6102a66104d33660046120e4565b60156020526000908152604090205460ff1681565b601654610329906001600160a01b031681565b6102a66105093660046120e4565b600d6020526000908152604090205460ff1681565b61026b61052c3660046120e4565b60116020526000908152604090205481565b6102be611005565b61026b6105543660046120ff565b6001600160a01b039182166000908152600b6020908152604080832093909416825291909152205490565b61032961058d3660046120e4565b600f602052600090815260409020546001600160a01b031681565b61026b60075481565b6102be6105bf3660046120e4565b6109ea565b6000806105d084611010565b905060006105ed6501f331628785683635c9adc5dea00000611073565b905060006105fb6002611010565b90505b84156106695761060f600286612446565b6001141561063f5761062b61062484846110fb565b84906112ee565b92506106386001866123c8565b94506105fe565b61065c61064c83806110fb565b61065683856110fb565b906112ee565b91506106386002866122d1565b856106738461135b565b61067d91906123c8565b93505050505b92915050565b606060018054610698906123f6565b80601f01602080910402602001604051908101604052809291908181526020018280546106c4906123f6565b80156107115780601f106106e657610100808354040283529160200191610711565b820191906000526020600020905b8154815290600101906020018083116106f457829003601f168201915b5050505050905090565b6000610728338484611371565b50600192915050565b6007544210156107735760405162461bcd60e51b81526020600482015260086024820152674e6f74526561647960c01b60448201526064015b60405180910390fd5b60085460ff16156107b85760405162461bcd60e51b815260206004820152600f60248201526e105b1c9958591e53185d5b98da1959608a1b604482015260640161076a565b600660009054906101000a90046001600160a01b03166001600160a01b031663165505c16040518163ffffffff1660e01b8152600401600060405180830381600087803b15801561080857600080fd5b505af115801561081c573d6000803e3d6000fd5b5050505060005460095411156108e2576000805460095461083d91906123c8565b6006546001600160a01b03166000908152600a602052604090205490915061086690829061228b565b6006546001600160a01b03166000908152600a60205260408120919091558054829190819061089690849061228b565b90915550506006546040518281526001600160a01b03909116906000907fddf252ad1be2c89b69c2b068fc378daa952ba7f163c4a11628f55a4df523b3ef9060200160405180910390a3505b6008805460ff19166001179055565b60006108fc33611495565b905090565b600061090e8484846115bc565b6001600160a01b0384166000908152600b60209081526040808320338452909152902054828110156109935760405162461bcd60e51b815260206004820152602860248201527f45524332303a207472616e7366657220616d6f756e74206578636565647320616044820152676c6c6f77616e636560c01b606482015260840161076a565b6109a785336109a286856123c8565b611371565b506001949350505050565b601454600c1480156109dd57506001600160a01b03811660009081526015602052604090205460ff16155b156109ea576109ea610a2e565b6109f481336118b7565b50565b336000818152600b602090815260408083206001600160a01b038716845290915281205490916107289185906109a290869061228b565b601454600c14610a805760405162461bcd60e51b815260206004820152601860248201527f566f74696e67204974657261746f72206e6f742066756c6c0000000000000000604482015260640161076a565b610a88612077565b60005b600c811015610af35760148181548110610aa757610aa761249c565b6000918252602090912001546001600160a01b03168282600c8110610ace57610ace61249c565b6001600160a01b03909216602092909202015280610aeb8161242b565b915050610a8b565b5060015b600c811015610c525760008282600c8110610b1457610b1461249c565b602090810291909101516001600160a01b03811660009081526013909252604082205490925090610b466001856123c8565b905060005b82601360008885600c8110610b6257610b6261249c565b60200201516001600160a01b03166001600160a01b03168152602001908152602001600020541015610bf3578582600c8110610ba057610ba061249c565b602002015186610bb184600161228b565b600c8110610bc157610bc161249c565b6001600160a01b03909216602092909202015281610be157506001610bf3565b81610beb816123df565b925050610b4b565b8015610c0a576001600160a01b0384168652610c3b565b8386610c1784600161228b565b600c8110610c2757610c2761249c565b6001600160a01b0390921660209290920201525b505050508080610c4a9061242b565b915050610af7565b50600b5b60068110610cae5760008282600c8110610c7257610c7261249c565b602090810291909101516001600160a01b03166000908152601590915260409020805460ff191690555080610ca6816123df565b915050610c56565b50610cbb60146000612096565b60005b6006811015610d265760148282600c8110610cdb57610cdb61249c565b6020908102919091015182546001810184556000938452919092200180546001600160a01b0319166001600160a01b0390921691909117905580610d1e8161242b565b915050610cbe565b5050565b60148181548110610d3a57600080fd5b6000918252602090912001546001600160a01b0316905081565b6001600160a01b03166000908152600d602052604090205460ff1690565b610d7d336001611917565b565b6001600160a01b0381166000908152600a6020526040812054610da183610d54565b8015610dbb57506016546001600160a01b03848116911614155b1561068357610dcd81610266856119d3565b610dd7908261228b565b9392505050565b606060028054610698906123f6565b6109f433826119f6565b336000908152600b602090815260408083206001600160a01b038616845290915281205482811015610e795760405162461bcd60e51b815260206004820152602560248201527f45524332303a2064656372656173656420616c6c6f77616e63652062656c6f77604482015264207a65726f60d81b606482015260840161076a565b610e8833856109a286856123c8565b5060019392505050565b610e9b81610d54565b610ed35760405162461bcd60e51b8152602060048201526009602482015268135cdd109954dd1ad960ba1b604482015260640161076a565b6000610ede826119d3565b9050603c811015610eed575050565b6001600160a01b0382166000908152600a6020526040812054610f1090836105c4565b6001600160a01b0384166000908152600a6020526040812080549293508392909190610f3d90849061228b565b90915550610f4b9050611bdb565b15610fc3576000610f5d6007836122d1565b610f6890600361236a565b6016546001600160a01b03166000908152600a6020526040812080549293508392909190610f9790849061228b565b90915550610fa79050818361228b565b600080828254610fb7919061228b565b90915550610fda915050565b80600080828254610fd4919061228b565b90915550505b50506001600160a01b03166000908152600c60205260409020429055565b60006107283384846115bc565b610d7d336000611917565b6000759abe14cd44753b52c4926a9672793542d78c3615cf3a8213156110385761103861245a565b759abe14cd44753b52c4926a9672793542d78c3615cf391982121561105f5761105f61245a565b61068369d3c21bcecceda1000000836122e5565b6000759abe14cd44753b52c4926a9672793542d78c3615cf3a83131561109b5761109b61245a565b759abe14cd44753b52c4926a9672793542d78c3615cf3a8213156110c1576110c161245a565b816110ce576110ce61245a565b60006110d984611010565b905060006110e684611010565b90506110f28282611c0e565b95945050505050565b6000821580611108575081155b1561111557506000610683565b69d3c21bcecceda100000082141561112e575081610683565b69d3c21bcecceda1000000831415611147575080610683565b600069d3c21bcecceda100000061115d85611c6c565b61116791906122a3565b9050600061117485611c8d565b9050600069d3c21bcecceda100000061118c86611c6c565b61119691906122a3565b905060006111a386611c8d565b905060006111b183866122e5565b905084156111d157826111c486836122a3565b146111d1576111d161245a565b60006111e769d3c21bcecceda1000000836122e5565b905081156112115769d3c21bcecceda100000061120483836122a3565b146112115761121161245a565b905080600061122085876122e5565b90508515611240578461123387836122a3565b146112405761124061245a565b600061124c85896122e5565b9050871561126c578461125f89836122a3565b1461126c5761126c61245a565b61127b64e8d4a51000886122a3565b965061128c64e8d4a51000866122a3565b9450600061129a86896122e5565b905087156112ba57856112ad89836122a3565b146112ba576112ba61245a565b846112c581856112ee565b90506112d181846112ee565b90506112dd81836112ee565b9d9c50505050505050505050505050565b6000806112fb838561224a565b905060008413801561130d5750600083135b1561132c57838113801561132057508281135b61132c5761132c61245a565b60008412801561133c5750600083125b15610dd757838112801561134f57508281125b610dd757610dd761245a565b600061068369d3c21bcecceda1000000836122a3565b6001600160a01b0383166113d35760405162461bcd60e51b8152602060048201526024808201527f45524332303a20617070726f76652066726f6d20746865207a65726f206164646044820152637265737360e01b606482015260840161076a565b6001600160a01b0382166114345760405162461bcd60e51b815260206004820152602260248201527f45524332303a20617070726f766520746f20746865207a65726f206164647265604482015261737360f01b606482015260840161076a565b6001600160a01b038381166000818152600b602090815260408083209487168084529482529182902085905590518481527f8c5be1e5ebec7d5bd14f71427d1e84f3dd0314c0f7b2291e5b200ac8c7c3b925910160405180910390a3505050565b60006114a082610d54565b156114aa57600080fd5b6001600160a01b0382166000908152600a6020526040902054662386f26fc1000011156115075760405162461bcd60e51b815260206004820152600b60248201526a496e7366636e74466e647360a81b604482015260640161076a565b61151082611cb8565b61154d5760405162461bcd60e51b815260206004820152600e60248201526d15d85b1b195d125cd31bd8dad95960921b604482015260640161076a565b506001600160a01b03166000908152600d60209081526040808320805460ff19166001908117909155600e8352818420849055600f835281842080546001600160a01b0319169055600c835281842042908190556011845282852055600a835281842054601290935292205590565b6001600160a01b0383166116205760405162461bcd60e51b815260206004820152602560248201527f45524332303a207472616e736665722066726f6d20746865207a65726f206164604482015264647265737360d81b606482015260840161076a565b6001600160a01b0382166116825760405162461bcd60e51b815260206004820152602360248201527f45524332303a207472616e7366657220746f20746865207a65726f206164647260448201526265737360e81b606482015260840161076a565b61168b83610d54565b156116cc5760405162461bcd60e51b815260206004820152601160248201527029ba35b22bb6363a21b7373a2a393739b360791b604482015260640161076a565b6116d583611cb8565b6117185760405162461bcd60e51b81526020600482015260146024820152732637b1b5b2b22bb6363a21b7373a2a393739b33960611b604482015260640161076a565b6001600160a01b0383166000908152600a602052604090205481111561178f5760405162461bcd60e51b815260206004820152602660248201527f45524332303a207472616e7366657220616d6f756e7420657863656564732062604482015265616c616e636560d01b606482015260840161076a565b61179882610d54565b156117a6576117a682610e92565b806117af611bdb565b156118085760006117bf83611d22565b90508015611806576117d181836123c8565b6016546001600160a01b03166000908152600a602052604081208054929450839290919061180090849061228b565b90915550505b505b6001600160a01b0384166000908152600a6020526040812080548492906118309084906123c8565b90915550506001600160a01b0383166000908152600a60205260408120805483929061185d90849061228b565b92505081905550826001600160a01b0316846001600160a01b03167fddf252ad1be2c89b69c2b068fc378daa952ba7f163c4a11628f55a4df523b3ef846040516118a991815260200190565b60405180910390a350505050565b6118c081610d54565b6118c957600080fd5b6118d282611dab565b6118db81611e84565b611905816001600160a01b03166000908152600a6020908152604080832054601090925290912055565b61190f8183611edf565b610d26611f53565b61192082610d54565b61192957600080fd5b80156119385761193882610e92565b6001600160a01b038216600090815260106020526040902054156119675761195f82611e84565b611967611f53565b506001600160a01b03166000908152600d60209081526040808320805460ff19169055600f825280832080546001600160a01b031916905560108252808320839055600c82528083208390556011825280832083905560128252808320839055600e9091529020429055565b6001600160a01b0381166000908152600c602052604081205461068390426123c8565b6007544210611a0457600080fd5b611a0d82610d54565b15611a5a5760405162461bcd60e51b815260206004820152601e60248201527f63616e6e6f74207377617020696e746f207374616b65642077616c6c65740000604482015260640161076a565b6005546006546040516323b872dd60e01b81526001600160a01b0385811660048301529182166024820152604481018490529116906323b872dd90606401602060405180830381600087803b158015611ab257600080fd5b505af1158015611ac6573d6000803e3d6000fd5b505050506040513d601f19601f82011682018060405250810190611aea9190612198565b50600654604051636039fbdb60e01b81526001600160a01b0384811660048301526024820184905290911690636039fbdb90604401600060405180830381600087803b158015611b3957600080fd5b505af1158015611b4d573d6000803e3d6000fd5b505050506001600160a01b0382166000908152600a602052604081208054839290611b7990849061228b565b9250508190555080600080828254611b91919061228b565b90915550506040518181526001600160a01b038316906000907fddf252ad1be2c89b69c2b068fc378daa952ba7f163c4a11628f55a4df523b3ef9060200160405180910390a35050565b6016546000906001600160a01b0316158015906108fc5750601654611c08906001600160a01b0316610d54565b15905090565b600069d3c21bcecceda1000000821415611c29575081610683565b81611c3657611c3661245a565b73af298d050e4395d69670b12b7f41000000000000821315611c5a57611c5a61245a565b610dd783611c6784612049565b6110fb565b600069d3c21bcecceda1000000611c8381846122a3565b61068391906122e5565b600069d3c21bcecceda1000000611ca481846122a3565b611cae91906122e5565b6106839083612389565b6001600160a01b0381166000908152600e602052604081205480611cdf5750600192915050565b6000611cee826206978061228b565b905080421115611d18575050506001600160a01b03166000908152600e6020526040812055600190565b5060009392505050565b60008060045442611d3391906123c8565b90506301e13380811115611d4a5750600092915050565b630168e6a0811115611d6257610dd7610190846122d1565b62f099c0811115611d7857610dd760c8846122d1565b62784ce0811115611d9a57611d8f610190846122d1565b610dd790600361236a565b610dd76064846122d1565b50919050565b6001600160a01b03811660009081526015602052604090205460ff166109f457601454600c11611e1d5760405162461bcd60e51b815260206004820152601d60248201527f566f7465204974657261746f72206d7573742062652072656275696c74000000604482015260640161076a565b6014805460018181019092557fce6d7b5282bd9a3661ae061feed1dbda4e52ab073b1f9285be6e155d9c38d4ec0180546001600160a01b0384166001600160a01b031990911681179091556000908152601560205260409020805460ff1916909117905550565b6001600160a01b038082166000908152600f6020908152604080832054601083528184205494168084526013909252909120549091611ec2916123c8565b6001600160a01b0390911660009081526013602052604090205550565b6001600160a01b0380831660009081526010602090815260408083205493851683526013909152902054611f13919061228b565b6001600160a01b03918216600081815260136020908152604080832094909455949093168352600f909352902080546001600160a01b0319169091179055565b60008060005b601454811015611fc457600060148281548110611f7857611f7861249c565b60009182526020808320909101546001600160a01b0316808352601390915260409091205490915084811115611faf578094508193505b50508080611fbc9061242b565b915050611f59565b506016546001600160a01b0382811691161415611fdf575050565b601654604080516001600160a01b03928316815291831660208301527f04611ba562b1be5e5baf710c558258fe11b3eeb5d1d1358f3dbfced2e3b1c24e910160405180910390a1601680546001600160a01b0319166001600160a01b039290921691909117905550565b6000816120585761205861245a565b8161206d69d3c21bcecceda1000000806122e5565b61068391906122a3565b604051806101800160405280600c906020820280368337509192915050565b50805460008255906000526020600020908101906109f491905b808211156120c457600081556001016120b0565b5090565b80356001600160a01b03811681146120df57600080fd5b919050565b6000602082840312156120f657600080fd5b610dd7826120c8565b6000806040838503121561211257600080fd5b61211b836120c8565b9150612129602084016120c8565b90509250929050565b60008060006060848603121561214757600080fd5b612150846120c8565b925061215e602085016120c8565b9150604084013590509250925092565b6000806040838503121561218157600080fd5b61218a836120c8565b946020939093013593505050565b6000602082840312156121aa57600080fd5b81518015158114610dd757600080fd5b6000602082840312156121cc57600080fd5b5035919050565b600080604083850312156121e657600080fd5b50508035926020909101359150565b600060208083528351808285015260005b8181101561222257858101830151858201604001528201612206565b81811115612234576000604083870101525b50601f01601f1916929092016040019392505050565b600080821280156001600160ff1b038490038513161561226c5761226c612470565b600160ff1b839003841281161561228557612285612470565b50500190565b6000821982111561229e5761229e612470565b500190565b6000826122b2576122b2612486565b600160ff1b8214600019841416156122cc576122cc612470565b500590565b6000826122e0576122e0612486565b500490565b60006001600160ff1b038184138284138082168684048611161561230b5761230b612470565b600160ff1b600087128281168783058912161561232a5761232a612470565b6000871292508782058712848416161561234657612346612470565b8785058712818416161561235c5761235c612470565b505050929093029392505050565b600081600019048311821515161561238457612384612470565b500290565b60008083128015600160ff1b8501841216156123a7576123a7612470565b6001600160ff1b03840183138116156123c2576123c2612470565b50500390565b6000828210156123da576123da612470565b500390565b6000816123ee576123ee612470565b506000190190565b600181811c9082168061240a57607f821691505b60208210811415611da557634e487b7160e01b600052602260045260246000fd5b600060001982141561243f5761243f612470565b5060010190565b60008261245557612455612486565b500690565b634e487b7160e01b600052600160045260246000fd5b634e487b7160e01b600052601160045260246000fd5b634e487b7160e01b600052601260045260246000fd5b634e487b7160e01b600052603260045260246000fdfea2646970667358221220a74dac79226a9ebf5936578b8750c547b35eb081c33490f7d4f2dd0479d380ef64736f6c63430008070033",
			"opcodes": "PUSH1 0x0 DUP1 SSTORE PUSH1 0xC0 PUSH1 0x40 MSTORE PUSH1 0xB PUSH1 0x80 DUP2 SWAP1 MSTORE PUSH11 0x2437B732BCA130B233B2B9 PUSH1 0xA9 SHL PUSH1 0xA0 SWAP1 DUP2 MSTORE PUSH3 0x32 SWAP2 PUSH1 0x1 SWAP2 SWAP1 PUSH3 0x10B JUMP JUMPDEST POP PUSH1 0x40 DUP1 MLOAD DUP1 DUP3 ADD SWAP1 SWAP2 MSTORE PUSH1 0x4 DUP1 DUP3 MSTORE PUSH4 0x48424443 PUSH1 0xE0 SHL PUSH1 0x20 SWAP1 SWAP3 ADD SWAP2 DUP3 MSTORE PUSH3 0x60 SWAP2 PUSH1 0x2 SWAP2 PUSH3 0x10B JUMP JUMPDEST POP PUSH1 0x3 DUP1 SLOAD PUSH1 0xFF NOT SWAP1 DUP2 AND PUSH1 0x12 OR SWAP1 SWAP2 SSTORE PUSH1 0x8 DUP1 SLOAD SWAP1 SWAP2 AND SWAP1 SSTORE PUSH12 0x33B2E3C9FD0803CE8000000 PUSH1 0x9 SSTORE CALLVALUE DUP1 ISZERO PUSH3 0x97 JUMPI PUSH1 0x0 DUP1 REVERT JUMPDEST POP PUSH1 0x40 MLOAD PUSH3 0x2762 CODESIZE SUB DUP1 PUSH3 0x2762 DUP4 CODECOPY DUP2 ADD PUSH1 0x40 DUP2 SWAP1 MSTORE PUSH3 0xBA SWAP2 PUSH3 0x1CE JUMP JUMPDEST TIMESTAMP PUSH1 0x4 DUP2 SWAP1 SSTORE PUSH1 0x5 DUP1 SLOAD PUSH1 0x1 PUSH1 0x1 PUSH1 0xA0 SHL SUB DUP1 DUP7 AND PUSH1 0x1 PUSH1 0x1 PUSH1 0xA0 SHL SUB NOT SWAP3 DUP4 AND OR SWAP1 SWAP3 SSTORE PUSH1 0x6 DUP1 SLOAD SWAP3 DUP6 AND SWAP3 SWAP1 SWAP2 AND SWAP2 SWAP1 SWAP2 OR SWAP1 SSTORE PUSH3 0xFF SWAP1 PUSH3 0x69780 PUSH3 0x206 JUMP JUMPDEST PUSH1 0x7 SSTORE POP PUSH3 0x26A SWAP1 POP JUMP JUMPDEST DUP3 DUP1 SLOAD PUSH3 0x119 SWAP1 PUSH3 0x22D JUMP JUMPDEST SWAP1 PUSH1 0x0 MSTORE PUSH1 0x20 PUSH1 0x0 KECCAK256 SWAP1 PUSH1 0x1F ADD PUSH1 0x20 SWAP1 DIV DUP2 ADD SWAP3 DUP3 PUSH3 0x13D JUMPI PUSH1 0x0 DUP6 SSTORE PUSH3 0x188 JUMP JUMPDEST DUP3 PUSH1 0x1F LT PUSH3 0x158 JUMPI DUP1 MLOAD PUSH1 0xFF NOT AND DUP4 DUP1 ADD OR DUP6 SSTORE PUSH3 0x188 JUMP JUMPDEST DUP3 DUP1 ADD PUSH1 0x1 ADD DUP6 SSTORE DUP3 ISZERO PUSH3 0x188 JUMPI SWAP2 DUP3 ADD JUMPDEST DUP3 DUP2 GT ISZERO PUSH3 0x188 JUMPI DUP3 MLOAD DUP3 SSTORE SWAP2 PUSH1 0x20 ADD SWAP2 SWAP1 PUSH1 0x1 ADD SWAP1 PUSH3 0x16B JUMP JUMPDEST POP PUSH3 0x196 SWAP3 SWAP2 POP PUSH3 0x19A JUMP JUMPDEST POP SWAP1 JUMP JUMPDEST JUMPDEST DUP1 DUP3 GT ISZERO PUSH3 0x196 JUMPI PUSH1 0x0 DUP2 SSTORE PUSH1 0x1 ADD PUSH3 0x19B JUMP JUMPDEST DUP1 MLOAD PUSH1 0x1 PUSH1 0x1 PUSH1 0xA0 SHL SUB DUP2 AND DUP2 EQ PUSH3 0x1C9 JUMPI PUSH1 0x0 DUP1 REVERT JUMPDEST SWAP2 SWAP1 POP JUMP JUMPDEST PUSH1 0x0 DUP1 PUSH1 0x40 DUP4 DUP6 SUB SLT ISZERO PUSH3 0x1E2 JUMPI PUSH1 0x0 DUP1 REVERT JUMPDEST PUSH3 0x1ED DUP4 PUSH3 0x1B1 JUMP JUMPDEST SWAP2 POP PUSH3 0x1FD PUSH1 0x20 DUP5 ADD PUSH3 0x1B1 JUMP JUMPDEST SWAP1 POP SWAP3 POP SWAP3 SWAP1 POP JUMP JUMPDEST PUSH1 0x0 DUP3 NOT DUP3 GT ISZERO PUSH3 0x228 JUMPI PUSH4 0x4E487B71 PUSH1 0xE0 SHL PUSH1 0x0 MSTORE PUSH1 0x11 PUSH1 0x4 MSTORE PUSH1 0x24 PUSH1 0x0 REVERT JUMPDEST POP ADD SWAP1 JUMP JUMPDEST PUSH1 0x1 DUP2 DUP2 SHR SWAP1 DUP3 AND DUP1 PUSH3 0x242 JUMPI PUSH1 0x7F DUP3 AND SWAP2 POP JUMPDEST PUSH1 0x20 DUP3 LT DUP2 EQ ISZERO PUSH3 0x264 JUMPI PUSH4 0x4E487B71 PUSH1 0xE0 SHL PUSH1 0x0 MSTORE PUSH1 0x22 PUSH1 0x4 MSTORE PUSH1 0x24 PUSH1 0x0 REVERT JUMPDEST POP SWAP2 SWAP1 POP JUMP JUMPDEST PUSH2 0x24E8 DUP1 PUSH3 0x27A PUSH1 0x0 CODECOPY PUSH1 0x0 RETURN INVALID PUSH1 0x80 PUSH1 0x40 MSTORE CALLVALUE DUP1 ISZERO PUSH2 0x10 JUMPI PUSH1 0x0 DUP1 REVERT JUMPDEST POP PUSH1 0x4 CALLDATASIZE LT PUSH2 0x253 JUMPI PUSH1 0x0 CALLDATALOAD PUSH1 0xE0 SHR DUP1 PUSH4 0x8091F3BF GT PUSH2 0x146 JUMPI DUP1 PUSH4 0xA8CE45A9 GT PUSH2 0xC3 JUMPI DUP1 PUSH4 0xD0DC0D80 GT PUSH2 0x87 JUMPI DUP1 PUSH4 0xD0DC0D80 EQ PUSH2 0x51E JUMPI DUP1 PUSH4 0xD643391F EQ PUSH2 0x53E JUMPI DUP1 PUSH4 0xDD62ED3E EQ PUSH2 0x546 JUMPI DUP1 PUSH4 0xE593C34B EQ PUSH2 0x57F JUMPI DUP1 PUSH4 0xEFEBC720 EQ PUSH2 0x5A8 JUMPI DUP1 PUSH4 0xF6F70594 EQ PUSH2 0x5B1 JUMPI PUSH1 0x0 DUP1 REVERT JUMPDEST DUP1 PUSH4 0xA8CE45A9 EQ PUSH2 0x49F JUMPI DUP1 PUSH4 0xA9059CBB EQ PUSH2 0x4B2 JUMPI DUP1 PUSH4 0xAAB7C9EB EQ PUSH2 0x4C5 JUMPI DUP1 PUSH4 0xC31DB906 EQ PUSH2 0x4E8 JUMPI DUP1 PUSH4 0xC57DB2C0 EQ PUSH2 0x4FB JUMPI PUSH1 0x0 DUP1 REVERT JUMPDEST DUP1 PUSH4 0x95D89B41 GT PUSH2 0x10A JUMPI DUP1 PUSH4 0x95D89B41 EQ PUSH2 0x449 JUMPI DUP1 PUSH4 0x9AA13F04 EQ PUSH2 0x451 JUMPI DUP1 PUSH4 0x9DA37A11 EQ PUSH2 0x459 JUMPI DUP1 PUSH4 0xA457C2D7 EQ PUSH2 0x46C JUMPI DUP1 PUSH4 0xA73D1B06 EQ PUSH2 0x47F JUMPI PUSH1 0x0 DUP1 REVERT JUMPDEST DUP1 PUSH4 0x8091F3BF EQ PUSH2 0x412 JUMPI DUP1 PUSH4 0x87CEFF09 EQ PUSH2 0x41F JUMPI DUP1 PUSH4 0x8A702625 EQ PUSH2 0x425 JUMPI DUP1 PUSH4 0x923E7074 EQ PUSH2 0x42E JUMPI DUP1 PUSH4 0x94E0B68A EQ PUSH2 0x441 JUMPI PUSH1 0x0 DUP1 REVERT JUMPDEST DUP1 PUSH4 0x313CE567 GT PUSH2 0x1D4 JUMPI DUP1 PUSH4 0x6177FD18 GT PUSH2 0x198 JUMPI DUP1 PUSH4 0x6177FD18 EQ PUSH2 0x3A4 JUMPI DUP1 PUSH4 0x62AD0B15 EQ PUSH2 0x3B7 JUMPI DUP1 PUSH4 0x66A267A9 EQ PUSH2 0x3BF JUMPI DUP1 PUSH4 0x67CC910F EQ PUSH2 0x3DF JUMPI DUP1 PUSH4 0x70A08231 EQ PUSH2 0x3FF JUMPI PUSH1 0x0 DUP1 REVERT JUMPDEST DUP1 PUSH4 0x313CE567 EQ PUSH2 0x341 JUMPI DUP1 PUSH4 0x37425FA0 EQ PUSH2 0x356 JUMPI DUP1 PUSH4 0x39509351 EQ PUSH2 0x376 JUMPI DUP1 PUSH4 0x59357DF5 EQ PUSH2 0x389 JUMPI DUP1 PUSH4 0x611CDA25 EQ PUSH2 0x391 JUMPI PUSH1 0x0 DUP1 REVERT JUMPDEST DUP1 PUSH4 0x18160DDD GT PUSH2 0x21B JUMPI DUP1 PUSH4 0x18160DDD EQ PUSH2 0x2C8 JUMPI DUP1 PUSH4 0x21AC17F8 EQ PUSH2 0x2D0 JUMPI DUP1 PUSH4 0x23B872DD EQ PUSH2 0x2F0 JUMPI DUP1 PUSH4 0x23C40DE2 EQ PUSH2 0x303 JUMPI DUP1 PUSH4 0x2681EB81 EQ PUSH2 0x316 JUMPI PUSH1 0x0 DUP1 REVERT JUMPDEST DUP1 PUSH4 0x43CBE5B EQ PUSH2 0x258 JUMPI DUP1 PUSH4 0x6FDDE03 EQ PUSH2 0x27E JUMPI DUP1 PUSH4 0x95EA7B3 EQ PUSH2 0x293 JUMPI DUP1 PUSH4 0xCC874C7 EQ PUSH2 0x2B6 JUMPI DUP1 PUSH4 0xF9154B5 EQ PUSH2 0x2C0 JUMPI JUMPDEST PUSH1 0x0 DUP1 REVERT JUMPDEST PUSH2 0x26B PUSH2 0x266 CALLDATASIZE PUSH1 0x4 PUSH2 0x21D3 JUMP JUMPDEST PUSH2 0x5C4 JUMP JUMPDEST PUSH1 0x40 MLOAD SWAP1 DUP2 MSTORE PUSH1 0x20 ADD JUMPDEST PUSH1 0x40 MLOAD DUP1 SWAP2 SUB SWAP1 RETURN JUMPDEST PUSH2 0x286 PUSH2 0x689 JUMP JUMPDEST PUSH1 0x40 MLOAD PUSH2 0x275 SWAP2 SWAP1 PUSH2 0x21F5 JUMP JUMPDEST PUSH2 0x2A6 PUSH2 0x2A1 CALLDATASIZE PUSH1 0x4 PUSH2 0x216E JUMP JUMPDEST PUSH2 0x71B JUMP JUMPDEST PUSH1 0x40 MLOAD SWAP1 ISZERO ISZERO DUP2 MSTORE PUSH1 0x20 ADD PUSH2 0x275 JUMP JUMPDEST PUSH2 0x2BE PUSH2 0x731 JUMP JUMPDEST STOP JUMPDEST PUSH2 0x2A6 PUSH2 0x8F1 JUMP JUMPDEST PUSH1 0x0 SLOAD PUSH2 0x26B JUMP JUMPDEST PUSH2 0x26B PUSH2 0x2DE CALLDATASIZE PUSH1 0x4 PUSH2 0x20E4 JUMP JUMPDEST PUSH1 0xE PUSH1 0x20 MSTORE PUSH1 0x0 SWAP1 DUP2 MSTORE PUSH1 0x40 SWAP1 KECCAK256 SLOAD DUP2 JUMP JUMPDEST PUSH2 0x2A6 PUSH2 0x2FE CALLDATASIZE PUSH1 0x4 PUSH2 0x2132 JUMP JUMPDEST PUSH2 0x901 JUMP JUMPDEST PUSH2 0x2BE PUSH2 0x311 CALLDATASIZE PUSH1 0x4 PUSH2 0x20E4 JUMP JUMPDEST PUSH2 0x9B2 JUMP JUMPDEST PUSH1 0x5 SLOAD PUSH2 0x329 SWAP1 PUSH1 0x1 PUSH1 0x1 PUSH1 0xA0 SHL SUB AND DUP2 JUMP JUMPDEST PUSH1 0x40 MLOAD PUSH1 0x1 PUSH1 0x1 PUSH1 0xA0 SHL SUB SWAP1 SWAP2 AND DUP2 MSTORE PUSH1 0x20 ADD PUSH2 0x275 JUMP JUMPDEST PUSH1 0x3 SLOAD PUSH1 0x40 MLOAD PUSH1 0xFF SWAP1 SWAP2 AND DUP2 MSTORE PUSH1 0x20 ADD PUSH2 0x275 JUMP JUMPDEST PUSH2 0x26B PUSH2 0x364 CALLDATASIZE PUSH1 0x4 PUSH2 0x20E4 JUMP JUMPDEST PUSH1 0xC PUSH1 0x20 MSTORE PUSH1 0x0 SWAP1 DUP2 MSTORE PUSH1 0x40 SWAP1 KECCAK256 SLOAD DUP2 JUMP JUMPDEST PUSH2 0x2A6 PUSH2 0x384 CALLDATASIZE PUSH1 0x4 PUSH2 0x216E JUMP JUMPDEST PUSH2 0x9F7 JUMP JUMPDEST PUSH2 0x2BE PUSH2 0xA2E JUMP JUMPDEST PUSH2 0x329 PUSH2 0x39F CALLDATASIZE PUSH1 0x4 PUSH2 0x21BA JUMP JUMPDEST PUSH2 0xD2A JUMP JUMPDEST PUSH2 0x2A6 PUSH2 0x3B2 CALLDATASIZE PUSH1 0x4 PUSH2 0x20E4 JUMP JUMPDEST PUSH2 0xD54 JUMP JUMPDEST PUSH2 0x2BE PUSH2 0xD72 JUMP JUMPDEST PUSH2 0x26B PUSH2 0x3CD CALLDATASIZE PUSH1 0x4 PUSH2 0x20E4 JUMP JUMPDEST PUSH1 0x13 PUSH1 0x20 MSTORE PUSH1 0x0 SWAP1 DUP2 MSTORE PUSH1 0x40 SWAP1 KECCAK256 SLOAD DUP2 JUMP JUMPDEST PUSH2 0x26B PUSH2 0x3ED CALLDATASIZE PUSH1 0x4 PUSH2 0x20E4 JUMP JUMPDEST PUSH1 0x10 PUSH1 0x20 MSTORE PUSH1 0x0 SWAP1 DUP2 MSTORE PUSH1 0x40 SWAP1 KECCAK256 SLOAD DUP2 JUMP JUMPDEST PUSH2 0x26B PUSH2 0x40D CALLDATASIZE PUSH1 0x4 PUSH2 0x20E4 JUMP JUMPDEST PUSH2 0xD7F JUMP JUMPDEST PUSH1 0x8 SLOAD PUSH2 0x2A6 SWAP1 PUSH1 0xFF AND DUP2 JUMP JUMPDEST TIMESTAMP PUSH2 0x26B JUMP JUMPDEST PUSH2 0x26B PUSH1 0x9 SLOAD DUP2 JUMP JUMPDEST PUSH1 0x6 SLOAD PUSH2 0x329 SWAP1 PUSH1 0x1 PUSH1 0x1 PUSH1 0xA0 SHL SUB AND DUP2 JUMP JUMPDEST PUSH1 0x14 SLOAD PUSH2 0x26B JUMP JUMPDEST PUSH2 0x286 PUSH2 0xDDE JUMP JUMPDEST PUSH1 0x4 SLOAD PUSH2 0x26B JUMP JUMPDEST PUSH2 0x2BE PUSH2 0x467 CALLDATASIZE PUSH1 0x4 PUSH2 0x21BA JUMP JUMPDEST PUSH2 0xDED JUMP JUMPDEST PUSH2 0x2A6 PUSH2 0x47A CALLDATASIZE PUSH1 0x4 PUSH2 0x216E JUMP JUMPDEST PUSH2 0xDF7 JUMP JUMPDEST PUSH2 0x26B PUSH2 0x48D CALLDATASIZE PUSH1 0x4 PUSH2 0x20E4 JUMP JUMPDEST PUSH1 0x12 PUSH1 0x20 MSTORE PUSH1 0x0 SWAP1 DUP2 MSTORE PUSH1 0x40 SWAP1 KECCAK256 SLOAD DUP2 JUMP JUMPDEST PUSH2 0x2BE PUSH2 0x4AD CALLDATASIZE PUSH1 0x4 PUSH2 0x20E4 JUMP JUMPDEST PUSH2 0xE92 JUMP JUMPDEST PUSH2 0x2A6 PUSH2 0x4C0 CALLDATASIZE PUSH1 0x4 PUSH2 0x216E JUMP JUMPDEST PUSH2 0xFF8 JUMP JUMPDEST PUSH2 0x2A6 PUSH2 0x4D3 CALLDATASIZE PUSH1 0x4 PUSH2 0x20E4 JUMP JUMPDEST PUSH1 0x15 PUSH1 0x20 MSTORE PUSH1 0x0 SWAP1 DUP2 MSTORE PUSH1 0x40 SWAP1 KECCAK256 SLOAD PUSH1 0xFF AND DUP2 JUMP JUMPDEST PUSH1 0x16 SLOAD PUSH2 0x329 SWAP1 PUSH1 0x1 PUSH1 0x1 PUSH1 0xA0 SHL SUB AND DUP2 JUMP JUMPDEST PUSH2 0x2A6 PUSH2 0x509 CALLDATASIZE PUSH1 0x4 PUSH2 0x20E4 JUMP JUMPDEST PUSH1 0xD PUSH1 0x20 MSTORE PUSH1 0x0 SWAP1 DUP2 MSTORE PUSH1 0x40 SWAP1 KECCAK256 SLOAD PUSH1 0xFF AND DUP2 JUMP JUMPDEST PUSH2 0x26B PUSH2 0x52C CALLDATASIZE PUSH1 0x4 PUSH2 0x20E4 JUMP JUMPDEST PUSH1 0x11 PUSH1 0x20 MSTORE PUSH1 0x0 SWAP1 DUP2 MSTORE PUSH1 0x40 SWAP1 KECCAK256 SLOAD DUP2 JUMP JUMPDEST PUSH2 0x2BE PUSH2 0x1005 JUMP JUMPDEST PUSH2 0x26B PUSH2 0x554 CALLDATASIZE PUSH1 0x4 PUSH2 0x20FF JUMP JUMPDEST PUSH1 0x1 PUSH1 0x1 PUSH1 0xA0 SHL SUB SWAP2 DUP3 AND PUSH1 0x0 SWAP1 DUP2 MSTORE PUSH1 0xB PUSH1 0x20 SWAP1 DUP2 MSTORE PUSH1 0x40 DUP1 DUP4 KECCAK256 SWAP4 SWAP1 SWAP5 AND DUP3 MSTORE SWAP2 SWAP1 SWAP2 MSTORE KECCAK256 SLOAD SWAP1 JUMP JUMPDEST PUSH2 0x329 PUSH2 0x58D CALLDATASIZE PUSH1 0x4 PUSH2 0x20E4 JUMP JUMPDEST PUSH1 0xF PUSH1 0x20 MSTORE PUSH1 0x0 SWAP1 DUP2 MSTORE PUSH1 0x40 SWAP1 KECCAK256 SLOAD PUSH1 0x1 PUSH1 0x1 PUSH1 0xA0 SHL SUB AND DUP2 JUMP JUMPDEST PUSH2 0x26B PUSH1 0x7 SLOAD DUP2 JUMP JUMPDEST PUSH2 0x2BE PUSH2 0x5BF CALLDATASIZE PUSH1 0x4 PUSH2 0x20E4 JUMP JUMPDEST PUSH2 0x9EA JUMP JUMPDEST PUSH1 0x0 DUP1 PUSH2 0x5D0 DUP5 PUSH2 0x1010 JUMP JUMPDEST SWAP1 POP PUSH1 0x0 PUSH2 0x5ED PUSH6 0x1F331628785 PUSH9 0x3635C9ADC5DEA00000 PUSH2 0x1073 JUMP JUMPDEST SWAP1 POP PUSH1 0x0 PUSH2 0x5FB PUSH1 0x2 PUSH2 0x1010 JUMP JUMPDEST SWAP1 POP JUMPDEST DUP5 ISZERO PUSH2 0x669 JUMPI PUSH2 0x60F PUSH1 0x2 DUP7 PUSH2 0x2446 JUMP JUMPDEST PUSH1 0x1 EQ ISZERO PUSH2 0x63F JUMPI PUSH2 0x62B PUSH2 0x624 DUP5 DUP5 PUSH2 0x10FB JUMP JUMPDEST DUP5 SWAP1 PUSH2 0x12EE JUMP JUMPDEST SWAP3 POP PUSH2 0x638 PUSH1 0x1 DUP7 PUSH2 0x23C8 JUMP JUMPDEST SWAP5 POP PUSH2 0x5FE JUMP JUMPDEST PUSH2 0x65C PUSH2 0x64C DUP4 DUP1 PUSH2 0x10FB JUMP JUMPDEST PUSH2 0x656 DUP4 DUP6 PUSH2 0x10FB JUMP JUMPDEST SWAP1 PUSH2 0x12EE JUMP JUMPDEST SWAP2 POP PUSH2 0x638 PUSH1 0x2 DUP7 PUSH2 0x22D1 JUMP JUMPDEST DUP6 PUSH2 0x673 DUP5 PUSH2 0x135B JUMP JUMPDEST PUSH2 0x67D SWAP2 SWAP1 PUSH2 0x23C8 JUMP JUMPDEST SWAP4 POP POP POP POP JUMPDEST SWAP3 SWAP2 POP POP JUMP JUMPDEST PUSH1 0x60 PUSH1 0x1 DUP1 SLOAD PUSH2 0x698 SWAP1 PUSH2 0x23F6 JUMP JUMPDEST DUP1 PUSH1 0x1F ADD PUSH1 0x20 DUP1 SWAP2 DIV MUL PUSH1 0x20 ADD PUSH1 0x40 MLOAD SWAP1 DUP2 ADD PUSH1 0x40 MSTORE DUP1 SWAP3 SWAP2 SWAP1 DUP2 DUP2 MSTORE PUSH1 0x20 ADD DUP3 DUP1 SLOAD PUSH2 0x6C4 SWAP1 PUSH2 0x23F6 JUMP JUMPDEST DUP1 ISZERO PUSH2 0x711 JUMPI DUP1 PUSH1 0x1F LT PUSH2 0x6E6 JUMPI PUSH2 0x100 DUP1 DUP4 SLOAD DIV MUL DUP4 MSTORE SWAP2 PUSH1 0x20 ADD SWAP2 PUSH2 0x711 JUMP JUMPDEST DUP3 ADD SWAP2 SWAP1 PUSH1 0x0 MSTORE PUSH1 0x20 PUSH1 0x0 KECCAK256 SWAP1 JUMPDEST DUP2 SLOAD DUP2 MSTORE SWAP1 PUSH1 0x1 ADD SWAP1 PUSH1 0x20 ADD DUP1 DUP4 GT PUSH2 0x6F4 JUMPI DUP3 SWAP1 SUB PUSH1 0x1F AND DUP3 ADD SWAP2 JUMPDEST POP POP POP POP POP SWAP1 POP SWAP1 JUMP JUMPDEST PUSH1 0x0 PUSH2 0x728 CALLER DUP5 DUP5 PUSH2 0x1371 JUMP JUMPDEST POP PUSH1 0x1 SWAP3 SWAP2 POP POP JUMP JUMPDEST PUSH1 0x7 SLOAD TIMESTAMP LT ISZERO PUSH2 0x773 JUMPI PUSH1 0x40 MLOAD PUSH3 0x461BCD PUSH1 0xE5 SHL DUP2 MSTORE PUSH1 0x20 PUSH1 0x4 DUP3 ADD MSTORE PUSH1 0x8 PUSH1 0x24 DUP3 ADD MSTORE PUSH8 0x4E6F745265616479 PUSH1 0xC0 SHL PUSH1 0x44 DUP3 ADD MSTORE PUSH1 0x64 ADD JUMPDEST PUSH1 0x40 MLOAD DUP1 SWAP2 SUB SWAP1 REVERT JUMPDEST PUSH1 0x8 SLOAD PUSH1 0xFF AND ISZERO PUSH2 0x7B8 JUMPI PUSH1 0x40 MLOAD PUSH3 0x461BCD PUSH1 0xE5 SHL DUP2 MSTORE PUSH1 0x20 PUSH1 0x4 DUP3 ADD MSTORE PUSH1 0xF PUSH1 0x24 DUP3 ADD MSTORE PUSH15 0x105B1C9958591E53185D5B98DA1959 PUSH1 0x8A SHL PUSH1 0x44 DUP3 ADD MSTORE PUSH1 0x64 ADD PUSH2 0x76A JUMP JUMPDEST PUSH1 0x6 PUSH1 0x0 SWAP1 SLOAD SWAP1 PUSH2 0x100 EXP SWAP1 DIV PUSH1 0x1 PUSH1 0x1 PUSH1 0xA0 SHL SUB AND PUSH1 0x1 PUSH1 0x1 PUSH1 0xA0 SHL SUB AND PUSH4 0x165505C1 PUSH1 0x40 MLOAD DUP2 PUSH4 0xFFFFFFFF AND PUSH1 0xE0 SHL DUP2 MSTORE PUSH1 0x4 ADD PUSH1 0x0 PUSH1 0x40 MLOAD DUP1 DUP4 SUB DUP2 PUSH1 0x0 DUP8 DUP1 EXTCODESIZE ISZERO DUP1 ISZERO PUSH2 0x808 JUMPI PUSH1 0x0 DUP1 REVERT JUMPDEST POP GAS CALL ISZERO DUP1 ISZERO PUSH2 0x81C JUMPI RETURNDATASIZE PUSH1 0x0 DUP1 RETURNDATACOPY RETURNDATASIZE PUSH1 0x0 REVERT JUMPDEST POP POP POP POP PUSH1 0x0 SLOAD PUSH1 0x9 SLOAD GT ISZERO PUSH2 0x8E2 JUMPI PUSH1 0x0 DUP1 SLOAD PUSH1 0x9 SLOAD PUSH2 0x83D SWAP2 SWAP1 PUSH2 0x23C8 JUMP JUMPDEST PUSH1 0x6 SLOAD PUSH1 0x1 PUSH1 0x1 PUSH1 0xA0 SHL SUB AND PUSH1 0x0 SWAP1 DUP2 MSTORE PUSH1 0xA PUSH1 0x20 MSTORE PUSH1 0x40 SWAP1 KECCAK256 SLOAD SWAP1 SWAP2 POP PUSH2 0x866 SWAP1 DUP3 SWAP1 PUSH2 0x228B JUMP JUMPDEST PUSH1 0x6 SLOAD PUSH1 0x1 PUSH1 0x1 PUSH1 0xA0 SHL SUB AND PUSH1 0x0 SWAP1 DUP2 MSTORE PUSH1 0xA PUSH1 0x20 MSTORE PUSH1 0x40 DUP2 KECCAK256 SWAP2 SWAP1 SWAP2 SSTORE DUP1 SLOAD DUP3 SWAP2 SWAP1 DUP2 SWAP1 PUSH2 0x896 SWAP1 DUP5 SWAP1 PUSH2 0x228B JUMP JUMPDEST SWAP1 SWAP2 SSTORE POP POP PUSH1 0x6 SLOAD PUSH1 0x40 MLOAD DUP3 DUP2 MSTORE PUSH1 0x1 PUSH1 0x1 PUSH1 0xA0 SHL SUB SWAP1 SWAP2 AND SWAP1 PUSH1 0x0 SWAP1 PUSH32 0xDDF252AD1BE2C89B69C2B068FC378DAA952BA7F163C4A11628F55A4DF523B3EF SWAP1 PUSH1 0x20 ADD PUSH1 0x40 MLOAD DUP1 SWAP2 SUB SWAP1 LOG3 POP JUMPDEST PUSH1 0x8 DUP1 SLOAD PUSH1 0xFF NOT AND PUSH1 0x1 OR SWAP1 SSTORE JUMP JUMPDEST PUSH1 0x0 PUSH2 0x8FC CALLER PUSH2 0x1495 JUMP JUMPDEST SWAP1 POP SWAP1 JUMP JUMPDEST PUSH1 0x0 PUSH2 0x90E DUP5 DUP5 DUP5 PUSH2 0x15BC JUMP JUMPDEST PUSH1 0x1 PUSH1 0x1 PUSH1 0xA0 SHL SUB DUP5 AND PUSH1 0x0 SWAP1 DUP2 MSTORE PUSH1 0xB PUSH1 0x20 SWAP1 DUP2 MSTORE PUSH1 0x40 DUP1 DUP4 KECCAK256 CALLER DUP5 MSTORE SWAP1 SWAP2 MSTORE SWAP1 KECCAK256 SLOAD DUP3 DUP2 LT ISZERO PUSH2 0x993 JUMPI PUSH1 0x40 MLOAD PUSH3 0x461BCD PUSH1 0xE5 SHL DUP2 MSTORE PUSH1 0x20 PUSH1 0x4 DUP3 ADD MSTORE PUSH1 0x28 PUSH1 0x24 DUP3 ADD MSTORE PUSH32 0x45524332303A207472616E7366657220616D6F756E7420657863656564732061 PUSH1 0x44 DUP3 ADD MSTORE PUSH8 0x6C6C6F77616E6365 PUSH1 0xC0 SHL PUSH1 0x64 DUP3 ADD MSTORE PUSH1 0x84 ADD PUSH2 0x76A JUMP JUMPDEST PUSH2 0x9A7 DUP6 CALLER PUSH2 0x9A2 DUP7 DUP6 PUSH2 0x23C8 JUMP JUMPDEST PUSH2 0x1371 JUMP JUMPDEST POP PUSH1 0x1 SWAP5 SWAP4 POP POP POP POP JUMP JUMPDEST PUSH1 0x14 SLOAD PUSH1 0xC EQ DUP1 ISZERO PUSH2 0x9DD JUMPI POP PUSH1 0x1 PUSH1 0x1 PUSH1 0xA0 SHL SUB DUP2 AND PUSH1 0x0 SWAP1 DUP2 MSTORE PUSH1 0x15 PUSH1 0x20 MSTORE PUSH1 0x40 SWAP1 KECCAK256 SLOAD PUSH1 0xFF AND ISZERO JUMPDEST ISZERO PUSH2 0x9EA JUMPI PUSH2 0x9EA PUSH2 0xA2E JUMP JUMPDEST PUSH2 0x9F4 DUP2 CALLER PUSH2 0x18B7 JUMP JUMPDEST POP JUMP JUMPDEST CALLER PUSH1 0x0 DUP2 DUP2 MSTORE PUSH1 0xB PUSH1 0x20 SWAP1 DUP2 MSTORE PUSH1 0x40 DUP1 DUP4 KECCAK256 PUSH1 0x1 PUSH1 0x1 PUSH1 0xA0 SHL SUB DUP8 AND DUP5 MSTORE SWAP1 SWAP2 MSTORE DUP2 KECCAK256 SLOAD SWAP1 SWAP2 PUSH2 0x728 SWAP2 DUP6 SWAP1 PUSH2 0x9A2 SWAP1 DUP7 SWAP1 PUSH2 0x228B JUMP JUMPDEST PUSH1 0x14 SLOAD PUSH1 0xC EQ PUSH2 0xA80 JUMPI PUSH1 0x40 MLOAD PUSH3 0x461BCD PUSH1 0xE5 SHL DUP2 MSTORE PUSH1 0x20 PUSH1 0x4 DUP3 ADD MSTORE PUSH1 0x18 PUSH1 0x24 DUP3 ADD MSTORE PUSH32 0x566F74696E67204974657261746F72206E6F742066756C6C0000000000000000 PUSH1 0x44 DUP3 ADD MSTORE PUSH1 0x64 ADD PUSH2 0x76A JUMP JUMPDEST PUSH2 0xA88 PUSH2 0x2077 JUMP JUMPDEST PUSH1 0x0 JUMPDEST PUSH1 0xC DUP2 LT ISZERO PUSH2 0xAF3 JUMPI PUSH1 0x14 DUP2 DUP2 SLOAD DUP2 LT PUSH2 0xAA7 JUMPI PUSH2 0xAA7 PUSH2 0x249C JUMP JUMPDEST PUSH1 0x0 SWAP2 DUP3 MSTORE PUSH1 0x20 SWAP1 SWAP2 KECCAK256 ADD SLOAD PUSH1 0x1 PUSH1 0x1 PUSH1 0xA0 SHL SUB AND DUP3 DUP3 PUSH1 0xC DUP2 LT PUSH2 0xACE JUMPI PUSH2 0xACE PUSH2 0x249C JUMP JUMPDEST PUSH1 0x1 PUSH1 0x1 PUSH1 0xA0 SHL SUB SWAP1 SWAP3 AND PUSH1 0x20 SWAP3 SWAP1 SWAP3 MUL ADD MSTORE DUP1 PUSH2 0xAEB DUP2 PUSH2 0x242B JUMP JUMPDEST SWAP2 POP POP PUSH2 0xA8B JUMP JUMPDEST POP PUSH1 0x1 JUMPDEST PUSH1 0xC DUP2 LT ISZERO PUSH2 0xC52 JUMPI PUSH1 0x0 DUP3 DUP3 PUSH1 0xC DUP2 LT PUSH2 0xB14 JUMPI PUSH2 0xB14 PUSH2 0x249C JUMP JUMPDEST PUSH1 0x20 SWAP1 DUP2 MUL SWAP2 SWAP1 SWAP2 ADD MLOAD PUSH1 0x1 PUSH1 0x1 PUSH1 0xA0 SHL SUB DUP2 AND PUSH1 0x0 SWAP1 DUP2 MSTORE PUSH1 0x13 SWAP1 SWAP3 MSTORE PUSH1 0x40 DUP3 KECCAK256 SLOAD SWAP1 SWAP3 POP SWAP1 PUSH2 0xB46 PUSH1 0x1 DUP6 PUSH2 0x23C8 JUMP JUMPDEST SWAP1 POP PUSH1 0x0 JUMPDEST DUP3 PUSH1 0x13 PUSH1 0x0 DUP9 DUP6 PUSH1 0xC DUP2 LT PUSH2 0xB62 JUMPI PUSH2 0xB62 PUSH2 0x249C JUMP JUMPDEST PUSH1 0x20 MUL ADD MLOAD PUSH1 0x1 PUSH1 0x1 PUSH1 0xA0 SHL SUB AND PUSH1 0x1 PUSH1 0x1 PUSH1 0xA0 SHL SUB AND DUP2 MSTORE PUSH1 0x20 ADD SWAP1 DUP2 MSTORE PUSH1 0x20 ADD PUSH1 0x0 KECCAK256 SLOAD LT ISZERO PUSH2 0xBF3 JUMPI DUP6 DUP3 PUSH1 0xC DUP2 LT PUSH2 0xBA0 JUMPI PUSH2 0xBA0 PUSH2 0x249C JUMP JUMPDEST PUSH1 0x20 MUL ADD MLOAD DUP7 PUSH2 0xBB1 DUP5 PUSH1 0x1 PUSH2 0x228B JUMP JUMPDEST PUSH1 0xC DUP2 LT PUSH2 0xBC1 JUMPI PUSH2 0xBC1 PUSH2 0x249C JUMP JUMPDEST PUSH1 0x1 PUSH1 0x1 PUSH1 0xA0 SHL SUB SWAP1 SWAP3 AND PUSH1 0x20 SWAP3 SWAP1 SWAP3 MUL ADD MSTORE DUP2 PUSH2 0xBE1 JUMPI POP PUSH1 0x1 PUSH2 0xBF3 JUMP JUMPDEST DUP2 PUSH2 0xBEB DUP2 PUSH2 0x23DF JUMP JUMPDEST SWAP3 POP POP PUSH2 0xB4B JUMP JUMPDEST DUP1 ISZERO PUSH2 0xC0A JUMPI PUSH1 0x1 PUSH1 0x1 PUSH1 0xA0 SHL SUB DUP5 AND DUP7 MSTORE PUSH2 0xC3B JUMP JUMPDEST DUP4 DUP7 PUSH2 0xC17 DUP5 PUSH1 0x1 PUSH2 0x228B JUMP JUMPDEST PUSH1 0xC DUP2 LT PUSH2 0xC27 JUMPI PUSH2 0xC27 PUSH2 0x249C JUMP JUMPDEST PUSH1 0x1 PUSH1 0x1 PUSH1 0xA0 SHL SUB SWAP1 SWAP3 AND PUSH1 0x20 SWAP3 SWAP1 SWAP3 MUL ADD MSTORE JUMPDEST POP POP POP POP DUP1 DUP1 PUSH2 0xC4A SWAP1 PUSH2 0x242B JUMP JUMPDEST SWAP2 POP POP PUSH2 0xAF7 JUMP JUMPDEST POP PUSH1 0xB JUMPDEST PUSH1 0x6 DUP2 LT PUSH2 0xCAE JUMPI PUSH1 0x0 DUP3 DUP3 PUSH1 0xC DUP2 LT PUSH2 0xC72 JUMPI PUSH2 0xC72 PUSH2 0x249C JUMP JUMPDEST PUSH1 0x20 SWAP1 DUP2 MUL SWAP2 SWAP1 SWAP2 ADD MLOAD PUSH1 0x1 PUSH1 0x1 PUSH1 0xA0 SHL SUB AND PUSH1 0x0 SWAP1 DUP2 MSTORE PUSH1 0x15 SWAP1 SWAP2 MSTORE PUSH1 0x40 SWAP1 KECCAK256 DUP1 SLOAD PUSH1 0xFF NOT AND SWAP1 SSTORE POP DUP1 PUSH2 0xCA6 DUP2 PUSH2 0x23DF JUMP JUMPDEST SWAP2 POP POP PUSH2 0xC56 JUMP JUMPDEST POP PUSH2 0xCBB PUSH1 0x14 PUSH1 0x0 PUSH2 0x2096 JUMP JUMPDEST PUSH1 0x0 JUMPDEST PUSH1 0x6 DUP2 LT ISZERO PUSH2 0xD26 JUMPI PUSH1 0x14 DUP3 DUP3 PUSH1 0xC DUP2 LT PUSH2 0xCDB JUMPI PUSH2 0xCDB PUSH2 0x249C JUMP JUMPDEST PUSH1 0x20 SWAP1 DUP2 MUL SWAP2 SWAP1 SWAP2 ADD MLOAD DUP3 SLOAD PUSH1 0x1 DUP2 ADD DUP5 SSTORE PUSH1 0x0 SWAP4 DUP5 MSTORE SWAP2 SWAP1 SWAP3 KECCAK256 ADD DUP1 SLOAD PUSH1 0x1 PUSH1 0x1 PUSH1 0xA0 SHL SUB NOT AND PUSH1 0x1 PUSH1 0x1 PUSH1 0xA0 SHL SUB SWAP1 SWAP3 AND SWAP2 SWAP1 SWAP2 OR SWAP1 SSTORE DUP1 PUSH2 0xD1E DUP2 PUSH2 0x242B JUMP JUMPDEST SWAP2 POP POP PUSH2 0xCBE JUMP JUMPDEST POP POP JUMP JUMPDEST PUSH1 0x14 DUP2 DUP2 SLOAD DUP2 LT PUSH2 0xD3A JUMPI PUSH1 0x0 DUP1 REVERT JUMPDEST PUSH1 0x0 SWAP2 DUP3 MSTORE PUSH1 0x20 SWAP1 SWAP2 KECCAK256 ADD SLOAD PUSH1 0x1 PUSH1 0x1 PUSH1 0xA0 SHL SUB AND SWAP1 POP DUP2 JUMP JUMPDEST PUSH1 0x1 PUSH1 0x1 PUSH1 0xA0 SHL SUB AND PUSH1 0x0 SWAP1 DUP2 MSTORE PUSH1 0xD PUSH1 0x20 MSTORE PUSH1 0x40 SWAP1 KECCAK256 SLOAD PUSH1 0xFF AND SWAP1 JUMP JUMPDEST PUSH2 0xD7D CALLER PUSH1 0x1 PUSH2 0x1917 JUMP JUMPDEST JUMP JUMPDEST PUSH1 0x1 PUSH1 0x1 PUSH1 0xA0 SHL SUB DUP2 AND PUSH1 0x0 SWAP1 DUP2 MSTORE PUSH1 0xA PUSH1 0x20 MSTORE PUSH1 0x40 DUP2 KECCAK256 SLOAD PUSH2 0xDA1 DUP4 PUSH2 0xD54 JUMP JUMPDEST DUP1 ISZERO PUSH2 0xDBB JUMPI POP PUSH1 0x16 SLOAD PUSH1 0x1 PUSH1 0x1 PUSH1 0xA0 SHL SUB DUP5 DUP2 AND SWAP2 AND EQ ISZERO JUMPDEST ISZERO PUSH2 0x683 JUMPI PUSH2 0xDCD DUP2 PUSH2 0x266 DUP6 PUSH2 0x19D3 JUMP JUMPDEST PUSH2 0xDD7 SWAP1 DUP3 PUSH2 0x228B JUMP JUMPDEST SWAP4 SWAP3 POP POP POP JUMP JUMPDEST PUSH1 0x60 PUSH1 0x2 DUP1 SLOAD PUSH2 0x698 SWAP1 PUSH2 0x23F6 JUMP JUMPDEST PUSH2 0x9F4 CALLER DUP3 PUSH2 0x19F6 JUMP JUMPDEST CALLER PUSH1 0x0 SWAP1 DUP2 MSTORE PUSH1 0xB PUSH1 0x20 SWAP1 DUP2 MSTORE PUSH1 0x40 DUP1 DUP4 KECCAK256 PUSH1 0x1 PUSH1 0x1 PUSH1 0xA0 SHL SUB DUP7 AND DUP5 MSTORE SWAP1 SWAP2 MSTORE DUP2 KECCAK256 SLOAD DUP3 DUP2 LT ISZERO PUSH2 0xE79 JUMPI PUSH1 0x40 MLOAD PUSH3 0x461BCD PUSH1 0xE5 SHL DUP2 MSTORE PUSH1 0x20 PUSH1 0x4 DUP3 ADD MSTORE PUSH1 0x25 PUSH1 0x24 DUP3 ADD MSTORE PUSH32 0x45524332303A2064656372656173656420616C6C6F77616E63652062656C6F77 PUSH1 0x44 DUP3 ADD MSTORE PUSH5 0x207A65726F PUSH1 0xD8 SHL PUSH1 0x64 DUP3 ADD MSTORE PUSH1 0x84 ADD PUSH2 0x76A JUMP JUMPDEST PUSH2 0xE88 CALLER DUP6 PUSH2 0x9A2 DUP7 DUP6 PUSH2 0x23C8 JUMP JUMPDEST POP PUSH1 0x1 SWAP4 SWAP3 POP POP POP JUMP JUMPDEST PUSH2 0xE9B DUP2 PUSH2 0xD54 JUMP JUMPDEST PUSH2 0xED3 JUMPI PUSH1 0x40 MLOAD PUSH3 0x461BCD PUSH1 0xE5 SHL DUP2 MSTORE PUSH1 0x20 PUSH1 0x4 DUP3 ADD MSTORE PUSH1 0x9 PUSH1 0x24 DUP3 ADD MSTORE PUSH9 0x135CDD109954DD1AD9 PUSH1 0xBA SHL PUSH1 0x44 DUP3 ADD MSTORE PUSH1 0x64 ADD PUSH2 0x76A JUMP JUMPDEST PUSH1 0x0 PUSH2 0xEDE DUP3 PUSH2 0x19D3 JUMP JUMPDEST SWAP1 POP PUSH1 0x3C DUP2 LT ISZERO PUSH2 0xEED JUMPI POP POP JUMP JUMPDEST PUSH1 0x1 PUSH1 0x1 PUSH1 0xA0 SHL SUB DUP3 AND PUSH1 0x0 SWAP1 DUP2 MSTORE PUSH1 0xA PUSH1 0x20 MSTORE PUSH1 0x40 DUP2 KECCAK256 SLOAD PUSH2 0xF10 SWAP1 DUP4 PUSH2 0x5C4 JUMP JUMPDEST PUSH1 0x1 PUSH1 0x1 PUSH1 0xA0 SHL SUB DUP5 AND PUSH1 0x0 SWAP1 DUP2 MSTORE PUSH1 0xA PUSH1 0x20 MSTORE PUSH1 0x40 DUP2 KECCAK256 DUP1 SLOAD SWAP3 SWAP4 POP DUP4 SWAP3 SWAP1 SWAP2 SWAP1 PUSH2 0xF3D SWAP1 DUP5 SWAP1 PUSH2 0x228B JUMP JUMPDEST SWAP1 SWAP2 SSTORE POP PUSH2 0xF4B SWAP1 POP PUSH2 0x1BDB JUMP JUMPDEST ISZERO PUSH2 0xFC3 JUMPI PUSH1 0x0 PUSH2 0xF5D PUSH1 0x7 DUP4 PUSH2 0x22D1 JUMP JUMPDEST PUSH2 0xF68 SWAP1 PUSH1 0x3 PUSH2 0x236A JUMP JUMPDEST PUSH1 0x16 SLOAD PUSH1 0x1 PUSH1 0x1 PUSH1 0xA0 SHL SUB AND PUSH1 0x0 SWAP1 DUP2 MSTORE PUSH1 0xA PUSH1 0x20 MSTORE PUSH1 0x40 DUP2 KECCAK256 DUP1 SLOAD SWAP3 SWAP4 POP DUP4 SWAP3 SWAP1 SWAP2 SWAP1 PUSH2 0xF97 SWAP1 DUP5 SWAP1 PUSH2 0x228B JUMP JUMPDEST SWAP1 SWAP2 SSTORE POP PUSH2 0xFA7 SWAP1 POP DUP2 DUP4 PUSH2 0x228B JUMP JUMPDEST PUSH1 0x0 DUP1 DUP3 DUP3 SLOAD PUSH2 0xFB7 SWAP2 SWAP1 PUSH2 0x228B JUMP JUMPDEST SWAP1 SWAP2 SSTORE POP PUSH2 0xFDA SWAP2 POP POP JUMP JUMPDEST DUP1 PUSH1 0x0 DUP1 DUP3 DUP3 SLOAD PUSH2 0xFD4 SWAP2 SWAP1 PUSH2 0x228B JUMP JUMPDEST SWAP1 SWAP2 SSTORE POP POP JUMPDEST POP POP PUSH1 0x1 PUSH1 0x1 PUSH1 0xA0 SHL SUB AND PUSH1 0x0 SWAP1 DUP2 MSTORE PUSH1 0xC PUSH1 0x20 MSTORE PUSH1 0x40 SWAP1 KECCAK256 TIMESTAMP SWAP1 SSTORE JUMP JUMPDEST PUSH1 0x0 PUSH2 0x728 CALLER DUP5 DUP5 PUSH2 0x15BC JUMP JUMPDEST PUSH2 0xD7D CALLER PUSH1 0x0 PUSH2 0x1917 JUMP JUMPDEST PUSH1 0x0 PUSH22 0x9ABE14CD44753B52C4926A9672793542D78C3615CF3A DUP3 SGT ISZERO PUSH2 0x1038 JUMPI PUSH2 0x1038 PUSH2 0x245A JUMP JUMPDEST PUSH22 0x9ABE14CD44753B52C4926A9672793542D78C3615CF39 NOT DUP3 SLT ISZERO PUSH2 0x105F JUMPI PUSH2 0x105F PUSH2 0x245A JUMP JUMPDEST PUSH2 0x683 PUSH10 0xD3C21BCECCEDA1000000 DUP4 PUSH2 0x22E5 JUMP JUMPDEST PUSH1 0x0 PUSH22 0x9ABE14CD44753B52C4926A9672793542D78C3615CF3A DUP4 SGT ISZERO PUSH2 0x109B JUMPI PUSH2 0x109B PUSH2 0x245A JUMP JUMPDEST PUSH22 0x9ABE14CD44753B52C4926A9672793542D78C3615CF3A DUP3 SGT ISZERO PUSH2 0x10C1 JUMPI PUSH2 0x10C1 PUSH2 0x245A JUMP JUMPDEST DUP2 PUSH2 0x10CE JUMPI PUSH2 0x10CE PUSH2 0x245A JUMP JUMPDEST PUSH1 0x0 PUSH2 0x10D9 DUP5 PUSH2 0x1010 JUMP JUMPDEST SWAP1 POP PUSH1 0x0 PUSH2 0x10E6 DUP5 PUSH2 0x1010 JUMP JUMPDEST SWAP1 POP PUSH2 0x10F2 DUP3 DUP3 PUSH2 0x1C0E JUMP JUMPDEST SWAP6 SWAP5 POP POP POP POP POP JUMP JUMPDEST PUSH1 0x0 DUP3 ISZERO DUP1 PUSH2 0x1108 JUMPI POP DUP2 ISZERO JUMPDEST ISZERO PUSH2 0x1115 JUMPI POP PUSH1 0x0 PUSH2 0x683 JUMP JUMPDEST PUSH10 0xD3C21BCECCEDA1000000 DUP3 EQ ISZERO PUSH2 0x112E JUMPI POP DUP2 PUSH2 0x683 JUMP JUMPDEST PUSH10 0xD3C21BCECCEDA1000000 DUP4 EQ ISZERO PUSH2 0x1147 JUMPI POP DUP1 PUSH2 0x683 JUMP JUMPDEST PUSH1 0x0 PUSH10 0xD3C21BCECCEDA1000000 PUSH2 0x115D DUP6 PUSH2 0x1C6C JUMP JUMPDEST PUSH2 0x1167 SWAP2 SWAP1 PUSH2 0x22A3 JUMP JUMPDEST SWAP1 POP PUSH1 0x0 PUSH2 0x1174 DUP6 PUSH2 0x1C8D JUMP JUMPDEST SWAP1 POP PUSH1 0x0 PUSH10 0xD3C21BCECCEDA1000000 PUSH2 0x118C DUP7 PUSH2 0x1C6C JUMP JUMPDEST PUSH2 0x1196 SWAP2 SWAP1 PUSH2 0x22A3 JUMP JUMPDEST SWAP1 POP PUSH1 0x0 PUSH2 0x11A3 DUP7 PUSH2 0x1C8D JUMP JUMPDEST SWAP1 POP PUSH1 0x0 PUSH2 0x11B1 DUP4 DUP7 PUSH2 0x22E5 JUMP JUMPDEST SWAP1 POP DUP5 ISZERO PUSH2 0x11D1 JUMPI DUP3 PUSH2 0x11C4 DUP7 DUP4 PUSH2 0x22A3 JUMP JUMPDEST EQ PUSH2 0x11D1 JUMPI PUSH2 0x11D1 PUSH2 0x245A JUMP JUMPDEST PUSH1 0x0 PUSH2 0x11E7 PUSH10 0xD3C21BCECCEDA1000000 DUP4 PUSH2 0x22E5 JUMP JUMPDEST SWAP1 POP DUP2 ISZERO PUSH2 0x1211 JUMPI PUSH10 0xD3C21BCECCEDA1000000 PUSH2 0x1204 DUP4 DUP4 PUSH2 0x22A3 JUMP JUMPDEST EQ PUSH2 0x1211 JUMPI PUSH2 0x1211 PUSH2 0x245A JUMP JUMPDEST SWAP1 POP DUP1 PUSH1 0x0 PUSH2 0x1220 DUP6 DUP8 PUSH2 0x22E5 JUMP JUMPDEST SWAP1 POP DUP6 ISZERO PUSH2 0x1240 JUMPI DUP5 PUSH2 0x1233 DUP8 DUP4 PUSH2 0x22A3 JUMP JUMPDEST EQ PUSH2 0x1240 JUMPI PUSH2 0x1240 PUSH2 0x245A JUMP JUMPDEST PUSH1 0x0 PUSH2 0x124C DUP6 DUP10 PUSH2 0x22E5 JUMP JUMPDEST SWAP1 POP DUP8 ISZERO PUSH2 0x126C JUMPI DUP5 PUSH2 0x125F DUP10 DUP4 PUSH2 0x22A3 JUMP JUMPDEST EQ PUSH2 0x126C JUMPI PUSH2 0x126C PUSH2 0x245A JUMP JUMPDEST PUSH2 0x127B PUSH5 0xE8D4A51000 DUP9 PUSH2 0x22A3 JUMP JUMPDEST SWAP7 POP PUSH2 0x128C PUSH5 0xE8D4A51000 DUP7 PUSH2 0x22A3 JUMP JUMPDEST SWAP5 POP PUSH1 0x0 PUSH2 0x129A DUP7 DUP10 PUSH2 0x22E5 JUMP JUMPDEST SWAP1 POP DUP8 ISZERO PUSH2 0x12BA JUMPI DUP6 PUSH2 0x12AD DUP10 DUP4 PUSH2 0x22A3 JUMP JUMPDEST EQ PUSH2 0x12BA JUMPI PUSH2 0x12BA PUSH2 0x245A JUMP JUMPDEST DUP5 PUSH2 0x12C5 DUP2 DUP6 PUSH2 0x12EE JUMP JUMPDEST SWAP1 POP PUSH2 0x12D1 DUP2 DUP5 PUSH2 0x12EE JUMP JUMPDEST SWAP1 POP PUSH2 0x12DD DUP2 DUP4 PUSH2 0x12EE JUMP JUMPDEST SWAP14 SWAP13 POP POP POP POP POP POP POP POP POP POP POP POP POP JUMP JUMPDEST PUSH1 0x0 DUP1 PUSH2 0x12FB DUP4 DUP6 PUSH2 0x224A JUMP JUMPDEST SWAP1 POP PUSH1 0x0 DUP5 SGT DUP1 ISZERO PUSH2 0x130D JUMPI POP PUSH1 0x0 DUP4 SGT JUMPDEST ISZERO PUSH2 0x132C JUMPI DUP4 DUP2 SGT DUP1 ISZERO PUSH2 0x1320 JUMPI POP DUP3 DUP2 SGT JUMPDEST PUSH2 0x132C JUMPI PUSH2 0x132C PUSH2 0x245A JUMP JUMPDEST PUSH1 0x0 DUP5 SLT DUP1 ISZERO PUSH2 0x133C JUMPI POP PUSH1 0x0 DUP4 SLT JUMPDEST ISZERO PUSH2 0xDD7 JUMPI DUP4 DUP2 SLT DUP1 ISZERO PUSH2 0x134F JUMPI POP DUP3 DUP2 SLT JUMPDEST PUSH2 0xDD7 JUMPI PUSH2 0xDD7 PUSH2 0x245A JUMP JUMPDEST PUSH1 0x0 PUSH2 0x683 PUSH10 0xD3C21BCECCEDA1000000 DUP4 PUSH2 0x22A3 JUMP JUMPDEST PUSH1 0x1 PUSH1 0x1 PUSH1 0xA0 SHL SUB DUP4 AND PUSH2 0x13D3 JUMPI PUSH1 0x40 MLOAD PUSH3 0x461BCD PUSH1 0xE5 SHL DUP2 MSTORE PUSH1 0x20 PUSH1 0x4 DUP3 ADD MSTORE PUSH1 0x24 DUP1 DUP3 ADD MSTORE PUSH32 0x45524332303A20617070726F76652066726F6D20746865207A65726F20616464 PUSH1 0x44 DUP3 ADD MSTORE PUSH4 0x72657373 PUSH1 0xE0 SHL PUSH1 0x64 DUP3 ADD MSTORE PUSH1 0x84 ADD PUSH2 0x76A JUMP JUMPDEST PUSH1 0x1 PUSH1 0x1 PUSH1 0xA0 SHL SUB DUP3 AND PUSH2 0x1434 JUMPI PUSH1 0x40 MLOAD PUSH3 0x461BCD PUSH1 0xE5 SHL DUP2 MSTORE PUSH1 0x20 PUSH1 0x4 DUP3 ADD MSTORE PUSH1 0x22 PUSH1 0x24 DUP3 ADD MSTORE PUSH32 0x45524332303A20617070726F766520746F20746865207A65726F206164647265 PUSH1 0x44 DUP3 ADD MSTORE PUSH2 0x7373 PUSH1 0xF0 SHL PUSH1 0x64 DUP3 ADD MSTORE PUSH1 0x84 ADD PUSH2 0x76A JUMP JUMPDEST PUSH1 0x1 PUSH1 0x1 PUSH1 0xA0 SHL SUB DUP4 DUP2 AND PUSH1 0x0 DUP2 DUP2 MSTORE PUSH1 0xB PUSH1 0x20 SWAP1 DUP2 MSTORE PUSH1 0x40 DUP1 DUP4 KECCAK256 SWAP5 DUP8 AND DUP1 DUP5 MSTORE SWAP5 DUP3 MSTORE SWAP2 DUP3 SWAP1 KECCAK256 DUP6 SWAP1 SSTORE SWAP1 MLOAD DUP5 DUP2 MSTORE PUSH32 0x8C5BE1E5EBEC7D5BD14F71427D1E84F3DD0314C0F7B2291E5B200AC8C7C3B925 SWAP2 ADD PUSH1 0x40 MLOAD DUP1 SWAP2 SUB SWAP1 LOG3 POP POP POP JUMP JUMPDEST PUSH1 0x0 PUSH2 0x14A0 DUP3 PUSH2 0xD54 JUMP JUMPDEST ISZERO PUSH2 0x14AA JUMPI PUSH1 0x0 DUP1 REVERT JUMPDEST PUSH1 0x1 PUSH1 0x1 PUSH1 0xA0 SHL SUB DUP3 AND PUSH1 0x0 SWAP1 DUP2 MSTORE PUSH1 0xA PUSH1 0x20 MSTORE PUSH1 0x40 SWAP1 KECCAK256 SLOAD PUSH7 0x2386F26FC10000 GT ISZERO PUSH2 0x1507 JUMPI PUSH1 0x40 MLOAD PUSH3 0x461BCD PUSH1 0xE5 SHL DUP2 MSTORE PUSH1 0x20 PUSH1 0x4 DUP3 ADD MSTORE PUSH1 0xB PUSH1 0x24 DUP3 ADD MSTORE PUSH11 0x496E7366636E74466E6473 PUSH1 0xA8 SHL PUSH1 0x44 DUP3 ADD MSTORE PUSH1 0x64 ADD PUSH2 0x76A JUMP JUMPDEST PUSH2 0x1510 DUP3 PUSH2 0x1CB8 JUMP JUMPDEST PUSH2 0x154D JUMPI PUSH1 0x40 MLOAD PUSH3 0x461BCD PUSH1 0xE5 SHL DUP2 MSTORE PUSH1 0x20 PUSH1 0x4 DUP3 ADD MSTORE PUSH1 0xE PUSH1 0x24 DUP3 ADD MSTORE PUSH14 0x15D85B1B195D125CD31BD8DAD959 PUSH1 0x92 SHL PUSH1 0x44 DUP3 ADD MSTORE PUSH1 0x64 ADD PUSH2 0x76A JUMP JUMPDEST POP PUSH1 0x1 PUSH1 0x1 PUSH1 0xA0 SHL SUB AND PUSH1 0x0 SWAP1 DUP2 MSTORE PUSH1 0xD PUSH1 0x20 SWAP1 DUP2 MSTORE PUSH1 0x40 DUP1 DUP4 KECCAK256 DUP1 SLOAD PUSH1 0xFF NOT AND PUSH1 0x1 SWAP1 DUP2 OR SWAP1 SWAP2 SSTORE PUSH1 0xE DUP4 MSTORE DUP2 DUP5 KECCAK256 DUP5 SWAP1 SSTORE PUSH1 0xF DUP4 MSTORE DUP2 DUP5 KECCAK256 DUP1 SLOAD PUSH1 0x1 PUSH1 0x1 PUSH1 0xA0 SHL SUB NOT AND SWAP1 SSTORE PUSH1 0xC DUP4 MSTORE DUP2 DUP5 KECCAK256 TIMESTAMP SWAP1 DUP2 SWAP1 SSTORE PUSH1 0x11 DUP5 MSTORE DUP3 DUP6 KECCAK256 SSTORE PUSH1 0xA DUP4 MSTORE DUP2 DUP5 KECCAK256 SLOAD PUSH1 0x12 SWAP1 SWAP4 MSTORE SWAP3 KECCAK256 SSTORE SWAP1 JUMP JUMPDEST PUSH1 0x1 PUSH1 0x1 PUSH1 0xA0 SHL SUB DUP4 AND PUSH2 0x1620 JUMPI PUSH1 0x40 MLOAD PUSH3 0x461BCD PUSH1 0xE5 SHL DUP2 MSTORE PUSH1 0x20 PUSH1 0x4 DUP3 ADD MSTORE PUSH1 0x25 PUSH1 0x24 DUP3 ADD MSTORE PUSH32 0x45524332303A207472616E736665722066726F6D20746865207A65726F206164 PUSH1 0x44 DUP3 ADD MSTORE PUSH5 0x6472657373 PUSH1 0xD8 SHL PUSH1 0x64 DUP3 ADD MSTORE PUSH1 0x84 ADD PUSH2 0x76A JUMP JUMPDEST PUSH1 0x1 PUSH1 0x1 PUSH1 0xA0 SHL SUB DUP3 AND PUSH2 0x1682 JUMPI PUSH1 0x40 MLOAD PUSH3 0x461BCD PUSH1 0xE5 SHL DUP2 MSTORE PUSH1 0x20 PUSH1 0x4 DUP3 ADD MSTORE PUSH1 0x23 PUSH1 0x24 DUP3 ADD MSTORE PUSH32 0x45524332303A207472616E7366657220746F20746865207A65726F2061646472 PUSH1 0x44 DUP3 ADD MSTORE PUSH3 0x657373 PUSH1 0xE8 SHL PUSH1 0x64 DUP3 ADD MSTORE PUSH1 0x84 ADD PUSH2 0x76A JUMP JUMPDEST PUSH2 0x168B DUP4 PUSH2 0xD54 JUMP JUMPDEST ISZERO PUSH2 0x16CC JUMPI PUSH1 0x40 MLOAD PUSH3 0x461BCD PUSH1 0xE5 SHL DUP2 MSTORE PUSH1 0x20 PUSH1 0x4 DUP3 ADD MSTORE PUSH1 0x11 PUSH1 0x24 DUP3 ADD MSTORE PUSH17 0x29BA35B22BB6363A21B7373A2A393739B3 PUSH1 0x79 SHL PUSH1 0x44 DUP3 ADD MSTORE PUSH1 0x64 ADD PUSH2 0x76A JUMP JUMPDEST PUSH2 0x16D5 DUP4 PUSH2 0x1CB8 JUMP JUMPDEST PUSH2 0x1718 JUMPI PUSH1 0x40 MLOAD PUSH3 0x461BCD PUSH1 0xE5 SHL DUP2 MSTORE PUSH1 0x20 PUSH1 0x4 DUP3 ADD MSTORE PUSH1 0x14 PUSH1 0x24 DUP3 ADD MSTORE PUSH20 0x2637B1B5B2B22BB6363A21B7373A2A393739B339 PUSH1 0x61 SHL PUSH1 0x44 DUP3 ADD MSTORE PUSH1 0x64 ADD PUSH2 0x76A JUMP JUMPDEST PUSH1 0x1 PUSH1 0x1 PUSH1 0xA0 SHL SUB DUP4 AND PUSH1 0x0 SWAP1 DUP2 MSTORE PUSH1 0xA PUSH1 0x20 MSTORE PUSH1 0x40 SWAP1 KECCAK256 SLOAD DUP2 GT ISZERO PUSH2 0x178F JUMPI PUSH1 0x40 MLOAD PUSH3 0x461BCD PUSH1 0xE5 SHL DUP2 MSTORE PUSH1 0x20 PUSH1 0x4 DUP3 ADD MSTORE PUSH1 0x26 PUSH1 0x24 DUP3 ADD MSTORE PUSH32 0x45524332303A207472616E7366657220616D6F756E7420657863656564732062 PUSH1 0x44 DUP3 ADD MSTORE PUSH6 0x616C616E6365 PUSH1 0xD0 SHL PUSH1 0x64 DUP3 ADD MSTORE PUSH1 0x84 ADD PUSH2 0x76A JUMP JUMPDEST PUSH2 0x1798 DUP3 PUSH2 0xD54 JUMP JUMPDEST ISZERO PUSH2 0x17A6 JUMPI PUSH2 0x17A6 DUP3 PUSH2 0xE92 JUMP JUMPDEST DUP1 PUSH2 0x17AF PUSH2 0x1BDB JUMP JUMPDEST ISZERO PUSH2 0x1808 JUMPI PUSH1 0x0 PUSH2 0x17BF DUP4 PUSH2 0x1D22 JUMP JUMPDEST SWAP1 POP DUP1 ISZERO PUSH2 0x1806 JUMPI PUSH2 0x17D1 DUP2 DUP4 PUSH2 0x23C8 JUMP JUMPDEST PUSH1 0x16 SLOAD PUSH1 0x1 PUSH1 0x1 PUSH1 0xA0 SHL SUB AND PUSH1 0x0 SWAP1 DUP2 MSTORE PUSH1 0xA PUSH1 0x20 MSTORE PUSH1 0x40 DUP2 KECCAK256 DUP1 SLOAD SWAP3 SWAP5 POP DUP4 SWAP3 SWAP1 SWAP2 SWAP1 PUSH2 0x1800 SWAP1 DUP5 SWAP1 PUSH2 0x228B JUMP JUMPDEST SWAP1 SWAP2 SSTORE POP POP JUMPDEST POP JUMPDEST PUSH1 0x1 PUSH1 0x1 PUSH1 0xA0 SHL SUB DUP5 AND PUSH1 0x0 SWAP1 DUP2 MSTORE PUSH1 0xA PUSH1 0x20 MSTORE PUSH1 0x40 DUP2 KECCAK256 DUP1 SLOAD DUP5 SWAP3 SWAP1 PUSH2 0x1830 SWAP1 DUP5 SWAP1 PUSH2 0x23C8 JUMP JUMPDEST SWAP1 SWAP2 SSTORE POP POP PUSH1 0x1 PUSH1 0x1 PUSH1 0xA0 SHL SUB DUP4 AND PUSH1 0x0 SWAP1 DUP2 MSTORE PUSH1 0xA PUSH1 0x20 MSTORE PUSH1 0x40 DUP2 KECCAK256 DUP1 SLOAD DUP4 SWAP3 SWAP1 PUSH2 0x185D SWAP1 DUP5 SWAP1 PUSH2 0x228B JUMP JUMPDEST SWAP3 POP POP DUP2 SWAP1 SSTORE POP DUP3 PUSH1 0x1 PUSH1 0x1 PUSH1 0xA0 SHL SUB AND DUP5 PUSH1 0x1 PUSH1 0x1 PUSH1 0xA0 SHL SUB AND PUSH32 0xDDF252AD1BE2C89B69C2B068FC378DAA952BA7F163C4A11628F55A4DF523B3EF DUP5 PUSH1 0x40 MLOAD PUSH2 0x18A9 SWAP2 DUP2 MSTORE PUSH1 0x20 ADD SWAP1 JUMP JUMPDEST PUSH1 0x40 MLOAD DUP1 SWAP2 SUB SWAP1 LOG3 POP POP POP POP JUMP JUMPDEST PUSH2 0x18C0 DUP2 PUSH2 0xD54 JUMP JUMPDEST PUSH2 0x18C9 JUMPI PUSH1 0x0 DUP1 REVERT JUMPDEST PUSH2 0x18D2 DUP3 PUSH2 0x1DAB JUMP JUMPDEST PUSH2 0x18DB DUP2 PUSH2 0x1E84 JUMP JUMPDEST PUSH2 0x1905 DUP2 PUSH1 0x1 PUSH1 0x1 PUSH1 0xA0 SHL SUB AND PUSH1 0x0 SWAP1 DUP2 MSTORE PUSH1 0xA PUSH1 0x20 SWAP1 DUP2 MSTORE PUSH1 0x40 DUP1 DUP4 KECCAK256 SLOAD PUSH1 0x10 SWAP1 SWAP3 MSTORE SWAP1 SWAP2 KECCAK256 SSTORE JUMP JUMPDEST PUSH2 0x190F DUP2 DUP4 PUSH2 0x1EDF JUMP JUMPDEST PUSH2 0xD26 PUSH2 0x1F53 JUMP JUMPDEST PUSH2 0x1920 DUP3 PUSH2 0xD54 JUMP JUMPDEST PUSH2 0x1929 JUMPI PUSH1 0x0 DUP1 REVERT JUMPDEST DUP1 ISZERO PUSH2 0x1938 JUMPI PUSH2 0x1938 DUP3 PUSH2 0xE92 JUMP JUMPDEST PUSH1 0x1 PUSH1 0x1 PUSH1 0xA0 SHL SUB DUP3 AND PUSH1 0x0 SWAP1 DUP2 MSTORE PUSH1 0x10 PUSH1 0x20 MSTORE PUSH1 0x40 SWAP1 KECCAK256 SLOAD ISZERO PUSH2 0x1967 JUMPI PUSH2 0x195F DUP3 PUSH2 0x1E84 JUMP JUMPDEST PUSH2 0x1967 PUSH2 0x1F53 JUMP JUMPDEST POP PUSH1 0x1 PUSH1 0x1 PUSH1 0xA0 SHL SUB AND PUSH1 0x0 SWAP1 DUP2 MSTORE PUSH1 0xD PUSH1 0x20 SWAP1 DUP2 MSTORE PUSH1 0x40 DUP1 DUP4 KECCAK256 DUP1 SLOAD PUSH1 0xFF NOT AND SWAP1 SSTORE PUSH1 0xF DUP3 MSTORE DUP1 DUP4 KECCAK256 DUP1 SLOAD PUSH1 0x1 PUSH1 0x1 PUSH1 0xA0 SHL SUB NOT AND SWAP1 SSTORE PUSH1 0x10 DUP3 MSTORE DUP1 DUP4 KECCAK256 DUP4 SWAP1 SSTORE PUSH1 0xC DUP3 MSTORE DUP1 DUP4 KECCAK256 DUP4 SWAP1 SSTORE PUSH1 0x11 DUP3 MSTORE DUP1 DUP4 KECCAK256 DUP4 SWAP1 SSTORE PUSH1 0x12 DUP3 MSTORE DUP1 DUP4 KECCAK256 DUP4 SWAP1 SSTORE PUSH1 0xE SWAP1 SWAP2 MSTORE SWAP1 KECCAK256 TIMESTAMP SWAP1 SSTORE JUMP JUMPDEST PUSH1 0x1 PUSH1 0x1 PUSH1 0xA0 SHL SUB DUP2 AND PUSH1 0x0 SWAP1 DUP2 MSTORE PUSH1 0xC PUSH1 0x20 MSTORE PUSH1 0x40 DUP2 KECCAK256 SLOAD PUSH2 0x683 SWAP1 TIMESTAMP PUSH2 0x23C8 JUMP JUMPDEST PUSH1 0x7 SLOAD TIMESTAMP LT PUSH2 0x1A04 JUMPI PUSH1 0x0 DUP1 REVERT JUMPDEST PUSH2 0x1A0D DUP3 PUSH2 0xD54 JUMP JUMPDEST ISZERO PUSH2 0x1A5A JUMPI PUSH1 0x40 MLOAD PUSH3 0x461BCD PUSH1 0xE5 SHL DUP2 MSTORE PUSH1 0x20 PUSH1 0x4 DUP3 ADD MSTORE PUSH1 0x1E PUSH1 0x24 DUP3 ADD MSTORE PUSH32 0x63616E6E6F74207377617020696E746F207374616B65642077616C6C65740000 PUSH1 0x44 DUP3 ADD MSTORE PUSH1 0x64 ADD PUSH2 0x76A JUMP JUMPDEST PUSH1 0x5 SLOAD PUSH1 0x6 SLOAD PUSH1 0x40 MLOAD PUSH4 0x23B872DD PUSH1 0xE0 SHL DUP2 MSTORE PUSH1 0x1 PUSH1 0x1 PUSH1 0xA0 SHL SUB DUP6 DUP2 AND PUSH1 0x4 DUP4 ADD MSTORE SWAP2 DUP3 AND PUSH1 0x24 DUP3 ADD MSTORE PUSH1 0x44 DUP2 ADD DUP5 SWAP1 MSTORE SWAP2 AND SWAP1 PUSH4 0x23B872DD SWAP1 PUSH1 0x64 ADD PUSH1 0x20 PUSH1 0x40 MLOAD DUP1 DUP4 SUB DUP2 PUSH1 0x0 DUP8 DUP1 EXTCODESIZE ISZERO DUP1 ISZERO PUSH2 0x1AB2 JUMPI PUSH1 0x0 DUP1 REVERT JUMPDEST POP GAS CALL ISZERO DUP1 ISZERO PUSH2 0x1AC6 JUMPI RETURNDATASIZE PUSH1 0x0 DUP1 RETURNDATACOPY RETURNDATASIZE PUSH1 0x0 REVERT JUMPDEST POP POP POP POP PUSH1 0x40 MLOAD RETURNDATASIZE PUSH1 0x1F NOT PUSH1 0x1F DUP3 ADD AND DUP3 ADD DUP1 PUSH1 0x40 MSTORE POP DUP2 ADD SWAP1 PUSH2 0x1AEA SWAP2 SWAP1 PUSH2 0x2198 JUMP JUMPDEST POP PUSH1 0x6 SLOAD PUSH1 0x40 MLOAD PUSH4 0x6039FBDB PUSH1 0xE0 SHL DUP2 MSTORE PUSH1 0x1 PUSH1 0x1 PUSH1 0xA0 SHL SUB DUP5 DUP2 AND PUSH1 0x4 DUP4 ADD MSTORE PUSH1 0x24 DUP3 ADD DUP5 SWAP1 MSTORE SWAP1 SWAP2 AND SWAP1 PUSH4 0x6039FBDB SWAP1 PUSH1 0x44 ADD PUSH1 0x0 PUSH1 0x40 MLOAD DUP1 DUP4 SUB DUP2 PUSH1 0x0 DUP8 DUP1 EXTCODESIZE ISZERO DUP1 ISZERO PUSH2 0x1B39 JUMPI PUSH1 0x0 DUP1 REVERT JUMPDEST POP GAS CALL ISZERO DUP1 ISZERO PUSH2 0x1B4D JUMPI RETURNDATASIZE PUSH1 0x0 DUP1 RETURNDATACOPY RETURNDATASIZE PUSH1 0x0 REVERT JUMPDEST POP POP POP POP PUSH1 0x1 PUSH1 0x1 PUSH1 0xA0 SHL SUB DUP3 AND PUSH1 0x0 SWAP1 DUP2 MSTORE PUSH1 0xA PUSH1 0x20 MSTORE PUSH1 0x40 DUP2 KECCAK256 DUP1 SLOAD DUP4 SWAP3 SWAP1 PUSH2 0x1B79 SWAP1 DUP5 SWAP1 PUSH2 0x228B JUMP JUMPDEST SWAP3 POP POP DUP2 SWAP1 SSTORE POP DUP1 PUSH1 0x0 DUP1 DUP3 DUP3 SLOAD PUSH2 0x1B91 SWAP2 SWAP1 PUSH2 0x228B JUMP JUMPDEST SWAP1 SWAP2 SSTORE POP POP PUSH1 0x40 MLOAD DUP2 DUP2 MSTORE PUSH1 0x1 PUSH1 0x1 PUSH1 0xA0 SHL SUB DUP4 AND SWAP1 PUSH1 0x0 SWAP1 PUSH32 0xDDF252AD1BE2C89B69C2B068FC378DAA952BA7F163C4A11628F55A4DF523B3EF SWAP1 PUSH1 0x20 ADD PUSH1 0x40 MLOAD DUP1 SWAP2 SUB SWAP1 LOG3 POP POP JUMP JUMPDEST PUSH1 0x16 SLOAD PUSH1 0x0 SWAP1 PUSH1 0x1 PUSH1 0x1 PUSH1 0xA0 SHL SUB AND ISZERO DUP1 ISZERO SWAP1 PUSH2 0x8FC JUMPI POP PUSH1 0x16 SLOAD PUSH2 0x1C08 SWAP1 PUSH1 0x1 PUSH1 0x1 PUSH1 0xA0 SHL SUB AND PUSH2 0xD54 JUMP JUMPDEST ISZERO SWAP1 POP SWAP1 JUMP JUMPDEST PUSH1 0x0 PUSH10 0xD3C21BCECCEDA1000000 DUP3 EQ ISZERO PUSH2 0x1C29 JUMPI POP DUP2 PUSH2 0x683 JUMP JUMPDEST DUP2 PUSH2 0x1C36 JUMPI PUSH2 0x1C36 PUSH2 0x245A JUMP JUMPDEST PUSH20 0xAF298D050E4395D69670B12B7F41000000000000 DUP3 SGT ISZERO PUSH2 0x1C5A JUMPI PUSH2 0x1C5A PUSH2 0x245A JUMP JUMPDEST PUSH2 0xDD7 DUP4 PUSH2 0x1C67 DUP5 PUSH2 0x2049 JUMP JUMPDEST PUSH2 0x10FB JUMP JUMPDEST PUSH1 0x0 PUSH10 0xD3C21BCECCEDA1000000 PUSH2 0x1C83 DUP2 DUP5 PUSH2 0x22A3 JUMP JUMPDEST PUSH2 0x683 SWAP2 SWAP1 PUSH2 0x22E5 JUMP JUMPDEST PUSH1 0x0 PUSH10 0xD3C21BCECCEDA1000000 PUSH2 0x1CA4 DUP2 DUP5 PUSH2 0x22A3 JUMP JUMPDEST PUSH2 0x1CAE SWAP2 SWAP1 PUSH2 0x22E5 JUMP JUMPDEST PUSH2 0x683 SWAP1 DUP4 PUSH2 0x2389 JUMP JUMPDEST PUSH1 0x1 PUSH1 0x1 PUSH1 0xA0 SHL SUB DUP2 AND PUSH1 0x0 SWAP1 DUP2 MSTORE PUSH1 0xE PUSH1 0x20 MSTORE PUSH1 0x40 DUP2 KECCAK256 SLOAD DUP1 PUSH2 0x1CDF JUMPI POP PUSH1 0x1 SWAP3 SWAP2 POP POP JUMP JUMPDEST PUSH1 0x0 PUSH2 0x1CEE DUP3 PUSH3 0x69780 PUSH2 0x228B JUMP JUMPDEST SWAP1 POP DUP1 TIMESTAMP GT ISZERO PUSH2 0x1D18 JUMPI POP POP POP PUSH1 0x1 PUSH1 0x1 PUSH1 0xA0 SHL SUB AND PUSH1 0x0 SWAP1 DUP2 MSTORE PUSH1 0xE PUSH1 0x20 MSTORE PUSH1 0x40 DUP2 KECCAK256 SSTORE PUSH1 0x1 SWAP1 JUMP JUMPDEST POP PUSH1 0x0 SWAP4 SWAP3 POP POP POP JUMP JUMPDEST PUSH1 0x0 DUP1 PUSH1 0x4 SLOAD TIMESTAMP PUSH2 0x1D33 SWAP2 SWAP1 PUSH2 0x23C8 JUMP JUMPDEST SWAP1 POP PUSH4 0x1E13380 DUP2 GT ISZERO PUSH2 0x1D4A JUMPI POP PUSH1 0x0 SWAP3 SWAP2 POP POP JUMP JUMPDEST PUSH4 0x168E6A0 DUP2 GT ISZERO PUSH2 0x1D62 JUMPI PUSH2 0xDD7 PUSH2 0x190 DUP5 PUSH2 0x22D1 JUMP JUMPDEST PUSH3 0xF099C0 DUP2 GT ISZERO PUSH2 0x1D78 JUMPI PUSH2 0xDD7 PUSH1 0xC8 DUP5 PUSH2 0x22D1 JUMP JUMPDEST PUSH3 0x784CE0 DUP2 GT ISZERO PUSH2 0x1D9A JUMPI PUSH2 0x1D8F PUSH2 0x190 DUP5 PUSH2 0x22D1 JUMP JUMPDEST PUSH2 0xDD7 SWAP1 PUSH1 0x3 PUSH2 0x236A JUMP JUMPDEST PUSH2 0xDD7 PUSH1 0x64 DUP5 PUSH2 0x22D1 JUMP JUMPDEST POP SWAP2 SWAP1 POP JUMP JUMPDEST PUSH1 0x1 PUSH1 0x1 PUSH1 0xA0 SHL SUB DUP2 AND PUSH1 0x0 SWAP1 DUP2 MSTORE PUSH1 0x15 PUSH1 0x20 MSTORE PUSH1 0x40 SWAP1 KECCAK256 SLOAD PUSH1 0xFF AND PUSH2 0x9F4 JUMPI PUSH1 0x14 SLOAD PUSH1 0xC GT PUSH2 0x1E1D JUMPI PUSH1 0x40 MLOAD PUSH3 0x461BCD PUSH1 0xE5 SHL DUP2 MSTORE PUSH1 0x20 PUSH1 0x4 DUP3 ADD MSTORE PUSH1 0x1D PUSH1 0x24 DUP3 ADD MSTORE PUSH32 0x566F7465204974657261746F72206D7573742062652072656275696C74000000 PUSH1 0x44 DUP3 ADD MSTORE PUSH1 0x64 ADD PUSH2 0x76A JUMP JUMPDEST PUSH1 0x14 DUP1 SLOAD PUSH1 0x1 DUP2 DUP2 ADD SWAP1 SWAP3 SSTORE PUSH32 0xCE6D7B5282BD9A3661AE061FEED1DBDA4E52AB073B1F9285BE6E155D9C38D4EC ADD DUP1 SLOAD PUSH1 0x1 PUSH1 0x1 PUSH1 0xA0 SHL SUB DUP5 AND PUSH1 0x1 PUSH1 0x1 PUSH1 0xA0 SHL SUB NOT SWAP1 SWAP2 AND DUP2 OR SWAP1 SWAP2 SSTORE PUSH1 0x0 SWAP1 DUP2 MSTORE PUSH1 0x15 PUSH1 0x20 MSTORE PUSH1 0x40 SWAP1 KECCAK256 DUP1 SLOAD PUSH1 0xFF NOT AND SWAP1 SWAP2 OR SWAP1 SSTORE POP JUMP JUMPDEST PUSH1 0x1 PUSH1 0x1 PUSH1 0xA0 SHL SUB DUP1 DUP3 AND PUSH1 0x0 SWAP1 DUP2 MSTORE PUSH1 0xF PUSH1 0x20 SWAP1 DUP2 MSTORE PUSH1 0x40 DUP1 DUP4 KECCAK256 SLOAD PUSH1 0x10 DUP4 MSTORE DUP2 DUP5 KECCAK256 SLOAD SWAP5 AND DUP1 DUP5 MSTORE PUSH1 0x13 SWAP1 SWAP3 MSTORE SWAP1 SWAP2 KECCAK256 SLOAD SWAP1 SWAP2 PUSH2 0x1EC2 SWAP2 PUSH2 0x23C8 JUMP JUMPDEST PUSH1 0x1 PUSH1 0x1 PUSH1 0xA0 SHL SUB SWAP1 SWAP2 AND PUSH1 0x0 SWAP1 DUP2 MSTORE PUSH1 0x13 PUSH1 0x20 MSTORE PUSH1 0x40 SWAP1 KECCAK256 SSTORE POP JUMP JUMPDEST PUSH1 0x1 PUSH1 0x1 PUSH1 0xA0 SHL SUB DUP1 DUP4 AND PUSH1 0x0 SWAP1 DUP2 MSTORE PUSH1 0x10 PUSH1 0x20 SWAP1 DUP2 MSTORE PUSH1 0x40 DUP1 DUP4 KECCAK256 SLOAD SWAP4 DUP6 AND DUP4 MSTORE PUSH1 0x13 SWAP1 SWAP2 MSTORE SWAP1 KECCAK256 SLOAD PUSH2 0x1F13 SWAP2 SWAP1 PUSH2 0x228B JUMP JUMPDEST PUSH1 0x1 PUSH1 0x1 PUSH1 0xA0 SHL SUB SWAP2 DUP3 AND PUSH1 0x0 DUP2 DUP2 MSTORE PUSH1 0x13 PUSH1 0x20 SWAP1 DUP2 MSTORE PUSH1 0x40 DUP1 DUP4 KECCAK256 SWAP5 SWAP1 SWAP5 SSTORE SWAP5 SWAP1 SWAP4 AND DUP4 MSTORE PUSH1 0xF SWAP1 SWAP4 MSTORE SWAP1 KECCAK256 DUP1 SLOAD PUSH1 0x1 PUSH1 0x1 PUSH1 0xA0 SHL SUB NOT AND SWAP1 SWAP2 OR SWAP1 SSTORE JUMP JUMPDEST PUSH1 0x0 DUP1 PUSH1 0x0 JUMPDEST PUSH1 0x14 SLOAD DUP2 LT ISZERO PUSH2 0x1FC4 JUMPI PUSH1 0x0 PUSH1 0x14 DUP3 DUP2 SLOAD DUP2 LT PUSH2 0x1F78 JUMPI PUSH2 0x1F78 PUSH2 0x249C JUMP JUMPDEST PUSH1 0x0 SWAP2 DUP3 MSTORE PUSH1 0x20 DUP1 DUP4 KECCAK256 SWAP1 SWAP2 ADD SLOAD PUSH1 0x1 PUSH1 0x1 PUSH1 0xA0 SHL SUB AND DUP1 DUP4 MSTORE PUSH1 0x13 SWAP1 SWAP2 MSTORE PUSH1 0x40 SWAP1 SWAP2 KECCAK256 SLOAD SWAP1 SWAP2 POP DUP5 DUP2 GT ISZERO PUSH2 0x1FAF JUMPI DUP1 SWAP5 POP DUP2 SWAP4 POP JUMPDEST POP POP DUP1 DUP1 PUSH2 0x1FBC SWAP1 PUSH2 0x242B JUMP JUMPDEST SWAP2 POP POP PUSH2 0x1F59 JUMP JUMPDEST POP PUSH1 0x16 SLOAD PUSH1 0x1 PUSH1 0x1 PUSH1 0xA0 SHL SUB DUP3 DUP2 AND SWAP2 AND EQ ISZERO PUSH2 0x1FDF JUMPI POP POP JUMP JUMPDEST PUSH1 0x16 SLOAD PUSH1 0x40 DUP1 MLOAD PUSH1 0x1 PUSH1 0x1 PUSH1 0xA0 SHL SUB SWAP3 DUP4 AND DUP2 MSTORE SWAP2 DUP4 AND PUSH1 0x20 DUP4 ADD MSTORE PUSH32 0x4611BA562B1BE5E5BAF710C558258FE11B3EEB5D1D1358F3DBFCED2E3B1C24E SWAP2 ADD PUSH1 0x40 MLOAD DUP1 SWAP2 SUB SWAP1 LOG1 PUSH1 0x16 DUP1 SLOAD PUSH1 0x1 PUSH1 0x1 PUSH1 0xA0 SHL SUB NOT AND PUSH1 0x1 PUSH1 0x1 PUSH1 0xA0 SHL SUB SWAP3 SWAP1 SWAP3 AND SWAP2 SWAP1 SWAP2 OR SWAP1 SSTORE POP JUMP JUMPDEST PUSH1 0x0 DUP2 PUSH2 0x2058 JUMPI PUSH2 0x2058 PUSH2 0x245A JUMP JUMPDEST DUP2 PUSH2 0x206D PUSH10 0xD3C21BCECCEDA1000000 DUP1 PUSH2 0x22E5 JUMP JUMPDEST PUSH2 0x683 SWAP2 SWAP1 PUSH2 0x22A3 JUMP JUMPDEST PUSH1 0x40 MLOAD DUP1 PUSH2 0x180 ADD PUSH1 0x40 MSTORE DUP1 PUSH1 0xC SWAP1 PUSH1 0x20 DUP3 MUL DUP1 CALLDATASIZE DUP4 CALLDATACOPY POP SWAP2 SWAP3 SWAP2 POP POP JUMP JUMPDEST POP DUP1 SLOAD PUSH1 0x0 DUP3 SSTORE SWAP1 PUSH1 0x0 MSTORE PUSH1 0x20 PUSH1 0x0 KECCAK256 SWAP1 DUP2 ADD SWAP1 PUSH2 0x9F4 SWAP2 SWAP1 JUMPDEST DUP1 DUP3 GT ISZERO PUSH2 0x20C4 JUMPI PUSH1 0x0 DUP2 SSTORE PUSH1 0x1 ADD PUSH2 0x20B0 JUMP JUMPDEST POP SWAP1 JUMP JUMPDEST DUP1 CALLDATALOAD PUSH1 0x1 PUSH1 0x1 PUSH1 0xA0 SHL SUB DUP2 AND DUP2 EQ PUSH2 0x20DF JUMPI PUSH1 0x0 DUP1 REVERT JUMPDEST SWAP2 SWAP1 POP JUMP JUMPDEST PUSH1 0x0 PUSH1 0x20 DUP3 DUP5 SUB SLT ISZERO PUSH2 0x20F6 JUMPI PUSH1 0x0 DUP1 REVERT JUMPDEST PUSH2 0xDD7 DUP3 PUSH2 0x20C8 JUMP JUMPDEST PUSH1 0x0 DUP1 PUSH1 0x40 DUP4 DUP6 SUB SLT ISZERO PUSH2 0x2112 JUMPI PUSH1 0x0 DUP1 REVERT JUMPDEST PUSH2 0x211B DUP4 PUSH2 0x20C8 JUMP JUMPDEST SWAP2 POP PUSH2 0x2129 PUSH1 0x20 DUP5 ADD PUSH2 0x20C8 JUMP JUMPDEST SWAP1 POP SWAP3 POP SWAP3 SWAP1 POP JUMP JUMPDEST PUSH1 0x0 DUP1 PUSH1 0x0 PUSH1 0x60 DUP5 DUP7 SUB SLT ISZERO PUSH2 0x2147 JUMPI PUSH1 0x0 DUP1 REVERT JUMPDEST PUSH2 0x2150 DUP5 PUSH2 0x20C8 JUMP JUMPDEST SWAP3 POP PUSH2 0x215E PUSH1 0x20 DUP6 ADD PUSH2 0x20C8 JUMP JUMPDEST SWAP2 POP PUSH1 0x40 DUP5 ADD CALLDATALOAD SWAP1 POP SWAP3 POP SWAP3 POP SWAP3 JUMP JUMPDEST PUSH1 0x0 DUP1 PUSH1 0x40 DUP4 DUP6 SUB SLT ISZERO PUSH2 0x2181 JUMPI PUSH1 0x0 DUP1 REVERT JUMPDEST PUSH2 0x218A DUP4 PUSH2 0x20C8 JUMP JUMPDEST SWAP5 PUSH1 0x20 SWAP4 SWAP1 SWAP4 ADD CALLDATALOAD SWAP4 POP POP POP JUMP JUMPDEST PUSH1 0x0 PUSH1 0x20 DUP3 DUP5 SUB SLT ISZERO PUSH2 0x21AA JUMPI PUSH1 0x0 DUP1 REVERT JUMPDEST DUP2 MLOAD DUP1 ISZERO ISZERO DUP2 EQ PUSH2 0xDD7 JUMPI PUSH1 0x0 DUP1 REVERT JUMPDEST PUSH1 0x0 PUSH1 0x20 DUP3 DUP5 SUB SLT ISZERO PUSH2 0x21CC JUMPI PUSH1 0x0 DUP1 REVERT JUMPDEST POP CALLDATALOAD SWAP2 SWAP1 POP JUMP JUMPDEST PUSH1 0x0 DUP1 PUSH1 0x40 DUP4 DUP6 SUB SLT ISZERO PUSH2 0x21E6 JUMPI PUSH1 0x0 DUP1 REVERT JUMPDEST POP POP DUP1 CALLDATALOAD SWAP3 PUSH1 0x20 SWAP1 SWAP2 ADD CALLDATALOAD SWAP2 POP JUMP JUMPDEST PUSH1 0x0 PUSH1 0x20 DUP1 DUP4 MSTORE DUP4 MLOAD DUP1 DUP3 DUP6 ADD MSTORE PUSH1 0x0 JUMPDEST DUP2 DUP2 LT ISZERO PUSH2 0x2222 JUMPI DUP6 DUP2 ADD DUP4 ADD MLOAD DUP6 DUP3 ADD PUSH1 0x40 ADD MSTORE DUP3 ADD PUSH2 0x2206 JUMP JUMPDEST DUP2 DUP2 GT ISZERO PUSH2 0x2234 JUMPI PUSH1 0x0 PUSH1 0x40 DUP4 DUP8 ADD ADD MSTORE JUMPDEST POP PUSH1 0x1F ADD PUSH1 0x1F NOT AND SWAP3 SWAP1 SWAP3 ADD PUSH1 0x40 ADD SWAP4 SWAP3 POP POP POP JUMP JUMPDEST PUSH1 0x0 DUP1 DUP3 SLT DUP1 ISZERO PUSH1 0x1 PUSH1 0x1 PUSH1 0xFF SHL SUB DUP5 SWAP1 SUB DUP6 SGT AND ISZERO PUSH2 0x226C JUMPI PUSH2 0x226C PUSH2 0x2470 JUMP JUMPDEST PUSH1 0x1 PUSH1 0xFF SHL DUP4 SWAP1 SUB DUP5 SLT DUP2 AND ISZERO PUSH2 0x2285 JUMPI PUSH2 0x2285 PUSH2 0x2470 JUMP JUMPDEST POP POP ADD SWAP1 JUMP JUMPDEST PUSH1 0x0 DUP3 NOT DUP3 GT ISZERO PUSH2 0x229E JUMPI PUSH2 0x229E PUSH2 0x2470 JUMP JUMPDEST POP ADD SWAP1 JUMP JUMPDEST PUSH1 0x0 DUP3 PUSH2 0x22B2 JUMPI PUSH2 0x22B2 PUSH2 0x2486 JUMP JUMPDEST PUSH1 0x1 PUSH1 0xFF SHL DUP3 EQ PUSH1 0x0 NOT DUP5 EQ AND ISZERO PUSH2 0x22CC JUMPI PUSH2 0x22CC PUSH2 0x2470 JUMP JUMPDEST POP SDIV SWAP1 JUMP JUMPDEST PUSH1 0x0 DUP3 PUSH2 0x22E0 JUMPI PUSH2 0x22E0 PUSH2 0x2486 JUMP JUMPDEST POP DIV SWAP1 JUMP JUMPDEST PUSH1 0x0 PUSH1 0x1 PUSH1 0x1 PUSH1 0xFF SHL SUB DUP2 DUP5 SGT DUP3 DUP5 SGT DUP1 DUP3 AND DUP7 DUP5 DIV DUP7 GT AND ISZERO PUSH2 0x230B JUMPI PUSH2 0x230B PUSH2 0x2470 JUMP JUMPDEST PUSH1 0x1 PUSH1 0xFF SHL PUSH1 0x0 DUP8 SLT DUP3 DUP2 AND DUP8 DUP4 SDIV DUP10 SLT AND ISZERO PUSH2 0x232A JUMPI PUSH2 0x232A PUSH2 0x2470 JUMP JUMPDEST PUSH1 0x0 DUP8 SLT SWAP3 POP DUP8 DUP3 SDIV DUP8 SLT DUP5 DUP5 AND AND ISZERO PUSH2 0x2346 JUMPI PUSH2 0x2346 PUSH2 0x2470 JUMP JUMPDEST DUP8 DUP6 SDIV DUP8 SLT DUP2 DUP5 AND AND ISZERO PUSH2 0x235C JUMPI PUSH2 0x235C PUSH2 0x2470 JUMP JUMPDEST POP POP POP SWAP3 SWAP1 SWAP4 MUL SWAP4 SWAP3 POP POP POP JUMP JUMPDEST PUSH1 0x0 DUP2 PUSH1 0x0 NOT DIV DUP4 GT DUP3 ISZERO ISZERO AND ISZERO PUSH2 0x2384 JUMPI PUSH2 0x2384 PUSH2 0x2470 JUMP JUMPDEST POP MUL SWAP1 JUMP JUMPDEST PUSH1 0x0 DUP1 DUP4 SLT DUP1 ISZERO PUSH1 0x1 PUSH1 0xFF SHL DUP6 ADD DUP5 SLT AND ISZERO PUSH2 0x23A7 JUMPI PUSH2 0x23A7 PUSH2 0x2470 JUMP JUMPDEST PUSH1 0x1 PUSH1 0x1 PUSH1 0xFF SHL SUB DUP5 ADD DUP4 SGT DUP2 AND ISZERO PUSH2 0x23C2 JUMPI PUSH2 0x23C2 PUSH2 0x2470 JUMP JUMPDEST POP POP SUB SWAP1 JUMP JUMPDEST PUSH1 0x0 DUP3 DUP3 LT ISZERO PUSH2 0x23DA JUMPI PUSH2 0x23DA PUSH2 0x2470 JUMP JUMPDEST POP SUB SWAP1 JUMP JUMPDEST PUSH1 0x0 DUP2 PUSH2 0x23EE JUMPI PUSH2 0x23EE PUSH2 0x2470 JUMP JUMPDEST POP PUSH1 0x0 NOT ADD SWAP1 JUMP JUMPDEST PUSH1 0x1 DUP2 DUP2 SHR SWAP1 DUP3 AND DUP1 PUSH2 0x240A JUMPI PUSH1 0x7F DUP3 AND SWAP2 POP JUMPDEST PUSH1 0x20 DUP3 LT DUP2 EQ ISZERO PUSH2 0x1DA5 JUMPI PUSH4 0x4E487B71 PUSH1 0xE0 SHL PUSH1 0x0 MSTORE PUSH1 0x22 PUSH1 0x4 MSTORE PUSH1 0x24 PUSH1 0x0 REVERT JUMPDEST PUSH1 0x0 PUSH1 0x0 NOT DUP3 EQ ISZERO PUSH2 0x243F JUMPI PUSH2 0x243F PUSH2 0x2470 JUMP JUMPDEST POP PUSH1 0x1 ADD SWAP1 JUMP JUMPDEST PUSH1 0x0 DUP3 PUSH2 0x2455 JUMPI PUSH2 0x2455 PUSH2 0x2486 JUMP JUMPDEST POP MOD SWAP1 JUMP JUMPDEST PUSH4 0x4E487B71 PUSH1 0xE0 SHL PUSH1 0x0 MSTORE PUSH1 0x1 PUSH1 0x4 MSTORE PUSH1 0x24 PUSH1 0x0 REVERT JUMPDEST PUSH4 0x4E487B71 PUSH1 0xE0 SHL PUSH1 0x0 MSTORE PUSH1 0x11 PUSH1 0x4 MSTORE PUSH1 0x24 PUSH1 0x0 REVERT JUMPDEST PUSH4 0x4E487B71 PUSH1 0xE0 SHL PUSH1 0x0 MSTORE PUSH1 0x12 PUSH1 0x4 MSTORE PUSH1 0x24 PUSH1 0x0 REVERT JUMPDEST PUSH4 0x4E487B71 PUSH1 0xE0 SHL PUSH1 0x0 MSTORE PUSH1 0x32 PUSH1 0x4 MSTORE PUSH1 0x24 PUSH1 0x0 REVERT INVALID LOG2 PUSH5 0x6970667358 0x22 SLT KECCAK256 0xA7 0x4D 0xAC PUSH26 0x226A9EBF5936578B8750C547B35EB081C33490F7D4F2DD0479D3 DUP1 0xEF PUSH5 0x736F6C6343 STOP ADDMOD SMOD STOP CALLER "
		},
		"gasEstimates": {
			"creation": {
				"codeDepositCost": "1889600",
				"executionCost": "infinite",
				"totalCost": "infinite"
			},
			"external": {
				"HoneyBadgerAddress()": "2471",
				"HoneyBadgerFuelTankAddress()": "2449",
				"allowance(address,address)": "infinite",
				"approve(address,uint256)": "24687",
				"balanceOf(address)": "infinite",
				"calculateYield(uint256,uint256)": "infinite",
				"contractStart()": "2348",
				"currentCharityWallet()": "2448",
				"currentVotes(address)": "2668",
				"currentlyStaked(address)": "2664",
				"decimals()": "2335",
				"decreaseAllowance(address,uint256)": "27057",
				"getBlockTime()": "248",
				"increaseAllowance(address,uint256)": "27024",
				"initializeCoinThruster()": "infinite",
				"isStaked(address)": "2606",
				"launched()": "2356",
				"name()": "infinite",
				"periodStart(address)": "2576",
				"rebuildVotingIterator()": "infinite",
				"reifyYield(address)": "infinite",
				"stakeWallet()": "134601",
				"stakingCoordinatesAmount(address)": "2641",
				"stakingCoordinatesTime(address)": "2552",
				"swapEndTime()": "2416",
				"swapHoneyBadger(uint256)": "infinite",
				"symbol()": "infinite",
				"totalStartingSupply()": "2374",
				"totalSupply()": "2327",
				"transfer(address,uint256)": "infinite",
				"transferFrom(address,address,uint256)": "infinite",
				"unlockStartTime(address)": "2576",
				"unstakeWallet()": "infinite",
				"unstakeWalletSansReify()": "infinite",
				"voteCounts(address)": "2597",
				"voteForAddress(address)": "infinite",
				"voteIterator(uint256)": "4748",
				"voteIteratorLength()": "2415",
				"voteWeights(address)": "2619",
				"voteWithRebuildIfNecessary(address)": "infinite",
				"walletWasVotedFor(address)": "2620"
			},
			"internal": {
				"_approve(address,address,uint256)": "infinite",
				"_stakeWalletFor(address)": "infinite",
				"_swapHoneyBadgerInternal(address,uint256)": "infinite",
				"_transfer(address,address,uint256)": "infinite",
				"_unstakeWalletFor(address,bool)": "infinite",
				"_voteForAddressBy(address,address)": "infinite",
				"addVoteWeight(address,address)": "50981",
				"enoughFundsToStake(address)": "infinite",
				"getCompoundingFactor(address)": "2290",
				"getTransactionFee(uint256)": "2470",
				"isUnlocked(address)": "7423",
				"removeVoteWeight(address)": "28814",
				"setVoteWeight(address)": "infinite",
				"trackCandidate(address)": "infinite",
				"updateCharityWallet()": "infinite",
				"validCharityWallet()": "6524"
			}
		},
		"methodIdentifiers": {
			"HoneyBadgerAddress()": "2681eb81",
			"HoneyBadgerFuelTankAddress()": "923e7074",
			"allowance(address,address)": "dd62ed3e",
			"approve(address,uint256)": "095ea7b3",
			"balanceOf(address)": "70a08231",
			"calculateYield(uint256,uint256)": "043cbe5b",
			"contractStart()": "9aa13f04",
			"currentCharityWallet()": "c31db906",
			"currentVotes(address)": "e593c34b",
			"currentlyStaked(address)": "c57db2c0",
			"decimals()": "313ce567",
			"decreaseAllowance(address,uint256)": "a457c2d7",
			"getBlockTime()": "87ceff09",
			"increaseAllowance(address,uint256)": "39509351",
			"initializeCoinThruster()": "0cc874c7",
			"isStaked(address)": "6177fd18",
			"launched()": "8091f3bf",
			"name()": "06fdde03",
			"periodStart(address)": "37425fa0",
			"rebuildVotingIterator()": "59357df5",
			"reifyYield(address)": "a8ce45a9",
			"stakeWallet()": "0f9154b5",
			"stakingCoordinatesAmount(address)": "a73d1b06",
			"stakingCoordinatesTime(address)": "d0dc0d80",
			"swapEndTime()": "efebc720",
			"swapHoneyBadger(uint256)": "9da37a11",
			"symbol()": "95d89b41",
			"totalStartingSupply()": "8a702625",
			"totalSupply()": "18160ddd",
			"transfer(address,uint256)": "a9059cbb",
			"transferFrom(address,address,uint256)": "23b872dd",
			"unlockStartTime(address)": "21ac17f8",
			"unstakeWallet()": "62ad0b15",
			"unstakeWalletSansReify()": "d643391f",
			"voteCounts(address)": "66a267a9",
			"voteForAddress(address)": "f6f70594",
			"voteIterator(uint256)": "611cda25",
			"voteIteratorLength()": "94e0b68a",
			"voteWeights(address)": "67cc910f",
			"voteWithRebuildIfNecessary(address)": "23c40de2",
			"walletWasVotedFor(address)": "aab7c9eb"
		}
	},
	"abi": [
		{
			"inputs": [
				{
					"internalType": "address",
					"name": "_HoneyBadgerAddress",
					"type": "address"
				},
				{
					"internalType": "address",
					"name": "_HoneyBadgerFuelTankAddress",
					"type": "address"
				}
			],
			"stateMutability": "nonpayable",
			"type": "constructor"
		},
		{
			"anonymous": false,
			"inputs": [
				{
					"indexed": true,
					"internalType": "address",
					"name": "owner",
					"type": "address"
				},
				{
					"indexed": true,
					"internalType": "address",
					"name": "spender",
					"type": "address"
				},
				{
					"indexed": false,
					"internalType": "uint256",
					"name": "value",
					"type": "uint256"
				}
			],
			"name": "Approval",
			"type": "event"
		},
		{
			"anonymous": false,
			"inputs": [
				{
					"indexed": false,
					"internalType": "address",
					"name": "oldW",
					"type": "address"
				},
				{
					"indexed": false,
					"internalType": "address",
					"name": "newW",
					"type": "address"
				}
			],
			"name": "NewCharityWallet",
			"type": "event"
		},
		{
			"anonymous": false,
			"inputs": [
				{
					"indexed": true,
					"internalType": "address",
					"name": "from",
					"type": "address"
				},
				{
					"indexed": true,
					"internalType": "address",
					"name": "to",
					"type": "address"
				},
				{
					"indexed": false,
					"internalType": "uint256",
					"name": "value",
					"type": "uint256"
				}
			],
			"name": "Transfer",
			"type": "event"
		},
		{
			"inputs": [],
			"name": "HoneyBadgerAddress",
			"outputs": [
				{
					"internalType": "address",
					"name": "",
					"type": "address"
				}
			],
			"stateMutability": "view",
			"type": "function"
		},
		{
			"inputs": [],
			"name": "HoneyBadgerFuelTankAddress",
			"outputs": [
				{
					"internalType": "address",
					"name": "",
					"type": "address"
				}
			],
			"stateMutability": "view",
			"type": "function"
		},
		{
			"inputs": [
				{
					"internalType": "address",
					"name": "owner",
					"type": "address"
				},
				{
					"internalType": "address",
					"name": "spender",
					"type": "address"
				}
			],
			"name": "allowance",
			"outputs": [
				{
					"internalType": "uint256",
					"name": "",
					"type": "uint256"
				}
			],
			"stateMutability": "view",
			"type": "function"
		},
		{
			"inputs": [
				{
					"internalType": "address",
					"name": "spender",
					"type": "address"
				},
				{
					"internalType": "uint256",
					"name": "amount",
					"type": "uint256"
				}
			],
			"name": "approve",
			"outputs": [
				{
					"internalType": "bool",
					"name": "",
					"type": "bool"
				}
			],
			"stateMutability": "nonpayable",
			"type": "function"
		},
		{
			"inputs": [
				{
					"internalType": "address",
					"name": "account",
					"type": "address"
				}
			],
			"name": "balanceOf",
			"outputs": [
				{
					"internalType": "uint256",
					"name": "",
					"type": "uint256"
				}
			],
			"stateMutability": "view",
			"type": "function"
		},
		{
			"inputs": [
				{
					"internalType": "uint256",
					"name": "principal",
					"type": "uint256"
				},
				{
					"internalType": "uint256",
					"name": "n",
					"type": "uint256"
				}
			],
			"name": "calculateYield",
			"outputs": [
				{
					"internalType": "uint256",
					"name": "",
					"type": "uint256"
				}
			],
			"stateMutability": "pure",
			"type": "function"
		},
		{
			"inputs": [],
			"name": "contractStart",
			"outputs": [
				{
					"internalType": "uint256",
					"name": "",
					"type": "uint256"
				}
			],
			"stateMutability": "view",
			"type": "function"
		},
		{
			"inputs": [],
			"name": "currentCharityWallet",
			"outputs": [
				{
					"internalType": "address",
					"name": "",
					"type": "address"
				}
			],
			"stateMutability": "view",
			"type": "function"
		},
		{
			"inputs": [
				{
					"internalType": "address",
					"name": "",
					"type": "address"
				}
			],
			"name": "currentVotes",
			"outputs": [
				{
					"internalType": "address",
					"name": "",
					"type": "address"
				}
			],
			"stateMutability": "view",
			"type": "function"
		},
		{
			"inputs": [
				{
					"internalType": "address",
					"name": "",
					"type": "address"
				}
			],
			"name": "currentlyStaked",
			"outputs": [
				{
					"internalType": "bool",
					"name": "",
					"type": "bool"
				}
			],
			"stateMutability": "view",
			"type": "function"
		},
		{
			"inputs": [],
			"name": "decimals",
			"outputs": [
				{
					"internalType": "uint8",
					"name": "",
					"type": "uint8"
				}
			],
			"stateMutability": "view",
			"type": "function"
		},
		{
			"inputs": [
				{
					"internalType": "address",
					"name": "spender",
					"type": "address"
				},
				{
					"internalType": "uint256",
					"name": "subtractedValue",
					"type": "uint256"
				}
			],
			"name": "decreaseAllowance",
			"outputs": [
				{
					"internalType": "bool",
					"name": "",
					"type": "bool"
				}
			],
			"stateMutability": "nonpayable",
			"type": "function"
		},
		{
			"inputs": [],
			"name": "getBlockTime",
			"outputs": [
				{
					"internalType": "uint256",
					"name": "",
					"type": "uint256"
				}
			],
			"stateMutability": "view",
			"type": "function"
		},
		{
			"inputs": [
				{
					"internalType": "address",
					"name": "spender",
					"type": "address"
				},
				{
					"internalType": "uint256",
					"name": "addedValue",
					"type": "uint256"
				}
			],
			"name": "increaseAllowance",
			"outputs": [
				{
					"internalType": "bool",
					"name": "",
					"type": "bool"
				}
			],
			"stateMutability": "nonpayable",
			"type": "function"
		},
		{
			"inputs": [],
			"name": "initializeCoinThruster",
			"outputs": [],
			"stateMutability": "nonpayable",
			"type": "function"
		},
		{
			"inputs": [
				{
					"internalType": "address",
					"name": "wallet",
					"type": "address"
				}
			],
			"name": "isStaked",
			"outputs": [
				{
					"internalType": "bool",
					"name": "",
					"type": "bool"
				}
			],
			"stateMutability": "view",
			"type": "function"
		},
		{
			"inputs": [],
			"name": "launched",
			"outputs": [
				{
					"internalType": "bool",
					"name": "",
					"type": "bool"
				}
			],
			"stateMutability": "view",
			"type": "function"
		},
		{
			"inputs": [],
			"name": "name",
			"outputs": [
				{
					"internalType": "string",
					"name": "",
					"type": "string"
				}
			],
			"stateMutability": "view",
			"type": "function"
		},
		{
			"inputs": [
				{
					"internalType": "address",
					"name": "",
					"type": "address"
				}
			],
			"name": "periodStart",
			"outputs": [
				{
					"internalType": "uint256",
					"name": "",
					"type": "uint256"
				}
			],
			"stateMutability": "view",
			"type": "function"
		},
		{
			"inputs": [],
			"name": "rebuildVotingIterator",
			"outputs": [],
			"stateMutability": "nonpayable",
			"type": "function"
		},
		{
			"inputs": [
				{
					"internalType": "address",
					"name": "wallet",
					"type": "address"
				}
			],
			"name": "reifyYield",
			"outputs": [],
			"stateMutability": "nonpayable",
			"type": "function"
		},
		{
			"inputs": [],
			"name": "stakeWallet",
			"outputs": [
				{
					"internalType": "bool",
					"name": "",
					"type": "bool"
				}
			],
			"stateMutability": "nonpayable",
			"type": "function"
		},
		{
			"inputs": [
				{
					"internalType": "address",
					"name": "",
					"type": "address"
				}
			],
			"name": "stakingCoordinatesAmount",
			"outputs": [
				{
					"internalType": "uint256",
					"name": "",
					"type": "uint256"
				}
			],
			"stateMutability": "view",
			"type": "function"
		},
		{
			"inputs": [
				{
					"internalType": "address",
					"name": "",
					"type": "address"
				}
			],
			"name": "stakingCoordinatesTime",
			"outputs": [
				{
					"internalType": "uint256",
					"name": "",
					"type": "uint256"
				}
			],
			"stateMutability": "view",
			"type": "function"
		},
		{
			"inputs": [],
			"name": "swapEndTime",
			"outputs": [
				{
					"internalType": "uint256",
					"name": "",
					"type": "uint256"
				}
			],
			"stateMutability": "view",
			"type": "function"
		},
		{
			"inputs": [
				{
					"internalType": "uint256",
					"name": "amount",
					"type": "uint256"
				}
			],
			"name": "swapHoneyBadger",
			"outputs": [],
			"stateMutability": "nonpayable",
			"type": "function"
		},
		{
			"inputs": [],
			"name": "symbol",
			"outputs": [
				{
					"internalType": "string",
					"name": "",
					"type": "string"
				}
			],
			"stateMutability": "view",
			"type": "function"
		},
		{
			"inputs": [],
			"name": "totalStartingSupply",
			"outputs": [
				{
					"internalType": "uint256",
					"name": "",
					"type": "uint256"
				}
			],
			"stateMutability": "view",
			"type": "function"
		},
		{
			"inputs": [],
			"name": "totalSupply",
			"outputs": [
				{
					"internalType": "uint256",
					"name": "",
					"type": "uint256"
				}
			],
			"stateMutability": "view",
			"type": "function"
		},
		{
			"inputs": [
				{
					"internalType": "address",
					"name": "recipient",
					"type": "address"
				},
				{
					"internalType": "uint256",
					"name": "amount",
					"type": "uint256"
				}
			],
			"name": "transfer",
			"outputs": [
				{
					"internalType": "bool",
					"name": "",
					"type": "bool"
				}
			],
			"stateMutability": "nonpayable",
			"type": "function"
		},
		{
			"inputs": [
				{
					"internalType": "address",
					"name": "sender",
					"type": "address"
				},
				{
					"internalType": "address",
					"name": "recipient",
					"type": "address"
				},
				{
					"internalType": "uint256",
					"name": "amount",
					"type": "uint256"
				}
			],
			"name": "transferFrom",
			"outputs": [
				{
					"internalType": "bool",
					"name": "",
					"type": "bool"
				}
			],
			"stateMutability": "nonpayable",
			"type": "function"
		},
		{
			"inputs": [
				{
					"internalType": "address",
					"name": "",
					"type": "address"
				}
			],
			"name": "unlockStartTime",
			"outputs": [
				{
					"internalType": "uint256",
					"name": "",
					"type": "uint256"
				}
			],
			"stateMutability": "view",
			"type": "function"
		},
		{
			"inputs": [],
			"name": "unstakeWallet",
			"outputs": [],
			"stateMutability": "nonpayable",
			"type": "function"
		},
		{
			"inputs": [],
			"name": "unstakeWalletSansReify",
			"outputs": [],
			"stateMutability": "nonpayable",
			"type": "function"
		},
		{
			"inputs": [
				{
					"internalType": "address",
					"name": "",
					"type": "address"
				}
			],
			"name": "voteCounts",
			"outputs": [
				{
					"internalType": "uint256",
					"name": "",
					"type": "uint256"
				}
			],
			"stateMutability": "view",
			"type": "function"
		},
		{
			"inputs": [
				{
					"internalType": "address",
					"name": "charityWalletVote",
					"type": "address"
				}
			],
			"name": "voteForAddress",
			"outputs": [],
			"stateMutability": "nonpayable",
			"type": "function"
		},
		{
			"inputs": [
				{
					"internalType": "uint256",
					"name": "",
					"type": "uint256"
				}
			],
			"name": "voteIterator",
			"outputs": [
				{
					"internalType": "address",
					"name": "",
					"type": "address"
				}
			],
			"stateMutability": "view",
			"type": "function"
		},
		{
			"inputs": [],
			"name": "voteIteratorLength",
			"outputs": [
				{
					"internalType": "uint256",
					"name": "",
					"type": "uint256"
				}
			],
			"stateMutability": "view",
			"type": "function"
		},
		{
			"inputs": [
				{
					"internalType": "address",
					"name": "",
					"type": "address"
				}
			],
			"name": "voteWeights",
			"outputs": [
				{
					"internalType": "uint256",
					"name": "",
					"type": "uint256"
				}
			],
			"stateMutability": "view",
			"type": "function"
		},
		{
			"inputs": [
				{
					"internalType": "address",
					"name": "charityWalletVote",
					"type": "address"
				}
			],
			"name": "voteWithRebuildIfNecessary",
			"outputs": [],
			"stateMutability": "nonpayable",
			"type": "function"
		},
		{
			"inputs": [
				{
					"internalType": "address",
					"name": "",
					"type": "address"
				}
			],
			"name": "walletWasVotedFor",
			"outputs": [
				{
					"internalType": "bool",
					"name": "",
					"type": "bool"
				}
			],
			"stateMutability": "view",
			"type": "function"
		}
	]
}